{
  "contractName": "CloseOrder",
  "abi": [
    {
      "inputs": [
        {
          "internalType": "address",
          "name": "_nocturnalFinance",
          "type": "address"
        },
        {
          "internalType": "address",
          "name": "_WETH",
          "type": "address"
        }
      ],
      "stateMutability": "nonpayable",
      "type": "constructor"
    },
    {
      "anonymous": false,
      "inputs": [
        {
          "indexed": false,
          "internalType": "uint256",
          "name": "_orderID",
          "type": "uint256"
        }
      ],
      "name": "orderClosed",
      "type": "event"
    },
    {
      "inputs": [],
      "name": "nocturnalFinance",
      "outputs": [
        {
          "internalType": "contract NocturnalFinanceInterface",
          "name": "",
          "type": "address"
        }
      ],
      "stateMutability": "view",
      "type": "function",
      "constant": true
    },
    {
      "inputs": [
        {
          "internalType": "uint256",
          "name": "_orderID",
          "type": "uint256"
        },
        {
          "components": [
            {
              "internalType": "address",
              "name": "orderAddress",
              "type": "address"
            },
            {
              "internalType": "address",
              "name": "poolAddress",
              "type": "address"
            },
            {
              "internalType": "address",
              "name": "fromTokenAddress",
              "type": "address"
            },
            {
              "internalType": "address",
              "name": "toTokenAddress",
              "type": "address"
            },
            {
              "internalType": "uint256",
              "name": "tokenBalance",
              "type": "uint256"
            },
            {
              "internalType": "bool",
              "name": "depositedFlag",
              "type": "bool"
            },
            {
              "internalType": "bool",
              "name": "settledFlag",
              "type": "bool"
            },
            {
              "internalType": "bool",
              "name": "closedFlag",
              "type": "bool"
            }
          ],
          "internalType": "struct CloseOrderInterface.CloseParams",
          "name": "params",
          "type": "tuple"
        }
      ],
      "name": "closeOrder",
      "outputs": [],
      "stateMutability": "nonpayable",
      "type": "function"
    }
  ],
  "bytecode": "0x608060405234801561001057600080fd5b506040516109c83803806109c883398101604081905261002f9161007c565b600180546001600160a01b039384166001600160a01b031991821617909155600080549290931691161790556100ae565b80516001600160a01b038116811461007757600080fd5b919050565b6000806040838503121561008e578182fd5b61009783610060565b91506100a560208401610060565b90509250929050565b61090b806100bd6000396000f3fe608060405234801561001057600080fd5b50600436106100365760003560e01c8063b08b1f7c1461003b578063ee64deab14610050575b600080fd5b61004e6100493660046107ba565b61006e565b005b61005861073f565b6040516100659190610841565b60405180910390f35b600180546040517f8bf83b0400000000000000000000000000000000000000000000000000000000815273ffffffffffffffffffffffffffffffffffffffff90911691638bf83b04916100c49190600401610862565b60206040518083038186803b1580156100dc57600080fd5b505afa1580156100f0573d6000803e3d6000fd5b505050506040513d601f19601f82011682018060405250810190610114919061077e565b73ffffffffffffffffffffffffffffffffffffffff163373ffffffffffffffffffffffffffffffffffffffff1614610181576040517f08c379a00000000000000000000000000000000000000000000000000000000081526004016101789061086b565b60405180910390fd5b610192610100820160e0830161079a565b1561019c57600080fd5b6001546040517f8bf83b0400000000000000000000000000000000000000000000000000000000815260009173ffffffffffffffffffffffffffffffffffffffff1690638bf83b04906101f490600890600401610862565b60206040518083038186803b15801561020c57600080fd5b505afa158015610220573d6000803e3d6000fd5b505050506040513d601f19601f82011682018060405250810190610244919061077e565b73ffffffffffffffffffffffffffffffffffffffff16636352211e846040518263ffffffff1660e01b815260040161027c9190610862565b60206040518083038186803b15801561029457600080fd5b505afa1580156102a8573d6000803e3d6000fd5b505050506040513d601f19601f820116820180604052508101906102cc919061077e565b90506102de60e0830160c0840161079a565b15156001141561048c576102f5602083018361075b565b73ffffffffffffffffffffffffffffffffffffffff166376fd198a610320608085016060860161075b565b8385608001356040518463ffffffff1660e01b815260040161034493929190610810565b600060405180830381600087803b15801561035e57600080fd5b505af1158015610372573d6000803e3d6000fd5b50506001546040517f8bf83b0400000000000000000000000000000000000000000000000000000000815273ffffffffffffffffffffffffffffffffffffffff9091169250638bf83b0491506103cd90600890600401610862565b60206040518083038186803b1580156103e557600080fd5b505afa1580156103f9573d6000803e3d6000fd5b505050506040513d601f19601f8201168201806040525081019061041d919061077e565b73ffffffffffffffffffffffffffffffffffffffff166342966c68846040518263ffffffff1660e01b81526004016104559190610862565b600060405180830381600087803b15801561046f57600080fd5b505af1158015610483573d6000803e3d6000fd5b505050506105f0565b61049c60c0830160a0840161079a565b1515600114156104de576104b3602083018361075b565b73ffffffffffffffffffffffffffffffffffffffff166376fd198a610320606085016040860161075b565b6001546040517f8bf83b0400000000000000000000000000000000000000000000000000000000815273ffffffffffffffffffffffffffffffffffffffff90911690638bf83b049061053590600890600401610862565b60206040518083038186803b15801561054d57600080fd5b505afa158015610561573d6000803e3d6000fd5b505050506040513d601f19601f82011682018060405250810190610585919061077e565b73ffffffffffffffffffffffffffffffffffffffff166342966c68846040518263ffffffff1660e01b81526004016105bd9190610862565b600060405180830381600087803b1580156105d757600080fd5b505af11580156105eb573d6000803e3d6000fd5b505050505b600180546040517f8bf83b0400000000000000000000000000000000000000000000000000000000815273ffffffffffffffffffffffffffffffffffffffff90911691638bf83b04916106469190600401610862565b60206040518083038186803b15801561065e57600080fd5b505afa158015610672573d6000803e3d6000fd5b505050506040513d601f19601f82011682018060405250810190610696919061077e565b73ffffffffffffffffffffffffffffffffffffffff166347b0d7848460006040518363ffffffff1660e01b81526004016106d19291906108a2565b600060405180830381600087803b1580156106eb57600080fd5b505af11580156106ff573d6000803e3d6000fd5b505050507f3b0d7e909fd4dfb96fadb318ba60fef5de21b729fa11169e0091cf5df750925f836040516107329190610862565b60405180910390a1505050565b60015473ffffffffffffffffffffffffffffffffffffffff1681565b60006020828403121561076c578081fd5b8135610777816108b0565b9392505050565b60006020828403121561078f578081fd5b8151610777816108b0565b6000602082840312156107ab578081fd5b81358015158114610777578182fd5b6000808284036101208112156107ce578182fd5b833592506101007fffffffffffffffffffffffffffffffffffffffffffffffffffffffffffffffe082011215610802578182fd5b506020830190509250929050565b73ffffffffffffffffffffffffffffffffffffffff9384168152919092166020820152604081019190915260600190565b73ffffffffffffffffffffffffffffffffffffffff91909116815260200190565b90815260200190565b6020808252601b908201527f63616c6c6572206973206e6f74206f7264657220666163746f72790000000000604082015260600190565b918252602082015260400190565b73ffffffffffffffffffffffffffffffffffffffff811681146108d257600080fd5b5056fea2646970667358221220bb890f78ead7ab4d8c056fcc1118856cb4f8ce70a2cac88d690c1142bb72026264736f6c63430008000033",
  "immutableReferences": {},
  "source": "/*                              $$\\                                             $$\\                                                         \n                                $$ |                                            $$ |                                                  \n$$$$$$$\\   $$$$$$\\   $$$$$$$\\ $$$$$$\\   $$\\   $$\\  $$$$$$\\  $$$$$$$\\   $$$$$$\\  $$ |     \n$$  __$$\\ $$  __$$\\ $$  _____|\\_$$  _|  $$ |  $$ |$$  __$$\\ $$  __$$\\  \\____$$\\ $$ |    \n$$ |  $$ |$$ /  $$ |$$ /        $$ |    $$ |  $$ |$$ |  \\__|$$ |  $$ | $$$$$$$ |$$ |     \n$$ |  $$ |$$ |  $$ |$$ |        $$ |$$\\ $$ |  $$ |$$ |      $$ |  $$ |$$  __$$ |$$ |     \n$$ |  $$ |\\$$$$$$  |\\$$$$$$$\\   \\$$$$  |\\$$$$$$  |$$ |      $$ |  $$ |\\$$$$$$$ |$$ |      \n\\__|  \\__| \\______/  \\_______|   \\____/  \\______/ \\__|      \\__|  \\__| \\_______|\\__|     \n*/\n\npragma solidity ^0.8.0;\n\nimport \"@openzeppelin/contracts/token/ERC20/IERC20.sol\";\nimport \"@openzeppelin/contracts/utils/math/SafeMath.sol\";\nimport \"@uniswap/v3-core/contracts/interfaces/IUniswapV3Pool.sol\";\nimport \"./Interfaces/CloseOrderInterface.sol\";\nimport {NocturnalFinanceInterface} from \"./Interfaces/NocturnalFinanceInterface.sol\";\nimport {OrderInterface} from \"./Interfaces/OrderInterface.sol\";\nimport {CreateOrderInterface} from \"./Interfaces/CreateOrderInterface.sol\";\n\ncontract CloseOrder is CloseOrderInterface {\n    using SafeMath for uint256;\n\n    event orderClosed(uint256 _orderID);\n    address WETH;\n    \n    NocturnalFinanceInterface public nocturnalFinance;\n    \n    constructor(address _nocturnalFinance, address _WETH) {\n        nocturnalFinance = NocturnalFinanceInterface(_nocturnalFinance);\n        WETH = _WETH;\n    }\n    \n    function closeOrder(uint256 _orderID, CloseParams calldata params) external override {\n        require(msg.sender == nocturnalFinance._contract(1), \"caller is not order factory\");\n        require(params.closedFlag == false);\n        address orderOwnerAddress = OrderInterface(nocturnalFinance._contract(8)).ownerOf(_orderID);\n        \n        if (params.settledFlag == true) {\n            // transfer tokenBalance to owner address\n            OrderInterface(params.orderAddress).orderTransfer(params.toTokenAddress, orderOwnerAddress, (params.tokenBalance));\n            // burn order\n            OrderInterface(nocturnalFinance._contract(8)).burn(_orderID);  \n        } else if (params.depositedFlag == true) {\n            // transfer fromTokenBalance from order to order owner address\n            OrderInterface(params.orderAddress).orderTransfer(params.fromTokenAddress, orderOwnerAddress, params.tokenBalance);\n            // burn order\n            OrderInterface(nocturnalFinance._contract(8)).burn(_orderID);\n        } else {\n            // burn order\n            OrderInterface(nocturnalFinance._contract(8)).burn(_orderID);  \n        }\n        // set tokenBalance to 0 and set order closed flag\n        CreateOrderInterface(nocturnalFinance._contract(1)).setAttributes(_orderID, 0);  \n        // emit events\n        emit orderClosed(_orderID);\n    }\n}\n",
  "sourcePath": "/Users/knott/Desktop/nocturnal/contracts/CloseOrder.sol",
  "compiler": {
    "name": "solc",
    "version": "0.8.0+commit.c7dfd78e.Emscripten.clang"
  },
  "schemaVersion": "3.3.3",
  "updatedAt": "2021-06-13T21:00:46.670Z",
  "networkType": "ethereum",
  "devdoc": {
    "kind": "dev",
    "methods": {},
    "version": 1
  },
  "userdoc": {
    "kind": "user",
    "methods": {},
    "version": 1
  }
}