{
  "contractName": "CreateOrder",
  "abi": [
    {
      "inputs": [
        {
          "internalType": "address",
          "name": "_nocturnalFinance",
          "type": "address"
        },
        {
          "internalType": "address",
          "name": "_WETH",
          "type": "address"
        }
      ],
      "stateMutability": "nonpayable",
      "type": "constructor"
    },
    {
      "anonymous": false,
      "inputs": [
        {
          "indexed": false,
          "internalType": "uint256",
          "name": "_orderID",
          "type": "uint256"
        }
      ],
      "name": "orderCreated",
      "type": "event"
    },
    {
      "inputs": [],
      "name": "nocturnalFinance",
      "outputs": [
        {
          "internalType": "contract NocturnalFinanceInterface",
          "name": "",
          "type": "address"
        }
      ],
      "stateMutability": "view",
      "type": "function",
      "constant": true
    },
    {
      "inputs": [],
      "name": "orderCounter",
      "outputs": [
        {
          "internalType": "uint256",
          "name": "_value",
          "type": "uint256"
        }
      ],
      "stateMutability": "view",
      "type": "function",
      "constant": true
    },
    {
      "inputs": [
        {
          "components": [
            {
              "internalType": "address",
              "name": "poolAddress",
              "type": "address"
            },
            {
              "internalType": "address",
              "name": "fromTokenAddress",
              "type": "address"
            },
            {
              "internalType": "address",
              "name": "toTokenAddress",
              "type": "address"
            },
            {
              "internalType": "uint256",
              "name": "tokenBalance",
              "type": "uint256"
            },
            {
              "internalType": "uint256",
              "name": "limitPrice",
              "type": "uint256"
            },
            {
              "internalType": "bool",
              "name": "limitType",
              "type": "bool"
            },
            {
              "internalType": "uint256",
              "name": "amountOutMin",
              "type": "uint256"
            },
            {
              "internalType": "uint256",
              "name": "settlementGratuity",
              "type": "uint256"
            }
          ],
          "internalType": "struct CreateOrderInterface.CreateParams",
          "name": "params",
          "type": "tuple"
        }
      ],
      "name": "createOrder",
      "outputs": [],
      "stateMutability": "nonpayable",
      "type": "function"
    },
    {
      "inputs": [
        {
          "internalType": "uint256",
          "name": "_orderID",
          "type": "uint256"
        }
      ],
      "name": "depositOrder",
      "outputs": [],
      "stateMutability": "nonpayable",
      "type": "function"
    },
    {
      "inputs": [
        {
          "internalType": "uint256",
          "name": "_orderID",
          "type": "uint256"
        }
      ],
      "name": "settleOrder",
      "outputs": [],
      "stateMutability": "nonpayable",
      "type": "function"
    },
    {
      "inputs": [
        {
          "internalType": "uint256",
          "name": "_orderID",
          "type": "uint256"
        }
      ],
      "name": "closeOrder",
      "outputs": [],
      "stateMutability": "nonpayable",
      "type": "function"
    },
    {
      "inputs": [
        {
          "internalType": "uint256",
          "name": "_orderID",
          "type": "uint256"
        }
      ],
      "name": "orderAttributes",
      "outputs": [
        {
          "internalType": "address",
          "name": "orderAddress",
          "type": "address"
        },
        {
          "internalType": "address",
          "name": "poolAddress",
          "type": "address"
        },
        {
          "internalType": "address",
          "name": "fromTokenAddress",
          "type": "address"
        },
        {
          "internalType": "address",
          "name": "toTokenAddress",
          "type": "address"
        },
        {
          "internalType": "uint256",
          "name": "tokenBalance",
          "type": "uint256"
        },
        {
          "internalType": "uint256",
          "name": "limitPrice",
          "type": "uint256"
        },
        {
          "internalType": "bool",
          "name": "limitType",
          "type": "bool"
        },
        {
          "internalType": "uint256",
          "name": "settlementGratuity",
          "type": "uint256"
        },
        {
          "internalType": "bool",
          "name": "depositedFlag",
          "type": "bool"
        },
        {
          "internalType": "bool",
          "name": "settledFlag",
          "type": "bool"
        }
      ],
      "stateMutability": "view",
      "type": "function",
      "constant": true
    },
    {
      "inputs": [
        {
          "internalType": "uint256",
          "name": "_orderID",
          "type": "uint256"
        },
        {
          "internalType": "uint256",
          "name": "_balance",
          "type": "uint256"
        }
      ],
      "name": "setAttributes",
      "outputs": [],
      "stateMutability": "nonpayable",
      "type": "function"
    }
  ],
  "bytecode": "0x608060405234801561001057600080fd5b506040516200446d3803806200446d8339810160408190526100319161008b565b600480546001600160a01b039384166001600160a01b03199182168117909255600180548216909217909155600280549290931691161790556100bd565b80516001600160a01b038116811461008657600080fd5b919050565b6000806040838503121561009d578182fd5b6100a68361006f565b91506100b46020840161006f565b90509250929050565b6143a080620000cd6000396000f3fe60806040523480156200001157600080fd5b5060043610620000945760003560e01c8063b50e801d1162000063578063b50e801d14620000f7578063b789bf52146200010e578063d54ec8451462000130578063ee64deab146200015f5762000094565b8063069d6d1c146200009957806307098fca14620000b257806347b0d78414620000c95780637ef565f214620000e0575b600080fd5b620000b0620000aa3660046200117f565b62000178565b005b620000b0620000c33660046200117f565b6200048c565b620000b0620000da36600462001198565b620005e0565b620000b0620000f136600462001166565b6200094f565b620000b0620001083660046200117f565b62000e4b565b6200011862000fdb565b60405162000127919062001289565b60405180910390f35b62000147620001413660046200117f565b62000fe1565b604051620001279a99989796959493929190620011fb565b62000169620010c8565b604051620001279190620011da565b600480546040517f8bf83b0400000000000000000000000000000000000000000000000000000000815273ffffffffffffffffffffffffffffffffffffffff90911691638bf83b0491620001d0916008910162001289565b60206040518083038186803b158015620001e957600080fd5b505afa158015620001fe573d6000803e3d6000fd5b505050506040513d601f19601f8201168201806040525081019062000224919062001125565b73ffffffffffffffffffffffffffffffffffffffff16636352211e826040518263ffffffff1660e01b81526004016200025e919062001289565b60206040518083038186803b1580156200027757600080fd5b505afa1580156200028c573d6000803e3d6000fd5b505050506040513d601f19601f82011682018060405250810190620002b2919062001125565b73ffffffffffffffffffffffffffffffffffffffff163373ffffffffffffffffffffffffffffffffffffffff1614620002ea57600080fd5b604080516101008082018352600084815260036020818152858320805473ffffffffffffffffffffffffffffffffffffffff9081168752600182015481168388015260028201548116878901528184015481166060880152600480830154608089015260099092015460ff808216151560a08a01529681048716151560c0890152948990529290915262010000909204909216151560e0840152805493517f8bf83b04000000000000000000000000000000000000000000000000000000008152929390911691638bf83b0491620003c491810162001289565b60206040518083038186803b158015620003dd57600080fd5b505afa158015620003f2573d6000803e3d6000fd5b505050506040513d601f19601f8201168201806040525081019062000418919062001125565b73ffffffffffffffffffffffffffffffffffffffff1663b08b1f7c83836040518363ffffffff1660e01b81526004016200045492919062001292565b600060405180830381600087803b1580156200046f57600080fd5b505af115801562000484573d6000803e3d6000fd5b505050505050565b6040805160c081018252600083815260036020818152848320805473ffffffffffffffffffffffffffffffffffffffff90811686526001820154811683870152600280830154821687890152600480840154606089015260099093015460ff808216151560808a0152968a90529490935262010000909304909316151560a0850152825494517f8bf83b04000000000000000000000000000000000000000000000000000000008152939490911692638bf83b04926200054e92910162001289565b60206040518083038186803b1580156200056757600080fd5b505afa1580156200057c573d6000803e3d6000fd5b505050506040513d601f19601f82011682018060405250810190620005a2919062001125565b73ffffffffffffffffffffffffffffffffffffffff1663292880328383336040518463ffffffff1660e01b815260040162000454939291906200133b565b600480546040517f8bf83b0400000000000000000000000000000000000000000000000000000000815273ffffffffffffffffffffffffffffffffffffffff90911691638bf83b049162000638916002910162001289565b60206040518083038186803b1580156200065157600080fd5b505afa15801562000666573d6000803e3d6000fd5b505050506040513d601f19601f820116820180604052508101906200068c919062001125565b73ffffffffffffffffffffffffffffffffffffffff163373ffffffffffffffffffffffffffffffffffffffff1614156200070057600082815260036020526040902060090180547fffffffffffffffffffffffffffffffffffffffffffffffffffffffffffffff001660011790556200094b565b600480546040517f8bf83b0400000000000000000000000000000000000000000000000000000000815273ffffffffffffffffffffffffffffffffffffffff90911691638bf83b049162000758916006910162001289565b60206040518083038186803b1580156200077157600080fd5b505afa15801562000786573d6000803e3d6000fd5b505050506040513d601f19601f82011682018060405250810190620007ac919062001125565b73ffffffffffffffffffffffffffffffffffffffff163373ffffffffffffffffffffffffffffffffffffffff161415620008285760008281526003602052604090206004810182905560090180547fffffffffffffffffffffffffffffffffffffffffffffffffffffffffffff00ff166101001790556200094b565b600480546040517f8bf83b0400000000000000000000000000000000000000000000000000000000815273ffffffffffffffffffffffffffffffffffffffff90911691638bf83b04916200087f9190810162001289565b60206040518083038186803b1580156200089857600080fd5b505afa158015620008ad573d6000803e3d6000fd5b505050506040513d601f19601f82011682018060405250810190620008d3919062001125565b73ffffffffffffffffffffffffffffffffffffffff163373ffffffffffffffffffffffffffffffffffffffff1614156200094b5760008281526003602052604090206004810182905560090180547fffffffffffffffffffffffffffffffffffffffffffffffffffffffffff00ffff16620100001790555b5050565b60025473ffffffffffffffffffffffffffffffffffffffff166200097a6040830160208401620010ff565b73ffffffffffffffffffffffffffffffffffffffff161480620009db575060025473ffffffffffffffffffffffffffffffffffffffff16620009c36060830160408401620010ff565b73ffffffffffffffffffffffffffffffffffffffff16145b620009e557600080fd5b60015460405160009173ffffffffffffffffffffffffffffffffffffffff169062000a1090620010f1565b62000a1c9190620011da565b604051809103906000f08015801562000a39573d6000803e3d6000fd5b50905062000a486000620010e4565b600480546040517f8bf83b0400000000000000000000000000000000000000000000000000000000815273ffffffffffffffffffffffffffffffffffffffff90911691638bf83b049162000aa0916008910162001289565b60206040518083038186803b15801562000ab957600080fd5b505afa15801562000ace573d6000803e3d6000fd5b505050506040513d601f19601f8201168201806040525081019062000af4919062001125565b73ffffffffffffffffffffffffffffffffffffffff166340c10f193362000b1c6000620010ed565b6040518363ffffffff1660e01b815260040162000b3b92919062001263565b600060405180830381600087803b15801562000b5657600080fd5b505af115801562000b6b573d6000803e3d6000fd5b505050506040518061018001604052808273ffffffffffffffffffffffffffffffffffffffff16815260200183600001602081019062000bac9190620010ff565b73ffffffffffffffffffffffffffffffffffffffff16815260200183602001602081019062000bdc9190620010ff565b73ffffffffffffffffffffffffffffffffffffffff16815260200162000c096060850160408601620010ff565b73ffffffffffffffffffffffffffffffffffffffff1681526060808501356020830152608085013560408301520162000c4960c0850160a0860162001144565b1515815260c0840135602082015260e084013560408201526000606082018190526080820181905260a090910181905260039062000c8781620010ed565b815260208082019290925260409081016000908120845181547fffffffffffffffffffffffff000000000000000000000000000000000000000090811673ffffffffffffffffffffffffffffffffffffffff92831617835594860151600183018054871691831691909117905592850151600282018054861691851691909117905560608501516003820180549095169316929092179092556080830151600482015560a0830151600582015560c08301516006820180547fffffffffffffffffffffffffffffffffffffffffffffffffffffffffffffff0090811692151592909217905560e0840151600783015561010080850151600884015561012085015160099093018054610140870151610160909701519316931515939093177fffffffffffffffffffffffffffffffffffffffffffffffffffffffffffff00ff1694151502939093177fffffffffffffffffffffffffffffffffffffffffffffffffffffffffff00ffff166201000093151593909302929092179091557fc94c2b8da2fb9b04a081fc6a8bd9047288755092674abfabd050908a5d57fb749062000e3090620010ed565b60405162000e3f919062001289565b60405180910390a15050565b6040805161016081018252600083815260036020818152848320805473ffffffffffffffffffffffffffffffffffffffff90811686526001820154811683870152600282015481168688015281840154811660608701526004808301546080880152600583015460a0880152600683015460ff908116151560c0890152600784015460e08901526008840154610100808a019190915260099094015480821615156101208a0152968a905293859052919094049091161515610140850152805494517f8bf83b04000000000000000000000000000000000000000000000000000000008152939490921692638bf83b049262000f4992910162001289565b60206040518083038186803b15801562000f6257600080fd5b505afa15801562000f77573d6000803e3d6000fd5b505050506040513d601f19601f8201168201806040525081019062000f9d919062001125565b73ffffffffffffffffffffffffffffffffffffffff166346f3d8108383336040518463ffffffff1660e01b81526004016200045493929190620013b0565b60005481565b600090815260036020818152604092839020835161018081018552815473ffffffffffffffffffffffffffffffffffffffff9081168083526001840154821694830185905260028401548216968301879052948301541660608201819052600483015460808301819052600584015460a08401819052600685015460ff908116151560c08601819052600787015460e087015260088701546101008088018290526009909801548084161515610120890181905298810484161515610140890181905262010000909104909316151561016090970196909652979996989793969295919492565b60045473ffffffffffffffffffffffffffffffffffffffff1681565b80546001019055565b5490565b612eb280620014b983390190565b60006020828403121562001111578081fd5b81356200111e8162001492565b9392505050565b60006020828403121562001137578081fd5b81516200111e8162001492565b60006020828403121562001156578081fd5b813580151581146200111e578182fd5b6000610100828403121562001179578081fd5b50919050565b60006020828403121562001191578081fd5b5035919050565b60008060408385031215620011ab578081fd5b50508035926020909101359150565b73ffffffffffffffffffffffffffffffffffffffff169052565b15159052565b73ffffffffffffffffffffffffffffffffffffffff91909116815260200190565b73ffffffffffffffffffffffffffffffffffffffff9a8b168152988a1660208a01529689166040890152949097166060870152608086019290925260a0850152151560c084015260e08301939093529115156101008201529015156101208201526101400190565b73ffffffffffffffffffffffffffffffffffffffff929092168252602082015260400190565b90815260200190565b60006101208201905083825273ffffffffffffffffffffffffffffffffffffffff808451166020840152806020850151166040840152806040850151166060840152506060830151620012e96080840182620011ba565b50608083015160a083015260a08301516200130860c0840182620011d4565b5060c08301516200131d60e0840182620011d4565b5060e083015162001333610100840182620011d4565b509392505050565b60006101008201905084825273ffffffffffffffffffffffffffffffffffffffff808551166020840152806020860151166040840152806040860151166060840152606085015160808401526080850151151560a084015260a0850151151560c084015280841660e084015250949350505050565b60006101a082019050848252620013cc602083018551620011ba565b6020840151620013e06040840182620011ba565b506040840151620013f56060840182620011ba565b5060608401516200140a6080840182620011ba565b50608084015160a083015260a084015160c083015260c08401516200143360e0840182620011d4565b5060e084015161010083810191909152840151610120808401919091528401516101406200146481850183620011d4565b850151905062001479610160840182620011d4565b506200148a610180830184620011ba565b949350505050565b73ffffffffffffffffffffffffffffffffffffffff81168114620014b557600080fd5b5056fe60806040523480156200001157600080fd5b5060405162002eb238038062002eb2833981016040819052620000349162000290565b604080518082018252600f81526e2737b1ba3ab93730b61027b93232b960891b6020808301918252835180850190945260058452641bd393d0d560da1b9084015281519192916200008891600091620001ea565b5080516200009e906001906020840190620001ea565b505060408051808201909152600f8082526e2737b1ba3ab93730b61027b93232b960891b6020909201918252620000da9250600d9190620001ea565b50604080518082019091526005808252641bd393d0d560da1b60209092019182526200010991600e91620001ea565b50600a80546001600160a01b0319166001600160a01b03838116919091179182905560408051639c9c0d0f60e01b815290519290911691639c9c0d0f91600480820192600092909190829003018186803b1580156200016757600080fd5b505afa1580156200017c573d6000803e3d6000fd5b505050506040513d6000823e601f3d908101601f19168201604052620001a69190810190620002c0565b8051620001bc91600f91602090910190620001ea565b5050600c80546001600160a01b03191673e592427a0aece92de3edee1f18e0157c05861564179055620003e2565b828054620001f8906200038f565b90600052602060002090601f0160209004810192826200021c576000855562000267565b82601f106200023757805160ff191683800117855562000267565b8280016001018555821562000267579182015b82811115620002675782518255916020019190600101906200024a565b506200027592915062000279565b5090565b5b808211156200027557600081556001016200027a565b600060208284031215620002a2578081fd5b81516001600160a01b0381168114620002b9578182fd5b9392505050565b60006020808385031215620002d3578182fd5b82516001600160401b0380821115620002ea578384fd5b818501915085601f830112620002fe578384fd5b815181811115620003135762000313620003cc565b604051601f8201601f1916810185018381118282101715620003395762000339620003cc565b604052818152838201850188101562000350578586fd5b8592505b8183101562000373578383018501518184018601529184019162000354565b818311156200038457858583830101525b979650505050505050565b600281046001821680620003a457607f821691505b60208210811415620003c657634e487b7160e01b600052602260045260246000fd5b50919050565b634e487b7160e01b600052604160045260246000fd5b612ac080620003f26000396000f3fe608060405234801561001057600080fd5b506004361061018d5760003560e01c80634f6ccce7116100e3578063b88d4fde1161008c578063e5e8b8a111610066578063e5e8b8a114610316578063e985e9c514610329578063ee64deab1461033c5761018d565b8063b88d4fde146102e8578063c31c9c07146102fb578063c87b56dd146103035761018d565b806376fd198a116100bd57806376fd198a146102ba57806395d89b41146102cd578063a22cb465146102d55761018d565b80634f6ccce7146102815780636352211e1461029457806370a08231146102a75761018d565b806318160ddd1161014557806340c10f191161011f57806340c10f191461024857806342842e0e1461025b57806342966c681461026e5761018d565b806318160ddd1461020d57806323b872dd146102225780632f745c59146102355761018d565b8063081812fc11610176578063081812fc146101d0578063095ea7b3146101f057806316f0115b146102055761018d565b806301ffc9a71461019257806306fdde03146101bb575b600080fd5b6101a56101a036600461210f565b610344565b6040516101b29190612270565b60405180910390f35b6101c36103a0565b6040516101b29190612284565b6101e36101de366004612147565b610432565b6040516101b291906121e0565b6102036101fe3660046120c8565b6104a5565b005b6101e36105a5565b6102156105c1565b6040516101b2919061227b565b610203610230366004611f6d565b6105c7565b6102156102433660046120c8565b610619565b6102036102563660046120c8565b610692565b610203610269366004611f6d565b6107b2565b61020361027c366004612147565b6107cd565b61021561028f366004612147565b6108ea565b6101e36102a2366004612147565b610978565b6102156102b5366004611e82565b6109d4565b6102036102c8366004611f6d565b610a4c565b6101c3610d1c565b6102036102e336600461209b565b610d2b565b6102036102f6366004611fad565b610e65565b6101e3610ebe565b6101c3610311366004612147565b610eda565b610215610324366004611ef9565b610f6e565b6101a5610337366004611ec1565b611274565b6101e36112af565b60007fffffffff0000000000000000000000000000000000000000000000000000000082167f780e9d6300000000000000000000000000000000000000000000000000000000148061039a575061039a826112cb565b92915050565b6060600080546103af9061297a565b80601f01602080910402602001604051908101604052809291908181526020018280546103db9061297a565b80156104285780601f106103fd57610100808354040283529160200191610428565b820191906000526020600020905b81548152906001019060200180831161040b57829003601f168201915b5050505050905090565b600061043d8261136d565b61047c576040517f08c379a0000000000000000000000000000000000000000000000000000000008152600401610473906126c7565b60405180910390fd5b5060009081526004602052604090205473ffffffffffffffffffffffffffffffffffffffff1690565b60006104b082610978565b90508073ffffffffffffffffffffffffffffffffffffffff168373ffffffffffffffffffffffffffffffffffffffff161415610518576040517f08c379a0000000000000000000000000000000000000000000000000000000008152600401610473906127b8565b8073ffffffffffffffffffffffffffffffffffffffff16610537611397565b73ffffffffffffffffffffffffffffffffffffffff161480610560575061056081610337611397565b610596576040517f08c379a000000000000000000000000000000000000000000000000000000000815260040161047390612544565b6105a0838361139b565b505050565b600b5473ffffffffffffffffffffffffffffffffffffffff1681565b60085490565b6105d86105d2611397565b8261143b565b61060e576040517f08c379a000000000000000000000000000000000000000000000000000000000815260040161047390612815565b6105a083838361150e565b6000610624836109d4565b821061065c576040517f08c379a0000000000000000000000000000000000000000000000000000000008152600401610473906122f4565b5073ffffffffffffffffffffffffffffffffffffffff919091166000908152600660209081526040808320938352929052205490565b600a546040517f8bf83b0400000000000000000000000000000000000000000000000000000000815273ffffffffffffffffffffffffffffffffffffffff90911690638bf83b04906106e99060019060040161227b565b60206040518083038186803b15801561070157600080fd5b505afa158015610715573d6000803e3d6000fd5b505050506040513d601f19601f820116820180604052508101906107399190611ea5565b73ffffffffffffffffffffffffffffffffffffffff16610757611397565b73ffffffffffffffffffffffffffffffffffffffff16146107a4576040517f08c379a000000000000000000000000000000000000000000000000000000000815260040161047390612690565b6107ae82826116d5565b5050565b6105a083838360405180602001604052806000815250610e65565b600a546040517f8bf83b0400000000000000000000000000000000000000000000000000000000815273ffffffffffffffffffffffffffffffffffffffff90911690638bf83b049061082390600490810161227b565b60206040518083038186803b15801561083b57600080fd5b505afa15801561084f573d6000803e3d6000fd5b505050506040513d601f19601f820116820180604052508101906108739190611ea5565b73ffffffffffffffffffffffffffffffffffffffff16610891611397565b73ffffffffffffffffffffffffffffffffffffffff16146108de576040517f08c379a0000000000000000000000000000000000000000000000000000000008152600401610473906123e5565b6108e781611827565b50565b60006108f46105c1565b821061092c576040517f08c379a000000000000000000000000000000000000000000000000000000000815260040161047390612872565b60088281548110610966577f4e487b7100000000000000000000000000000000000000000000000000000000600052603260045260246000fd5b90600052602060002001549050919050565b60008181526002602052604081205473ffffffffffffffffffffffffffffffffffffffff168061039a576040517f08c379a0000000000000000000000000000000000000000000000000000000008152600401610473906125fe565b600073ffffffffffffffffffffffffffffffffffffffff8216610a23576040517f08c379a0000000000000000000000000000000000000000000000000000000008152600401610473906125a1565b5073ffffffffffffffffffffffffffffffffffffffff1660009081526003602052604090205490565b600a546040517f8bf83b0400000000000000000000000000000000000000000000000000000000815273ffffffffffffffffffffffffffffffffffffffff90911690638bf83b0490610aa290600490810161227b565b60206040518083038186803b158015610aba57600080fd5b505afa158015610ace573d6000803e3d6000fd5b505050506040513d601f19601f82011682018060405250810190610af29190611ea5565b73ffffffffffffffffffffffffffffffffffffffff16610b10611397565b73ffffffffffffffffffffffffffffffffffffffff161480610c0a5750600a546040517f8bf83b0400000000000000000000000000000000000000000000000000000000815273ffffffffffffffffffffffffffffffffffffffff90911690638bf83b0490610b849060069060040161227b565b60206040518083038186803b158015610b9c57600080fd5b505afa158015610bb0573d6000803e3d6000fd5b505050506040513d601f19601f82011682018060405250810190610bd49190611ea5565b73ffffffffffffffffffffffffffffffffffffffff16610bf2611397565b73ffffffffffffffffffffffffffffffffffffffff16145b610c40576040517f08c379a000000000000000000000000000000000000000000000000000000000815260040161047390612297565b6040517fa9059cbb00000000000000000000000000000000000000000000000000000000815273ffffffffffffffffffffffffffffffffffffffff84169063a9059cbb90610c94908590859060040161224a565b602060405180830381600087803b158015610cae57600080fd5b505af1158015610cc2573d6000803e3d6000fd5b505050506040513d601f19601f82011682018060405250810190610ce691906120f3565b6105a0576040517f08c379a000000000000000000000000000000000000000000000000000000000815260040161047390612724565b6060600180546103af9061297a565b610d33611397565b73ffffffffffffffffffffffffffffffffffffffff168273ffffffffffffffffffffffffffffffffffffffff161415610d98576040517f08c379a000000000000000000000000000000000000000000000000000000000815260040161047390612479565b8060056000610da5611397565b73ffffffffffffffffffffffffffffffffffffffff90811682526020808301939093526040918201600090812091871680825291909352912080547fffffffffffffffffffffffffffffffffffffffffffffffffffffffffffffff001692151592909217909155610e14611397565b73ffffffffffffffffffffffffffffffffffffffff167f17307eab39ab6107e8899845ad3d59bd9653f200f220920489ca2b5937696c3183604051610e599190612270565b60405180910390a35050565b610e76610e70611397565b8361143b565b610eac576040517f08c379a000000000000000000000000000000000000000000000000000000000815260040161047390612815565b610eb884848484611900565b50505050565b600c5473ffffffffffffffffffffffffffffffffffffffff1681565b6060600f8054610ee99061297a565b80601f0160208091040260200160405190810160405280929190818152602001828054610f159061297a565b8015610f625780601f10610f3757610100808354040283529160200191610f62565b820191906000526020600020905b815481529060010190602001808311610f4557829003601f168201915b50505050509050919050565b600a546040517f8bf83b0400000000000000000000000000000000000000000000000000000000815260009173ffffffffffffffffffffffffffffffffffffffff1690638bf83b0490610fc69060069060040161227b565b60206040518083038186803b158015610fde57600080fd5b505afa158015610ff2573d6000803e3d6000fd5b505050506040513d601f19601f820116820180604052508101906110169190611ea5565b73ffffffffffffffffffffffffffffffffffffffff16611034611397565b73ffffffffffffffffffffffffffffffffffffffff1614611081576040517f08c379a000000000000000000000000000000000000000000000000000000000815260040161047390612297565b6040517f095ea7b300000000000000000000000000000000000000000000000000000000815273ffffffffffffffffffffffffffffffffffffffff88169063095ea7b3906110e99073e592427a0aece92de3edee1f18e0157c0586156490869060040161224a565b602060405180830381600087803b15801561110357600080fd5b505af1158015611117573d6000803e3d6000fd5b505050506040513d601f19601f8201168201806040525081019061113b91906120f3565b611171576040517f08c379a00000000000000000000000000000000000000000000000000000000081526004016104739061250d565b600c54604080516101008101825273ffffffffffffffffffffffffffffffffffffffff8a81168252898116602083015262ffffff891692820192909252868216606082015291169063414bf38990608081016111cf4261025861294b565b8152602001858152602001868152602001600073ffffffffffffffffffffffffffffffffffffffff168152506040518263ffffffff1660e01b815260040161121791906128cf565b602060405180830381600087803b15801561123157600080fd5b505af1158015611245573d6000803e3d6000fd5b505050506040513d601f19601f82011682018060405250810190611269919061215f565b979650505050505050565b73ffffffffffffffffffffffffffffffffffffffff918216600090815260056020908152604080832093909416825291909152205460ff1690565b600a5473ffffffffffffffffffffffffffffffffffffffff1681565b60007fffffffff0000000000000000000000000000000000000000000000000000000082167f80ac58cd00000000000000000000000000000000000000000000000000000000148061135e57507fffffffff0000000000000000000000000000000000000000000000000000000082167f5b5e139f00000000000000000000000000000000000000000000000000000000145b8061039a575061039a8261194d565b60009081526002602052604090205473ffffffffffffffffffffffffffffffffffffffff16151590565b3390565b600081815260046020526040902080547fffffffffffffffffffffffff00000000000000000000000000000000000000001673ffffffffffffffffffffffffffffffffffffffff841690811790915581906113f582610978565b73ffffffffffffffffffffffffffffffffffffffff167f8c5be1e5ebec7d5bd14f71427d1e84f3dd0314c0f7b2291e5b200ac8c7c3b92560405160405180910390a45050565b60006114468261136d565b61147c576040517f08c379a0000000000000000000000000000000000000000000000000000000008152600401610473906124b0565b600061148783610978565b90508073ffffffffffffffffffffffffffffffffffffffff168473ffffffffffffffffffffffffffffffffffffffff1614806114f657508373ffffffffffffffffffffffffffffffffffffffff166114de84610432565b73ffffffffffffffffffffffffffffffffffffffff16145b8061150657506115068185611274565b949350505050565b8273ffffffffffffffffffffffffffffffffffffffff1661152e82610978565b73ffffffffffffffffffffffffffffffffffffffff161461157b576040517f08c379a00000000000000000000000000000000000000000000000000000000081526004016104739061275b565b73ffffffffffffffffffffffffffffffffffffffff82166115c8576040517f08c379a00000000000000000000000000000000000000000000000000000000081526004016104739061241c565b6115d3838383611997565b6115de60008261139b565b73ffffffffffffffffffffffffffffffffffffffff83166000908152600360205260408120805460019290611614908490612963565b909155505073ffffffffffffffffffffffffffffffffffffffff8216600090815260036020526040812080546001929061164f90849061294b565b909155505060008181526002602052604080822080547fffffffffffffffffffffffff00000000000000000000000000000000000000001673ffffffffffffffffffffffffffffffffffffffff86811691821790925591518493918716917fddf252ad1be2c89b69c2b068fc378daa952ba7f163c4a11628f55a4df523b3ef91a4505050565b73ffffffffffffffffffffffffffffffffffffffff8216611722576040517f08c379a00000000000000000000000000000000000000000000000000000000081526004016104739061265b565b61172b8161136d565b15611762576040517f08c379a0000000000000000000000000000000000000000000000000000000008152600401610473906123ae565b61176e60008383611997565b73ffffffffffffffffffffffffffffffffffffffff821660009081526003602052604081208054600192906117a490849061294b565b909155505060008181526002602052604080822080547fffffffffffffffffffffffff00000000000000000000000000000000000000001673ffffffffffffffffffffffffffffffffffffffff861690811790915590518392907fddf252ad1be2c89b69c2b068fc378daa952ba7f163c4a11628f55a4df523b3ef908290a45050565b600061183282610978565b905061184081600084611997565b61184b60008361139b565b73ffffffffffffffffffffffffffffffffffffffff81166000908152600360205260408120805460019290611881908490612963565b909155505060008281526002602052604080822080547fffffffffffffffffffffffff00000000000000000000000000000000000000001690555183919073ffffffffffffffffffffffffffffffffffffffff8416907fddf252ad1be2c89b69c2b068fc378daa952ba7f163c4a11628f55a4df523b3ef908390a45050565b61190b84848461150e565b61191784848484611a6e565b610eb8576040517f08c379a000000000000000000000000000000000000000000000000000000000815260040161047390612351565b7fffffffff0000000000000000000000000000000000000000000000000000000081167f01ffc9a70000000000000000000000000000000000000000000000000000000014919050565b6119a28383836105a0565b73ffffffffffffffffffffffffffffffffffffffff83166119cb576119c681611c0c565b611a08565b8173ffffffffffffffffffffffffffffffffffffffff168373ffffffffffffffffffffffffffffffffffffffff1614611a0857611a088382611c50565b73ffffffffffffffffffffffffffffffffffffffff8216611a3157611a2c81611d07565b6105a0565b8273ffffffffffffffffffffffffffffffffffffffff168273ffffffffffffffffffffffffffffffffffffffff16146105a0576105a08282611e2b565b6000611a8f8473ffffffffffffffffffffffffffffffffffffffff16611e7c565b15611c01578373ffffffffffffffffffffffffffffffffffffffff1663150b7a02611ab8611397565b8786866040518563ffffffff1660e01b8152600401611ada9493929190612201565b602060405180830381600087803b158015611af457600080fd5b505af1925050508015611b42575060408051601f3d9081017fffffffffffffffffffffffffffffffffffffffffffffffffffffffffffffffe0168201909252611b3f9181019061212b565b60015b611bb6573d808015611b70576040519150601f19603f3d011682016040523d82523d6000602084013e611b75565b606091505b508051611bae576040517f08c379a000000000000000000000000000000000000000000000000000000000815260040161047390612351565b805181602001fd5b7fffffffff00000000000000000000000000000000000000000000000000000000167f150b7a0200000000000000000000000000000000000000000000000000000000149050611506565b506001949350505050565b600880546000838152600960205260408120829055600182018355919091527ff3f7a9fe364faab93b216da50a3214154f22a0a2b415b23a84c8169e8b636ee30155565b60006001611c5d846109d4565b611c679190612963565b600083815260076020526040902054909150808214611cc75773ffffffffffffffffffffffffffffffffffffffff841660009081526006602090815260408083208584528252808320548484528184208190558352600790915290208190555b50600091825260076020908152604080842084905573ffffffffffffffffffffffffffffffffffffffff9094168352600681528383209183525290812055565b600854600090611d1990600190612963565b60008381526009602052604081205460088054939450909284908110611d68577f4e487b7100000000000000000000000000000000000000000000000000000000600052603260045260246000fd5b906000526020600020015490508060088381548110611db0577f4e487b7100000000000000000000000000000000000000000000000000000000600052603260045260246000fd5b6000918252602080832090910192909255828152600990915260408082208490558582528120556008805480611e0f577f4e487b7100000000000000000000000000000000000000000000000000000000600052603160045260246000fd5b6001900381819060005260206000200160009055905550505050565b6000611e36836109d4565b73ffffffffffffffffffffffffffffffffffffffff9093166000908152600660209081526040808320868452825280832085905593825260079052919091209190915550565b3b151590565b600060208284031215611e93578081fd5b8135611e9e81612a2c565b9392505050565b600060208284031215611eb6578081fd5b8151611e9e81612a2c565b60008060408385031215611ed3578081fd5b8235611ede81612a2c565b91506020830135611eee81612a2c565b809150509250929050565b60008060008060008060c08789031215611f11578182fd5b8635611f1c81612a2c565b95506020870135611f2c81612a2c565b9450604087013562ffffff81168114611f43578283fd5b93506060870135611f5381612a2c565b9598949750929560808101359460a0909101359350915050565b600080600060608486031215611f81578283fd5b8335611f8c81612a2c565b92506020840135611f9c81612a2c565b929592945050506040919091013590565b60008060008060808587031215611fc2578384fd5b8435611fcd81612a2c565b9350602085810135611fde81612a2c565b935060408601359250606086013567ffffffffffffffff80821115612001578384fd5b818801915088601f830112612014578384fd5b813581811115612026576120266129fd565b604051847fffffffffffffffffffffffffffffffffffffffffffffffffffffffffffffffe0601f8401168201018181108482111715612067576120676129fd565b60405281815283820185018b101561207d578586fd5b81858501868301379081019093019390935250939692955090935050565b600080604083850312156120ad578182fd5b82356120b881612a2c565b91506020830135611eee81612a4e565b600080604083850312156120da578182fd5b82356120e581612a2c565b946020939093013593505050565b600060208284031215612104578081fd5b8151611e9e81612a4e565b600060208284031215612120578081fd5b8135611e9e81612a5c565b60006020828403121561213c578081fd5b8151611e9e81612a5c565b600060208284031215612158578081fd5b5035919050565b600060208284031215612170578081fd5b5051919050565b60008151808452815b8181101561219c57602081850181015186830182015201612180565b818111156121ad5782602083870101525b50601f017fffffffffffffffffffffffffffffffffffffffffffffffffffffffffffffffe0169290920160200192915050565b73ffffffffffffffffffffffffffffffffffffffff91909116815260200190565b600073ffffffffffffffffffffffffffffffffffffffff8087168352808616602084015250836040830152608060608301526122406080830184612177565b9695505050505050565b73ffffffffffffffffffffffffffffffffffffffff929092168252602082015260400190565b901515815260200190565b90815260200190565b600060208252611e9e6020830184612177565b60208082526022908201527f63616c6c6572206973206e6f742061206e6f637475726e616c20636f6e74726160408201527f6374000000000000000000000000000000000000000000000000000000000000606082015260800190565b6020808252602b908201527f455243373231456e756d657261626c653a206f776e657220696e646578206f7560408201527f74206f6620626f756e6473000000000000000000000000000000000000000000606082015260800190565b60208082526032908201527f4552433732313a207472616e7366657220746f206e6f6e20455243373231526560408201527f63656976657220696d706c656d656e7465720000000000000000000000000000606082015260800190565b6020808252601c908201527f4552433732313a20746f6b656e20616c7265616479206d696e74656400000000604082015260600190565b60208082526017908201527f6e6f7420436c6f73654f7264657220636f6e7472616374000000000000000000604082015260600190565b60208082526024908201527f4552433732313a207472616e7366657220746f20746865207a65726f2061646460408201527f7265737300000000000000000000000000000000000000000000000000000000606082015260800190565b60208082526019908201527f4552433732313a20617070726f766520746f2063616c6c657200000000000000604082015260600190565b6020808252602c908201527f4552433732313a206f70657261746f7220717565727920666f72206e6f6e657860408201527f697374656e7420746f6b656e0000000000000000000000000000000000000000606082015260800190565b6020808252600e908201527f617070726f7665206661696c6564000000000000000000000000000000000000604082015260600190565b60208082526038908201527f4552433732313a20617070726f76652063616c6c6572206973206e6f74206f7760408201527f6e6572206e6f7220617070726f76656420666f7220616c6c0000000000000000606082015260800190565b6020808252602a908201527f4552433732313a2062616c616e636520717565727920666f7220746865207a6560408201527f726f206164647265737300000000000000000000000000000000000000000000606082015260800190565b60208082526029908201527f4552433732313a206f776e657220717565727920666f72206e6f6e657869737460408201527f656e7420746f6b656e0000000000000000000000000000000000000000000000606082015260800190565b6020808252818101527f4552433732313a206d696e7420746f20746865207a65726f2061646472657373604082015260600190565b60208082526018908201527f6e6f74204372656174654f7264657220636f6e74726163740000000000000000604082015260600190565b6020808252602c908201527f4552433732313a20617070726f76656420717565727920666f72206e6f6e657860408201527f697374656e7420746f6b656e0000000000000000000000000000000000000000606082015260800190565b6020808252601c908201527f6f72646572207472616e7366657220616d6f756e74206661696c656400000000604082015260600190565b60208082526029908201527f4552433732313a207472616e73666572206f6620746f6b656e2074686174206960408201527f73206e6f74206f776e0000000000000000000000000000000000000000000000606082015260800190565b60208082526021908201527f4552433732313a20617070726f76616c20746f2063757272656e74206f776e6560408201527f7200000000000000000000000000000000000000000000000000000000000000606082015260800190565b60208082526031908201527f4552433732313a207472616e736665722063616c6c6572206973206e6f74206f60408201527f776e6572206e6f7220617070726f766564000000000000000000000000000000606082015260800190565b6020808252602c908201527f455243373231456e756d657261626c653a20676c6f62616c20696e646578206f60408201527f7574206f6620626f756e64730000000000000000000000000000000000000000606082015260800190565b60006101008201905073ffffffffffffffffffffffffffffffffffffffff80845116835280602085015116602084015262ffffff60408501511660408401528060608501511660608401526080840151608084015260a084015160a084015260c084015160c08401528060e08501511660e08401525092915050565b6000821982111561295e5761295e6129ce565b500190565b600082821015612975576129756129ce565b500390565b60028104600182168061298e57607f821691505b602082108114156129c8577f4e487b7100000000000000000000000000000000000000000000000000000000600052602260045260246000fd5b50919050565b7f4e487b7100000000000000000000000000000000000000000000000000000000600052601160045260246000fd5b7f4e487b7100000000000000000000000000000000000000000000000000000000600052604160045260246000fd5b73ffffffffffffffffffffffffffffffffffffffff811681146108e757600080fd5b80151581146108e757600080fd5b7fffffffff00000000000000000000000000000000000000000000000000000000811681146108e757600080fdfea26469706673582212201a2f652d51ca3557cb4870b371c97aba2a2a7077453ff7da7540b947299e0fcb64736f6c63430008000033a26469706673582212200e150021c949211e542a499a44242209ab4d3eefdbccb458b5fb4576857e244364736f6c63430008000033",
  "immutableReferences": {},
  "source": "/*                              $$\\                                             $$\\                                                         \n                                $$ |                                            $$ |                                                  \n$$$$$$$\\   $$$$$$\\   $$$$$$$\\ $$$$$$\\   $$\\   $$\\  $$$$$$\\  $$$$$$$\\   $$$$$$\\  $$ |     \n$$  __$$\\ $$  __$$\\ $$  _____|\\_$$  _|  $$ |  $$ |$$  __$$\\ $$  __$$\\  \\____$$\\ $$ |    \n$$ |  $$ |$$ /  $$ |$$ /        $$ |    $$ |  $$ |$$ |  \\__|$$ |  $$ | $$$$$$$ |$$ |     \n$$ |  $$ |$$ |  $$ |$$ |        $$ |$$\\ $$ |  $$ |$$ |      $$ |  $$ |$$  __$$ |$$ |     \n$$ |  $$ |\\$$$$$$  |\\$$$$$$$\\   \\$$$$  |\\$$$$$$  |$$ |      $$ |  $$ |\\$$$$$$$ |$$ |      \n\\__|  \\__| \\______/  \\_______|   \\____/  \\______/ \\__|      \\__|  \\__| \\_______|\\__|     \n*/\n\npragma solidity ^0.8.0;\npragma abicoder v2;\n\nimport \"@openzeppelin/contracts/utils/Counters.sol\";\nimport \"@openzeppelin/contracts/token/ERC20/IERC20.sol\";\nimport \"@uniswap/v3-core/contracts/interfaces/IUniswapV3Pool.sol\";\nimport \"./Interfaces/CreateOrderInterface.sol\";\nimport {NocturnalFinanceInterface} from \"./Interfaces/NocturnalFinanceInterface.sol\";\nimport {OrderInterface} from \"./Interfaces/OrderInterface.sol\";\nimport {CreateOrderInterface} from \"./Interfaces/CreateOrderInterface.sol\";\nimport {SettleOrderInterface} from \"./Interfaces/SettleOrderInterface.sol\";\nimport {CloseOrderInterface} from \"./Interfaces/CloseOrderInterface.sol\";\nimport {DepositOrderInterface} from \"./Interfaces/DepositOrderInterface.sol\";\nimport {Order} from \"./Order.sol\";\n\ncontract CreateOrder is CreateOrderInterface {\n    using Counters for Counters.Counter;\n    \n    Counters.Counter public orderCounter;\n    \n    address nocturnalFinanceAddress;\n    address WETH; \n\n    mapping(uint256 => Attributes) private _orders;\n   \n    event orderCreated(uint256 _orderID);\n    \n    NocturnalFinanceInterface public nocturnalFinance;\n    \n    constructor(address _nocturnalFinance, address _WETH) {\n        nocturnalFinance = NocturnalFinanceInterface(_nocturnalFinance);\n        nocturnalFinanceAddress = _nocturnalFinance;\n        WETH = _WETH;\n    }\n    \n    function createOrder(CreateParams calldata params) external override {\n        require((params.fromTokenAddress == WETH) || (params.toTokenAddress == WETH));\n        // ensure settlementGratuity is less than 100% of order value (in ETH) \n        // if (params.fromTokenAddress == WETH) {\n        //     require(params.settlementGratuity < );\n        // } else {\n        //     require(params.settlementGratuity < );\n        Order nocturnalOrder = new Order(nocturnalFinanceAddress); \n        orderCounter.increment();\n        \n        OrderInterface(nocturnalFinance._contract(8)).mint(msg.sender, orderCounter.current());\n       \n        // set order attributes\n        _orders[orderCounter.current()] = Attributes({\n            orderAddress: address(nocturnalOrder),\n            poolAddress: params.poolAddress,\n            fromTokenAddress: params.fromTokenAddress,\n            toTokenAddress: params.toTokenAddress,\n            tokenBalance: params.tokenBalance,\n            limitPrice: params.limitPrice,\n            limitType: params.limitType,\n            amountOutMin: params.amountOutMin,\n            settlementGratuity: params.settlementGratuity,\n            depositedFlag: false,\n            settledFlag: false,\n            closedFlag: false\n        }); \n        \n        emit orderCreated(orderCounter.current());\n    }\n       \n    function depositOrder(uint256 _orderID) public override {\n        // removed due to contract size contraints\n        //require(IERC20(_orders[_orderID].fromTokenAddress).balanceOf(msg.sender) >= _orders[_orderID].tokenBalance);\n        DepositOrderInterface.DepositParams memory depositParams = DepositOrderInterface.DepositParams({\n            orderAddress: _orders[_orderID].orderAddress,\n            poolAddress: _orders[_orderID].poolAddress,\n            fromTokenAddress: _orders[_orderID].fromTokenAddress,\n            tokenBalance: _orders[_orderID].tokenBalance,\n            depositedFlag: _orders[_orderID].depositedFlag,\n            closedFlag: _orders[_orderID].closedFlag\n        });\n        DepositOrderInterface(nocturnalFinance._contract(2)).depositOrder(_orderID, depositParams, msg.sender); \n    }\n    \n    function settleOrder(uint256 _orderID) public override {\n        SettleOrderInterface.SettleParams memory settleParams = SettleOrderInterface.SettleParams({\n            orderAddress: _orders[_orderID].orderAddress,\n            poolAddress: _orders[_orderID].poolAddress,\n            fromTokenAddress: _orders[_orderID].fromTokenAddress,       \n            toTokenAddress: _orders[_orderID].toTokenAddress,       \n            tokenBalance: _orders[_orderID].tokenBalance,\n            limitPrice: _orders[_orderID].limitPrice,\n            limitType: _orders[_orderID].limitType,\n            amountOutMin: _orders[_orderID].amountOutMin,\n            settlementGratuity: _orders[_orderID].settlementGratuity,\n            depositedFlag: _orders[_orderID].depositedFlag,\n            settledFlag: _orders[_orderID].settledFlag\n        });\n        SettleOrderInterface(nocturnalFinance._contract(3)).settleOrder(_orderID, settleParams, msg.sender); \n    }\n    \n    function closeOrder(uint256 _orderID) public override {\n        require(msg.sender == OrderInterface(nocturnalFinance._contract(8)).ownerOf(_orderID));\n        CloseOrderInterface.CloseParams memory closeParams = CloseOrderInterface.CloseParams({\n            orderAddress: _orders[_orderID].orderAddress,\n            poolAddress: _orders[_orderID].poolAddress,\n            fromTokenAddress: _orders[_orderID].fromTokenAddress,\n            toTokenAddress: _orders[_orderID].toTokenAddress,\n            tokenBalance: _orders[_orderID].tokenBalance,\n            depositedFlag: _orders[_orderID].depositedFlag,\n            settledFlag: _orders[_orderID].settledFlag,\n            closedFlag: _orders[_orderID].closedFlag\n        });\n        CloseOrderInterface(nocturnalFinance._contract(4)).closeOrder(_orderID, closeParams); \n    }\n    \n    \n    function orderAttributes(uint256 _orderID) \n        public\n        view \n        returns (\n            address orderAddress,\n            address poolAddress,\n            address fromTokenAddress,\n            address toTokenAddress,\n            uint256 tokenBalance,\n            uint256 limitPrice,\n            bool limitType,\n            uint256 settlementGratuity,\n            bool depositedFlag,\n            bool settledFlag\n        ) \n    {\n        Attributes memory attributes = _orders[_orderID];\n        return (\n            attributes.orderAddress,\n            attributes.poolAddress,\n            attributes.fromTokenAddress,\n            attributes.toTokenAddress,\n            attributes.tokenBalance,\n            attributes.limitPrice,\n            attributes.limitType,\n            attributes.settlementGratuity,\n            attributes.depositedFlag,\n            attributes.settledFlag\n        );\n    } \n\n    function setAttributes(uint256 _orderID, uint256 _balance) public override {\n        // removed due to contract size contraints\n        //require(msg.sender == nocturnalFinance._contract(2) || msg.sender == nocturnalFinance._contract(6) || msg.sender == nocturnalFinance._contract(4));\n        if (msg.sender == nocturnalFinance._contract(2)) {\n            _orders[_orderID].depositedFlag = true;\n        } else if (msg.sender == nocturnalFinance._contract(6)) {\n            _orders[_orderID].tokenBalance = _balance; \n            _orders[_orderID].settledFlag = true;\n        }  else if (msg.sender == nocturnalFinance._contract(4)) {\n            _orders[_orderID].tokenBalance = _balance;\n            _orders[_orderID].closedFlag = true;\n        }\n    }\n}\n",
  "sourcePath": "/Users/knott/Desktop/nocturnal/contracts/CreateOrder.sol",
  "compiler": {
    "name": "solc",
    "version": "0.8.0+commit.c7dfd78e.Emscripten.clang"
  },
  "schemaVersion": "3.3.3",
  "updatedAt": "2021-06-13T21:00:46.630Z",
  "networkType": "ethereum",
  "devdoc": {
    "kind": "dev",
    "methods": {},
    "version": 1
  },
  "userdoc": {
    "kind": "user",
    "methods": {},
    "version": 1
  }
}