{
  "contractName": "DepositOrder",
  "abi": [
    {
      "inputs": [
        {
          "internalType": "address",
          "name": "_nocturnalFinance",
          "type": "address"
        },
        {
          "internalType": "address",
          "name": "_WETH",
          "type": "address"
        }
      ],
      "stateMutability": "nonpayable",
      "type": "constructor"
    },
    {
      "anonymous": false,
      "inputs": [
        {
          "indexed": false,
          "internalType": "uint256",
          "name": "_orderID",
          "type": "uint256"
        }
      ],
      "name": "orderDeposited",
      "type": "event"
    },
    {
      "inputs": [],
      "name": "nocturnalFinance",
      "outputs": [
        {
          "internalType": "contract NocturnalFinanceInterface",
          "name": "",
          "type": "address"
        }
      ],
      "stateMutability": "view",
      "type": "function",
      "constant": true
    },
    {
      "inputs": [
        {
          "internalType": "uint256",
          "name": "_orderID",
          "type": "uint256"
        },
        {
          "components": [
            {
              "internalType": "address",
              "name": "orderAddress",
              "type": "address"
            },
            {
              "internalType": "address",
              "name": "poolAddress",
              "type": "address"
            },
            {
              "internalType": "address",
              "name": "fromTokenAddress",
              "type": "address"
            },
            {
              "internalType": "uint256",
              "name": "tokenBalance",
              "type": "uint256"
            },
            {
              "internalType": "bool",
              "name": "depositedFlag",
              "type": "bool"
            },
            {
              "internalType": "bool",
              "name": "closedFlag",
              "type": "bool"
            }
          ],
          "internalType": "struct DepositOrderInterface.DepositParams",
          "name": "params",
          "type": "tuple"
        },
        {
          "internalType": "address",
          "name": "_depositor",
          "type": "address"
        }
      ],
      "name": "depositOrder",
      "outputs": [],
      "stateMutability": "nonpayable",
      "type": "function"
    }
  ],
  "bytecode": "0x608060405234801561001057600080fd5b5060405161070a38038061070a83398101604081905261002f9161007c565b600180546001600160a01b039384166001600160a01b031991821617909155600080549290931691161790556100ae565b80516001600160a01b038116811461007757600080fd5b919050565b6000806040838503121561008e578182fd5b61009783610060565b91506100a560208401610060565b90509250929050565b61064d806100bd6000396000f3fe608060405234801561001057600080fd5b50600436106100365760003560e01c8063292880321461003b578063ee64deab14610050575b600080fd5b61004e61004936600461047e565b61006e565b005b6100586103eb565b6040516100659190610518565b60405180910390f35b600180546040517f8bf83b0400000000000000000000000000000000000000000000000000000000815273ffffffffffffffffffffffffffffffffffffffff90911691638bf83b04916100c49190600401610539565b60206040518083038186803b1580156100dc57600080fd5b505afa1580156100f0573d6000803e3d6000fd5b505050506040513d601f19601f82011682018060405250810190610114919061042a565b73ffffffffffffffffffffffffffffffffffffffff163373ffffffffffffffffffffffffffffffffffffffff161461014b57600080fd5b61015b60c0830160a08401610446565b1561016557600080fd5b61017560a0830160808401610446565b156101b5576040517f08c379a00000000000000000000000000000000000000000000000000000000081526004016101ac9061059f565b60405180910390fd5b6101c56060830160408401610407565b73ffffffffffffffffffffffffffffffffffffffff166323b872dd826101ee6020860186610407565b85606001356040518463ffffffff1660e01b8152600401610211939291906104e7565b602060405180830381600087803b15801561022b57600080fd5b505af115801561023f573d6000803e3d6000fd5b505050506040513d601f19601f820116820180604052508101906102639190610462565b610299576040517f08c379a00000000000000000000000000000000000000000000000000000000081526004016101ac90610542565b600180546040517f8bf83b0400000000000000000000000000000000000000000000000000000000815273ffffffffffffffffffffffffffffffffffffffff90911691638bf83b04916102ef9190600401610539565b60206040518083038186803b15801561030757600080fd5b505afa15801561031b573d6000803e3d6000fd5b505050506040513d601f19601f8201168201806040525081019061033f919061042a565b73ffffffffffffffffffffffffffffffffffffffff166347b0d7848484606001356040518363ffffffff1660e01b815260040161037d9291906105d6565b600060405180830381600087803b15801561039757600080fd5b505af11580156103ab573d6000803e3d6000fd5b505050507fb1ee96a94eac2550993d30b00f3d4b7adadb36693ee5307efa8d9195c066d7d0836040516103de9190610539565b60405180910390a1505050565b60015473ffffffffffffffffffffffffffffffffffffffff1681565b600060208284031215610418578081fd5b8135610423816105e4565b9392505050565b60006020828403121561043b578081fd5b8151610423816105e4565b600060208284031215610457578081fd5b813561042381610609565b600060208284031215610473578081fd5b815161042381610609565b6000806000838503610100811215610494578283fd5b8435935060c07fffffffffffffffffffffffffffffffffffffffffffffffffffffffffffffffe0820112156104c7578283fd5b5060208401915060e08401356104dc816105e4565b809150509250925092565b73ffffffffffffffffffffffffffffffffffffffff9384168152919092166020820152604081019190915260600190565b73ffffffffffffffffffffffffffffffffffffffff91909116815260200190565b90815260200190565b60208082526026908201527f6f776e657220746f206f726465722062616c616e6365207472616e736665722060408201527f6661696c65640000000000000000000000000000000000000000000000000000606082015260800190565b6020808252600e908201527f6465706f7369742066696c6c6564000000000000000000000000000000000000604082015260600190565b918252602082015260400190565b73ffffffffffffffffffffffffffffffffffffffff8116811461060657600080fd5b50565b801515811461060657600080fdfea2646970667358221220275aacd7a30ec388782b032e4fe6b16ab363d343dcec57b290132d5b6ec1591364736f6c63430008000033",
  "immutableReferences": {},
  "source": "/*                              $$\\                                             $$\\                                                         \n                                $$ |                                            $$ |                                                  \n$$$$$$$\\   $$$$$$\\   $$$$$$$\\ $$$$$$\\   $$\\   $$\\  $$$$$$\\  $$$$$$$\\   $$$$$$\\  $$ |     \n$$  __$$\\ $$  __$$\\ $$  _____|\\_$$  _|  $$ |  $$ |$$  __$$\\ $$  __$$\\  \\____$$\\ $$ |    \n$$ |  $$ |$$ /  $$ |$$ /        $$ |    $$ |  $$ |$$ |  \\__|$$ |  $$ | $$$$$$$ |$$ |     \n$$ |  $$ |$$ |  $$ |$$ |        $$ |$$\\ $$ |  $$ |$$ |      $$ |  $$ |$$  __$$ |$$ |     \n$$ |  $$ |\\$$$$$$  |\\$$$$$$$\\   \\$$$$  |\\$$$$$$  |$$ |      $$ |  $$ |\\$$$$$$$ |$$ |      \n\\__|  \\__| \\______/  \\_______|   \\____/  \\______/ \\__|      \\__|  \\__| \\_______|\\__|     \n*/\n\npragma solidity ^0.8.0;\n\nimport \"@openzeppelin/contracts/token/ERC20/IERC20.sol\";\nimport \"@openzeppelin/contracts/utils/math/SafeMath.sol\";\nimport \"@uniswap/v3-core/contracts/interfaces/IUniswapV3Pool.sol\";\nimport \"./Interfaces/DepositOrderInterface.sol\";\nimport {NocturnalFinanceInterface} from \"./Interfaces/NocturnalFinanceInterface.sol\";\nimport {OrderInterface} from \"./Interfaces/OrderInterface.sol\";\nimport {CreateOrderInterface} from \"./Interfaces/CreateOrderInterface.sol\";\nimport {OracleInterface} from \"./Interfaces/OracleInterface.sol\";\n\ncontract DepositOrder is DepositOrderInterface {\n    using SafeMath for uint256;\n\n    address WETH;\n\n    event orderDeposited(uint256 _orderID);\n    \n    NocturnalFinanceInterface public nocturnalFinance;\n    \n    constructor(address _nocturnalFinance, address _WETH) {\n        nocturnalFinance = NocturnalFinanceInterface(_nocturnalFinance);\n        WETH = _WETH;\n    }\n\n    function depositOrder(uint256 _orderID, DepositParams calldata params, address _depositor) public override {\n        require(msg.sender == nocturnalFinance._contract(1));\n        require(params.closedFlag == false);\n        require(params.depositedFlag == false, \"deposit filled\");\n       \n        // transfer fromTokenBalance to order\n        // requires depositor to approve DepositOrder.sol trasnferFrom allowance \n        require(IERC20(params.fromTokenAddress).transferFrom(_depositor, params.orderAddress, params.tokenBalance), \"owner to order balance transfer failed\");\n        \n        CreateOrderInterface(nocturnalFinance._contract(1)).setAttributes(_orderID, params.tokenBalance); \n       \n        // emit events                                                \n        emit orderDeposited(_orderID);\n    }\n}\n",
  "sourcePath": "/Users/knott/Desktop/nocturnal/contracts/DepositOrder.sol",
  "compiler": {
    "name": "solc",
    "version": "0.8.0+commit.c7dfd78e.Emscripten.clang"
  },
  "schemaVersion": "3.3.3",
  "updatedAt": "2021-06-13T20:49:23.695Z",
  "networkType": "ethereum",
  "devdoc": {
    "kind": "dev",
    "methods": {},
    "version": 1
  },
  "userdoc": {
    "kind": "user",
    "methods": {},
    "version": 1
  }
}