{
  "contractName": "DistributeRewards",
  "abi": [
    {
      "inputs": [
        {
          "internalType": "address",
          "name": "_nocturnalFinance",
          "type": "address"
        }
      ],
      "stateMutability": "nonpayable",
      "type": "constructor"
    },
    {
      "inputs": [],
      "name": "nocturnalFinance",
      "outputs": [
        {
          "internalType": "contract NocturnalFinanceInterface",
          "name": "",
          "type": "address"
        }
      ],
      "stateMutability": "view",
      "type": "function",
      "constant": true
    },
    {
      "inputs": [
        {
          "internalType": "uint256",
          "name": "sFTVIE",
          "type": "uint256"
        },
        {
          "internalType": "address",
          "name": "orderOwnerAddress",
          "type": "address"
        },
        {
          "internalType": "address",
          "name": "settlerAddress",
          "type": "address"
        }
      ],
      "name": "distributeNOCT",
      "outputs": [],
      "stateMutability": "nonpayable",
      "type": "function"
    }
  ],
  "bytecode": "0x608060405234801561001057600080fd5b50604051610c19380380610c1983398101604081905261002f91610054565b600080546001600160a01b0319166001600160a01b0392909216919091179055610082565b600060208284031215610065578081fd5b81516001600160a01b038116811461007b578182fd5b9392505050565b610b88806100916000396000f3fe608060405234801561001057600080fd5b50600436106100365760003560e01c8063d4f50c961461003b578063ee64deab14610050575b600080fd5b61004e6100493660046109a9565b61006e565b005b61005861092e565b6040516100659190610a10565b60405180910390f35b6000546040517f8bf83b0400000000000000000000000000000000000000000000000000000000815273ffffffffffffffffffffffffffffffffffffffff90911690638bf83b04906100c590600390600401610a31565b60206040518083038186803b1580156100dd57600080fd5b505afa1580156100f1573d6000803e3d6000fd5b505050506040513d601f19601f820116820180604052508101906101159190610975565b73ffffffffffffffffffffffffffffffffffffffff163373ffffffffffffffffffffffffffffffffffffffff1614610182576040517f08c379a000000000000000000000000000000000000000000000000000000000815260040161017990610a3a565b60405180910390fd5b600080546040517f8bf83b0400000000000000000000000000000000000000000000000000000000815273ffffffffffffffffffffffffffffffffffffffff90911690638bf83b04906101da90600990600401610a31565b60206040518083038186803b1580156101f257600080fd5b505afa158015610206573d6000803e3d6000fd5b505050506040513d601f19601f8201168201806040525081019061022a9190610975565b73ffffffffffffffffffffffffffffffffffffffff1663b7d142e5856040518263ffffffff1660e01b81526004016102629190610a31565b602060405180830381600087803b15801561027c57600080fd5b505af1158015610290573d6000803e3d6000fd5b505050506040513d601f19601f820116820180604052508101906102b49190610991565b6000546040517f8bf83b0400000000000000000000000000000000000000000000000000000000815291925073ffffffffffffffffffffffffffffffffffffffff1690638bf83b049061030c90600990600401610a31565b60206040518083038186803b15801561032457600080fd5b505afa158015610338573d6000803e3d6000fd5b505050506040513d601f19601f8201168201806040525081019061035c9190610975565b73ffffffffffffffffffffffffffffffffffffffff16635b9c2332826040518263ffffffff1660e01b81526004016103949190610a31565b600060405180830381600087803b1580156103ae57600080fd5b505af11580156103c2573d6000803e3d6000fd5b50505050600061047c61271061047660008054906101000a900473ffffffffffffffffffffffffffffffffffffffff1673ffffffffffffffffffffffffffffffffffffffff16635d8ba5a16040518163ffffffff1660e01b815260040160206040518083038186803b15801561043757600080fd5b505afa15801561044b573d6000803e3d6000fd5b505050506040513d601f19601f8201168201806040525081019061046f9190610991565b859061094a565b9061095d565b6000546040517f8bf83b0400000000000000000000000000000000000000000000000000000000815291925073ffffffffffffffffffffffffffffffffffffffff1690638bf83b04906104d490600990600401610a31565b60206040518083038186803b1580156104ec57600080fd5b505afa158015610500573d6000803e3d6000fd5b505050506040513d601f19601f820116820180604052508101906105249190610975565b6000546040517f8bf83b0400000000000000000000000000000000000000000000000000000000815273ffffffffffffffffffffffffffffffffffffffff928316926317abd259921690638bf83b049061058390600a90600401610a31565b60206040518083038186803b15801561059b57600080fd5b505afa1580156105af573d6000803e3d6000fd5b505050506040513d601f19601f820116820180604052508101906105d39190610975565b836040518363ffffffff1660e01b81526004016105f19291906109ea565b600060405180830381600087803b15801561060b57600080fd5b505af115801561061f573d6000803e3d6000fd5b50505050610636818361096990919063ffffffff16565b915060006106e861271061047660008054906101000a900473ffffffffffffffffffffffffffffffffffffffff1673ffffffffffffffffffffffffffffffffffffffff1663ae2cb2ff6040518163ffffffff1660e01b815260040160206040518083038186803b1580156106a957600080fd5b505afa1580156106bd573d6000803e3d6000fd5b505050506040513d601f19601f820116820180604052508101906106e19190610991565b869061094a565b6000546040517f8bf83b0400000000000000000000000000000000000000000000000000000000815291925073ffffffffffffffffffffffffffffffffffffffff1690638bf83b049061074090600990600401610a31565b60206040518083038186803b15801561075857600080fd5b505afa15801561076c573d6000803e3d6000fd5b505050506040513d601f19601f820116820180604052508101906107909190610975565b73ffffffffffffffffffffffffffffffffffffffff166317abd25986836040518363ffffffff1660e01b81526004016107ca9291906109ea565b600060405180830381600087803b1580156107e457600080fd5b505af11580156107f8573d6000803e3d6000fd5b505050506000610811828561096990919063ffffffff16565b6000546040517f8bf83b0400000000000000000000000000000000000000000000000000000000815291925073ffffffffffffffffffffffffffffffffffffffff1690638bf83b049061086990600990600401610a31565b60206040518083038186803b15801561088157600080fd5b505afa158015610895573d6000803e3d6000fd5b505050506040513d601f19601f820116820180604052508101906108b99190610975565b73ffffffffffffffffffffffffffffffffffffffff166317abd25986836040518363ffffffff1660e01b81526004016108f39291906109ea565b600060405180830381600087803b15801561090d57600080fd5b505af1158015610921573d6000803e3d6000fd5b5050505050505050505050565b60005473ffffffffffffffffffffffffffffffffffffffff1681565b60006109568284610aaa565b9392505050565b60006109568284610a71565b60006109568284610ae7565b600060208284031215610986578081fd5b815161095681610b2d565b6000602082840312156109a2578081fd5b5051919050565b6000806000606084860312156109bd578182fd5b8335925060208401356109cf81610b2d565b915060408401356109df81610b2d565b809150509250925092565b73ffffffffffffffffffffffffffffffffffffffff929092168252602082015260400190565b73ffffffffffffffffffffffffffffffffffffffff91909116815260200190565b90815260200190565b60208082526018908201527f6e6f7420536574746c654f7264657220636f6e74726163740000000000000000604082015260600190565b600082610aa5577f4e487b710000000000000000000000000000000000000000000000000000000081526012600452602481fd5b500490565b6000817fffffffffffffffffffffffffffffffffffffffffffffffffffffffffffffffff0483118215151615610ae257610ae2610afe565b500290565b600082821015610af957610af9610afe565b500390565b7f4e487b7100000000000000000000000000000000000000000000000000000000600052601160045260246000fd5b73ffffffffffffffffffffffffffffffffffffffff81168114610b4f57600080fd5b5056fea264697066735822122008b764e7ba0645f6989e94ddf66ff148313bb86c95d8af15095f41eededb6ec564736f6c63430008000033",
  "immutableReferences": {},
  "source": "/*                              $$\\                                             $$\\                                                         \n                                $$ |                                            $$ |                                                  \n$$$$$$$\\   $$$$$$\\   $$$$$$$\\ $$$$$$\\   $$\\   $$\\  $$$$$$\\  $$$$$$$\\   $$$$$$\\  $$ |     \n$$  __$$\\ $$  __$$\\ $$  _____|\\_$$  _|  $$ |  $$ |$$  __$$\\ $$  __$$\\  \\____$$\\ $$ |    \n$$ |  $$ |$$ /  $$ |$$ /        $$ |    $$ |  $$ |$$ |  \\__|$$ |  $$ | $$$$$$$ |$$ |     \n$$ |  $$ |$$ |  $$ |$$ |        $$ |$$\\ $$ |  $$ |$$ |      $$ |  $$ |$$  __$$ |$$ |     \n$$ |  $$ |\\$$$$$$  |\\$$$$$$$\\   \\$$$$  |\\$$$$$$  |$$ |      $$ |  $$ |\\$$$$$$$ |$$ |      \n\\__|  \\__| \\______/  \\_______|   \\____/  \\______/ \\__|      \\__|  \\__| \\_______|\\__|     \n*/\n\npragma solidity ^0.8.0;\n\nimport \"@openzeppelin/contracts/utils/math/SafeMath.sol\";\nimport {NocturnalFinanceInterface} from \"./Interfaces/NocturnalFinanceInterface.sol\";\nimport {RewardsInterface} from \"./Interfaces/RewardsInterface.sol\";\n\ncontract DistributeRewards {\n    using SafeMath for uint256;\n    \n    uint256 internal constant bPDivisor = 10000;  // 100th of a bip\n    \n    NocturnalFinanceInterface public nocturnalFinance;\n    \n    constructor(address _nocturnalFinance) {\n        nocturnalFinance = NocturnalFinanceInterface(_nocturnalFinance);    \n    }\n\n    function distributeNOCT(uint256 sFTVIE, address orderOwnerAddress, address settlerAddress) public {\n        require(msg.sender == nocturnalFinance._contract(3), \"not SettleOrder contract\");  \n        \n        uint256 orderRewards = RewardsInterface(nocturnalFinance._contract(9)).calcRewards(sFTVIE);\n        RewardsInterface(nocturnalFinance._contract(9)).addTotalRewards(orderRewards);\n        \n        // distribute treasury rewards\n        uint256 treasuryRewards = orderRewards.mul(nocturnalFinance.treasuryFactor()).div(bPDivisor);\n        RewardsInterface(nocturnalFinance._contract(9)).addUnclaimedRewards(nocturnalFinance._contract(10), treasuryRewards);\n        \n        orderRewards = orderRewards.sub(treasuryRewards);\n    \n        // distribute creator rewards\n        uint256 creatorRewards = orderRewards.mul(nocturnalFinance.rewardsRatioFactor()).div(bPDivisor);\n        RewardsInterface(nocturnalFinance._contract(9)).addUnclaimedRewards(orderOwnerAddress, creatorRewards);\n        \n        // distribute settler rewards\n        uint256 settlerRewards = orderRewards.sub(creatorRewards);\n        RewardsInterface(nocturnalFinance._contract(9)).addUnclaimedRewards(settlerAddress, settlerRewards);\n    }\n}\n",
  "sourcePath": "/Users/knott/Desktop/nocturnal/contracts/DistributeRewards.sol",
  "compiler": {
    "name": "solc",
    "version": "0.8.0+commit.c7dfd78e.Emscripten.clang"
  },
  "schemaVersion": "3.3.3",
  "updatedAt": "2021-06-13T21:00:46.700Z",
  "networkType": "ethereum",
  "devdoc": {
    "kind": "dev",
    "methods": {},
    "version": 1
  },
  "userdoc": {
    "kind": "user",
    "methods": {},
    "version": 1
  }
}