{
  "contractName": "LinkToken",
  "abi": [
    {
      "inputs": [],
      "stateMutability": "nonpayable",
      "type": "constructor"
    },
    {
      "anonymous": false,
      "inputs": [
        {
          "indexed": true,
          "internalType": "address",
          "name": "owner",
          "type": "address"
        },
        {
          "indexed": true,
          "internalType": "address",
          "name": "spender",
          "type": "address"
        },
        {
          "indexed": false,
          "internalType": "uint256",
          "name": "value",
          "type": "uint256"
        }
      ],
      "name": "Approval",
      "type": "event"
    },
    {
      "anonymous": false,
      "inputs": [
        {
          "indexed": true,
          "internalType": "address",
          "name": "from",
          "type": "address"
        },
        {
          "indexed": true,
          "internalType": "address",
          "name": "to",
          "type": "address"
        },
        {
          "indexed": false,
          "internalType": "uint256",
          "name": "value",
          "type": "uint256"
        }
      ],
      "name": "Transfer",
      "type": "event"
    },
    {
      "inputs": [
        {
          "internalType": "address",
          "name": "owner",
          "type": "address"
        },
        {
          "internalType": "address",
          "name": "spender",
          "type": "address"
        }
      ],
      "name": "allowance",
      "outputs": [
        {
          "internalType": "uint256",
          "name": "",
          "type": "uint256"
        }
      ],
      "stateMutability": "view",
      "type": "function"
    },
    {
      "inputs": [
        {
          "internalType": "address",
          "name": "spender",
          "type": "address"
        },
        {
          "internalType": "uint256",
          "name": "amount",
          "type": "uint256"
        }
      ],
      "name": "approve",
      "outputs": [
        {
          "internalType": "bool",
          "name": "",
          "type": "bool"
        }
      ],
      "stateMutability": "nonpayable",
      "type": "function"
    },
    {
      "inputs": [
        {
          "internalType": "address",
          "name": "account",
          "type": "address"
        }
      ],
      "name": "balanceOf",
      "outputs": [
        {
          "internalType": "uint256",
          "name": "",
          "type": "uint256"
        }
      ],
      "stateMutability": "view",
      "type": "function"
    },
    {
      "inputs": [],
      "name": "callDataCalled",
      "outputs": [
        {
          "internalType": "bool",
          "name": "",
          "type": "bool"
        }
      ],
      "stateMutability": "view",
      "type": "function"
    },
    {
      "inputs": [],
      "name": "decimals",
      "outputs": [
        {
          "internalType": "uint8",
          "name": "",
          "type": "uint8"
        }
      ],
      "stateMutability": "view",
      "type": "function"
    },
    {
      "inputs": [
        {
          "internalType": "address",
          "name": "spender",
          "type": "address"
        },
        {
          "internalType": "uint256",
          "name": "subtractedValue",
          "type": "uint256"
        }
      ],
      "name": "decreaseAllowance",
      "outputs": [
        {
          "internalType": "bool",
          "name": "",
          "type": "bool"
        }
      ],
      "stateMutability": "nonpayable",
      "type": "function"
    },
    {
      "inputs": [],
      "name": "fallbackCalled",
      "outputs": [
        {
          "internalType": "bool",
          "name": "",
          "type": "bool"
        }
      ],
      "stateMutability": "view",
      "type": "function"
    },
    {
      "inputs": [
        {
          "internalType": "address",
          "name": "spender",
          "type": "address"
        },
        {
          "internalType": "uint256",
          "name": "addedValue",
          "type": "uint256"
        }
      ],
      "name": "increaseAllowance",
      "outputs": [
        {
          "internalType": "bool",
          "name": "",
          "type": "bool"
        }
      ],
      "stateMutability": "nonpayable",
      "type": "function"
    },
    {
      "inputs": [],
      "name": "name",
      "outputs": [
        {
          "internalType": "string",
          "name": "",
          "type": "string"
        }
      ],
      "stateMutability": "view",
      "type": "function"
    },
    {
      "inputs": [],
      "name": "symbol",
      "outputs": [
        {
          "internalType": "string",
          "name": "",
          "type": "string"
        }
      ],
      "stateMutability": "view",
      "type": "function"
    },
    {
      "inputs": [],
      "name": "tokensReceived",
      "outputs": [
        {
          "internalType": "uint256",
          "name": "",
          "type": "uint256"
        }
      ],
      "stateMutability": "view",
      "type": "function"
    },
    {
      "inputs": [],
      "name": "totalSupply",
      "outputs": [
        {
          "internalType": "uint256",
          "name": "",
          "type": "uint256"
        }
      ],
      "stateMutability": "view",
      "type": "function"
    },
    {
      "inputs": [
        {
          "internalType": "address",
          "name": "recipient",
          "type": "address"
        },
        {
          "internalType": "uint256",
          "name": "amount",
          "type": "uint256"
        }
      ],
      "name": "transfer",
      "outputs": [
        {
          "internalType": "bool",
          "name": "",
          "type": "bool"
        }
      ],
      "stateMutability": "nonpayable",
      "type": "function"
    },
    {
      "inputs": [
        {
          "internalType": "address",
          "name": "sender",
          "type": "address"
        },
        {
          "internalType": "address",
          "name": "recipient",
          "type": "address"
        },
        {
          "internalType": "uint256",
          "name": "amount",
          "type": "uint256"
        }
      ],
      "name": "transferFrom",
      "outputs": [
        {
          "internalType": "bool",
          "name": "",
          "type": "bool"
        }
      ],
      "stateMutability": "nonpayable",
      "type": "function"
    },
    {
      "inputs": [
        {
          "internalType": "address",
          "name": "_to",
          "type": "address"
        },
        {
          "internalType": "uint256",
          "name": "_value",
          "type": "uint256"
        },
        {
          "internalType": "bytes",
          "name": "_data",
          "type": "bytes"
        }
      ],
      "name": "transferAndCall",
      "outputs": [
        {
          "internalType": "bool",
          "name": "success",
          "type": "bool"
        }
      ],
      "stateMutability": "nonpayable",
      "type": "function"
    }
  ],
  "bytecode": "0x60806040523480156200001157600080fd5b50604080518082018252600f81526e21b430b4b72634b735902a37b5b2b760891b6020808301918252835180850190945260048452634c494e4b60e01b908401528151919291620000659160039162000182565b5080516200007b90600490602084019062000182565b50620000899150506200008f565b620002ca565b620000a7336b033b2e3c9fd0803ce8000000620000a9565b565b6001600160a01b038216620000db5760405162461bcd60e51b8152600401620000d29062000228565b60405180910390fd5b620000e9600083836200017d565b8060026000828254620000fd919062000268565b90915550506001600160a01b038216600090815260208190526040812080548392906200012c90849062000268565b90915550506040516001600160a01b038316906000907fddf252ad1be2c89b69c2b068fc378daa952ba7f163c4a11628f55a4df523b3ef90620001719085906200025f565b60405180910390a35050565b505050565b82805462000190906200028d565b90600052602060002090601f016020900481019282620001b45760008555620001ff565b82601f10620001cf57805160ff1916838001178555620001ff565b82800160010185558215620001ff579182015b82811115620001ff578251825591602001919060010190620001e2565b506200020d92915062000211565b5090565b5b808211156200020d576000815560010162000212565b6020808252601f908201527f45524332303a206d696e7420746f20746865207a65726f206164647265737300604082015260600190565b90815260200190565b600082198211156200028857634e487b7160e01b81526011600452602481fd5b500190565b600281046001821680620002a257607f821691505b60208210811415620002c457634e487b7160e01b600052602260045260246000fd5b50919050565b61102b80620002da6000396000f3fe608060405234801561001057600080fd5b50600436106100f55760003560e01c80634000aea011610097578063a9059cbb11610066578063a9059cbb146101d1578063aa2c4b02146101e4578063dd62ed3e146101ec578063e2994d43146101ff576100f5565b80634000aea01461019057806370a08231146101a357806395d89b41146101b6578063a457c2d7146101be576100f5565b806323b872dd116100d357806323b872dd1461014d578063313ce5671461016057806339509351146101755780633bb0cc5514610188576100f5565b806306fdde03146100fa578063095ea7b31461011857806318160ddd14610138575b600080fd5b610102610207565b60405161010f9190610c02565b60405180910390f35b61012b610126366004610a4c565b610299565b60405161010f9190610bf7565b6101406102b6565b60405161010f9190610efd565b61012b61015b366004610a11565b6102bc565b61016861039d565b60405161010f9190610f06565b61012b610183366004610a4c565b6103a2565b6101406103fe565b61012b61019e366004610a75565b610404565b6101406101b13660046109be565b610434565b610102610460565b61012b6101cc366004610a4c565b61046f565b61012b6101df366004610a4c565b610507565b61012b61051b565b6101406101fa3660046109df565b610524565b61012b61055c565b60606003805461021690610f43565b80601f016020809104026020016040519081016040528092919081815260200182805461024290610f43565b801561028f5780601f106102645761010080835404028352916020019161028f565b820191906000526020600020905b81548152906001019060200180831161027257829003601f168201915b5050505050905090565b60006102ad6102a661056a565b848461056e565b50600192915050565b60025490565b60006102c98484846105d0565b73ffffffffffffffffffffffffffffffffffffffff84166000908152600160205260408120816102f761056a565b73ffffffffffffffffffffffffffffffffffffffff1673ffffffffffffffffffffffffffffffffffffffff16815260200190815260200160002054905082811015610377576040517f08c379a000000000000000000000000000000000000000000000000000000000815260040161036e90610d89565b60405180910390fd5b6103928561038361056a565b61038d8685610f2c565b61056e565b506001949350505050565b601290565b60006102ad6103af61056a565b8484600160006103bd61056a565b73ffffffffffffffffffffffffffffffffffffffff908116825260208083019390935260409182016000908120918b168152925290205461038d9190610f14565b60065481565b60006104108484610507565b5061041a8461062c565b1561042a5761042a848484610632565b5060019392505050565b73ffffffffffffffffffffffffffffffffffffffff81166000908152602081905260409020545b919050565b60606004805461021690610f43565b6000806001600061047e61056a565b73ffffffffffffffffffffffffffffffffffffffff908116825260208083019390935260409182016000908120918816815292529020549050828110156104f1576040517f08c379a000000000000000000000000000000000000000000000000000000000815260040161036e90610ea0565b61042a6104fc61056a565b8561038d8685610f2c565b60006102ad61051461056a565b84846105d0565b60055460ff1681565b73ffffffffffffffffffffffffffffffffffffffff918216600090815260016020908152604080832093909416825291909152205490565b600554610100900460ff1681565b3390565b8173ffffffffffffffffffffffffffffffffffffffff81163014156105bf576040517f08c379a000000000000000000000000000000000000000000000000000000000815260040161036e90610ccf565b6105ca8484846106c2565b50505050565b8173ffffffffffffffffffffffffffffffffffffffff8116301415610621576040517f08c379a000000000000000000000000000000000000000000000000000000000815260040161036e90610ccf565b6105ca8484846107d1565b3b151590565b6040517fa4c0ed36000000000000000000000000000000000000000000000000000000008152839073ffffffffffffffffffffffffffffffffffffffff82169063a4c0ed369061068a90339087908790600401610bb9565b600060405180830381600087803b1580156106a457600080fd5b505af11580156106b8573d6000803e3d6000fd5b5050505050505050565b73ffffffffffffffffffffffffffffffffffffffff831661070f576040517f08c379a000000000000000000000000000000000000000000000000000000000815260040161036e90610e43565b73ffffffffffffffffffffffffffffffffffffffff821661075c576040517f08c379a000000000000000000000000000000000000000000000000000000000815260040161036e90610c72565b73ffffffffffffffffffffffffffffffffffffffff80841660008181526001602090815260408083209487168084529490915290819020849055517f8c5be1e5ebec7d5bd14f71427d1e84f3dd0314c0f7b2291e5b200ac8c7c3b925906107c4908590610efd565b60405180910390a3505050565b73ffffffffffffffffffffffffffffffffffffffff831661081e576040517f08c379a000000000000000000000000000000000000000000000000000000000815260040161036e90610de6565b73ffffffffffffffffffffffffffffffffffffffff821661086b576040517f08c379a000000000000000000000000000000000000000000000000000000000815260040161036e90610c15565b610876838383610995565b73ffffffffffffffffffffffffffffffffffffffff8316600090815260208190526040902054818110156108d6576040517f08c379a000000000000000000000000000000000000000000000000000000000815260040161036e90610d2c565b6108e08282610f2c565b73ffffffffffffffffffffffffffffffffffffffff8086166000908152602081905260408082209390935590851681529081208054849290610923908490610f14565b925050819055508273ffffffffffffffffffffffffffffffffffffffff168473ffffffffffffffffffffffffffffffffffffffff167fddf252ad1be2c89b69c2b068fc378daa952ba7f163c4a11628f55a4df523b3ef846040516109879190610efd565b60405180910390a350505050565b505050565b803573ffffffffffffffffffffffffffffffffffffffff8116811461045b57600080fd5b6000602082840312156109cf578081fd5b6109d88261099a565b9392505050565b600080604083850312156109f1578081fd5b6109fa8361099a565b9150610a086020840161099a565b90509250929050565b600080600060608486031215610a25578081fd5b610a2e8461099a565b9250610a3c6020850161099a565b9150604084013590509250925092565b60008060408385031215610a5e578182fd5b610a678361099a565b946020939093013593505050565b600080600060608486031215610a89578283fd5b610a928461099a565b92506020808501359250604085013567ffffffffffffffff80821115610ab6578384fd5b818701915087601f830112610ac9578384fd5b813581811115610adb57610adb610fc6565b604051847fffffffffffffffffffffffffffffffffffffffffffffffffffffffffffffffe0601f8401168201018181108482111715610b1c57610b1c610fc6565b60405281815283820185018a1015610b32578586fd5b81858501868301378585838301015280955050505050509250925092565b60008151808452815b81811015610b7557602081850181015186830182015201610b59565b81811115610b865782602083870101525b50601f017fffffffffffffffffffffffffffffffffffffffffffffffffffffffffffffffe0169290920160200192915050565b600073ffffffffffffffffffffffffffffffffffffffff8516825283602083015260606040830152610bee6060830184610b50565b95945050505050565b901515815260200190565b6000602082526109d86020830184610b50565b60208082526023908201527f45524332303a207472616e7366657220746f20746865207a65726f206164647260408201527f6573730000000000000000000000000000000000000000000000000000000000606082015260800190565b60208082526022908201527f45524332303a20617070726f766520746f20746865207a65726f20616464726560408201527f7373000000000000000000000000000000000000000000000000000000000000606082015260800190565b60208082526034908201527f4c696e6b546f6b656e3a207472616e736665722f617070726f766520746f207460408201527f68697320636f6e74726163742061646472657373000000000000000000000000606082015260800190565b60208082526026908201527f45524332303a207472616e7366657220616d6f756e742065786365656473206260408201527f616c616e63650000000000000000000000000000000000000000000000000000606082015260800190565b60208082526028908201527f45524332303a207472616e7366657220616d6f756e742065786365656473206160408201527f6c6c6f77616e6365000000000000000000000000000000000000000000000000606082015260800190565b60208082526025908201527f45524332303a207472616e736665722066726f6d20746865207a65726f20616460408201527f6472657373000000000000000000000000000000000000000000000000000000606082015260800190565b60208082526024908201527f45524332303a20617070726f76652066726f6d20746865207a65726f2061646460408201527f7265737300000000000000000000000000000000000000000000000000000000606082015260800190565b60208082526025908201527f45524332303a2064656372656173656420616c6c6f77616e63652062656c6f7760408201527f207a65726f000000000000000000000000000000000000000000000000000000606082015260800190565b90815260200190565b60ff91909116815260200190565b60008219821115610f2757610f27610f97565b500190565b600082821015610f3e57610f3e610f97565b500390565b600281046001821680610f5757607f821691505b60208210811415610f91577f4e487b7100000000000000000000000000000000000000000000000000000000600052602260045260246000fd5b50919050565b7f4e487b7100000000000000000000000000000000000000000000000000000000600052601160045260246000fd5b7f4e487b7100000000000000000000000000000000000000000000000000000000600052604160045260246000fdfea2646970667358221220f5255d8ae760eaf3c19591f87fa96070f1551da95da901f78bd86cd5cb4bcfbb64736f6c63430008000033",
  "immutableReferences": {},
  "source": "pragma solidity ^0.8.0;\n\nimport \"@openzeppelin/contracts/token/ERC20/ERC20.sol\";\nimport \"./ERC677Receiver.sol\";\n\ncontract LinkToken is ERC20 {\n  uint private constant TOTAL_SUPPLY = 10**27;\n  string private constant NAME = 'ChainLink Token';\n  string private constant SYMBOL = 'LINK';\n\n  bool public fallbackCalled;\n  bool public callDataCalled;\n  uint public tokensReceived;\n\n  constructor() ERC20(NAME, SYMBOL)\n    public\n  {\n    _onCreate();\n  }\n\n  /**\n   * @dev Hook that is called when this contract is created.\n   * Useful to override constructor behaviour in child contracts (e.g., LINK bridge tokens).\n   * @notice Default implementation mints 10**27 tokens to msg.sender\n   */\n  function _onCreate()\n    internal\n    virtual\n  {\n    _mint(msg.sender, TOTAL_SUPPLY);\n  }\n\n  /**\n   * @dev Moves tokens `amount` from `sender` to `recipient`.\n   *\n   * This is internal function is equivalent to {transfer}, and can be used to\n   * e.g. implement automatic token fees, slashing mechanisms, etc.\n   *\n   * Emits a {Transfer} event.\n   *\n   * Requirements:\n   *\n   * - `sender` cannot be the zero address.\n   * - `recipient` cannot be the zero address.\n   * - `sender` must have a balance of at least `amount`.\n   */\n  function _transfer(address sender, address recipient, uint256 amount)\n    internal\n    override\n    virtual\n    validAddress(recipient)\n  {\n    super._transfer(sender, recipient, amount);\n  }\n\n  /**\n   * @dev Sets `amount` as the allowance of `spender` over the `owner`s tokens.\n   *\n   * This is internal function is equivalent to `approve`, and can be used to\n   * e.g. set automatic allowances for certain subsystems, etc.\n   *\n   * Emits an {Approval} event.\n   *\n   * Requirements:\n   *\n   * - `owner` cannot be the zero address.\n   * - `spender` cannot be the zero address.\n   */\n  function _approve(address owner, address spender, uint256 amount)\n    internal\n    override\n    virtual\n    validAddress(spender)\n  {\n    super._approve(owner, spender, amount);\n  }\n\n\n  /**\n  * @dev transfer token to a contract address with additional data if the recipient is a contact.\n  * @param _to The address to transfer to.\n  * @param _value The amount to be transferred.\n  * @param _data The extra data to be passed to the receiving contract.\n  */\n  function transferAndCall(address _to, uint _value, bytes memory _data)\n    public\n    returns (bool success)\n  {\n    super.transfer(_to, _value);\n    if (isContract(_to)) {\n      contractFallback(_to, _value, _data);\n    }\n    return true;\n  }\n\n\n  // PRIVATE\n\n  function contractFallback(address _to, uint _value, bytes memory _data)\n    private\n  {\n    ERC677Receiver receiver = ERC677Receiver(_to);\n    receiver.onTokenTransfer(msg.sender, _value, _data);\n  }\n\n  function isContract(address _addr)\n    private\n    returns (bool hasCode)\n  {\n    uint length;\n    assembly { length := extcodesize(_addr) }\n    return length > 0;\n  }\n\n  // MODIFIERS\n\n  modifier validAddress(address _recipient) {\n    require(_recipient != address(this), \"LinkToken: transfer/approve to this contract address\");\n    _;\n  }\n}\n",
  "sourcePath": "/Users/knott/Desktop/nocturnal/contracts/Mocks/LinkToken.sol",
  "compiler": {
    "name": "solc",
    "version": "0.8.0+commit.c7dfd78e.Emscripten.clang"
  },
  "schemaVersion": "3.3.3",
  "updatedAt": "2021-05-20T06:19:55.821Z",
  "devdoc": {
    "kind": "dev",
    "methods": {
      "allowance(address,address)": {
        "details": "See {IERC20-allowance}."
      },
      "approve(address,uint256)": {
        "details": "See {IERC20-approve}. Requirements: - `spender` cannot be the zero address."
      },
      "balanceOf(address)": {
        "details": "See {IERC20-balanceOf}."
      },
      "decimals()": {
        "details": "Returns the number of decimals used to get its user representation. For example, if `decimals` equals `2`, a balance of `505` tokens should be displayed to a user as `5,05` (`505 / 10 ** 2`). Tokens usually opt for a value of 18, imitating the relationship between Ether and Wei. This is the value {ERC20} uses, unless this function is overridden; NOTE: This information is only used for _display_ purposes: it in no way affects any of the arithmetic of the contract, including {IERC20-balanceOf} and {IERC20-transfer}."
      },
      "decreaseAllowance(address,uint256)": {
        "details": "Atomically decreases the allowance granted to `spender` by the caller. This is an alternative to {approve} that can be used as a mitigation for problems described in {IERC20-approve}. Emits an {Approval} event indicating the updated allowance. Requirements: - `spender` cannot be the zero address. - `spender` must have allowance for the caller of at least `subtractedValue`."
      },
      "increaseAllowance(address,uint256)": {
        "details": "Atomically increases the allowance granted to `spender` by the caller. This is an alternative to {approve} that can be used as a mitigation for problems described in {IERC20-approve}. Emits an {Approval} event indicating the updated allowance. Requirements: - `spender` cannot be the zero address."
      },
      "name()": {
        "details": "Returns the name of the token."
      },
      "symbol()": {
        "details": "Returns the symbol of the token, usually a shorter version of the name."
      },
      "totalSupply()": {
        "details": "See {IERC20-totalSupply}."
      },
      "transfer(address,uint256)": {
        "details": "See {IERC20-transfer}. Requirements: - `recipient` cannot be the zero address. - the caller must have a balance of at least `amount`."
      },
      "transferAndCall(address,uint256,bytes)": {
        "details": "transfer token to a contract address with additional data if the recipient is a contact.",
        "params": {
          "_data": "The extra data to be passed to the receiving contract.",
          "_to": "The address to transfer to.",
          "_value": "The amount to be transferred."
        }
      },
      "transferFrom(address,address,uint256)": {
        "details": "See {IERC20-transferFrom}. Emits an {Approval} event indicating the updated allowance. This is not required by the EIP. See the note at the beginning of {ERC20}. Requirements: - `sender` and `recipient` cannot be the zero address. - `sender` must have a balance of at least `amount`. - the caller must have allowance for ``sender``'s tokens of at least `amount`."
      }
    },
    "version": 1
  },
  "userdoc": {
    "kind": "user",
    "methods": {},
    "version": 1
  }
}