{
  "contractName": "NocturnalFinance",
  "abi": [
    {
      "inputs": [],
      "stateMutability": "nonpayable",
      "type": "constructor"
    },
    {
      "anonymous": false,
      "inputs": [
        {
          "indexed": true,
          "internalType": "address",
          "name": "previousOwner",
          "type": "address"
        },
        {
          "indexed": true,
          "internalType": "address",
          "name": "newOwner",
          "type": "address"
        }
      ],
      "name": "OwnershipTransferred",
      "type": "event"
    },
    {
      "inputs": [
        {
          "internalType": "uint256",
          "name": "",
          "type": "uint256"
        }
      ],
      "name": "_contract",
      "outputs": [
        {
          "internalType": "address",
          "name": "",
          "type": "address"
        }
      ],
      "stateMutability": "view",
      "type": "function",
      "constant": true
    },
    {
      "inputs": [],
      "name": "orderURI",
      "outputs": [
        {
          "internalType": "string",
          "name": "",
          "type": "string"
        }
      ],
      "stateMutability": "view",
      "type": "function",
      "constant": true
    },
    {
      "inputs": [],
      "name": "owner",
      "outputs": [
        {
          "internalType": "address",
          "name": "",
          "type": "address"
        }
      ],
      "stateMutability": "view",
      "type": "function",
      "constant": true
    },
    {
      "inputs": [],
      "name": "platformRate",
      "outputs": [
        {
          "internalType": "uint256",
          "name": "",
          "type": "uint256"
        }
      ],
      "stateMutability": "view",
      "type": "function",
      "constant": true
    },
    {
      "inputs": [],
      "name": "renounceOwnership",
      "outputs": [],
      "stateMutability": "nonpayable",
      "type": "function"
    },
    {
      "inputs": [],
      "name": "rewardsRatioFactor",
      "outputs": [
        {
          "internalType": "uint256",
          "name": "",
          "type": "uint256"
        }
      ],
      "stateMutability": "view",
      "type": "function",
      "constant": true
    },
    {
      "inputs": [
        {
          "internalType": "address",
          "name": "newOwner",
          "type": "address"
        }
      ],
      "name": "transferOwnership",
      "outputs": [],
      "stateMutability": "nonpayable",
      "type": "function"
    },
    {
      "inputs": [],
      "name": "treasuryFactor",
      "outputs": [
        {
          "internalType": "uint256",
          "name": "",
          "type": "uint256"
        }
      ],
      "stateMutability": "view",
      "type": "function",
      "constant": true
    },
    {
      "inputs": [
        {
          "internalType": "uint256",
          "name": "_index",
          "type": "uint256"
        },
        {
          "internalType": "address",
          "name": "_address",
          "type": "address"
        }
      ],
      "name": "initNocturnal",
      "outputs": [],
      "stateMutability": "nonpayable",
      "type": "function"
    },
    {
      "inputs": [],
      "name": "rewardsApproval",
      "outputs": [],
      "stateMutability": "nonpayable",
      "type": "function"
    },
    {
      "inputs": [],
      "name": "treasuryApproval",
      "outputs": [],
      "stateMutability": "nonpayable",
      "type": "function"
    },
    {
      "inputs": [
        {
          "internalType": "uint256",
          "name": "_pRateBasisPoints",
          "type": "uint256"
        }
      ],
      "name": "setPlatformRate",
      "outputs": [],
      "stateMutability": "nonpayable",
      "type": "function"
    },
    {
      "inputs": [
        {
          "internalType": "uint256",
          "name": "_rFactorBasisPoints",
          "type": "uint256"
        }
      ],
      "name": "setRewardsFactor",
      "outputs": [],
      "stateMutability": "nonpayable",
      "type": "function"
    },
    {
      "inputs": [
        {
          "internalType": "uint256",
          "name": "_tFactorBasisPoints",
          "type": "uint256"
        }
      ],
      "name": "setTreasuryFactor",
      "outputs": [],
      "stateMutability": "nonpayable",
      "type": "function"
    },
    {
      "inputs": [
        {
          "internalType": "string",
          "name": "_orderURI",
          "type": "string"
        }
      ],
      "name": "setOrderURI",
      "outputs": [],
      "stateMutability": "nonpayable",
      "type": "function"
    }
  ],
  "bytecode": "0x608060405234801561001057600080fd5b50600061001b61006a565b600080546001600160a01b0319166001600160a01b0383169081178255604051929350917f8be0079c531659141344cd1fd0a4f28419497f9722a3daafe3b4186f6b6457e0908290a35061006e565b3390565b610db68061007d6000396000f3fe608060405234801561001057600080fd5b50600436106100f55760003560e01c80638da5cb5b11610097578063b5044f2411610066578063b5044f24146101b0578063d444a0c5146101b8578063e5f71975146101cb578063f2fde38b146101de576100f5565b80638da5cb5b146101785780639c9c0d0f14610180578063ae2cb2ff14610195578063b121ab551461019d576100f5565b806354db8d0d116100d357806354db8d0d146101355780635d8ba5a114610148578063715018a6146101505780638bf83b0414610158576100f5565b80630376345f146100fa57806336e0cac61461010f578063504d37671461012d575b600080fd5b61010d610108366004610b8d565b6101f1565b005b610117610272565b6040516101249190610cf4565b60405180910390f35b61010d610278565b61010d610143366004610b8d565b610396565b61011761040e565b61010d610414565b61016b610166366004610b8d565b6104f6565b6040516101249190610bd0565b61016b61051e565b61018861053a565b6040516101249190610bf1565b6101176105c8565b61010d6101ab366004610ace565b6105ce565b61010d610658565b61010d6101c6366004610ba5565b61075c565b61010d6101d9366004610b8d565b610822565b61010d6101ec366004610aad565b61089a565b6101f96109e7565b73ffffffffffffffffffffffffffffffffffffffff1661021761051e565b73ffffffffffffffffffffffffffffffffffffffff161461026d576040517f08c379a000000000000000000000000000000000000000000000000000000000815260040161026490610cbf565b60405180910390fd5b600455565b60025481565b6102806109e7565b73ffffffffffffffffffffffffffffffffffffffff1661029e61051e565b73ffffffffffffffffffffffffffffffffffffffff16146102eb576040517f08c379a000000000000000000000000000000000000000000000000000000000815260040161026490610cbf565b6009600090815260016020527f74a5fbcb419ab7dbacbb2c92a4e163730f0da5c72b911deecf4f05a6b327d0a454604080517f029a93e9000000000000000000000000000000000000000000000000000000008152905173ffffffffffffffffffffffffffffffffffffffff9092169263029a93e99260048084019382900301818387803b15801561037c57600080fd5b505af1158015610390573d6000803e3d6000fd5b50505050565b61039e6109e7565b73ffffffffffffffffffffffffffffffffffffffff166103bc61051e565b73ffffffffffffffffffffffffffffffffffffffff1614610409576040517f08c379a000000000000000000000000000000000000000000000000000000000815260040161026490610cbf565b600255565b60045481565b61041c6109e7565b73ffffffffffffffffffffffffffffffffffffffff1661043a61051e565b73ffffffffffffffffffffffffffffffffffffffff1614610487576040517f08c379a000000000000000000000000000000000000000000000000000000000815260040161026490610cbf565b6000805460405173ffffffffffffffffffffffffffffffffffffffff909116907f8be0079c531659141344cd1fd0a4f28419497f9722a3daafe3b4186f6b6457e0908390a3600080547fffffffffffffffffffffffff0000000000000000000000000000000000000000169055565b60016020526000908152604090205473ffffffffffffffffffffffffffffffffffffffff1681565b60005473ffffffffffffffffffffffffffffffffffffffff1690565b6005805461054790610cfd565b80601f016020809104026020016040519081016040528092919081815260200182805461057390610cfd565b80156105c05780601f10610595576101008083540402835291602001916105c0565b820191906000526020600020905b8154815290600101906020018083116105a357829003601f168201915b505050505081565b60035481565b6105d66109e7565b73ffffffffffffffffffffffffffffffffffffffff166105f461051e565b73ffffffffffffffffffffffffffffffffffffffff1614610641576040517f08c379a000000000000000000000000000000000000000000000000000000000815260040161026490610cbf565b80516106549060059060208401906109eb565b5050565b6106606109e7565b73ffffffffffffffffffffffffffffffffffffffff1661067e61051e565b73ffffffffffffffffffffffffffffffffffffffff16146106cb576040517f08c379a000000000000000000000000000000000000000000000000000000000815260040161026490610cbf565b600a600090815260016020527f2a32391a76c35a36352b711f9152c0d0a340cd686850c8ef25fbb11c71b89e7b54604080517f029a93e9000000000000000000000000000000000000000000000000000000008152905173ffffffffffffffffffffffffffffffffffffffff9092169263029a93e99260048084019382900301818387803b15801561037c57600080fd5b6107646109e7565b73ffffffffffffffffffffffffffffffffffffffff1661078261051e565b73ffffffffffffffffffffffffffffffffffffffff16146107cf576040517f08c379a000000000000000000000000000000000000000000000000000000000815260040161026490610cbf565b60009182526001602052604090912080547fffffffffffffffffffffffff00000000000000000000000000000000000000001673ffffffffffffffffffffffffffffffffffffffff909216919091179055565b61082a6109e7565b73ffffffffffffffffffffffffffffffffffffffff1661084861051e565b73ffffffffffffffffffffffffffffffffffffffff1614610895576040517f08c379a000000000000000000000000000000000000000000000000000000000815260040161026490610cbf565b600355565b6108a26109e7565b73ffffffffffffffffffffffffffffffffffffffff166108c061051e565b73ffffffffffffffffffffffffffffffffffffffff161461090d576040517f08c379a000000000000000000000000000000000000000000000000000000000815260040161026490610cbf565b73ffffffffffffffffffffffffffffffffffffffff811661095a576040517f08c379a000000000000000000000000000000000000000000000000000000000815260040161026490610c62565b6000805460405173ffffffffffffffffffffffffffffffffffffffff808516939216917f8be0079c531659141344cd1fd0a4f28419497f9722a3daafe3b4186f6b6457e091a3600080547fffffffffffffffffffffffff00000000000000000000000000000000000000001673ffffffffffffffffffffffffffffffffffffffff92909216919091179055565b3390565b8280546109f790610cfd565b90600052602060002090601f016020900481019282610a195760008555610a5f565b82601f10610a3257805160ff1916838001178555610a5f565b82800160010185558215610a5f579182015b82811115610a5f578251825591602001919060010190610a44565b50610a6b929150610a6f565b5090565b5b80821115610a6b5760008155600101610a70565b803573ffffffffffffffffffffffffffffffffffffffff81168114610aa857600080fd5b919050565b600060208284031215610abe578081fd5b610ac782610a84565b9392505050565b60006020808385031215610ae0578182fd5b823567ffffffffffffffff80821115610af7578384fd5b818501915085601f830112610b0a578384fd5b813581811115610b1c57610b1c610d51565b604051847fffffffffffffffffffffffffffffffffffffffffffffffffffffffffffffffe0601f8401168201018181108482111715610b5d57610b5d610d51565b6040528181528382018501881015610b73578586fd5b818585018683013790810190930193909352509392505050565b600060208284031215610b9e578081fd5b5035919050565b60008060408385031215610bb7578081fd5b82359150610bc760208401610a84565b90509250929050565b73ffffffffffffffffffffffffffffffffffffffff91909116815260200190565b6000602080835283518082850152825b81811015610c1d57858101830151858201604001528201610c01565b81811115610c2e5783604083870101525b50601f017fffffffffffffffffffffffffffffffffffffffffffffffffffffffffffffffe016929092016040019392505050565b60208082526026908201527f4f776e61626c653a206e6577206f776e657220697320746865207a65726f206160408201527f6464726573730000000000000000000000000000000000000000000000000000606082015260800190565b6020808252818101527f4f776e61626c653a2063616c6c6572206973206e6f7420746865206f776e6572604082015260600190565b90815260200190565b600281046001821680610d1157607f821691505b60208210811415610d4b577f4e487b7100000000000000000000000000000000000000000000000000000000600052602260045260246000fd5b50919050565b7f4e487b7100000000000000000000000000000000000000000000000000000000600052604160045260246000fdfea264697066735822122049e94c0957d08d2e7e376a626b7be86cd0e907c99b3bb94bc948e08daae61e2b64736f6c63430008000033",
  "immutableReferences": {},
  "source": "/*                              $$\\                                             $$\\                                                         \n                                $$ |                                            $$ |                                                  \n$$$$$$$\\   $$$$$$\\   $$$$$$$\\ $$$$$$\\   $$\\   $$\\  $$$$$$\\  $$$$$$$\\   $$$$$$\\  $$ |     \n$$  __$$\\ $$  __$$\\ $$  _____|\\_$$  _|  $$ |  $$ |$$  __$$\\ $$  __$$\\  \\____$$\\ $$ |    \n$$ |  $$ |$$ /  $$ |$$ /        $$ |    $$ |  $$ |$$ |  \\__|$$ |  $$ | $$$$$$$ |$$ |     \n$$ |  $$ |$$ |  $$ |$$ |        $$ |$$\\ $$ |  $$ |$$ |      $$ |  $$ |$$  __$$ |$$ |     \n$$ |  $$ |\\$$$$$$  |\\$$$$$$$\\   \\$$$$  |\\$$$$$$  |$$ |      $$ |  $$ |\\$$$$$$$ |$$ |      \n\\__|  \\__| \\______/  \\_______|   \\____/  \\______/ \\__|      \\__|  \\__| \\_______|\\__|     \n*/\n\npragma solidity ^0.8.0;\n\nimport \"@openzeppelin/contracts/access/Ownable.sol\";\nimport {RewardsInterface} from \"./Interfaces/RewardsInterface.sol\";\nimport {TreasuryInterface} from \"./Interfaces/TreasuryInterface.sol\";\n\ncontract NocturnalFinance is Ownable {\n    \n    mapping (uint256 => address) public _contract;\n    \n    // 0: sNoctAddress;\n    // 1: createOrderAddress;\n    // 2: depositOrderAddress;\n    // 3: settleOrderAddress;\n    // 4: closeOrderAddress;\n    // 5: \n    // 6: settleOrderTransferAddress;\n    // 7: oracleAddress;\n    // 8: orderAddress;\n    // 9: rewardsAddress;\n    // 10: treasuryAddress;\n    // 11: distributeRewardsAddress;\n    // 12: noctAddress;\n\n    uint256 public platformRate;\n    uint256 public rewardsRatioFactor;\n    uint256 public treasuryFactor;\n    string public orderURI;\n    \n    constructor() {\n    }\n    \n    function initNocturnal(uint256 _index, address _address) external onlyOwner {\n\t\t_contract[_index] = _address;\n    }\n    \n    function rewardsApproval() external onlyOwner {\n        RewardsInterface(_contract[9]).approveStaking();\n    }\n    \n    function treasuryApproval() external onlyOwner {\n        TreasuryInterface(_contract[10]).approveStaking();\n    }\n  \n    function setPlatformRate(uint256 _pRateBasisPoints) external onlyOwner {\n        platformRate = _pRateBasisPoints;\n    }\n    \n    function setRewardsFactor(uint256 _rFactorBasisPoints) external onlyOwner {\n        rewardsRatioFactor = _rFactorBasisPoints;\n    }\n    \n    function setTreasuryFactor(uint256 _tFactorBasisPoints) external onlyOwner {\n        treasuryFactor = _tFactorBasisPoints;\n    }\n    \n    function setOrderURI(string memory _orderURI) external onlyOwner {\n        orderURI = _orderURI;\n    }\n}\n",
  "sourcePath": "/Users/knott/Desktop/nocturnal/contracts/NocturnalFinance.sol",
  "compiler": {
    "name": "solc",
    "version": "0.8.0+commit.c7dfd78e.Emscripten.clang"
  },
  "schemaVersion": "3.3.3",
  "updatedAt": "2021-06-13T20:49:23.663Z",
  "networkType": "ethereum",
  "devdoc": {
    "kind": "dev",
    "methods": {
      "owner()": {
        "details": "Returns the address of the current owner."
      },
      "renounceOwnership()": {
        "details": "Leaves the contract without owner. It will not be possible to call `onlyOwner` functions anymore. Can only be called by the current owner. NOTE: Renouncing ownership will leave the contract without an owner, thereby removing any functionality that is only available to the owner."
      },
      "transferOwnership(address)": {
        "details": "Transfers ownership of the contract to a new account (`newOwner`). Can only be called by the current owner."
      }
    },
    "version": 1
  },
  "userdoc": {
    "kind": "user",
    "methods": {},
    "version": 1
  }
}