{
  "contractName": "NocturnalFinance",
  "abi": [
    {
      "inputs": [],
      "stateMutability": "nonpayable",
      "type": "constructor"
    },
    {
      "anonymous": false,
      "inputs": [
        {
          "indexed": true,
          "internalType": "address",
          "name": "previousOwner",
          "type": "address"
        },
        {
          "indexed": true,
          "internalType": "address",
          "name": "newOwner",
          "type": "address"
        }
      ],
      "name": "OwnershipTransferred",
      "type": "event"
    },
    {
      "inputs": [],
      "name": "depositFeeRate",
      "outputs": [
        {
          "internalType": "uint256",
          "name": "",
          "type": "uint256"
        }
      ],
      "stateMutability": "view",
      "type": "function"
    },
    {
      "inputs": [],
      "name": "noctAddress",
      "outputs": [
        {
          "internalType": "address",
          "name": "",
          "type": "address"
        }
      ],
      "stateMutability": "view",
      "type": "function"
    },
    {
      "inputs": [],
      "name": "oracleAddress",
      "outputs": [
        {
          "internalType": "address",
          "name": "",
          "type": "address"
        }
      ],
      "stateMutability": "view",
      "type": "function"
    },
    {
      "inputs": [],
      "name": "orderAddress",
      "outputs": [
        {
          "internalType": "address",
          "name": "",
          "type": "address"
        }
      ],
      "stateMutability": "view",
      "type": "function"
    },
    {
      "inputs": [],
      "name": "orderCloserAddress",
      "outputs": [
        {
          "internalType": "address",
          "name": "",
          "type": "address"
        }
      ],
      "stateMutability": "view",
      "type": "function"
    },
    {
      "inputs": [],
      "name": "orderCreatorAddress",
      "outputs": [
        {
          "internalType": "address",
          "name": "",
          "type": "address"
        }
      ],
      "stateMutability": "view",
      "type": "function"
    },
    {
      "inputs": [],
      "name": "orderFactoryAddress",
      "outputs": [
        {
          "internalType": "address",
          "name": "",
          "type": "address"
        }
      ],
      "stateMutability": "view",
      "type": "function"
    },
    {
      "inputs": [],
      "name": "orderModifierAddress",
      "outputs": [
        {
          "internalType": "address",
          "name": "",
          "type": "address"
        }
      ],
      "stateMutability": "view",
      "type": "function"
    },
    {
      "inputs": [],
      "name": "orderSettlerAddress",
      "outputs": [
        {
          "internalType": "address",
          "name": "",
          "type": "address"
        }
      ],
      "stateMutability": "view",
      "type": "function"
    },
    {
      "inputs": [],
      "name": "orderTransferAddress",
      "outputs": [
        {
          "internalType": "address",
          "name": "",
          "type": "address"
        }
      ],
      "stateMutability": "view",
      "type": "function"
    },
    {
      "inputs": [],
      "name": "orderURI",
      "outputs": [
        {
          "internalType": "string",
          "name": "",
          "type": "string"
        }
      ],
      "stateMutability": "view",
      "type": "function"
    },
    {
      "inputs": [],
      "name": "owner",
      "outputs": [
        {
          "internalType": "address",
          "name": "",
          "type": "address"
        }
      ],
      "stateMutability": "view",
      "type": "function"
    },
    {
      "inputs": [],
      "name": "renounceOwnership",
      "outputs": [],
      "stateMutability": "nonpayable",
      "type": "function"
    },
    {
      "inputs": [],
      "name": "rewardsAddress",
      "outputs": [
        {
          "internalType": "address",
          "name": "",
          "type": "address"
        }
      ],
      "stateMutability": "view",
      "type": "function"
    },
    {
      "inputs": [],
      "name": "rewardsRatioFactor",
      "outputs": [
        {
          "internalType": "uint256",
          "name": "",
          "type": "uint256"
        }
      ],
      "stateMutability": "view",
      "type": "function"
    },
    {
      "inputs": [],
      "name": "sNoctAddress",
      "outputs": [
        {
          "internalType": "address",
          "name": "",
          "type": "address"
        }
      ],
      "stateMutability": "view",
      "type": "function"
    },
    {
      "inputs": [
        {
          "internalType": "address",
          "name": "newOwner",
          "type": "address"
        }
      ],
      "name": "transferOwnership",
      "outputs": [],
      "stateMutability": "nonpayable",
      "type": "function"
    },
    {
      "inputs": [],
      "name": "treasuryAddress",
      "outputs": [
        {
          "internalType": "address",
          "name": "",
          "type": "address"
        }
      ],
      "stateMutability": "view",
      "type": "function"
    },
    {
      "inputs": [],
      "name": "treasuryFactor",
      "outputs": [
        {
          "internalType": "uint256",
          "name": "",
          "type": "uint256"
        }
      ],
      "stateMutability": "view",
      "type": "function"
    },
    {
      "inputs": [
        {
          "internalType": "address",
          "name": "_oracleAddress",
          "type": "address"
        },
        {
          "internalType": "address",
          "name": "_rewardsAddress",
          "type": "address"
        },
        {
          "internalType": "address",
          "name": "_orderFactoryAddress",
          "type": "address"
        },
        {
          "internalType": "address",
          "name": "_orderCreatorAddress",
          "type": "address"
        },
        {
          "internalType": "address",
          "name": "_orderSettlerAddress",
          "type": "address"
        },
        {
          "internalType": "address",
          "name": "_orderCloserAddress",
          "type": "address"
        },
        {
          "internalType": "address",
          "name": "_orderModifierAddress",
          "type": "address"
        },
        {
          "internalType": "address",
          "name": "_orderTransferAddress",
          "type": "address"
        },
        {
          "internalType": "address",
          "name": "_orderAddress",
          "type": "address"
        },
        {
          "internalType": "address",
          "name": "_treasuryAddress",
          "type": "address"
        }
      ],
      "name": "initNocturnal",
      "outputs": [],
      "stateMutability": "nonpayable",
      "type": "function"
    },
    {
      "inputs": [
        {
          "internalType": "address",
          "name": "_noctAddress",
          "type": "address"
        }
      ],
      "name": "initNoct",
      "outputs": [],
      "stateMutability": "nonpayable",
      "type": "function"
    },
    {
      "inputs": [
        {
          "internalType": "address",
          "name": "_sNoctAddress",
          "type": "address"
        }
      ],
      "name": "initsNoct",
      "outputs": [],
      "stateMutability": "nonpayable",
      "type": "function"
    },
    {
      "inputs": [
        {
          "internalType": "uint256",
          "name": "_dRateBasisPoints",
          "type": "uint256"
        }
      ],
      "name": "setDepositRate",
      "outputs": [],
      "stateMutability": "nonpayable",
      "type": "function"
    },
    {
      "inputs": [
        {
          "internalType": "uint256",
          "name": "_rFactorBasisPoints",
          "type": "uint256"
        }
      ],
      "name": "setRewardsFactor",
      "outputs": [],
      "stateMutability": "nonpayable",
      "type": "function"
    },
    {
      "inputs": [
        {
          "internalType": "uint256",
          "name": "_tFactorBasisPoints",
          "type": "uint256"
        }
      ],
      "name": "setTreasuryFactory",
      "outputs": [],
      "stateMutability": "nonpayable",
      "type": "function"
    },
    {
      "inputs": [
        {
          "internalType": "string",
          "name": "_orderURI",
          "type": "string"
        }
      ],
      "name": "setOrderURI",
      "outputs": [],
      "stateMutability": "nonpayable",
      "type": "function"
    },
    {
      "inputs": [],
      "name": "depositRate",
      "outputs": [
        {
          "internalType": "uint256",
          "name": "",
          "type": "uint256"
        }
      ],
      "stateMutability": "view",
      "type": "function"
    },
    {
      "inputs": [],
      "name": "rewardsFactor",
      "outputs": [
        {
          "internalType": "uint256",
          "name": "",
          "type": "uint256"
        }
      ],
      "stateMutability": "view",
      "type": "function"
    },
    {
      "inputs": [],
      "name": "treasuryRate",
      "outputs": [
        {
          "internalType": "uint256",
          "name": "",
          "type": "uint256"
        }
      ],
      "stateMutability": "view",
      "type": "function"
    },
    {
      "inputs": [],
      "name": "getURI",
      "outputs": [
        {
          "internalType": "string",
          "name": "",
          "type": "string"
        }
      ],
      "stateMutability": "view",
      "type": "function"
    }
  ],
  "bytecode": "0x608060405234801561001057600080fd5b50600061001b61006a565b600080546001600160a01b0319166001600160a01b0383169081178255604051929350917f8be0079c531659141344cd1fd0a4f28419497f9722a3daafe3b4186f6b6457e0908290a35061006e565b3390565b6112ba8061007d6000396000f3fe608060405234801561001057600080fd5b50600436106101da5760003560e01c8063b120a00711610104578063d81f3a5a116100a2578063e4b7251611610071578063e4b7251614610323578063e5f719751461032b578063ef5f63861461033e578063f2fde38b14610346576101da565b8063d81f3a5a14610303578063d9a555531461030b578063da1fbfb314610313578063e272981b1461031b576101da565b8063c0973eed116100de578063c0973eed146102d8578063c5f956af146102e0578063cb1048ff146102e8578063d5c63111146102f0576101da565b8063b120a0071461029f578063b121ab55146102b2578063bf35588b146102c5576101da565b80637e74a1ed1161017c5780639c9c0d0f1161014b5780639c9c0d0f14610274578063a655a1551461027c578063a89ae4ba1461028f578063ae2cb2ff14610297576101da565b80637e74a1ed14610254578063852cb9b81461025c5780638bc8e71c146102645780638da5cb5b1461026c576101da565b80634f584342116101b85780634f584342146102275780635d8ba5a11461022f578063715018a6146102375780637754305c1461023f576101da565b80630c231c3f146101df5780631d1d929b146101f45780634369c25014610212575b600080fd5b6101f26101ed366004610f23565b610359565b005b6101fc61043c565b60405161020991906110d4565b60405180910390f35b61021a610458565b60405161020991906111f8565b6101fc61045e565b61021a61047a565b6101f2610480565b610247610562565b60405161020991906110f5565b61021a6105f4565b61021a6105fa565b6101fc610600565b6101fc61061c565b610247610638565b6101f261028a366004610f23565b6106c6565b6101fc6107a0565b61021a6107bc565b6101f26102ad3660046110bc565b6107c2565b6101f26102c0366004610ffd565b61083a565b6101f26102d33660046110bc565b6108c4565b6101fc61093c565b6101fc610958565b6101fc610974565b6101f26102fe366004610f44565b610990565b6101fc610c06565b6101fc610c22565b6101fc610c3e565b6101fc610c5a565b61021a610c76565b6101f26103393660046110bc565b610c7c565b6101fc610cf4565b6101f2610354366004610f23565b610d10565b610361610e5d565b73ffffffffffffffffffffffffffffffffffffffff1661037f61061c565b73ffffffffffffffffffffffffffffffffffffffff16146103d5576040517f08c379a00000000000000000000000000000000000000000000000000000000081526004016103cc906111c3565b60405180910390fd5b73ffffffffffffffffffffffffffffffffffffffff81166103f557600080fd5b600a80547fffffffffffffffffffffffff00000000000000000000000000000000000000001673ffffffffffffffffffffffffffffffffffffffff92909216919091179055565b60095473ffffffffffffffffffffffffffffffffffffffff1681565b600e5490565b600b5473ffffffffffffffffffffffffffffffffffffffff1681565b600f5481565b610488610e5d565b73ffffffffffffffffffffffffffffffffffffffff166104a661061c565b73ffffffffffffffffffffffffffffffffffffffff16146104f3576040517f08c379a00000000000000000000000000000000000000000000000000000000081526004016103cc906111c3565b6000805460405173ffffffffffffffffffffffffffffffffffffffff909116907f8be0079c531659141344cd1fd0a4f28419497f9722a3daafe3b4186f6b6457e0908390a3600080547fffffffffffffffffffffffff0000000000000000000000000000000000000000169055565b60606010805461057190611201565b80601f016020809104026020016040519081016040528092919081815260200182805461059d90611201565b80156105ea5780601f106105bf576101008083540402835291602001916105ea565b820191906000526020600020905b8154815290600101906020018083116105cd57829003601f168201915b5050505050905090565b600d5490565b600d5481565b60055473ffffffffffffffffffffffffffffffffffffffff1681565b60005473ffffffffffffffffffffffffffffffffffffffff1690565b6010805461064590611201565b80601f016020809104026020016040519081016040528092919081815260200182805461067190611201565b80156106be5780601f10610693576101008083540402835291602001916106be565b820191906000526020600020905b8154815290600101906020018083116106a157829003601f168201915b505050505081565b6106ce610e5d565b73ffffffffffffffffffffffffffffffffffffffff166106ec61061c565b73ffffffffffffffffffffffffffffffffffffffff1614610739576040517f08c379a00000000000000000000000000000000000000000000000000000000081526004016103cc906111c3565b73ffffffffffffffffffffffffffffffffffffffff811661075957600080fd5b600980547fffffffffffffffffffffffff00000000000000000000000000000000000000001673ffffffffffffffffffffffffffffffffffffffff92909216919091179055565b60015473ffffffffffffffffffffffffffffffffffffffff1681565b600e5481565b6107ca610e5d565b73ffffffffffffffffffffffffffffffffffffffff166107e861061c565b73ffffffffffffffffffffffffffffffffffffffff1614610835576040517f08c379a00000000000000000000000000000000000000000000000000000000081526004016103cc906111c3565b600f55565b610842610e5d565b73ffffffffffffffffffffffffffffffffffffffff1661086061061c565b73ffffffffffffffffffffffffffffffffffffffff16146108ad576040517f08c379a00000000000000000000000000000000000000000000000000000000081526004016103cc906111c3565b80516108c0906010906020840190610e61565b5050565b6108cc610e5d565b73ffffffffffffffffffffffffffffffffffffffff166108ea61061c565b73ffffffffffffffffffffffffffffffffffffffff1614610937576040517f08c379a00000000000000000000000000000000000000000000000000000000081526004016103cc906111c3565b600d55565b60025473ffffffffffffffffffffffffffffffffffffffff1681565b600c5473ffffffffffffffffffffffffffffffffffffffff1681565b600a5473ffffffffffffffffffffffffffffffffffffffff1681565b610998610e5d565b73ffffffffffffffffffffffffffffffffffffffff166109b661061c565b73ffffffffffffffffffffffffffffffffffffffff1614610a03576040517f08c379a00000000000000000000000000000000000000000000000000000000081526004016103cc906111c3565b73ffffffffffffffffffffffffffffffffffffffff8a16610a2357600080fd5b73ffffffffffffffffffffffffffffffffffffffff8916610a4357600080fd5b73ffffffffffffffffffffffffffffffffffffffff8816610a6357600080fd5b73ffffffffffffffffffffffffffffffffffffffff8716610a8357600080fd5b73ffffffffffffffffffffffffffffffffffffffff8616610aa357600080fd5b73ffffffffffffffffffffffffffffffffffffffff8516610ac357600080fd5b73ffffffffffffffffffffffffffffffffffffffff8416610ae357600080fd5b73ffffffffffffffffffffffffffffffffffffffff8316610b0357600080fd5b73ffffffffffffffffffffffffffffffffffffffff8216610b2357600080fd5b73ffffffffffffffffffffffffffffffffffffffff8116610b4357600080fd5b600180547fffffffffffffffffffffffff000000000000000000000000000000000000000090811673ffffffffffffffffffffffffffffffffffffffff9c8d16179091556002805482169a8c169a909a17909955600380548a16988b1698909817909755600480548916968a16969096179095556005805488169489169490941790935560078054871691881691909117905550600880548516918616919091179055600b80548416918516919091179055600c80549092169216919091179055565b60065473ffffffffffffffffffffffffffffffffffffffff1681565b60085473ffffffffffffffffffffffffffffffffffffffff1681565b60075473ffffffffffffffffffffffffffffffffffffffff1681565b60035473ffffffffffffffffffffffffffffffffffffffff1681565b600f5490565b610c84610e5d565b73ffffffffffffffffffffffffffffffffffffffff16610ca261061c565b73ffffffffffffffffffffffffffffffffffffffff1614610cef576040517f08c379a00000000000000000000000000000000000000000000000000000000081526004016103cc906111c3565b600e55565b60045473ffffffffffffffffffffffffffffffffffffffff1681565b610d18610e5d565b73ffffffffffffffffffffffffffffffffffffffff16610d3661061c565b73ffffffffffffffffffffffffffffffffffffffff1614610d83576040517f08c379a00000000000000000000000000000000000000000000000000000000081526004016103cc906111c3565b73ffffffffffffffffffffffffffffffffffffffff8116610dd0576040517f08c379a00000000000000000000000000000000000000000000000000000000081526004016103cc90611166565b6000805460405173ffffffffffffffffffffffffffffffffffffffff808516939216917f8be0079c531659141344cd1fd0a4f28419497f9722a3daafe3b4186f6b6457e091a3600080547fffffffffffffffffffffffff00000000000000000000000000000000000000001673ffffffffffffffffffffffffffffffffffffffff92909216919091179055565b3390565b828054610e6d90611201565b90600052602060002090601f016020900481019282610e8f5760008555610ed5565b82601f10610ea857805160ff1916838001178555610ed5565b82800160010185558215610ed5579182015b82811115610ed5578251825591602001919060010190610eba565b50610ee1929150610ee5565b5090565b5b80821115610ee15760008155600101610ee6565b803573ffffffffffffffffffffffffffffffffffffffff81168114610f1e57600080fd5b919050565b600060208284031215610f34578081fd5b610f3d82610efa565b9392505050565b6000806000806000806000806000806101408b8d031215610f63578586fd5b610f6c8b610efa565b9950610f7a60208c01610efa565b9850610f8860408c01610efa565b9750610f9660608c01610efa565b9650610fa460808c01610efa565b9550610fb260a08c01610efa565b9450610fc060c08c01610efa565b9350610fce60e08c01610efa565b9250610fdd6101008c01610efa565b9150610fec6101208c01610efa565b90509295989b9194979a5092959850565b6000602080838503121561100f578182fd5b823567ffffffffffffffff80821115611026578384fd5b818501915085601f830112611039578384fd5b81358181111561104b5761104b611255565b604051847fffffffffffffffffffffffffffffffffffffffffffffffffffffffffffffffe0601f840116820101818110848211171561108c5761108c611255565b60405281815283820185018810156110a2578586fd5b818585018683013790810190930193909352509392505050565b6000602082840312156110cd578081fd5b5035919050565b73ffffffffffffffffffffffffffffffffffffffff91909116815260200190565b6000602080835283518082850152825b8181101561112157858101830151858201604001528201611105565b818111156111325783604083870101525b50601f017fffffffffffffffffffffffffffffffffffffffffffffffffffffffffffffffe016929092016040019392505050565b60208082526026908201527f4f776e61626c653a206e6577206f776e657220697320746865207a65726f206160408201527f6464726573730000000000000000000000000000000000000000000000000000606082015260800190565b6020808252818101527f4f776e61626c653a2063616c6c6572206973206e6f7420746865206f776e6572604082015260600190565b90815260200190565b60028104600182168061121557607f821691505b6020821081141561124f577f4e487b7100000000000000000000000000000000000000000000000000000000600052602260045260246000fd5b50919050565b7f4e487b7100000000000000000000000000000000000000000000000000000000600052604160045260246000fdfea264697066735822122085debe4ed5aa24a862ba4302d2008ab5f567f60d5518458540de31333372679064736f6c63430008000033",
  "immutableReferences": {},
  "source": "/*                              $$\\                                             $$\\                                                         \n                                $$ |                                            $$ |                                                  \n$$$$$$$\\   $$$$$$\\   $$$$$$$\\ $$$$$$\\   $$\\   $$\\  $$$$$$\\  $$$$$$$\\   $$$$$$\\  $$ |     \n$$  __$$\\ $$  __$$\\ $$  _____|\\_$$  _|  $$ |  $$ |$$  __$$\\ $$  __$$\\  \\____$$\\ $$ |    \n$$ |  $$ |$$ /  $$ |$$ /        $$ |    $$ |  $$ |$$ |  \\__|$$ |  $$ | $$$$$$$ |$$ |     \n$$ |  $$ |$$ |  $$ |$$ |        $$ |$$\\ $$ |  $$ |$$ |      $$ |  $$ |$$  __$$ |$$ |     \n$$ |  $$ |\\$$$$$$  |\\$$$$$$$\\   \\$$$$  |\\$$$$$$  |$$ |      $$ |  $$ |\\$$$$$$$ |$$ |      \n\\__|  \\__| \\______/  \\_______|   \\____/  \\______/ \\__|      \\__|  \\__| \\_______|\\__|     \n*/\n\npragma solidity ^0.8.0;\n\nimport \"@openzeppelin/contracts/access/Ownable.sol\";\n\ncontract NocturnalFinance is Ownable {\n    \n    address public oracleAddress;\n    address public rewardsAddress;\n    address public orderFactoryAddress;\n    address public orderCreatorAddress;\n    address public orderSettlerAddress;\n    address public orderCloserAddress;\n    address public orderModifierAddress;\n    address public orderTransferAddress;\n    address public noctAddress;\n    address public sNoctAddress;\n    address public orderAddress;\n    address public treasuryAddress;\n    uint256 public depositFeeRate;\n    uint256 public rewardsRatioFactor;\n    uint256 public treasuryFactor;\n    string public orderURI;\n    \n    constructor() {\n    }\n    \n    function initNocturnal( \n            address _oracleAddress, \n            address _rewardsAddress,\n            address _orderFactoryAddress,\n            address _orderCreatorAddress,\n            address _orderSettlerAddress,\n            address _orderCloserAddress,\n            address _orderModifierAddress,\n            address _orderTransferAddress,\n            address _orderAddress,\n            address _treasuryAddress) external onlyOwner {\n\t\trequire(_oracleAddress != address(0));\n\t\trequire(_rewardsAddress != address(0));\n\t\trequire(_orderFactoryAddress != address(0));\n\t\trequire(_orderCreatorAddress != address(0));\n\t\trequire(_orderSettlerAddress != address(0));\n\t\trequire(_orderCloserAddress != address(0));\n\t\trequire(_orderModifierAddress != address(0));\n\t\trequire(_orderTransferAddress != address(0));\n\t\trequire(_orderAddress != address(0));\n\t\trequire(_treasuryAddress != address(0));\n        oracleAddress = _oracleAddress;\n        rewardsAddress = _rewardsAddress;\n        orderFactoryAddress = _orderFactoryAddress;\n        orderCreatorAddress = _orderCreatorAddress;\n        orderSettlerAddress = _orderSettlerAddress;\n        orderModifierAddress = _orderModifierAddress;\n        orderTransferAddress = _orderTransferAddress;\n        orderAddress = _orderAddress;\n        treasuryAddress = _treasuryAddress;\n    }\n    \n    function initNoct(address _noctAddress) external onlyOwner {\n        require(_noctAddress != address(0));\n        noctAddress = _noctAddress;\n    }\n    \n    function initsNoct(address _sNoctAddress) external onlyOwner {\n        require(_sNoctAddress != address(0));\n        sNoctAddress = _sNoctAddress;\n    }\n    \n    function setDepositRate(uint256 _dRateBasisPoints) external onlyOwner {\n        depositFeeRate = _dRateBasisPoints;\n    }\n    \n    function setRewardsFactor(uint256 _rFactorBasisPoints) external onlyOwner {\n        rewardsRatioFactor = _rFactorBasisPoints;\n    }\n    \n    function setTreasuryFactory(uint256 _tFactorBasisPoints) external onlyOwner {\n        treasuryFactor = _tFactorBasisPoints;\n    }\n    \n    function setOrderURI(string memory _orderURI) external onlyOwner {\n        orderURI = _orderURI;\n    }\n    \n    function depositRate() external view returns (uint256) {\n        return (depositFeeRate);\n    }\n     \n    function rewardsFactor() external view returns (uint256) {\n        return (rewardsRatioFactor);\n    }\n    \n    function treasuryRate() external view returns (uint256) {\n        return (treasuryFactor);\n    }\n    \n    function getURI() external view returns (string memory) {\n        return (orderURI);\n    }\n}\n",
  "sourcePath": "/Users/knott/Desktop/nocturnal/contracts/NocturnalFinance.sol",
  "compiler": {
    "name": "solc",
    "version": "0.8.0+commit.c7dfd78e.Emscripten.clang"
  },
  "schemaVersion": "3.3.3",
  "updatedAt": "2021-05-20T06:19:55.855Z",
  "devdoc": {
    "kind": "dev",
    "methods": {
      "owner()": {
        "details": "Returns the address of the current owner."
      },
      "renounceOwnership()": {
        "details": "Leaves the contract without owner. It will not be possible to call `onlyOwner` functions anymore. Can only be called by the current owner. NOTE: Renouncing ownership will leave the contract without an owner, thereby removing any functionality that is only available to the owner."
      },
      "transferOwnership(address)": {
        "details": "Transfers ownership of the contract to a new account (`newOwner`). Can only be called by the current owner."
      }
    },
    "version": 1
  },
  "userdoc": {
    "kind": "user",
    "methods": {},
    "version": 1
  }
}