{
  "contractName": "NocturnalFinance",
  "abi": [
    {
      "inputs": [],
      "stateMutability": "nonpayable",
      "type": "constructor"
    },
    {
      "anonymous": false,
      "inputs": [
        {
          "indexed": true,
          "internalType": "address",
          "name": "previousOwner",
          "type": "address"
        },
        {
          "indexed": true,
          "internalType": "address",
          "name": "newOwner",
          "type": "address"
        }
      ],
      "name": "OwnershipTransferred",
      "type": "event"
    },
    {
      "inputs": [
        {
          "internalType": "uint256",
          "name": "",
          "type": "uint256"
        }
      ],
      "name": "_contract",
      "outputs": [
        {
          "internalType": "address",
          "name": "",
          "type": "address"
        }
      ],
      "stateMutability": "view",
      "type": "function",
      "constant": true
    },
    {
      "inputs": [],
      "name": "orderURI",
      "outputs": [
        {
          "internalType": "string",
          "name": "",
          "type": "string"
        }
      ],
      "stateMutability": "view",
      "type": "function",
      "constant": true
    },
    {
      "inputs": [],
      "name": "owner",
      "outputs": [
        {
          "internalType": "address",
          "name": "",
          "type": "address"
        }
      ],
      "stateMutability": "view",
      "type": "function",
      "constant": true
    },
    {
      "inputs": [],
      "name": "platformRate",
      "outputs": [
        {
          "internalType": "uint256",
          "name": "",
          "type": "uint256"
        }
      ],
      "stateMutability": "view",
      "type": "function",
      "constant": true
    },
    {
      "inputs": [],
      "name": "renounceOwnership",
      "outputs": [],
      "stateMutability": "nonpayable",
      "type": "function"
    },
    {
      "inputs": [],
      "name": "rewardsRatioFactor",
      "outputs": [
        {
          "internalType": "uint256",
          "name": "",
          "type": "uint256"
        }
      ],
      "stateMutability": "view",
      "type": "function",
      "constant": true
    },
    {
      "inputs": [
        {
          "internalType": "address",
          "name": "newOwner",
          "type": "address"
        }
      ],
      "name": "transferOwnership",
      "outputs": [],
      "stateMutability": "nonpayable",
      "type": "function"
    },
    {
      "inputs": [],
      "name": "treasuryFactor",
      "outputs": [
        {
          "internalType": "uint256",
          "name": "",
          "type": "uint256"
        }
      ],
      "stateMutability": "view",
      "type": "function",
      "constant": true
    },
    {
      "inputs": [
        {
          "internalType": "uint256",
          "name": "_index",
          "type": "uint256"
        },
        {
          "internalType": "address",
          "name": "_address",
          "type": "address"
        }
      ],
      "name": "initNocturnal",
      "outputs": [],
      "stateMutability": "nonpayable",
      "type": "function"
    },
    {
      "inputs": [
        {
          "internalType": "uint256",
          "name": "_pRateBasisPoints",
          "type": "uint256"
        }
      ],
      "name": "setPlatformRate",
      "outputs": [],
      "stateMutability": "nonpayable",
      "type": "function"
    },
    {
      "inputs": [
        {
          "internalType": "uint256",
          "name": "_rFactorBasisPoints",
          "type": "uint256"
        }
      ],
      "name": "setRewardsFactor",
      "outputs": [],
      "stateMutability": "nonpayable",
      "type": "function"
    },
    {
      "inputs": [
        {
          "internalType": "uint256",
          "name": "_tFactorBasisPoints",
          "type": "uint256"
        }
      ],
      "name": "setTreasuryFactor",
      "outputs": [],
      "stateMutability": "nonpayable",
      "type": "function"
    },
    {
      "inputs": [
        {
          "internalType": "string",
          "name": "_orderURI",
          "type": "string"
        }
      ],
      "name": "setOrderURI",
      "outputs": [],
      "stateMutability": "nonpayable",
      "type": "function"
    }
  ],
  "bytecode": "0x608060405234801561001057600080fd5b50600061001b61006a565b600080546001600160a01b0319166001600160a01b0383169081178255604051929350917f8be0079c531659141344cd1fd0a4f28419497f9722a3daafe3b4186f6b6457e0908290a35061006e565b3390565b610b6e8061007d6000396000f3fe608060405234801561001057600080fd5b50600436106100df5760003560e01c80638da5cb5b1161008c578063b121ab5511610066578063b121ab551461017f578063d444a0c514610192578063e5f71975146101a5578063f2fde38b146101b8576100df565b80638da5cb5b1461015a5780639c9c0d0f14610162578063ae2cb2ff14610177576100df565b80635d8ba5a1116100bd5780635d8ba5a11461012a578063715018a6146101325780638bf83b041461013a576100df565b80630376345f146100e457806336e0cac6146100f957806354db8d0d14610117575b600080fd5b6100f76100f2366004610945565b6101cb565b005b61010161024c565b60405161010e9190610aac565b60405180910390f35b6100f7610125366004610945565b610252565b6101016102ca565b6100f76102d0565b61014d610148366004610945565b6103b2565b60405161010e9190610988565b61014d6103da565b61016a6103f6565b60405161010e91906109a9565b610101610484565b6100f761018d366004610886565b61048a565b6100f76101a036600461095d565b610514565b6100f76101b3366004610945565b6105da565b6100f76101c6366004610865565b610652565b6101d361079f565b73ffffffffffffffffffffffffffffffffffffffff166101f16103da565b73ffffffffffffffffffffffffffffffffffffffff1614610247576040517f08c379a000000000000000000000000000000000000000000000000000000000815260040161023e90610a77565b60405180910390fd5b600455565b60025481565b61025a61079f565b73ffffffffffffffffffffffffffffffffffffffff166102786103da565b73ffffffffffffffffffffffffffffffffffffffff16146102c5576040517f08c379a000000000000000000000000000000000000000000000000000000000815260040161023e90610a77565b600255565b60045481565b6102d861079f565b73ffffffffffffffffffffffffffffffffffffffff166102f66103da565b73ffffffffffffffffffffffffffffffffffffffff1614610343576040517f08c379a000000000000000000000000000000000000000000000000000000000815260040161023e90610a77565b6000805460405173ffffffffffffffffffffffffffffffffffffffff909116907f8be0079c531659141344cd1fd0a4f28419497f9722a3daafe3b4186f6b6457e0908390a3600080547fffffffffffffffffffffffff0000000000000000000000000000000000000000169055565b60016020526000908152604090205473ffffffffffffffffffffffffffffffffffffffff1681565b60005473ffffffffffffffffffffffffffffffffffffffff1690565b6005805461040390610ab5565b80601f016020809104026020016040519081016040528092919081815260200182805461042f90610ab5565b801561047c5780601f106104515761010080835404028352916020019161047c565b820191906000526020600020905b81548152906001019060200180831161045f57829003601f168201915b505050505081565b60035481565b61049261079f565b73ffffffffffffffffffffffffffffffffffffffff166104b06103da565b73ffffffffffffffffffffffffffffffffffffffff16146104fd576040517f08c379a000000000000000000000000000000000000000000000000000000000815260040161023e90610a77565b80516105109060059060208401906107a3565b5050565b61051c61079f565b73ffffffffffffffffffffffffffffffffffffffff1661053a6103da565b73ffffffffffffffffffffffffffffffffffffffff1614610587576040517f08c379a000000000000000000000000000000000000000000000000000000000815260040161023e90610a77565b60009182526001602052604090912080547fffffffffffffffffffffffff00000000000000000000000000000000000000001673ffffffffffffffffffffffffffffffffffffffff909216919091179055565b6105e261079f565b73ffffffffffffffffffffffffffffffffffffffff166106006103da565b73ffffffffffffffffffffffffffffffffffffffff161461064d576040517f08c379a000000000000000000000000000000000000000000000000000000000815260040161023e90610a77565b600355565b61065a61079f565b73ffffffffffffffffffffffffffffffffffffffff166106786103da565b73ffffffffffffffffffffffffffffffffffffffff16146106c5576040517f08c379a000000000000000000000000000000000000000000000000000000000815260040161023e90610a77565b73ffffffffffffffffffffffffffffffffffffffff8116610712576040517f08c379a000000000000000000000000000000000000000000000000000000000815260040161023e90610a1a565b6000805460405173ffffffffffffffffffffffffffffffffffffffff808516939216917f8be0079c531659141344cd1fd0a4f28419497f9722a3daafe3b4186f6b6457e091a3600080547fffffffffffffffffffffffff00000000000000000000000000000000000000001673ffffffffffffffffffffffffffffffffffffffff92909216919091179055565b3390565b8280546107af90610ab5565b90600052602060002090601f0160209004810192826107d15760008555610817565b82601f106107ea57805160ff1916838001178555610817565b82800160010185558215610817579182015b828111156108175782518255916020019190600101906107fc565b50610823929150610827565b5090565b5b808211156108235760008155600101610828565b803573ffffffffffffffffffffffffffffffffffffffff8116811461086057600080fd5b919050565b600060208284031215610876578081fd5b61087f8261083c565b9392505050565b60006020808385031215610898578182fd5b823567ffffffffffffffff808211156108af578384fd5b818501915085601f8301126108c2578384fd5b8135818111156108d4576108d4610b09565b604051847fffffffffffffffffffffffffffffffffffffffffffffffffffffffffffffffe0601f840116820101818110848211171561091557610915610b09565b604052818152838201850188101561092b578586fd5b818585018683013790810190930193909352509392505050565b600060208284031215610956578081fd5b5035919050565b6000806040838503121561096f578081fd5b8235915061097f6020840161083c565b90509250929050565b73ffffffffffffffffffffffffffffffffffffffff91909116815260200190565b6000602080835283518082850152825b818110156109d5578581018301518582016040015282016109b9565b818111156109e65783604083870101525b50601f017fffffffffffffffffffffffffffffffffffffffffffffffffffffffffffffffe016929092016040019392505050565b60208082526026908201527f4f776e61626c653a206e6577206f776e657220697320746865207a65726f206160408201527f6464726573730000000000000000000000000000000000000000000000000000606082015260800190565b6020808252818101527f4f776e61626c653a2063616c6c6572206973206e6f7420746865206f776e6572604082015260600190565b90815260200190565b600281046001821680610ac957607f821691505b60208210811415610b03577f4e487b7100000000000000000000000000000000000000000000000000000000600052602260045260246000fd5b50919050565b7f4e487b7100000000000000000000000000000000000000000000000000000000600052604160045260246000fdfea26469706673582212200cc54a26e409cdd94faae38bfe45c005e0b7912fcc41c1d60990f54624c69bf464736f6c63430008000033",
  "immutableReferences": {},
  "source": "/*                              $$\\                                             $$\\                                                         \n                                $$ |                                            $$ |                                                  \n$$$$$$$\\   $$$$$$\\   $$$$$$$\\ $$$$$$\\   $$\\   $$\\  $$$$$$\\  $$$$$$$\\   $$$$$$\\  $$ |     \n$$  __$$\\ $$  __$$\\ $$  _____|\\_$$  _|  $$ |  $$ |$$  __$$\\ $$  __$$\\  \\____$$\\ $$ |    \n$$ |  $$ |$$ /  $$ |$$ /        $$ |    $$ |  $$ |$$ |  \\__|$$ |  $$ | $$$$$$$ |$$ |     \n$$ |  $$ |$$ |  $$ |$$ |        $$ |$$\\ $$ |  $$ |$$ |      $$ |  $$ |$$  __$$ |$$ |     \n$$ |  $$ |\\$$$$$$  |\\$$$$$$$\\   \\$$$$  |\\$$$$$$  |$$ |      $$ |  $$ |\\$$$$$$$ |$$ |      \n\\__|  \\__| \\______/  \\_______|   \\____/  \\______/ \\__|      \\__|  \\__| \\_______|\\__|     \n*/\n\npragma solidity ^0.8.0;\n\nimport \"@openzeppelin/contracts/access/Ownable.sol\";\nimport {RewardsInterface} from \"./Interfaces/RewardsInterface.sol\";\nimport {TreasuryInterface} from \"./Interfaces/TreasuryInterface.sol\";\n\ncontract NocturnalFinance is Ownable {\n    \n    mapping (uint256 => address) public _contract;\n    \n    // 0: sNoctAddress;\n    // 1: createOrderAddress;\n    // 2: depositOrderAddress;\n    // 3: settleOrderAddress;\n    // 4: closeOrderAddress;\n    // 5: \n    // 6: settleOrderTransferAddress;\n    // 7: oracleAddress;\n    // 8: orderAddress;\n    // 9: rewardsAddress;\n    // 10: treasuryAddress;\n    // 11: distributeRewardsAddress;\n    // 12: noctAddress;\n\n    uint256 public platformRate;\n    uint256 public rewardsRatioFactor;\n    uint256 public treasuryFactor;\n    string public orderURI;\n    \n    constructor() {\n    }\n    \n    function initNocturnal(uint256 _index, address _address) external onlyOwner {\n\t\t_contract[_index] = _address;\n    }\n  \n    function setPlatformRate(uint256 _pRateBasisPoints) external onlyOwner {\n        platformRate = _pRateBasisPoints;\n    }\n    \n    function setRewardsFactor(uint256 _rFactorBasisPoints) external onlyOwner {\n        rewardsRatioFactor = _rFactorBasisPoints;\n    }\n    \n    function setTreasuryFactor(uint256 _tFactorBasisPoints) external onlyOwner {\n        treasuryFactor = _tFactorBasisPoints;\n    }\n    \n    function setOrderURI(string memory _orderURI) external onlyOwner {\n        orderURI = _orderURI;\n    }\n}\n",
  "sourcePath": "/Users/knott/Desktop/nocturnal/contracts/NocturnalFinance.sol",
  "compiler": {
    "name": "solc",
    "version": "0.8.0+commit.c7dfd78e.Emscripten.clang"
  },
  "schemaVersion": "3.3.3",
  "updatedAt": "2021-06-13T21:00:46.592Z",
  "networkType": "ethereum",
  "devdoc": {
    "kind": "dev",
    "methods": {
      "owner()": {
        "details": "Returns the address of the current owner."
      },
      "renounceOwnership()": {
        "details": "Leaves the contract without owner. It will not be possible to call `onlyOwner` functions anymore. Can only be called by the current owner. NOTE: Renouncing ownership will leave the contract without an owner, thereby removing any functionality that is only available to the owner."
      },
      "transferOwnership(address)": {
        "details": "Transfers ownership of the contract to a new account (`newOwner`). Can only be called by the current owner."
      }
    },
    "version": 1
  },
  "userdoc": {
    "kind": "user",
    "methods": {},
    "version": 1
  }
}