{
  "contractName": "NoctStaking",
  "abi": [
    {
      "inputs": [
        {
          "internalType": "address",
          "name": "_nocturnalFinance",
          "type": "address"
        }
      ],
      "stateMutability": "nonpayable",
      "type": "constructor"
    },
    {
      "anonymous": false,
      "inputs": [
        {
          "indexed": false,
          "internalType": "uint256",
          "name": "amount",
          "type": "uint256"
        },
        {
          "indexed": false,
          "internalType": "uint256",
          "name": "total",
          "type": "uint256"
        }
      ],
      "name": "Stake",
      "type": "event"
    },
    {
      "anonymous": false,
      "inputs": [
        {
          "indexed": false,
          "internalType": "uint256",
          "name": "amount",
          "type": "uint256"
        },
        {
          "indexed": false,
          "internalType": "uint256",
          "name": "total",
          "type": "uint256"
        }
      ],
      "name": "Withdraw",
      "type": "event"
    },
    {
      "stateMutability": "payable",
      "type": "fallback"
    },
    {
      "inputs": [
        {
          "internalType": "address",
          "name": "",
          "type": "address"
        }
      ],
      "name": "lrc",
      "outputs": [
        {
          "internalType": "uint256",
          "name": "",
          "type": "uint256"
        }
      ],
      "stateMutability": "view",
      "type": "function"
    },
    {
      "inputs": [],
      "name": "nocturnalFinance",
      "outputs": [
        {
          "internalType": "contract NocturnalFinanceInterface",
          "name": "",
          "type": "address"
        }
      ],
      "stateMutability": "view",
      "type": "function"
    },
    {
      "inputs": [],
      "name": "payment",
      "outputs": [
        {
          "internalType": "contract IPeripheryPayments",
          "name": "",
          "type": "address"
        }
      ],
      "stateMutability": "view",
      "type": "function"
    },
    {
      "inputs": [
        {
          "internalType": "address",
          "name": "",
          "type": "address"
        }
      ],
      "name": "staked",
      "outputs": [
        {
          "internalType": "uint256",
          "name": "",
          "type": "uint256"
        }
      ],
      "stateMutability": "view",
      "type": "function"
    },
    {
      "inputs": [],
      "name": "tA",
      "outputs": [
        {
          "internalType": "address",
          "name": "",
          "type": "address"
        }
      ],
      "stateMutability": "view",
      "type": "function"
    },
    {
      "inputs": [],
      "name": "trg",
      "outputs": [
        {
          "internalType": "uint256",
          "name": "",
          "type": "uint256"
        }
      ],
      "stateMutability": "view",
      "type": "function"
    },
    {
      "inputs": [],
      "name": "totalStaked",
      "outputs": [
        {
          "internalType": "uint256",
          "name": "",
          "type": "uint256"
        }
      ],
      "stateMutability": "view",
      "type": "function"
    },
    {
      "inputs": [
        {
          "internalType": "uint256",
          "name": "amount",
          "type": "uint256"
        }
      ],
      "name": "stake",
      "outputs": [],
      "stateMutability": "nonpayable",
      "type": "function"
    },
    {
      "inputs": [
        {
          "internalType": "address",
          "name": "_claimantAddress",
          "type": "address"
        },
        {
          "internalType": "uint256",
          "name": "amount",
          "type": "uint256"
        }
      ],
      "name": "autoStake",
      "outputs": [],
      "stateMutability": "nonpayable",
      "type": "function"
    },
    {
      "inputs": [
        {
          "internalType": "uint256",
          "name": "amount",
          "type": "uint256"
        }
      ],
      "name": "withdraw",
      "outputs": [],
      "stateMutability": "nonpayable",
      "type": "function"
    },
    {
      "inputs": [
        {
          "internalType": "address",
          "name": "acc",
          "type": "address"
        }
      ],
      "name": "bRSLC",
      "outputs": [
        {
          "internalType": "uint256",
          "name": "",
          "type": "uint256"
        }
      ],
      "stateMutability": "view",
      "type": "function"
    },
    {
      "inputs": [
        {
          "internalType": "address",
          "name": "account",
          "type": "address"
        }
      ],
      "name": "pendingETHRewards",
      "outputs": [
        {
          "internalType": "uint256",
          "name": "",
          "type": "uint256"
        }
      ],
      "stateMutability": "view",
      "type": "function"
    },
    {
      "inputs": [],
      "name": "claimETHRewards",
      "outputs": [],
      "stateMutability": "nonpayable",
      "type": "function"
    }
  ],
  "bytecode": "0x6080604052600060015534801561001557600080fd5b5060405161131c38038061131c833981016040819052610034916100ea565b600480546001600160a01b0319166001600160a01b038381169190911780835560408051631d1d929b60e01b815290519190921692631d1d929b92808201926020929091829003018186803b15801561008c57600080fd5b505afa1580156100a0573d6000803e3d6000fd5b505050506040513d601f19601f820116820180604052508101906100c491906100ea565b600080546001600160a01b0319166001600160a01b039290921691909117905550610118565b6000602082840312156100fb578081fd5b81516001600160a01b0381168114610111578182fd5b9392505050565b6111f5806101276000396000f3fe6080604052600436106100d25760003560e01c806379da7e4d1161007f578063a694fc3a11610059578063a694fc3a146101eb578063b4b72c1d1461020b578063baffb69f14610220578063ee64deab14610240576100d2565b806379da7e4d146101a1578063817b1cd2146101b657806398807d84146101cb576100d2565b8063480ea628116100b0578063480ea6281461014c57806349be4c33146101615780636d09551414610181576100d2565b806322d2d4a1146100d45780632e1a7d4d1461010a57806342f6487a1461012a575b005b3480156100e057600080fd5b506100f46100ef366004610df0565b610255565b604051610101919061108b565b60405180910390f35b34801561011657600080fd5b506100d2610125366004610e73565b6102ac565b34801561013657600080fd5b5061013f6104ef565b6040516101019190610ea3565b34801561015857600080fd5b506100f461050b565b34801561016d57600080fd5b506100f461017c366004610df0565b610511565b34801561018d57600080fd5b506100f461019c366004610df0565b610523565b3480156101ad57600080fd5b5061013f61055b565b3480156101c257600080fd5b506100f4610577565b3480156101d757600080fd5b506100f46101e6366004610df0565b610626565b3480156101f757600080fd5b506100d2610206366004610e73565b610638565b34801561021757600080fd5b506100d26108c8565b34801561022c57600080fd5b506100d261023b366004610e28565b6109c4565b34801561024c57600080fd5b5061013f610da4565b60008061026183610523565b90506102a561026e610577565b73ffffffffffffffffffffffffffffffffffffffff851660009081526003602052604090205461029f908490610dc0565b90610dcc565b9392505050565b336000908152600360205260409020548111156102fe576040517f08c379a00000000000000000000000000000000000000000000000000000000081526004016102f590610f52565b60405180910390fd5b6000546040517fa9059cbb00000000000000000000000000000000000000000000000000000000815273ffffffffffffffffffffffffffffffffffffffff90911690819063a9059cbb906103589033908690600401610ef5565b602060405180830381600087803b15801561037257600080fd5b505af1158015610386573d6000803e3d6000fd5b505050506040513d601f19601f820116820180604052508101906103aa9190610e53565b6103e0576040517f08c379a00000000000000000000000000000000000000000000000000000000081526004016102f59061101d565b336000908152600360205260409020546103fa9083610dd8565b336000908152600360205260408082209290925590517f70a0823100000000000000000000000000000000000000000000000000000000815273ffffffffffffffffffffffffffffffffffffffff8316906370a082319061045f903090600401610ea3565b60206040518083038186803b15801561047757600080fd5b505afa15801561048b573d6000803e3d6000fd5b505050506040513d601f19601f820116820180604052508101906104af9190610e8b565b90507f56ca301a9219608c91e7bcee90e083c19671d2cdcc96752c7af291cee5f9c8c883826040516104e29291906110b8565b60405180910390a1505050565b60055473ffffffffffffffffffffffffffffffffffffffff1681565b60015481565b60026020526000908152604090205481565b73ffffffffffffffffffffffffffffffffffffffff811660009081526002602052604081205460015461055591610dd8565b92915050565b60005473ffffffffffffffffffffffffffffffffffffffff1681565b600080546040517f70a0823100000000000000000000000000000000000000000000000000000000815273ffffffffffffffffffffffffffffffffffffffff9091169081906370a08231906105d0903090600401610ea3565b60206040518083038186803b1580156105e857600080fd5b505afa1580156105fc573d6000803e3d6000fd5b505050506040513d601f19601f820116820180604052508101906106209190610e8b565b91505090565b60036020526000908152604090205481565b60008111610672576040517f08c379a00000000000000000000000000000000000000000000000000000000081526004016102f590610f52565b6000546040517f70a0823100000000000000000000000000000000000000000000000000000000815273ffffffffffffffffffffffffffffffffffffffff90911690829082906370a08231906106cc903390600401610ea3565b60206040518083038186803b1580156106e457600080fd5b505afa1580156106f8573d6000803e3d6000fd5b505050506040513d601f19601f8201168201806040525081019061071c9190610e8b565b1015610754576040517f08c379a00000000000000000000000000000000000000000000000000000000081526004016102f590610fe6565b6040517f23b872dd00000000000000000000000000000000000000000000000000000000815273ffffffffffffffffffffffffffffffffffffffff8216906323b872dd906107aa90339030908790600401610ec4565b602060405180830381600087803b1580156107c457600080fd5b505af11580156107d8573d6000803e3d6000fd5b505050506040513d601f19601f820116820180604052508101906107fc9190610e53565b610832576040517f08c379a00000000000000000000000000000000000000000000000000000000081526004016102f590611054565b3360009081526003602052604090205461085a57600154336000908152600260205260409020555b336000908152600360205260409020546108749083610de4565b336000908152600360205260409020557fc9ec05ea5037818736839e1365dc3d9a74a735c447af0697da66633b7a9d0fab826108ae610577565b6040516108bc9291906110b8565b60405180910390a15050565b600154336000908152600260205260409020541115610913576040517f08c379a00000000000000000000000000000000000000000000000000000000081526004016102f590610f1b565b600061091e33610255565b60015433600081815260026020526040908190209290925560055491517f49404b7c00000000000000000000000000000000000000000000000000000000815292935073ffffffffffffffffffffffffffffffffffffffff909116916349404b7c9161098f91859190600401611094565b600060405180830381600087803b1580156109a957600080fd5b505af11580156109bd573d6000803e3d6000fd5b5050505050565b60048054604080517fc0973eed000000000000000000000000000000000000000000000000000000008152905173ffffffffffffffffffffffffffffffffffffffff9092169263c0973eed928282019260209290829003018186803b158015610a2c57600080fd5b505afa158015610a40573d6000803e3d6000fd5b505050506040513d601f19601f82011682018060405250810190610a649190610e0c565b73ffffffffffffffffffffffffffffffffffffffff163373ffffffffffffffffffffffffffffffffffffffff1614610ac8576040517f08c379a00000000000000000000000000000000000000000000000000000000081526004016102f590610f89565b60008111610b02576040517f08c379a00000000000000000000000000000000000000000000000000000000081526004016102f590610f52565b6000546040517f70a0823100000000000000000000000000000000000000000000000000000000815273ffffffffffffffffffffffffffffffffffffffff90911690829082906370a0823190610b5c903390600401610ea3565b60206040518083038186803b158015610b7457600080fd5b505afa158015610b88573d6000803e3d6000fd5b505050506040513d601f19601f82011682018060405250810190610bac9190610e8b565b1015610be4576040517f08c379a00000000000000000000000000000000000000000000000000000000081526004016102f590610fe6565b6040517f23b872dd00000000000000000000000000000000000000000000000000000000815273ffffffffffffffffffffffffffffffffffffffff8216906323b872dd90610c3a90339030908790600401610ec4565b602060405180830381600087803b158015610c5457600080fd5b505af1158015610c68573d6000803e3d6000fd5b505050506040513d601f19601f82011682018060405250810190610c8c9190610e53565b610cc2576040517f08c379a00000000000000000000000000000000000000000000000000000000081526004016102f590611054565b73ffffffffffffffffffffffffffffffffffffffff8316600090815260036020526040902054610d165760015473ffffffffffffffffffffffffffffffffffffffff84166000908152600260205260409020555b73ffffffffffffffffffffffffffffffffffffffff8316600090815260036020526040902054610d469083610de4565b73ffffffffffffffffffffffffffffffffffffffff84166000908152600360205260409020557fc9ec05ea5037818736839e1365dc3d9a74a735c447af0697da66633b7a9d0fab82610d96610577565b6040516104e29291906110b8565b60045473ffffffffffffffffffffffffffffffffffffffff1681565b60006102a58284611117565b60006102a582846110de565b60006102a58284611154565b60006102a582846110c6565b600060208284031215610e01578081fd5b81356102a58161119a565b600060208284031215610e1d578081fd5b81516102a58161119a565b60008060408385031215610e3a578081fd5b8235610e458161119a565b946020939093013593505050565b600060208284031215610e64578081fd5b815180151581146102a5578182fd5b600060208284031215610e84578081fd5b5035919050565b600060208284031215610e9c578081fd5b5051919050565b73ffffffffffffffffffffffffffffffffffffffff91909116815260200190565b73ffffffffffffffffffffffffffffffffffffffff9384168152919092166020820152604081019190915260600190565b73ffffffffffffffffffffffffffffffffffffffff929092168252602082015260400190565b60208082526014908201527f6e6f207265776172647320617661696c61626c65000000000000000000000000604082015260600190565b6020808252600e908201527f696e76616c696420616d6f756e74000000000000000000000000000000000000604082015260600190565b6020808252602b908201527f6175746f7374616b652063616c6c65642066726f6d207265776172647320636f60408201527f6e7472616374206f6e6c79000000000000000000000000000000000000000000606082015260800190565b60208082526018908201527f696e737566666963656e74204e4f43542062616c616e63650000000000000000604082015260600190565b6020808252600f908201527f7472616e73666572206661696c65640000000000000000000000000000000000604082015260600190565b6020808252600e908201527f7374616b696e67206661696c6564000000000000000000000000000000000000604082015260600190565b90815260200190565b91825273ffffffffffffffffffffffffffffffffffffffff16602082015260400190565b918252602082015260400190565b600082198211156110d9576110d961116b565b500190565b600082611112577f4e487b710000000000000000000000000000000000000000000000000000000081526012600452602481fd5b500490565b6000817fffffffffffffffffffffffffffffffffffffffffffffffffffffffffffffffff048311821515161561114f5761114f61116b565b500290565b6000828210156111665761116661116b565b500390565b7f4e487b7100000000000000000000000000000000000000000000000000000000600052601160045260246000fd5b73ffffffffffffffffffffffffffffffffffffffff811681146111bc57600080fd5b5056fea2646970667358221220c034d1638f50161e38aea43dea9ddfc9cba03e273241f133bfba6ccf7ea5779364736f6c63430008000033",
  "immutableReferences": {},
  "source": "/*                              $$\\                                             $$\\                                                         \n                                $$ |                                            $$ |                                                  \n$$$$$$$\\   $$$$$$\\   $$$$$$$\\ $$$$$$\\   $$\\   $$\\  $$$$$$\\  $$$$$$$\\   $$$$$$\\  $$ |     \n$$  __$$\\ $$  __$$\\ $$  _____|\\_$$  _|  $$ |  $$ |$$  __$$\\ $$  __$$\\  \\____$$\\ $$ |    \n$$ |  $$ |$$ /  $$ |$$ /        $$ |    $$ |  $$ |$$ |  \\__|$$ |  $$ | $$$$$$$ |$$ |     \n$$ |  $$ |$$ |  $$ |$$ |        $$ |$$\\ $$ |  $$ |$$ |      $$ |  $$ |$$  __$$ |$$ |     \n$$ |  $$ |\\$$$$$$  |\\$$$$$$$\\   \\$$$$  |\\$$$$$$  |$$ |      $$ |  $$ |\\$$$$$$$ |$$ |      \n\\__|  \\__| \\______/  \\_______|   \\____/  \\______/ \\__|      \\__|  \\__| \\_______|\\__|     \n*/\n\npragma solidity ^0.8.0;\n\nimport \"@openzeppelin/contracts/token/ERC20/ERC20.sol\";\nimport \"@openzeppelin/contracts/utils/math/SafeMath.sol\";\nimport \"@uniswap/v3-periphery/contracts/interfaces/IPeripheryPayments.sol\";\nimport {NocturnalFinanceInterface} from \"./Interfaces/NocturnalFinanceInterface.sol\";\n\ncontract NoctStaking {\n    using SafeMath for uint256;\n    address public tA;\n\n    uint256 public trg = 0;\n    mapping(address => uint256) public lrc;\n    mapping(address => uint256) public staked;\n    \n    NocturnalFinanceInterface public nocturnalFinance;\n    IPeripheryPayments public payment;\n\n    constructor (address _nocturnalFinance) {\n      nocturnalFinance = NocturnalFinanceInterface(_nocturnalFinance);\n      tA = nocturnalFinance.noctAddress();\n    }\n\n    event Stake(uint256 amount, uint256 total);\n    event Withdraw(uint256 amount, uint256 total);\n\n    function totalStaked() public view returns (uint256) {\n        ERC20 token = ERC20(tA);\n        return token.balanceOf(address(this));\n    }\n\n    function stake(uint256 amount) public {\n        require(amount > 0, \"invalid amount\");\n        ERC20 token = ERC20(tA);\n        require(token.balanceOf(msg.sender) >= amount, \"insufficent NOCT balance\");\n        require(token.transferFrom(msg.sender, address(this), amount), \"staking failed\");\n        if (staked[msg.sender] == 0) {\n            lrc[msg.sender] = trg;\n        }\n        staked[msg.sender] = staked[msg.sender].add(amount);\n        emit Stake(amount, totalStaked());\n    }\n    \n    function autoStake(address _claimantAddress, uint256 amount) public {\n        require(msg.sender == nocturnalFinance.rewardsAddress(), \"autostake called from rewards contract only\");\n        require(amount > 0, \"invalid amount\");\n        ERC20 token = ERC20(tA);\n        require(token.balanceOf(msg.sender) >= amount, \"insufficent NOCT balance\");\n        require(token.transferFrom(msg.sender, address(this), amount), \"staking failed\");\n        if (staked[_claimantAddress] == 0) {\n            lrc[_claimantAddress] = trg;\n        }\n        staked[_claimantAddress] = staked[_claimantAddress].add(amount);\n        emit Stake(amount, totalStaked());\n    }\n\n    function withdraw(uint256 amount) public {\n        require(staked[msg.sender] >= amount, \"invalid amount\");\n        ERC20 token = ERC20(tA);\n        require(token.transfer(msg.sender, amount), \"transfer failed\");\n        staked[msg.sender] = staked[msg.sender].sub(amount);\n\n        uint256 totalBalance = token.balanceOf(address(this));\n        emit Withdraw(amount, totalBalance);\n    }\n\n    function bRSLC(address acc) public view returns (uint256) {\n        return trg.sub(lrc[acc]);\n    }\n\n    function pendingETHRewards(address account) public view returns (uint256) {\n        uint256 base = bRSLC(account);\n        return base.mul(staked[account]).div(totalStaked());\n    }\n\n    function claimETHRewards() public {\n        require(lrc[msg.sender] <= trg, \"no rewards available\");\n        \n        uint256 toSend = pendingETHRewards(msg.sender);\n        lrc[msg.sender] = trg;\n        // use unwrapWETH9() and transfer to staker\n        payment.unwrapWETH9(toSend, msg.sender);\n        //require(msg.sender.send(toSend), \"transfer failed\");\n    }\n\n    //this function has to be present or transfers to the contract fail silently\n    fallback () external payable {}\n}\n",
  "sourcePath": "/Users/knott/Desktop/nocturnal/contracts/NoctStaking.sol",
  "compiler": {
    "name": "solc",
    "version": "0.8.0+commit.c7dfd78e.Emscripten.clang"
  },
  "schemaVersion": "3.3.3",
  "updatedAt": "2021-05-20T06:19:55.844Z",
  "devdoc": {
    "kind": "dev",
    "methods": {},
    "version": 1
  },
  "userdoc": {
    "kind": "user",
    "methods": {},
    "version": 1
  }
}