{
  "contractName": "NoctStaking",
  "abi": [
    {
      "inputs": [
        {
          "internalType": "address",
          "name": "_nocturnalFinance",
          "type": "address"
        }
      ],
      "stateMutability": "nonpayable",
      "type": "constructor"
    },
    {
      "anonymous": false,
      "inputs": [
        {
          "indexed": false,
          "internalType": "uint256",
          "name": "amount",
          "type": "uint256"
        },
        {
          "indexed": false,
          "internalType": "uint256",
          "name": "total",
          "type": "uint256"
        }
      ],
      "name": "Stake",
      "type": "event"
    },
    {
      "anonymous": false,
      "inputs": [
        {
          "indexed": false,
          "internalType": "uint256",
          "name": "amount",
          "type": "uint256"
        },
        {
          "indexed": false,
          "internalType": "uint256",
          "name": "total",
          "type": "uint256"
        }
      ],
      "name": "Withdraw",
      "type": "event"
    },
    {
      "stateMutability": "payable",
      "type": "fallback"
    },
    {
      "inputs": [
        {
          "internalType": "address",
          "name": "",
          "type": "address"
        }
      ],
      "name": "lrc",
      "outputs": [
        {
          "internalType": "uint256",
          "name": "",
          "type": "uint256"
        }
      ],
      "stateMutability": "view",
      "type": "function"
    },
    {
      "inputs": [],
      "name": "nocturnalFinance",
      "outputs": [
        {
          "internalType": "contract NocturnalFinanceInterface",
          "name": "",
          "type": "address"
        }
      ],
      "stateMutability": "view",
      "type": "function"
    },
    {
      "inputs": [],
      "name": "payment",
      "outputs": [
        {
          "internalType": "contract IPeripheryPayments",
          "name": "",
          "type": "address"
        }
      ],
      "stateMutability": "view",
      "type": "function"
    },
    {
      "inputs": [
        {
          "internalType": "address",
          "name": "",
          "type": "address"
        }
      ],
      "name": "staked",
      "outputs": [
        {
          "internalType": "uint256",
          "name": "",
          "type": "uint256"
        }
      ],
      "stateMutability": "view",
      "type": "function"
    },
    {
      "inputs": [],
      "name": "tA",
      "outputs": [
        {
          "internalType": "address",
          "name": "",
          "type": "address"
        }
      ],
      "stateMutability": "view",
      "type": "function"
    },
    {
      "inputs": [],
      "name": "trg",
      "outputs": [
        {
          "internalType": "uint256",
          "name": "",
          "type": "uint256"
        }
      ],
      "stateMutability": "view",
      "type": "function"
    },
    {
      "inputs": [],
      "name": "totalStaked",
      "outputs": [
        {
          "internalType": "uint256",
          "name": "",
          "type": "uint256"
        }
      ],
      "stateMutability": "view",
      "type": "function"
    },
    {
      "inputs": [
        {
          "internalType": "uint256",
          "name": "amount",
          "type": "uint256"
        }
      ],
      "name": "stake",
      "outputs": [],
      "stateMutability": "nonpayable",
      "type": "function"
    },
    {
      "inputs": [
        {
          "internalType": "address",
          "name": "_claimantAddress",
          "type": "address"
        },
        {
          "internalType": "uint256",
          "name": "amount",
          "type": "uint256"
        }
      ],
      "name": "autoStake",
      "outputs": [],
      "stateMutability": "nonpayable",
      "type": "function"
    },
    {
      "inputs": [
        {
          "internalType": "uint256",
          "name": "amount",
          "type": "uint256"
        }
      ],
      "name": "withdraw",
      "outputs": [],
      "stateMutability": "nonpayable",
      "type": "function"
    },
    {
      "inputs": [
        {
          "internalType": "address",
          "name": "acc",
          "type": "address"
        }
      ],
      "name": "bRSLC",
      "outputs": [
        {
          "internalType": "uint256",
          "name": "",
          "type": "uint256"
        }
      ],
      "stateMutability": "view",
      "type": "function"
    },
    {
      "inputs": [
        {
          "internalType": "address",
          "name": "account",
          "type": "address"
        }
      ],
      "name": "pendingETHRewards",
      "outputs": [
        {
          "internalType": "uint256",
          "name": "",
          "type": "uint256"
        }
      ],
      "stateMutability": "view",
      "type": "function"
    },
    {
      "inputs": [],
      "name": "claimETHRewards",
      "outputs": [],
      "stateMutability": "nonpayable",
      "type": "function"
    }
  ],
  "bytecode": "0x608060405260006001553480156200001657600080fd5b5060405162001b9f38038062001b9f83398181016040528101906200003c91906200017e565b80600460006101000a81548173ffffffffffffffffffffffffffffffffffffffff021916908373ffffffffffffffffffffffffffffffffffffffff160217905550600460009054906101000a900473ffffffffffffffffffffffffffffffffffffffff1673ffffffffffffffffffffffffffffffffffffffff1663cb1048ff6040518163ffffffff1660e01b815260040160206040518083038186803b158015620000e657600080fd5b505afa158015620000fb573d6000803e3d6000fd5b505050506040513d601f19601f820116820180604052508101906200012191906200017e565b6000806101000a81548173ffffffffffffffffffffffffffffffffffffffff021916908373ffffffffffffffffffffffffffffffffffffffff16021790555050620001f8565b6000815190506200017881620001de565b92915050565b6000602082840312156200019157600080fd5b6000620001a18482850162000167565b91505092915050565b6000620001b782620001be565b9050919050565b600073ffffffffffffffffffffffffffffffffffffffff82169050919050565b620001e981620001aa565b8114620001f557600080fd5b50565b61199780620002086000396000f3fe6080604052600436106100c65760003560e01c806379da7e4d1161007f578063a694fc3a11610059578063a694fc3a14610292578063b4b72c1d146102bb578063baffb69f146102d2578063ee64deab146102fb576100c7565b806379da7e4d146101ff578063817b1cd21461022a57806398807d8414610255576100c7565b806322d2d4a1146100c95780632e1a7d4d1461010657806342f6487a1461012f578063480ea6281461015a57806349be4c33146101855780636d095514146101c2576100c7565b5b005b3480156100d557600080fd5b506100f060048036038101906100eb919061123f565b610326565b6040516100fd919061169b565b60405180910390f35b34801561011257600080fd5b5061012d600480360381019061012891906112f6565b6103a7565b005b34801561013b57600080fd5b5061014461067b565b60405161015191906115a5565b60405180910390f35b34801561016657600080fd5b5061016f6106a1565b60405161017c919061169b565b60405180910390f35b34801561019157600080fd5b506101ac60048036038101906101a7919061123f565b6106a7565b6040516101b9919061169b565b60405180910390f35b3480156101ce57600080fd5b506101e960048036038101906101e4919061123f565b6106bf565b6040516101f6919061169b565b60405180910390f35b34801561020b57600080fd5b5061021461071c565b604051610221919061152a565b60405180910390f35b34801561023657600080fd5b5061023f610740565b60405161024c919061169b565b60405180910390f35b34801561026157600080fd5b5061027c6004803603810190610277919061123f565b6107f5565b604051610289919061169b565b60405180910390f35b34801561029e57600080fd5b506102b960048036038101906102b491906112f6565b61080d565b005b3480156102c757600080fd5b506102d0610b77565b005b3480156102de57600080fd5b506102f960048036038101906102f49190611291565b610ce0565b005b34801561030757600080fd5b50610310611158565b60405161031d91906115c0565b60405180910390f35b600080610332836106bf565b905061039f61033f610740565b610391600360008773ffffffffffffffffffffffffffffffffffffffff1673ffffffffffffffffffffffffffffffffffffffff168152602001908152602001600020548461117e90919063ffffffff16565b61119490919063ffffffff16565b915050919050565b80600360003373ffffffffffffffffffffffffffffffffffffffff1673ffffffffffffffffffffffffffffffffffffffff168152602001908152602001600020541015610429576040517f08c379a0000000000000000000000000000000000000000000000000000000008152600401610420906115fb565b60405180910390fd5b60008060009054906101000a900473ffffffffffffffffffffffffffffffffffffffff1690508073ffffffffffffffffffffffffffffffffffffffff1663a9059cbb33846040518363ffffffff1660e01b815260040161048a92919061157c565b602060405180830381600087803b1580156104a457600080fd5b505af11580156104b8573d6000803e3d6000fd5b505050506040513d601f19601f820116820180604052508101906104dc91906112cd565b61051b576040517f08c379a00000000000000000000000000000000000000000000000000000000081526004016105129061165b565b60405180910390fd5b61056d82600360003373ffffffffffffffffffffffffffffffffffffffff1673ffffffffffffffffffffffffffffffffffffffff168152602001908152602001600020546111aa90919063ffffffff16565b600360003373ffffffffffffffffffffffffffffffffffffffff1673ffffffffffffffffffffffffffffffffffffffff1681526020019081526020016000208190555060008173ffffffffffffffffffffffffffffffffffffffff166370a08231306040518263ffffffff1660e01b81526004016105eb919061152a565b60206040518083038186803b15801561060357600080fd5b505afa158015610617573d6000803e3d6000fd5b505050506040513d601f19601f8201168201806040525081019061063b919061131f565b90507f56ca301a9219608c91e7bcee90e083c19671d2cdcc96752c7af291cee5f9c8c8838260405161066e9291906116df565b60405180910390a1505050565b600560009054906101000a900473ffffffffffffffffffffffffffffffffffffffff1681565b60015481565b60026020528060005260406000206000915090505481565b6000610715600260008473ffffffffffffffffffffffffffffffffffffffff1673ffffffffffffffffffffffffffffffffffffffff168152602001908152602001600020546001546111aa90919063ffffffff16565b9050919050565b60008054906101000a900473ffffffffffffffffffffffffffffffffffffffff1681565b60008060008054906101000a900473ffffffffffffffffffffffffffffffffffffffff1690508073ffffffffffffffffffffffffffffffffffffffff166370a08231306040518263ffffffff1660e01b815260040161079f919061152a565b60206040518083038186803b1580156107b757600080fd5b505afa1580156107cb573d6000803e3d6000fd5b505050506040513d601f19601f820116820180604052508101906107ef919061131f565b91505090565b60036020528060005260406000206000915090505481565b60008111610850576040517f08c379a0000000000000000000000000000000000000000000000000000000008152600401610847906115fb565b60405180910390fd5b60008060009054906101000a900473ffffffffffffffffffffffffffffffffffffffff169050818173ffffffffffffffffffffffffffffffffffffffff166370a08231336040518263ffffffff1660e01b81526004016108b0919061152a565b60206040518083038186803b1580156108c857600080fd5b505afa1580156108dc573d6000803e3d6000fd5b505050506040513d601f19601f82011682018060405250810190610900919061131f565b1015610941576040517f08c379a00000000000000000000000000000000000000000000000000000000081526004016109389061163b565b60405180910390fd5b8073ffffffffffffffffffffffffffffffffffffffff166323b872dd3330856040518463ffffffff1660e01b815260040161097e93929190611545565b602060405180830381600087803b15801561099857600080fd5b505af11580156109ac573d6000803e3d6000fd5b505050506040513d601f19601f820116820180604052508101906109d091906112cd565b610a0f576040517f08c379a0000000000000000000000000000000000000000000000000000000008152600401610a069061167b565b60405180910390fd5b6000600360003373ffffffffffffffffffffffffffffffffffffffff1673ffffffffffffffffffffffffffffffffffffffff168152602001908152602001600020541415610a9e57600154600260003373ffffffffffffffffffffffffffffffffffffffff1673ffffffffffffffffffffffffffffffffffffffff168152602001908152602001600020819055505b610af082600360003373ffffffffffffffffffffffffffffffffffffffff1673ffffffffffffffffffffffffffffffffffffffff168152602001908152602001600020546111c090919063ffffffff16565b600360003373ffffffffffffffffffffffffffffffffffffffff1673ffffffffffffffffffffffffffffffffffffffff168152602001908152602001600020819055507fc9ec05ea5037818736839e1365dc3d9a74a735c447af0697da66633b7a9d0fab82610b5d610740565b604051610b6b9291906116df565b60405180910390a15050565b600154600260003373ffffffffffffffffffffffffffffffffffffffff1673ffffffffffffffffffffffffffffffffffffffff168152602001908152602001600020541115610bfb576040517f08c379a0000000000000000000000000000000000000000000000000000000008152600401610bf2906115db565b60405180910390fd5b6000610c0633610326565b9050600154600260003373ffffffffffffffffffffffffffffffffffffffff1673ffffffffffffffffffffffffffffffffffffffff16815260200190815260200160002081905550600560009054906101000a900473ffffffffffffffffffffffffffffffffffffffff1673ffffffffffffffffffffffffffffffffffffffff166349404b7c82336040518363ffffffff1660e01b8152600401610cab9291906116b6565b600060405180830381600087803b158015610cc557600080fd5b505af1158015610cd9573d6000803e3d6000fd5b5050505050565b600460009054906101000a900473ffffffffffffffffffffffffffffffffffffffff1673ffffffffffffffffffffffffffffffffffffffff1663c0973eed6040518163ffffffff1660e01b815260040160206040518083038186803b158015610d4857600080fd5b505afa158015610d5c573d6000803e3d6000fd5b505050506040513d601f19601f82011682018060405250810190610d809190611268565b73ffffffffffffffffffffffffffffffffffffffff163373ffffffffffffffffffffffffffffffffffffffff1614610ded576040517f08c379a0000000000000000000000000000000000000000000000000000000008152600401610de49061161b565b60405180910390fd5b60008111610e30576040517f08c379a0000000000000000000000000000000000000000000000000000000008152600401610e27906115fb565b60405180910390fd5b60008060009054906101000a900473ffffffffffffffffffffffffffffffffffffffff169050818173ffffffffffffffffffffffffffffffffffffffff166370a08231336040518263ffffffff1660e01b8152600401610e90919061152a565b60206040518083038186803b158015610ea857600080fd5b505afa158015610ebc573d6000803e3d6000fd5b505050506040513d601f19601f82011682018060405250810190610ee0919061131f565b1015610f21576040517f08c379a0000000000000000000000000000000000000000000000000000000008152600401610f189061163b565b60405180910390fd5b8073ffffffffffffffffffffffffffffffffffffffff166323b872dd3330856040518463ffffffff1660e01b8152600401610f5e93929190611545565b602060405180830381600087803b158015610f7857600080fd5b505af1158015610f8c573d6000803e3d6000fd5b505050506040513d601f19601f82011682018060405250810190610fb091906112cd565b610fef576040517f08c379a0000000000000000000000000000000000000000000000000000000008152600401610fe69061167b565b60405180910390fd5b6000600360008573ffffffffffffffffffffffffffffffffffffffff1673ffffffffffffffffffffffffffffffffffffffff16815260200190815260200160002054141561107e57600154600260008573ffffffffffffffffffffffffffffffffffffffff1673ffffffffffffffffffffffffffffffffffffffff168152602001908152602001600020819055505b6110d082600360008673ffffffffffffffffffffffffffffffffffffffff1673ffffffffffffffffffffffffffffffffffffffff168152602001908152602001600020546111c090919063ffffffff16565b600360008573ffffffffffffffffffffffffffffffffffffffff1673ffffffffffffffffffffffffffffffffffffffff168152602001908152602001600020819055507fc9ec05ea5037818736839e1365dc3d9a74a735c447af0697da66633b7a9d0fab8261113d610740565b60405161114b9291906116df565b60405180910390a1505050565b600460009054906101000a900473ffffffffffffffffffffffffffffffffffffffff1681565b6000818361118c91906117a0565b905092915050565b600081836111a2919061176f565b905092915050565b600081836111b891906117fa565b905092915050565b600081836111ce9190611719565b905092915050565b6000813590506111e58161191c565b92915050565b6000815190506111fa8161191c565b92915050565b60008151905061120f81611933565b92915050565b6000813590506112248161194a565b92915050565b6000815190506112398161194a565b92915050565b60006020828403121561125157600080fd5b600061125f848285016111d6565b91505092915050565b60006020828403121561127a57600080fd5b6000611288848285016111eb565b91505092915050565b600080604083850312156112a457600080fd5b60006112b2858286016111d6565b92505060206112c385828601611215565b9150509250929050565b6000602082840312156112df57600080fd5b60006112ed84828501611200565b91505092915050565b60006020828403121561130857600080fd5b600061131684828501611215565b91505092915050565b60006020828403121561133157600080fd5b600061133f8482850161122a565b91505092915050565b6113518161182e565b82525050565b61136081611876565b82525050565b61136f8161189a565b82525050565b6000611382601483611708565b91507f6e6f207265776172647320617661696c61626c650000000000000000000000006000830152602082019050919050565b60006113c2600e83611708565b91507f696e76616c696420616d6f756e740000000000000000000000000000000000006000830152602082019050919050565b6000611402602b83611708565b91507f6175746f7374616b652063616c6c65642066726f6d207265776172647320636f60008301527f6e7472616374206f6e6c790000000000000000000000000000000000000000006020830152604082019050919050565b6000611468601883611708565b91507f696e737566666963656e74204e4f43542062616c616e636500000000000000006000830152602082019050919050565b60006114a8600f83611708565b91507f7472616e73666572206661696c656400000000000000000000000000000000006000830152602082019050919050565b60006114e8600e83611708565b91507f7374616b696e67206661696c65640000000000000000000000000000000000006000830152602082019050919050565b6115248161186c565b82525050565b600060208201905061153f6000830184611348565b92915050565b600060608201905061155a6000830186611348565b6115676020830185611348565b611574604083018461151b565b949350505050565b60006040820190506115916000830185611348565b61159e602083018461151b565b9392505050565b60006020820190506115ba6000830184611357565b92915050565b60006020820190506115d56000830184611366565b92915050565b600060208201905081810360008301526115f481611375565b9050919050565b60006020820190508181036000830152611614816113b5565b9050919050565b60006020820190508181036000830152611634816113f5565b9050919050565b600060208201905081810360008301526116548161145b565b9050919050565b600060208201905081810360008301526116748161149b565b9050919050565b60006020820190508181036000830152611694816114db565b9050919050565b60006020820190506116b0600083018461151b565b92915050565b60006040820190506116cb600083018561151b565b6116d86020830184611348565b9392505050565b60006040820190506116f4600083018561151b565b611701602083018461151b565b9392505050565b600082825260208201905092915050565b60006117248261186c565b915061172f8361186c565b9250827fffffffffffffffffffffffffffffffffffffffffffffffffffffffffffffffff03821115611764576117636118be565b5b828201905092915050565b600061177a8261186c565b91506117858361186c565b925082611795576117946118ed565b5b828204905092915050565b60006117ab8261186c565b91506117b68361186c565b9250817fffffffffffffffffffffffffffffffffffffffffffffffffffffffffffffffff04831182151516156117ef576117ee6118be565b5b828202905092915050565b60006118058261186c565b91506118108361186c565b925082821015611823576118226118be565b5b828203905092915050565b60006118398261184c565b9050919050565b60008115159050919050565b600073ffffffffffffffffffffffffffffffffffffffff82169050919050565b6000819050919050565b600061188182611888565b9050919050565b60006118938261184c565b9050919050565b60006118a5826118ac565b9050919050565b60006118b78261184c565b9050919050565b7f4e487b7100000000000000000000000000000000000000000000000000000000600052601160045260246000fd5b7f4e487b7100000000000000000000000000000000000000000000000000000000600052601260045260246000fd5b6119258161182e565b811461193057600080fd5b50565b61193c81611840565b811461194757600080fd5b50565b6119538161186c565b811461195e57600080fd5b5056fea264697066735822122031536cab3aabb4cfd83d14b175f393c8761c9cbdbd85d40037fd8fd5316aa76564736f6c63430008000033",
  "immutableReferences": {},
  "source": "/*                              $$\\                                             $$\\                                                         \n                                $$ |                                            $$ |                                                  \n$$$$$$$\\   $$$$$$\\   $$$$$$$\\ $$$$$$\\   $$\\   $$\\  $$$$$$\\  $$$$$$$\\   $$$$$$\\  $$ |     \n$$  __$$\\ $$  __$$\\ $$  _____|\\_$$  _|  $$ |  $$ |$$  __$$\\ $$  __$$\\  \\____$$\\ $$ |    \n$$ |  $$ |$$ /  $$ |$$ /        $$ |    $$ |  $$ |$$ |  \\__|$$ |  $$ | $$$$$$$ |$$ |     \n$$ |  $$ |$$ |  $$ |$$ |        $$ |$$\\ $$ |  $$ |$$ |      $$ |  $$ |$$  __$$ |$$ |     \n$$ |  $$ |\\$$$$$$  |\\$$$$$$$\\   \\$$$$  |\\$$$$$$  |$$ |      $$ |  $$ |\\$$$$$$$ |$$ |      \n\\__|  \\__| \\______/  \\_______|   \\____/  \\______/ \\__|      \\__|  \\__| \\_______|\\__|     \n*/\n\npragma solidity ^0.8.0;\n\nimport \"@openzeppelin/contracts/token/ERC20/ERC20.sol\";\nimport \"@openzeppelin/contracts/utils/math/SafeMath.sol\";\nimport \"@uniswap/v3-periphery/contracts/interfaces/IPeripheryPayments.sol\";\nimport {NocturnalFinanceInterface} from \"./Interfaces/NocturnalFinanceInterface.sol\";\n\ncontract NoctStaking {\n    using SafeMath for uint256;\n    address public tA;\n\n    uint256 public trg = 0;\n    mapping(address => uint256) public lrc;\n    mapping(address => uint256) public staked;\n    \n    NocturnalFinanceInterface public nocturnalFinance;\n    IPeripheryPayments public payment;\n\n    constructor (address _nocturnalFinance) public {\n      nocturnalFinance = NocturnalFinanceInterface(_nocturnalFinance);\n      tA = nocturnalFinance.sNoctAddress();\n    }\n\n    event Stake(uint256 amount, uint256 total);\n    event Withdraw(uint256 amount, uint256 total);\n\n    function totalStaked() public view returns (uint256) {\n        ERC20 token = ERC20(tA);\n        return token.balanceOf(address(this));\n    }\n\n    function stake(uint256 amount) public {\n        require(amount > 0, \"invalid amount\");\n        ERC20 token = ERC20(tA);\n        require(token.balanceOf(msg.sender) >= amount, \"insufficent NOCT balance\");\n        require(token.transferFrom(msg.sender, address(this), amount), \"staking failed\");\n        if (staked[msg.sender] == 0) {\n            lrc[msg.sender] = trg;\n        }\n        staked[msg.sender] = staked[msg.sender].add(amount);\n        emit Stake(amount, totalStaked());\n    }\n    \n    function autoStake(address _claimantAddress, uint256 amount) public {\n        require(msg.sender == nocturnalFinance.rewardsAddress(), \"autostake called from rewards contract only\");\n        require(amount > 0, \"invalid amount\");\n        ERC20 token = ERC20(tA);\n        require(token.balanceOf(msg.sender) >= amount, \"insufficent NOCT balance\");\n        require(token.transferFrom(msg.sender, address(this), amount), \"staking failed\");\n        if (staked[_claimantAddress] == 0) {\n            lrc[_claimantAddress] = trg;\n        }\n        staked[_claimantAddress] = staked[_claimantAddress].add(amount);\n        emit Stake(amount, totalStaked());\n    }\n\n    function withdraw(uint256 amount) public {\n        require(staked[msg.sender] >= amount, \"invalid amount\");\n        ERC20 token = ERC20(tA);\n        require(token.transfer(msg.sender, amount), \"transfer failed\");\n        staked[msg.sender] = staked[msg.sender].sub(amount);\n\n        uint256 totalBalance = token.balanceOf(address(this));\n        emit Withdraw(amount, totalBalance);\n    }\n\n    function bRSLC(address acc) public view returns (uint256) {\n        return trg.sub(lrc[acc]);\n    }\n\n    function pendingETHRewards(address account) public view returns (uint256) {\n        uint256 base = bRSLC(account);\n        return base.mul(staked[account]).div(totalStaked());\n    }\n\n    function claimETHRewards() public {\n        require(lrc[msg.sender] <= trg, \"no rewards available\");\n        \n        uint256 toSend = pendingETHRewards(msg.sender);\n        lrc[msg.sender] = trg;\n        // use unwrapWETH9() and transfer to staker\n        payment.unwrapWETH9(toSend, msg.sender);\n        //require(msg.sender.send(toSend), \"transfer failed\");\n    }\n\n    //this function has to be present or transfers to the contract fail silently\n    fallback () external payable {}\n}\n",
  "sourcePath": "/Users/knott/Desktop/nocturnal/contracts/NoctStaking.sol",
  "compiler": {
    "name": "solc",
    "version": "0.8.0+commit.c7dfd78e.Emscripten.clang"
  },
  "schemaVersion": "3.3.3",
  "updatedAt": "2021-05-16T02:21:48.653Z",
  "devdoc": {
    "kind": "dev",
    "methods": {},
    "version": 1
  },
  "userdoc": {
    "kind": "user",
    "methods": {},
    "version": 1
  }
}