{
  "contractName": "NocturnalFinance",
  "abi": [
    {
      "inputs": [],
      "stateMutability": "nonpayable",
      "type": "constructor"
    },
    {
      "anonymous": false,
      "inputs": [
        {
          "indexed": true,
          "internalType": "address",
          "name": "previousOwner",
          "type": "address"
        },
        {
          "indexed": true,
          "internalType": "address",
          "name": "newOwner",
          "type": "address"
        }
      ],
      "name": "OwnershipTransferred",
      "type": "event"
    },
    {
      "inputs": [],
      "name": "depositFeeRate",
      "outputs": [
        {
          "internalType": "uint256",
          "name": "",
          "type": "uint256"
        }
      ],
      "stateMutability": "view",
      "type": "function"
    },
    {
      "inputs": [],
      "name": "noctAddress",
      "outputs": [
        {
          "internalType": "address",
          "name": "",
          "type": "address"
        }
      ],
      "stateMutability": "view",
      "type": "function"
    },
    {
      "inputs": [],
      "name": "oracleAddress",
      "outputs": [
        {
          "internalType": "address",
          "name": "",
          "type": "address"
        }
      ],
      "stateMutability": "view",
      "type": "function"
    },
    {
      "inputs": [],
      "name": "orderAddress",
      "outputs": [
        {
          "internalType": "address",
          "name": "",
          "type": "address"
        }
      ],
      "stateMutability": "view",
      "type": "function"
    },
    {
      "inputs": [],
      "name": "orderFactoryAddress",
      "outputs": [
        {
          "internalType": "address",
          "name": "",
          "type": "address"
        }
      ],
      "stateMutability": "view",
      "type": "function"
    },
    {
      "inputs": [],
      "name": "owner",
      "outputs": [
        {
          "internalType": "address",
          "name": "",
          "type": "address"
        }
      ],
      "stateMutability": "view",
      "type": "function"
    },
    {
      "inputs": [],
      "name": "renounceOwnership",
      "outputs": [],
      "stateMutability": "nonpayable",
      "type": "function"
    },
    {
      "inputs": [],
      "name": "rewardsAddress",
      "outputs": [
        {
          "internalType": "address",
          "name": "",
          "type": "address"
        }
      ],
      "stateMutability": "view",
      "type": "function"
    },
    {
      "inputs": [],
      "name": "rewardsRatioFactor",
      "outputs": [
        {
          "internalType": "uint256",
          "name": "",
          "type": "uint256"
        }
      ],
      "stateMutability": "view",
      "type": "function"
    },
    {
      "inputs": [],
      "name": "sNoctAddress",
      "outputs": [
        {
          "internalType": "address",
          "name": "",
          "type": "address"
        }
      ],
      "stateMutability": "view",
      "type": "function"
    },
    {
      "inputs": [
        {
          "internalType": "address",
          "name": "newOwner",
          "type": "address"
        }
      ],
      "name": "transferOwnership",
      "outputs": [],
      "stateMutability": "nonpayable",
      "type": "function"
    },
    {
      "inputs": [
        {
          "internalType": "address",
          "name": "_oracleAddress",
          "type": "address"
        },
        {
          "internalType": "address",
          "name": "_rewardsAddress",
          "type": "address"
        },
        {
          "internalType": "address",
          "name": "_orderFactoryAddress",
          "type": "address"
        },
        {
          "internalType": "address",
          "name": "_orderAddress",
          "type": "address"
        }
      ],
      "name": "initNocturnal",
      "outputs": [],
      "stateMutability": "nonpayable",
      "type": "function"
    },
    {
      "inputs": [
        {
          "internalType": "address",
          "name": "_noctAddress",
          "type": "address"
        }
      ],
      "name": "initNoct",
      "outputs": [],
      "stateMutability": "nonpayable",
      "type": "function"
    },
    {
      "inputs": [
        {
          "internalType": "address",
          "name": "_sNoctAddress",
          "type": "address"
        }
      ],
      "name": "initsNoct",
      "outputs": [],
      "stateMutability": "nonpayable",
      "type": "function"
    },
    {
      "inputs": [
        {
          "internalType": "uint256",
          "name": "_dRateBasisPoints",
          "type": "uint256"
        }
      ],
      "name": "setDepositRate",
      "outputs": [],
      "stateMutability": "nonpayable",
      "type": "function"
    },
    {
      "inputs": [
        {
          "internalType": "uint256",
          "name": "_rFactorBasisPoints",
          "type": "uint256"
        }
      ],
      "name": "setRewardsFactor",
      "outputs": [],
      "stateMutability": "nonpayable",
      "type": "function"
    },
    {
      "inputs": [],
      "name": "depositRate",
      "outputs": [
        {
          "internalType": "uint256",
          "name": "",
          "type": "uint256"
        }
      ],
      "stateMutability": "view",
      "type": "function"
    },
    {
      "inputs": [],
      "name": "rewardsFactor",
      "outputs": [
        {
          "internalType": "uint256",
          "name": "",
          "type": "uint256"
        }
      ],
      "stateMutability": "view",
      "type": "function"
    }
  ],
  "bytecode": "0x608060405234801561001057600080fd5b5060006100216100c460201b60201c565b9050806000806101000a81548173ffffffffffffffffffffffffffffffffffffffff021916908373ffffffffffffffffffffffffffffffffffffffff1602179055508073ffffffffffffffffffffffffffffffffffffffff16600073ffffffffffffffffffffffffffffffffffffffff167f8be0079c531659141344cd1fd0a4f28419497f9722a3daafe3b4186f6b6457e060405160405180910390a3506100cc565b600033905090565b610f26806100db6000396000f3fe608060405234801561001057600080fd5b50600436106101165760003560e01c8063a89ae4ba116100a2578063cb1048ff11610071578063cb1048ff14610287578063e272981b146102a5578063e5f71975146102c3578063f1432435146102df578063f2fde38b146102fb57610116565b8063a89ae4ba14610211578063ae2cb2ff1461022f578063bf35588b1461024d578063c0973eed1461026957610116565b8063715018a6116100e9578063715018a6146101915780637e74a1ed1461019b578063852cb9b8146101b95780638da5cb5b146101d7578063a655a155146101f557610116565b80630c231c3f1461011b5780631d1d929b146101375780634369c250146101555780634f58434214610173575b600080fd5b61013560048036038101906101309190610c86565b610317565b005b61013f610411565b60405161014c9190610dff565b60405180910390f35b61015d610437565b60405161016a9190610e5a565b60405180910390f35b61017b610441565b6040516101889190610dff565b60405180910390f35b610199610467565b005b6101a36105a1565b6040516101b09190610e5a565b60405180910390f35b6101c16105ab565b6040516101ce9190610e5a565b60405180910390f35b6101df6105b1565b6040516101ec9190610dff565b60405180910390f35b61020f600480360381019061020a9190610c86565b6105da565b005b6102196106d4565b6040516102269190610dff565b60405180910390f35b6102376106fa565b6040516102449190610e5a565b60405180910390f35b61026760048036038101906102629190610d12565b610700565b005b610271610786565b60405161027e9190610dff565b60405180910390f35b61028f6107ac565b60405161029c9190610dff565b60405180910390f35b6102ad6107d2565b6040516102ba9190610dff565b60405180910390f35b6102dd60048036038101906102d89190610d12565b6107f8565b005b6102f960048036038101906102f49190610caf565b61087e565b005b61031560048036038101906103109190610c86565b610aab565b005b61031f610c54565b73ffffffffffffffffffffffffffffffffffffffff1661033d6105b1565b73ffffffffffffffffffffffffffffffffffffffff1614610393576040517f08c379a000000000000000000000000000000000000000000000000000000000815260040161038a90610e3a565b60405180910390fd5b600073ffffffffffffffffffffffffffffffffffffffff168173ffffffffffffffffffffffffffffffffffffffff1614156103cd57600080fd5b80600560006101000a81548173ffffffffffffffffffffffffffffffffffffffff021916908373ffffffffffffffffffffffffffffffffffffffff16021790555050565b600460009054906101000a900473ffffffffffffffffffffffffffffffffffffffff1681565b6000600854905090565b600660009054906101000a900473ffffffffffffffffffffffffffffffffffffffff1681565b61046f610c54565b73ffffffffffffffffffffffffffffffffffffffff1661048d6105b1565b73ffffffffffffffffffffffffffffffffffffffff16146104e3576040517f08c379a00000000000000000000000000000000000000000000000000000000081526004016104da90610e3a565b60405180910390fd5b600073ffffffffffffffffffffffffffffffffffffffff1660008054906101000a900473ffffffffffffffffffffffffffffffffffffffff1673ffffffffffffffffffffffffffffffffffffffff167f8be0079c531659141344cd1fd0a4f28419497f9722a3daafe3b4186f6b6457e060405160405180910390a360008060006101000a81548173ffffffffffffffffffffffffffffffffffffffff021916908373ffffffffffffffffffffffffffffffffffffffff160217905550565b6000600754905090565b60075481565b60008060009054906101000a900473ffffffffffffffffffffffffffffffffffffffff16905090565b6105e2610c54565b73ffffffffffffffffffffffffffffffffffffffff166106006105b1565b73ffffffffffffffffffffffffffffffffffffffff1614610656576040517f08c379a000000000000000000000000000000000000000000000000000000000815260040161064d90610e3a565b60405180910390fd5b600073ffffffffffffffffffffffffffffffffffffffff168173ffffffffffffffffffffffffffffffffffffffff16141561069057600080fd5b80600460006101000a81548173ffffffffffffffffffffffffffffffffffffffff021916908373ffffffffffffffffffffffffffffffffffffffff16021790555050565b600160009054906101000a900473ffffffffffffffffffffffffffffffffffffffff1681565b60085481565b610708610c54565b73ffffffffffffffffffffffffffffffffffffffff166107266105b1565b73ffffffffffffffffffffffffffffffffffffffff161461077c576040517f08c379a000000000000000000000000000000000000000000000000000000000815260040161077390610e3a565b60405180910390fd5b8060078190555050565b600260009054906101000a900473ffffffffffffffffffffffffffffffffffffffff1681565b600560009054906101000a900473ffffffffffffffffffffffffffffffffffffffff1681565b600360009054906101000a900473ffffffffffffffffffffffffffffffffffffffff1681565b610800610c54565b73ffffffffffffffffffffffffffffffffffffffff1661081e6105b1565b73ffffffffffffffffffffffffffffffffffffffff1614610874576040517f08c379a000000000000000000000000000000000000000000000000000000000815260040161086b90610e3a565b60405180910390fd5b8060088190555050565b610886610c54565b73ffffffffffffffffffffffffffffffffffffffff166108a46105b1565b73ffffffffffffffffffffffffffffffffffffffff16146108fa576040517f08c379a00000000000000000000000000000000000000000000000000000000081526004016108f190610e3a565b60405180910390fd5b600073ffffffffffffffffffffffffffffffffffffffff168473ffffffffffffffffffffffffffffffffffffffff16141561093457600080fd5b600073ffffffffffffffffffffffffffffffffffffffff168373ffffffffffffffffffffffffffffffffffffffff16141561096e57600080fd5b600073ffffffffffffffffffffffffffffffffffffffff168273ffffffffffffffffffffffffffffffffffffffff1614156109a857600080fd5b600073ffffffffffffffffffffffffffffffffffffffff168173ffffffffffffffffffffffffffffffffffffffff1614156109e257600080fd5b83600160006101000a81548173ffffffffffffffffffffffffffffffffffffffff021916908373ffffffffffffffffffffffffffffffffffffffff16021790555082600260006101000a81548173ffffffffffffffffffffffffffffffffffffffff021916908373ffffffffffffffffffffffffffffffffffffffff16021790555081600360006101000a81548173ffffffffffffffffffffffffffffffffffffffff021916908373ffffffffffffffffffffffffffffffffffffffff16021790555050505050565b610ab3610c54565b73ffffffffffffffffffffffffffffffffffffffff16610ad16105b1565b73ffffffffffffffffffffffffffffffffffffffff1614610b27576040517f08c379a0000000000000000000000000000000000000000000000000000000008152600401610b1e90610e3a565b60405180910390fd5b600073ffffffffffffffffffffffffffffffffffffffff168173ffffffffffffffffffffffffffffffffffffffff161415610b97576040517f08c379a0000000000000000000000000000000000000000000000000000000008152600401610b8e90610e1a565b60405180910390fd5b8073ffffffffffffffffffffffffffffffffffffffff1660008054906101000a900473ffffffffffffffffffffffffffffffffffffffff1673ffffffffffffffffffffffffffffffffffffffff167f8be0079c531659141344cd1fd0a4f28419497f9722a3daafe3b4186f6b6457e060405160405180910390a3806000806101000a81548173ffffffffffffffffffffffffffffffffffffffff021916908373ffffffffffffffffffffffffffffffffffffffff16021790555050565b600033905090565b600081359050610c6b81610ec2565b92915050565b600081359050610c8081610ed9565b92915050565b600060208284031215610c9857600080fd5b6000610ca684828501610c5c565b91505092915050565b60008060008060808587031215610cc557600080fd5b6000610cd387828801610c5c565b9450506020610ce487828801610c5c565b9350506040610cf587828801610c5c565b9250506060610d0687828801610c5c565b91505092959194509250565b600060208284031215610d2457600080fd5b6000610d3284828501610c71565b91505092915050565b610d4481610e86565b82525050565b6000610d57602683610e75565b91507f4f776e61626c653a206e6577206f776e657220697320746865207a65726f206160008301527f64647265737300000000000000000000000000000000000000000000000000006020830152604082019050919050565b6000610dbd602083610e75565b91507f4f776e61626c653a2063616c6c6572206973206e6f7420746865206f776e65726000830152602082019050919050565b610df981610eb8565b82525050565b6000602082019050610e146000830184610d3b565b92915050565b60006020820190508181036000830152610e3381610d4a565b9050919050565b60006020820190508181036000830152610e5381610db0565b9050919050565b6000602082019050610e6f6000830184610df0565b92915050565b600082825260208201905092915050565b6000610e9182610e98565b9050919050565b600073ffffffffffffffffffffffffffffffffffffffff82169050919050565b6000819050919050565b610ecb81610e86565b8114610ed657600080fd5b50565b610ee281610eb8565b8114610eed57600080fd5b5056fea2646970667358221220e73c8b7a0913cd4ef14be7c65c4f42311aa9b1528276def42b5bee860d69396064736f6c63430008000033",
  "immutableReferences": {},
  "source": "/*                              $$\\                                             $$\\                                                         \n                                $$ |                                            $$ |                                                  \n$$$$$$$\\   $$$$$$\\   $$$$$$$\\ $$$$$$\\   $$\\   $$\\  $$$$$$\\  $$$$$$$\\   $$$$$$\\  $$ |     \n$$  __$$\\ $$  __$$\\ $$  _____|\\_$$  _|  $$ |  $$ |$$  __$$\\ $$  __$$\\  \\____$$\\ $$ |    \n$$ |  $$ |$$ /  $$ |$$ /        $$ |    $$ |  $$ |$$ |  \\__|$$ |  $$ | $$$$$$$ |$$ |     \n$$ |  $$ |$$ |  $$ |$$ |        $$ |$$\\ $$ |  $$ |$$ |      $$ |  $$ |$$  __$$ |$$ |     \n$$ |  $$ |\\$$$$$$  |\\$$$$$$$\\   \\$$$$  |\\$$$$$$  |$$ |      $$ |  $$ |\\$$$$$$$ |$$ |      \n\\__|  \\__| \\______/  \\_______|   \\____/  \\______/ \\__|      \\__|  \\__| \\_______|\\__|     \n*/\n\npragma solidity ^0.8.0;\n\nimport \"@openzeppelin/contracts/access/Ownable.sol\";\n\ncontract NocturnalFinance is Ownable {\n    \n    address public oracleAddress;\n    address public rewardsAddress;\n    address public orderFactoryAddress;\n    address public noctAddress;\n    address public sNoctAddress;\n    address public orderAddress;\n    uint256 public depositFeeRate;\n    uint256 public rewardsRatioFactor;\n    \n    mapping(address => bool) testerAddress;\n    \n    constructor() public {\n    }\n    \n    function initNocturnal( \n            address _oracleAddress, \n            address _rewardsAddress,\n            address _orderFactoryAddress,\n            address _orderAddress) external onlyOwner {\n\t\trequire(_oracleAddress != address(0));\n\t\trequire(_rewardsAddress != address(0));\n\t\trequire(_orderFactoryAddress != address(0));\n\t\trequire(_orderAddress != address(0));\n        oracleAddress = _oracleAddress;\n        rewardsAddress = _rewardsAddress;\n        orderFactoryAddress = _orderFactoryAddress;\n    }\n    \n    function initNoct(address _noctAddress) external onlyOwner {\n        require(_noctAddress != address(0));\n        noctAddress = _noctAddress;\n    }\n    \n    function initsNoct(address _sNoctAddress) external onlyOwner {\n        require(_sNoctAddress != address(0));\n        sNoctAddress = _sNoctAddress;\n    }\n    \n    function setDepositRate(uint256 _dRateBasisPoints) external onlyOwner {\n        depositFeeRate = _dRateBasisPoints;\n    }\n    \n    function setRewardsFactor(uint256 _rFactorBasisPoints) external onlyOwner {\n        rewardsRatioFactor = _rFactorBasisPoints;\n    }\n    \n    function depositRate() external view returns (uint256) {\n        return (depositFeeRate);\n    }\n     \n    function rewardsFactor() external view returns (uint256) {\n        return (rewardsRatioFactor);\n    }\n}\n",
  "sourcePath": "/Users/knott/Desktop/nocturnal/contracts/NocturnalFinance.sol",
  "compiler": {
    "name": "solc",
    "version": "0.8.0+commit.c7dfd78e.Emscripten.clang"
  },
  "schemaVersion": "3.3.3",
  "updatedAt": "2021-05-16T02:21:48.667Z",
  "devdoc": {
    "kind": "dev",
    "methods": {
      "owner()": {
        "details": "Returns the address of the current owner."
      },
      "renounceOwnership()": {
        "details": "Leaves the contract without owner. It will not be possible to call `onlyOwner` functions anymore. Can only be called by the current owner. NOTE: Renouncing ownership will leave the contract without an owner, thereby removing any functionality that is only available to the owner."
      },
      "transferOwnership(address)": {
        "details": "Transfers ownership of the contract to a new account (`newOwner`). Can only be called by the current owner."
      }
    },
    "version": 1
  },
  "userdoc": {
    "kind": "user",
    "methods": {},
    "version": 1
  }
}