{
  "contractName": "NoctStaking",
  "abi": [
    {
      "inputs": [
        {
          "internalType": "address",
          "name": "_nocturnalFinance",
          "type": "address"
        },
        {
          "internalType": "address",
          "name": "_WETH",
          "type": "address"
        }
      ],
      "stateMutability": "nonpayable",
      "type": "constructor"
    },
    {
      "anonymous": false,
      "inputs": [
        {
          "indexed": true,
          "internalType": "address",
          "name": "owner",
          "type": "address"
        },
        {
          "indexed": true,
          "internalType": "address",
          "name": "spender",
          "type": "address"
        },
        {
          "indexed": false,
          "internalType": "uint256",
          "name": "value",
          "type": "uint256"
        }
      ],
      "name": "Approval",
      "type": "event"
    },
    {
      "anonymous": false,
      "inputs": [
        {
          "indexed": false,
          "internalType": "uint256",
          "name": "amount",
          "type": "uint256"
        },
        {
          "indexed": false,
          "internalType": "uint256",
          "name": "total",
          "type": "uint256"
        }
      ],
      "name": "Stake",
      "type": "event"
    },
    {
      "anonymous": false,
      "inputs": [
        {
          "indexed": true,
          "internalType": "address",
          "name": "from",
          "type": "address"
        },
        {
          "indexed": true,
          "internalType": "address",
          "name": "to",
          "type": "address"
        },
        {
          "indexed": false,
          "internalType": "uint256",
          "name": "value",
          "type": "uint256"
        }
      ],
      "name": "Transfer",
      "type": "event"
    },
    {
      "anonymous": false,
      "inputs": [
        {
          "indexed": false,
          "internalType": "uint256",
          "name": "amount",
          "type": "uint256"
        },
        {
          "indexed": false,
          "internalType": "uint256",
          "name": "total",
          "type": "uint256"
        }
      ],
      "name": "Withdraw",
      "type": "event"
    },
    {
      "stateMutability": "payable",
      "type": "fallback",
      "payable": true
    },
    {
      "inputs": [
        {
          "internalType": "address",
          "name": "owner",
          "type": "address"
        },
        {
          "internalType": "address",
          "name": "spender",
          "type": "address"
        }
      ],
      "name": "allowance",
      "outputs": [
        {
          "internalType": "uint256",
          "name": "",
          "type": "uint256"
        }
      ],
      "stateMutability": "view",
      "type": "function",
      "constant": true
    },
    {
      "inputs": [
        {
          "internalType": "address",
          "name": "spender",
          "type": "address"
        },
        {
          "internalType": "uint256",
          "name": "amount",
          "type": "uint256"
        }
      ],
      "name": "approve",
      "outputs": [
        {
          "internalType": "bool",
          "name": "",
          "type": "bool"
        }
      ],
      "stateMutability": "nonpayable",
      "type": "function"
    },
    {
      "inputs": [
        {
          "internalType": "address",
          "name": "account",
          "type": "address"
        }
      ],
      "name": "balanceOf",
      "outputs": [
        {
          "internalType": "uint256",
          "name": "",
          "type": "uint256"
        }
      ],
      "stateMutability": "view",
      "type": "function",
      "constant": true
    },
    {
      "inputs": [],
      "name": "decimals",
      "outputs": [
        {
          "internalType": "uint8",
          "name": "",
          "type": "uint8"
        }
      ],
      "stateMutability": "view",
      "type": "function",
      "constant": true
    },
    {
      "inputs": [
        {
          "internalType": "address",
          "name": "spender",
          "type": "address"
        },
        {
          "internalType": "uint256",
          "name": "subtractedValue",
          "type": "uint256"
        }
      ],
      "name": "decreaseAllowance",
      "outputs": [
        {
          "internalType": "bool",
          "name": "",
          "type": "bool"
        }
      ],
      "stateMutability": "nonpayable",
      "type": "function"
    },
    {
      "inputs": [
        {
          "internalType": "address",
          "name": "spender",
          "type": "address"
        },
        {
          "internalType": "uint256",
          "name": "addedValue",
          "type": "uint256"
        }
      ],
      "name": "increaseAllowance",
      "outputs": [
        {
          "internalType": "bool",
          "name": "",
          "type": "bool"
        }
      ],
      "stateMutability": "nonpayable",
      "type": "function"
    },
    {
      "inputs": [
        {
          "internalType": "address",
          "name": "",
          "type": "address"
        }
      ],
      "name": "lrc",
      "outputs": [
        {
          "internalType": "uint256",
          "name": "",
          "type": "uint256"
        }
      ],
      "stateMutability": "view",
      "type": "function",
      "constant": true
    },
    {
      "inputs": [],
      "name": "name",
      "outputs": [
        {
          "internalType": "string",
          "name": "",
          "type": "string"
        }
      ],
      "stateMutability": "view",
      "type": "function",
      "constant": true
    },
    {
      "inputs": [],
      "name": "nocturnalFinance",
      "outputs": [
        {
          "internalType": "contract NocturnalFinanceInterface",
          "name": "",
          "type": "address"
        }
      ],
      "stateMutability": "view",
      "type": "function",
      "constant": true
    },
    {
      "inputs": [],
      "name": "payment",
      "outputs": [
        {
          "internalType": "contract IPeripheryPayments",
          "name": "",
          "type": "address"
        }
      ],
      "stateMutability": "view",
      "type": "function",
      "constant": true
    },
    {
      "inputs": [],
      "name": "symbol",
      "outputs": [
        {
          "internalType": "string",
          "name": "",
          "type": "string"
        }
      ],
      "stateMutability": "view",
      "type": "function",
      "constant": true
    },
    {
      "inputs": [],
      "name": "totalSupply",
      "outputs": [
        {
          "internalType": "uint256",
          "name": "",
          "type": "uint256"
        }
      ],
      "stateMutability": "view",
      "type": "function",
      "constant": true
    },
    {
      "inputs": [
        {
          "internalType": "address",
          "name": "recipient",
          "type": "address"
        },
        {
          "internalType": "uint256",
          "name": "amount",
          "type": "uint256"
        }
      ],
      "name": "transfer",
      "outputs": [
        {
          "internalType": "bool",
          "name": "",
          "type": "bool"
        }
      ],
      "stateMutability": "nonpayable",
      "type": "function"
    },
    {
      "inputs": [
        {
          "internalType": "address",
          "name": "sender",
          "type": "address"
        },
        {
          "internalType": "address",
          "name": "recipient",
          "type": "address"
        },
        {
          "internalType": "uint256",
          "name": "amount",
          "type": "uint256"
        }
      ],
      "name": "transferFrom",
      "outputs": [
        {
          "internalType": "bool",
          "name": "",
          "type": "bool"
        }
      ],
      "stateMutability": "nonpayable",
      "type": "function"
    },
    {
      "inputs": [],
      "name": "trg",
      "outputs": [
        {
          "internalType": "uint256",
          "name": "",
          "type": "uint256"
        }
      ],
      "stateMutability": "view",
      "type": "function",
      "constant": true
    },
    {
      "inputs": [],
      "name": "totalStaked",
      "outputs": [
        {
          "internalType": "uint256",
          "name": "",
          "type": "uint256"
        }
      ],
      "stateMutability": "view",
      "type": "function",
      "constant": true
    },
    {
      "inputs": [
        {
          "internalType": "uint256",
          "name": "amount",
          "type": "uint256"
        }
      ],
      "name": "stake",
      "outputs": [],
      "stateMutability": "nonpayable",
      "type": "function"
    },
    {
      "inputs": [
        {
          "internalType": "address",
          "name": "_claimantAddress",
          "type": "address"
        },
        {
          "internalType": "uint256",
          "name": "amount",
          "type": "uint256"
        }
      ],
      "name": "autoStake",
      "outputs": [],
      "stateMutability": "nonpayable",
      "type": "function"
    },
    {
      "inputs": [
        {
          "internalType": "uint256",
          "name": "amount",
          "type": "uint256"
        }
      ],
      "name": "withdraw",
      "outputs": [],
      "stateMutability": "nonpayable",
      "type": "function"
    },
    {
      "inputs": [
        {
          "internalType": "address",
          "name": "acc",
          "type": "address"
        }
      ],
      "name": "bRSLC",
      "outputs": [
        {
          "internalType": "uint256",
          "name": "",
          "type": "uint256"
        }
      ],
      "stateMutability": "view",
      "type": "function",
      "constant": true
    },
    {
      "inputs": [
        {
          "internalType": "address",
          "name": "account",
          "type": "address"
        }
      ],
      "name": "pendingETHRewards",
      "outputs": [
        {
          "internalType": "uint256",
          "name": "",
          "type": "uint256"
        }
      ],
      "stateMutability": "view",
      "type": "function",
      "constant": true
    },
    {
      "inputs": [],
      "name": "claimETHRewards",
      "outputs": [],
      "stateMutability": "nonpayable",
      "type": "function"
    },
    {
      "inputs": [
        {
          "internalType": "uint256",
          "name": "_rewards",
          "type": "uint256"
        }
      ],
      "name": "updateTRG",
      "outputs": [],
      "stateMutability": "nonpayable",
      "type": "function"
    }
  ],
  "bytecode": "0x60806040523480156200001157600080fd5b506040516200284d3803806200284d8339810160408190526200003491620001ad565b604080518082018252601681527f5374616b6564204e6f637475726e616c20546f6b656e000000000000000000006020808301918252835180850190945260058452641cd393d0d560da1b9084015281519192916200009691600391620000ea565b508051620000ac906004906020840190620000ea565b5050600880546001600160a01b039485166001600160a01b031991821617909155600060055560078054939094169216919091179091555062000221565b828054620000f890620001e4565b90600052602060002090601f0160209004810192826200011c576000855562000167565b82601f106200013757805160ff191683800117855562000167565b8280016001018555821562000167579182015b82811115620001675782518255916020019190600101906200014a565b506200017592915062000179565b5090565b5b808211156200017557600081556001016200017a565b80516001600160a01b0381168114620001a857600080fd5b919050565b60008060408385031215620001c0578182fd5b620001cb8362000190565b9150620001db6020840162000190565b90509250929050565b600281046001821680620001f957607f821691505b602082108114156200021b57634e487b7160e01b600052602260045260246000fd5b50919050565b61261c80620002316000396000f3fe6080604052600436106101805760003560e01c80636d095514116100d6578063a694fc3a1161007f578063baffb69f11610059578063baffb69f146103f4578063dd62ed3e14610414578063ee64deab1461043457610180565b8063a694fc3a1461039f578063a9059cbb146103bf578063b4b72c1d146103df57610180565b8063958e672f116100b0578063958e672f1461034a57806395d89b411461036a578063a457c2d71461037f57610180565b80636d095514146102f557806370a0823114610315578063817b1cd21461033557610180565b80632e1a7d4d1161013857806342f6487a1161011257806342f6487a1461029e578063480ea628146102c057806349be4c33146102d557610180565b80632e1a7d4d1461023c578063313ce5671461025c578063395093511461027e57610180565b806318160ddd1161016957806318160ddd146101da57806322d2d4a1146101fc57806323b872dd1461021c57610180565b806306fdde0314610182578063095ea7b3146101ad575b005b34801561018e57600080fd5b50610197610449565b6040516101a49190611f12565b60405180910390f35b3480156101b957600080fd5b506101cd6101c8366004611e0b565b6104db565b6040516101a49190611efe565b3480156101e657600080fd5b506101ef6104f8565b6040516101a49190611f09565b34801561020857600080fd5b506101ef610217366004611d5b565b6104fe565b34801561022857600080fd5b506101cd610237366004611dcb565b6105bb565b34801561024857600080fd5b50610180610257366004611e56565b61069c565b34801561026857600080fd5b506102716109c0565b6040516101a4919061248e565b34801561028a57600080fd5b506101cd610299366004611e0b565b6109c5565b3480156102aa57600080fd5b506102b3610a21565b6040516101a49190611e86565b3480156102cc57600080fd5b506101ef610a3d565b3480156102e157600080fd5b506101ef6102f0366004611d5b565b610a43565b34801561030157600080fd5b506101ef610310366004611d5b565b610a55565b34801561032157600080fd5b506101ef610330366004611d5b565b610a8d565b34801561034157600080fd5b506101ef610ab5565b34801561035657600080fd5b50610180610365366004611e56565b610bea565b34801561037657600080fd5b50610197610d08565b34801561038b57600080fd5b506101cd61039a366004611e0b565b610d17565b3480156103ab57600080fd5b506101806103ba366004611e56565b610db9565b3480156103cb57600080fd5b506101cd6103da366004611e0b565b611112565b3480156103eb57600080fd5b50610180611126565b34801561040057600080fd5b5061018061040f366004611e0b565b611277565b34801561042057600080fd5b506101ef61042f366004611d93565b6117ac565b34801561044057600080fd5b506102b36117e4565b60606003805461045890612541565b80601f016020809104026020016040519081016040528092919081815260200182805461048490612541565b80156104d15780601f106104a6576101008083540402835291602001916104d1565b820191906000526020600020905b8154815290600101906020018083116104b457829003601f168201915b5050505050905090565b60006104ef6104e8611800565b8484611804565b50600192915050565b60025490565b60008061050a83610a55565b90506105b4610517610ab5565b6040517f70a082310000000000000000000000000000000000000000000000000000000081526105ae9030906370a0823190610557908990600401611e86565b60206040518083038186803b15801561056f57600080fd5b505afa158015610583573d6000803e3d6000fd5b505050506040513d601f19601f820116820180604052508101906105a79190611e6e565b8490611913565b9061191f565b9392505050565b60006105c884848461192b565b73ffffffffffffffffffffffffffffffffffffffff84166000908152600160205260408120816105f6611800565b73ffffffffffffffffffffffffffffffffffffffff1673ffffffffffffffffffffffffffffffffffffffff16815260200190815260200160002054905082811015610676576040517f08c379a000000000000000000000000000000000000000000000000000000000815260040161066d90612165565b60405180910390fd5b61069185610682611800565b61068c868561252a565b611804565b506001949350505050565b806106a633610a8d565b10156106de576040517f08c379a000000000000000000000000000000000000000000000000000000000815260040161066d9061212e565b6008546040517f8bf83b0400000000000000000000000000000000000000000000000000000000815273ffffffffffffffffffffffffffffffffffffffff90911690638bf83b049061073590600c90600401611f09565b60206040518083038186803b15801561074d57600080fd5b505afa158015610761573d6000803e3d6000fd5b505050506040513d601f19601f820116820180604052508101906107859190611d77565b73ffffffffffffffffffffffffffffffffffffffff1663a9059cbb33836040518363ffffffff1660e01b81526004016107bf929190611ed8565b602060405180830381600087803b1580156107d957600080fd5b505af11580156107ed573d6000803e3d6000fd5b505050506040513d601f19601f820116820180604052508101906108119190611e36565b610847576040517f08c379a000000000000000000000000000000000000000000000000000000000815260040161066d9061237e565b6108513382611aef565b6008546040517f8bf83b0400000000000000000000000000000000000000000000000000000000815260009173ffffffffffffffffffffffffffffffffffffffff1690638bf83b04906108a990600c90600401611f09565b60206040518083038186803b1580156108c157600080fd5b505afa1580156108d5573d6000803e3d6000fd5b505050506040513d601f19601f820116820180604052508101906108f99190611d77565b73ffffffffffffffffffffffffffffffffffffffff166370a08231306040518263ffffffff1660e01b81526004016109319190611e86565b60206040518083038186803b15801561094957600080fd5b505afa15801561095d573d6000803e3d6000fd5b505050506040513d601f19601f820116820180604052508101906109819190611e6e565b90507f56ca301a9219608c91e7bcee90e083c19671d2cdcc96752c7af291cee5f9c8c882826040516109b4929190612480565b60405180910390a15050565b601290565b60006104ef6109d2611800565b8484600160006109e0611800565b73ffffffffffffffffffffffffffffffffffffffff908116825260208083019390935260409182016000908120918b168152925290205461068c919061249c565b60095473ffffffffffffffffffffffffffffffffffffffff1681565b60055481565b60066020526000908152604090205481565b73ffffffffffffffffffffffffffffffffffffffff8116600090815260066020526040812054600554610a8791611c3d565b92915050565b73ffffffffffffffffffffffffffffffffffffffff1660009081526020819052604090205490565b6008546040517f8bf83b0400000000000000000000000000000000000000000000000000000000815260009173ffffffffffffffffffffffffffffffffffffffff1690638bf83b0490610b0d90600c90600401611f09565b60206040518083038186803b158015610b2557600080fd5b505afa158015610b39573d6000803e3d6000fd5b505050506040513d601f19601f82011682018060405250810190610b5d9190611d77565b73ffffffffffffffffffffffffffffffffffffffff166370a08231306040518263ffffffff1660e01b8152600401610b959190611e86565b60206040518083038186803b158015610bad57600080fd5b505afa158015610bc1573d6000803e3d6000fd5b505050506040513d601f19601f82011682018060405250810190610be59190611e6e565b905090565b6008546040517f8bf83b0400000000000000000000000000000000000000000000000000000000815273ffffffffffffffffffffffffffffffffffffffff90911690638bf83b0490610c4190600690600401611f09565b60206040518083038186803b158015610c5957600080fd5b505afa158015610c6d573d6000803e3d6000fd5b505050506040513d601f19601f82011682018060405250810190610c919190611d77565b73ffffffffffffffffffffffffffffffffffffffff163373ffffffffffffffffffffffffffffffffffffffff1614610cf5576040517f08c379a000000000000000000000000000000000000000000000000000000000815260040161066d9061227c565b600554610d029082611c49565b60055550565b60606004805461045890612541565b60008060016000610d26611800565b73ffffffffffffffffffffffffffffffffffffffff90811682526020808301939093526040918201600090812091881681529252902054905082811015610d99576040517f08c379a000000000000000000000000000000000000000000000000000000000815260040161066d906123ec565b610daf610da4611800565b8561068c868561252a565b5060019392505050565b60008111610df3576040517f08c379a000000000000000000000000000000000000000000000000000000000815260040161066d9061212e565b6008546040517f8bf83b04000000000000000000000000000000000000000000000000000000008152829173ffffffffffffffffffffffffffffffffffffffff1690638bf83b0490610e4a90600c90600401611f09565b60206040518083038186803b158015610e6257600080fd5b505afa158015610e76573d6000803e3d6000fd5b505050506040513d601f19601f82011682018060405250810190610e9a9190611d77565b73ffffffffffffffffffffffffffffffffffffffff166370a08231336040518263ffffffff1660e01b8152600401610ed29190611e86565b60206040518083038186803b158015610eea57600080fd5b505afa158015610efe573d6000803e3d6000fd5b505050506040513d601f19601f82011682018060405250810190610f229190611e6e565b1015610f5a576040517f08c379a000000000000000000000000000000000000000000000000000000000815260040161066d906122b3565b6008546040517f8bf83b0400000000000000000000000000000000000000000000000000000000815273ffffffffffffffffffffffffffffffffffffffff90911690638bf83b0490610fb190600c90600401611f09565b60206040518083038186803b158015610fc957600080fd5b505afa158015610fdd573d6000803e3d6000fd5b505050506040513d601f19601f820116820180604052508101906110019190611d77565b73ffffffffffffffffffffffffffffffffffffffff166323b872dd3330846040518463ffffffff1660e01b815260040161103d93929190611ea7565b602060405180830381600087803b15801561105757600080fd5b505af115801561106b573d6000803e3d6000fd5b505050506040513d601f19601f8201168201806040525081019061108f9190611e36565b6110c5576040517f08c379a000000000000000000000000000000000000000000000000000000000815260040161066d906123b5565b6110cf3382611c55565b7fc9ec05ea5037818736839e1365dc3d9a74a735c447af0697da66633b7a9d0fab816110f9610ab5565b604051611107929190612480565b60405180910390a150565b60006104ef61111f611800565b848461192b565b600554336000908152600660205260409020541115611171576040517f08c379a000000000000000000000000000000000000000000000000000000000815260040161066d906120f7565b600061117c336104fe565b60055433600081815260066020526040908190209290925560075491517fa9059cbb00000000000000000000000000000000000000000000000000000000815292935073ffffffffffffffffffffffffffffffffffffffff9091169163a9059cbb916111ec918590600401611ed8565b602060405180830381600087803b15801561120657600080fd5b505af115801561121a573d6000803e3d6000fd5b505050506040513d601f19601f8201168201806040525081019061123e9190611e36565b611274576040517f08c379a000000000000000000000000000000000000000000000000000000000815260040161066d9061237e565b50565b6008546040517f8bf83b0400000000000000000000000000000000000000000000000000000000815273ffffffffffffffffffffffffffffffffffffffff90911690638bf83b04906112ce90600990600401611f09565b60206040518083038186803b1580156112e657600080fd5b505afa1580156112fa573d6000803e3d6000fd5b505050506040513d601f19601f8201168201806040525081019061131e9190611d77565b73ffffffffffffffffffffffffffffffffffffffff163373ffffffffffffffffffffffffffffffffffffffff16148061142857506008546040517f8bf83b0400000000000000000000000000000000000000000000000000000000815273ffffffffffffffffffffffffffffffffffffffff90911690638bf83b04906113a990600a90600401611f09565b60206040518083038186803b1580156113c157600080fd5b505afa1580156113d5573d6000803e3d6000fd5b505050506040513d601f19601f820116820180604052508101906113f99190611d77565b73ffffffffffffffffffffffffffffffffffffffff163373ffffffffffffffffffffffffffffffffffffffff16145b61145e576040517f08c379a000000000000000000000000000000000000000000000000000000000815260040161066d90612347565b60008111611498576040517f08c379a000000000000000000000000000000000000000000000000000000000815260040161066d9061212e565b6008546040517f8bf83b04000000000000000000000000000000000000000000000000000000008152829173ffffffffffffffffffffffffffffffffffffffff1690638bf83b04906114ef90600c90600401611f09565b60206040518083038186803b15801561150757600080fd5b505afa15801561151b573d6000803e3d6000fd5b505050506040513d601f19601f8201168201806040525081019061153f9190611d77565b73ffffffffffffffffffffffffffffffffffffffff166370a08231336040518263ffffffff1660e01b81526004016115779190611e86565b60206040518083038186803b15801561158f57600080fd5b505afa1580156115a3573d6000803e3d6000fd5b505050506040513d601f19601f820116820180604052508101906115c79190611e6e565b10156115ff576040517f08c379a000000000000000000000000000000000000000000000000000000000815260040161066d906122b3565b6008546040517f8bf83b0400000000000000000000000000000000000000000000000000000000815273ffffffffffffffffffffffffffffffffffffffff90911690638bf83b049061165690600c90600401611f09565b60206040518083038186803b15801561166e57600080fd5b505afa158015611682573d6000803e3d6000fd5b505050506040513d601f19601f820116820180604052508101906116a69190611d77565b73ffffffffffffffffffffffffffffffffffffffff166323b872dd3330846040518463ffffffff1660e01b81526004016116e293929190611ea7565b602060405180830381600087803b1580156116fc57600080fd5b505af1158015611710573d6000803e3d6000fd5b505050506040513d601f19601f820116820180604052508101906117349190611e36565b61176a576040517f08c379a000000000000000000000000000000000000000000000000000000000815260040161066d906123b5565b6117748282611c55565b7fc9ec05ea5037818736839e1365dc3d9a74a735c447af0697da66633b7a9d0fab8161179e610ab5565b6040516109b4929190612480565b73ffffffffffffffffffffffffffffffffffffffff918216600090815260016020908152604080832093909416825291909152205490565b60085473ffffffffffffffffffffffffffffffffffffffff1681565b3390565b73ffffffffffffffffffffffffffffffffffffffff8316611851576040517f08c379a000000000000000000000000000000000000000000000000000000000815260040161066d906122ea565b73ffffffffffffffffffffffffffffffffffffffff821661189e576040517f08c379a000000000000000000000000000000000000000000000000000000000815260040161066d9061203d565b73ffffffffffffffffffffffffffffffffffffffff80841660008181526001602090815260408083209487168084529490915290819020849055517f8c5be1e5ebec7d5bd14f71427d1e84f3dd0314c0f7b2291e5b200ac8c7c3b92590611906908590611f09565b60405180910390a3505050565b60006105b482846124ed565b60006105b482846124b4565b73ffffffffffffffffffffffffffffffffffffffff8316611978576040517f08c379a000000000000000000000000000000000000000000000000000000000815260040161066d9061221f565b73ffffffffffffffffffffffffffffffffffffffff82166119c5576040517f08c379a000000000000000000000000000000000000000000000000000000000815260040161066d90611f83565b6119d0838383611d56565b73ffffffffffffffffffffffffffffffffffffffff831660009081526020819052604090205481811015611a30576040517f08c379a000000000000000000000000000000000000000000000000000000000815260040161066d9061209a565b611a3a828261252a565b73ffffffffffffffffffffffffffffffffffffffff8086166000908152602081905260408082209390935590851681529081208054849290611a7d90849061249c565b925050819055508273ffffffffffffffffffffffffffffffffffffffff168473ffffffffffffffffffffffffffffffffffffffff167fddf252ad1be2c89b69c2b068fc378daa952ba7f163c4a11628f55a4df523b3ef84604051611ae19190611f09565b60405180910390a350505050565b73ffffffffffffffffffffffffffffffffffffffff8216611b3c576040517f08c379a000000000000000000000000000000000000000000000000000000000815260040161066d906121c2565b611b4882600083611d56565b73ffffffffffffffffffffffffffffffffffffffff821660009081526020819052604090205481811015611ba8576040517f08c379a000000000000000000000000000000000000000000000000000000000815260040161066d90611fe0565b611bb2828261252a565b73ffffffffffffffffffffffffffffffffffffffff841660009081526020819052604081209190915560028054849290611bed90849061252a565b909155505060405160009073ffffffffffffffffffffffffffffffffffffffff8516907fddf252ad1be2c89b69c2b068fc378daa952ba7f163c4a11628f55a4df523b3ef90611906908690611f09565b60006105b4828461252a565b60006105b4828461249c565b73ffffffffffffffffffffffffffffffffffffffff8216611ca2576040517f08c379a000000000000000000000000000000000000000000000000000000000815260040161066d90612449565b611cae60008383611d56565b8060026000828254611cc0919061249c565b909155505073ffffffffffffffffffffffffffffffffffffffff821660009081526020819052604081208054839290611cfa90849061249c565b909155505060405173ffffffffffffffffffffffffffffffffffffffff8316906000907fddf252ad1be2c89b69c2b068fc378daa952ba7f163c4a11628f55a4df523b3ef90611d4a908590611f09565b60405180910390a35050565b505050565b600060208284031215611d6c578081fd5b81356105b4816125c4565b600060208284031215611d88578081fd5b81516105b4816125c4565b60008060408385031215611da5578081fd5b8235611db0816125c4565b91506020830135611dc0816125c4565b809150509250929050565b600080600060608486031215611ddf578081fd5b8335611dea816125c4565b92506020840135611dfa816125c4565b929592945050506040919091013590565b60008060408385031215611e1d578182fd5b8235611e28816125c4565b946020939093013593505050565b600060208284031215611e47578081fd5b815180151581146105b4578182fd5b600060208284031215611e67578081fd5b5035919050565b600060208284031215611e7f578081fd5b5051919050565b73ffffffffffffffffffffffffffffffffffffffff91909116815260200190565b73ffffffffffffffffffffffffffffffffffffffff9384168152919092166020820152604081019190915260600190565b73ffffffffffffffffffffffffffffffffffffffff929092168252602082015260400190565b901515815260200190565b90815260200190565b6000602080835283518082850152825b81811015611f3e57858101830151858201604001528201611f22565b81811115611f4f5783604083870101525b50601f017fffffffffffffffffffffffffffffffffffffffffffffffffffffffffffffffe016929092016040019392505050565b60208082526023908201527f45524332303a207472616e7366657220746f20746865207a65726f206164647260408201527f6573730000000000000000000000000000000000000000000000000000000000606082015260800190565b60208082526022908201527f45524332303a206275726e20616d6f756e7420657863656564732062616c616e60408201527f6365000000000000000000000000000000000000000000000000000000000000606082015260800190565b60208082526022908201527f45524332303a20617070726f766520746f20746865207a65726f20616464726560408201527f7373000000000000000000000000000000000000000000000000000000000000606082015260800190565b60208082526026908201527f45524332303a207472616e7366657220616d6f756e742065786365656473206260408201527f616c616e63650000000000000000000000000000000000000000000000000000606082015260800190565b60208082526014908201527f6e6f207265776172647320617661696c61626c65000000000000000000000000604082015260600190565b6020808252600e908201527f696e76616c696420616d6f756e74000000000000000000000000000000000000604082015260600190565b60208082526028908201527f45524332303a207472616e7366657220616d6f756e742065786365656473206160408201527f6c6c6f77616e6365000000000000000000000000000000000000000000000000606082015260800190565b60208082526021908201527f45524332303a206275726e2066726f6d20746865207a65726f2061646472657360408201527f7300000000000000000000000000000000000000000000000000000000000000606082015260800190565b60208082526025908201527f45524332303a207472616e736665722066726f6d20746865207a65726f20616460408201527f6472657373000000000000000000000000000000000000000000000000000000606082015260800190565b6020808252601b908201527f6e6f7420536574746c654f726465725472616e736665722e736f6c0000000000604082015260600190565b60208082526018908201527f696e737566666963656e74204e4f43542062616c616e63650000000000000000604082015260600190565b60208082526024908201527f45524332303a20617070726f76652066726f6d20746865207a65726f2061646460408201527f7265737300000000000000000000000000000000000000000000000000000000606082015260800190565b60208082526015908201527f61646472657373206e6f74207065726d69747465640000000000000000000000604082015260600190565b6020808252600f908201527f7472616e73666572206661696c65640000000000000000000000000000000000604082015260600190565b6020808252600e908201527f7374616b696e67206661696c6564000000000000000000000000000000000000604082015260600190565b60208082526025908201527f45524332303a2064656372656173656420616c6c6f77616e63652062656c6f7760408201527f207a65726f000000000000000000000000000000000000000000000000000000606082015260800190565b6020808252601f908201527f45524332303a206d696e7420746f20746865207a65726f206164647265737300604082015260600190565b918252602082015260400190565b60ff91909116815260200190565b600082198211156124af576124af612595565b500190565b6000826124e8577f4e487b710000000000000000000000000000000000000000000000000000000081526012600452602481fd5b500490565b6000817fffffffffffffffffffffffffffffffffffffffffffffffffffffffffffffffff048311821515161561252557612525612595565b500290565b60008282101561253c5761253c612595565b500390565b60028104600182168061255557607f821691505b6020821081141561258f577f4e487b7100000000000000000000000000000000000000000000000000000000600052602260045260246000fd5b50919050565b7f4e487b7100000000000000000000000000000000000000000000000000000000600052601160045260246000fd5b73ffffffffffffffffffffffffffffffffffffffff8116811461127457600080fdfea264697066735822122099f2f0dfdbec73e4b2f1aa2c886db4d5c5605936ea34ef2740e12a4127b42f7364736f6c63430008000033",
  "immutableReferences": {},
  "source": "/*                              $$\\                                             $$\\                                                         \n                                $$ |                                            $$ |                                                  \n$$$$$$$\\   $$$$$$\\   $$$$$$$\\ $$$$$$\\   $$\\   $$\\  $$$$$$\\  $$$$$$$\\   $$$$$$\\  $$ |     \n$$  __$$\\ $$  __$$\\ $$  _____|\\_$$  _|  $$ |  $$ |$$  __$$\\ $$  __$$\\  \\____$$\\ $$ |    \n$$ |  $$ |$$ /  $$ |$$ /        $$ |    $$ |  $$ |$$ |  \\__|$$ |  $$ | $$$$$$$ |$$ |     \n$$ |  $$ |$$ |  $$ |$$ |        $$ |$$\\ $$ |  $$ |$$ |      $$ |  $$ |$$  __$$ |$$ |     \n$$ |  $$ |\\$$$$$$  |\\$$$$$$$\\   \\$$$$  |\\$$$$$$  |$$ |      $$ |  $$ |\\$$$$$$$ |$$ |      \n\\__|  \\__| \\______/  \\_______|   \\____/  \\______/ \\__|      \\__|  \\__| \\_______|\\__|     \n*/\n\npragma solidity ^0.8.0;\n\nimport \"@openzeppelin/contracts/token/ERC20/ERC20.sol\";\nimport \"@openzeppelin/contracts/token/ERC20/IERC20.sol\";\nimport \"@openzeppelin/contracts/utils/math/SafeMath.sol\";\nimport \"@uniswap/v3-periphery/contracts/interfaces/IPeripheryPayments.sol\";\nimport {NocturnalFinanceInterface} from \"./Interfaces/NocturnalFinanceInterface.sol\";\n\ncontract NoctStaking is ERC20 (\"Staked Nocturnal Token\", \"sNOCT\") {\n    using SafeMath for uint256;\n\n    uint256 public trg;\n    mapping(address => uint256) public lrc;\n    address WETH;\n    \n    NocturnalFinanceInterface public nocturnalFinance;\n    IPeripheryPayments public payment;\n\n    constructor (address _nocturnalFinance, address _WETH) {\n      nocturnalFinance = NocturnalFinanceInterface(_nocturnalFinance);\n      trg = 0;\n      WETH = _WETH;\n    }\n\n    event Stake(uint256 amount, uint256 total);\n    event Withdraw(uint256 amount, uint256 total);\n\n    function totalStaked() public view returns (uint256) {\n        return IERC20(nocturnalFinance._contract(12)).balanceOf(address(this));\n    }\n\n    function stake(uint256 amount) public {\n        require(amount > 0, \"invalid amount\");\n        require(IERC20(nocturnalFinance._contract(12)).balanceOf(msg.sender) >= amount, \"insufficent NOCT balance\");\n        require(IERC20(nocturnalFinance._contract(12)).transferFrom(msg.sender, address(this), amount), \"staking failed\");\n        _mint(msg.sender, amount);\n        emit Stake(amount, totalStaked());\n    }\n    \n    function autoStake(address _claimantAddress, uint256 amount) public {\n        require(msg.sender == nocturnalFinance._contract(9) || msg.sender == nocturnalFinance._contract(10), \"address not permitted\");\n        require(amount > 0, \"invalid amount\");\n        require(IERC20(nocturnalFinance._contract(12)).balanceOf(msg.sender) >= amount, \"insufficent NOCT balance\");\n        require(IERC20(nocturnalFinance._contract(12)).transferFrom(msg.sender, address(this), amount), \"staking failed\");\n        _mint(_claimantAddress, amount);\n        emit Stake(amount, totalStaked());\n    }\n\n    function withdraw(uint256 amount) public {\n        require(balanceOf(msg.sender) >= amount, \"invalid amount\");\n        require(IERC20(nocturnalFinance._contract(12)).transfer(msg.sender, amount), \"transfer failed\");\n        _burn(msg.sender, amount);\n\n        uint256 totalBalance = IERC20(nocturnalFinance._contract(12)).balanceOf(address(this));\n        emit Withdraw(amount, totalBalance);\n    }\n\n    function bRSLC(address acc) public view returns (uint256) {\n        return trg.sub(lrc[acc]);\n    }\n    \n    function pendingETHRewards(address account) public view returns (uint256) {\n        uint256 base = bRSLC(account);\n        return base.mul(IERC20(address(this)).balanceOf(account)).div(totalStaked());\n    }    \n\n    function claimETHRewards() public {\n        require(lrc[msg.sender] <= trg, \"no rewards available\");\n        \n        uint256 toSend = pendingETHRewards(msg.sender);\n        lrc[msg.sender] = trg;\n        // use unwrapWETH9() and transfer to staker\n        //payment.unwrapWETH9(toSend, msg.sender);\n        //require(msg.sender.send(toSend), \"transfer failed\");\n        require(IERC20(WETH).transfer(msg.sender, toSend), \"transfer failed\");\n    }\n    \n    function updateTRG(uint256 _rewards) public {\n        require(msg.sender == nocturnalFinance._contract(6), \"not SettleOrderTransfer.sol\");\n        trg = trg.add(_rewards);\n    }\n\n    //this function has to be present or transfers to the contract fail silently\n    fallback () external payable {}\n}\n\n",
  "sourcePath": "/Users/knott/Desktop/nocturnal/contracts/NoctStaking.sol",
  "compiler": {
    "name": "solc",
    "version": "0.8.0+commit.c7dfd78e.Emscripten.clang"
  },
  "schemaVersion": "3.3.3",
  "updatedAt": "2021-06-13T20:49:23.653Z",
  "networkType": "ethereum",
  "devdoc": {
    "kind": "dev",
    "methods": {
      "allowance(address,address)": {
        "details": "See {IERC20-allowance}."
      },
      "approve(address,uint256)": {
        "details": "See {IERC20-approve}. Requirements: - `spender` cannot be the zero address."
      },
      "balanceOf(address)": {
        "details": "See {IERC20-balanceOf}."
      },
      "decimals()": {
        "details": "Returns the number of decimals used to get its user representation. For example, if `decimals` equals `2`, a balance of `505` tokens should be displayed to a user as `5,05` (`505 / 10 ** 2`). Tokens usually opt for a value of 18, imitating the relationship between Ether and Wei. This is the value {ERC20} uses, unless this function is overridden; NOTE: This information is only used for _display_ purposes: it in no way affects any of the arithmetic of the contract, including {IERC20-balanceOf} and {IERC20-transfer}."
      },
      "decreaseAllowance(address,uint256)": {
        "details": "Atomically decreases the allowance granted to `spender` by the caller. This is an alternative to {approve} that can be used as a mitigation for problems described in {IERC20-approve}. Emits an {Approval} event indicating the updated allowance. Requirements: - `spender` cannot be the zero address. - `spender` must have allowance for the caller of at least `subtractedValue`."
      },
      "increaseAllowance(address,uint256)": {
        "details": "Atomically increases the allowance granted to `spender` by the caller. This is an alternative to {approve} that can be used as a mitigation for problems described in {IERC20-approve}. Emits an {Approval} event indicating the updated allowance. Requirements: - `spender` cannot be the zero address."
      },
      "name()": {
        "details": "Returns the name of the token."
      },
      "symbol()": {
        "details": "Returns the symbol of the token, usually a shorter version of the name."
      },
      "totalSupply()": {
        "details": "See {IERC20-totalSupply}."
      },
      "transfer(address,uint256)": {
        "details": "See {IERC20-transfer}. Requirements: - `recipient` cannot be the zero address. - the caller must have a balance of at least `amount`."
      },
      "transferFrom(address,address,uint256)": {
        "details": "See {IERC20-transferFrom}. Emits an {Approval} event indicating the updated allowance. This is not required by the EIP. See the note at the beginning of {ERC20}. Requirements: - `sender` and `recipient` cannot be the zero address. - `sender` must have a balance of at least `amount`. - the caller must have allowance for ``sender``'s tokens of at least `amount`."
      }
    },
    "version": 1
  },
  "userdoc": {
    "kind": "user",
    "methods": {},
    "version": 1
  }
}