{
  "contractName": "Oracle",
  "abi": [
    {
      "inputs": [],
      "stateMutability": "nonpayable",
      "type": "constructor"
    },
    {
      "inputs": [],
      "name": "pool",
      "outputs": [
        {
          "internalType": "contract IUniswapV3Pool",
          "name": "",
          "type": "address"
        }
      ],
      "stateMutability": "view",
      "type": "function"
    },
    {
      "inputs": [
        {
          "internalType": "address",
          "name": "_pool",
          "type": "address"
        }
      ],
      "name": "getCurrentPrice",
      "outputs": [
        {
          "internalType": "int24",
          "name": "cPrice",
          "type": "int24"
        }
      ],
      "stateMutability": "view",
      "type": "function"
    },
    {
      "inputs": [
        {
          "internalType": "address",
          "name": "_pool",
          "type": "address"
        }
      ],
      "name": "getTokens",
      "outputs": [
        {
          "internalType": "address",
          "name": "",
          "type": "address"
        },
        {
          "internalType": "address",
          "name": "",
          "type": "address"
        }
      ],
      "stateMutability": "view",
      "type": "function"
    }
  ],
  "bytecode": "0x608060405234801561001057600080fd5b506105f5806100206000396000f3fe608060405234801561001057600080fd5b50600436106100415760003560e01c806316f0115b14610046578063450efe211461006457806384cc315b14610095575b600080fd5b61004e6100c5565b60405161005b9190610475565b60405180910390f35b61007e6004803603810190610079919061032f565b6100e9565b60405161008c92919061044c565b60405180910390f35b6100af60048036038101906100aa919061032f565b6101fd565b6040516100bc9190610490565b60405180910390f35b60008054906101000a900473ffffffffffffffffffffffffffffffffffffffff1681565b60008060008373ffffffffffffffffffffffffffffffffffffffff16630dfe16816040518163ffffffff1660e01b815260040160206040518083038186803b15801561013457600080fd5b505afa158015610148573d6000803e3d6000fd5b505050506040513d601f19601f8201168201806040525081019061016c9190610358565b905060008473ffffffffffffffffffffffffffffffffffffffff1663d21220a76040518163ffffffff1660e01b815260040160206040518083038186803b1580156101b657600080fd5b505afa1580156101ca573d6000803e3d6000fd5b505050506040513d601f19601f820116820180604052508101906101ee9190610358565b90508181935093505050915091565b60008173ffffffffffffffffffffffffffffffffffffffff16633850c7bd6040518163ffffffff1660e01b815260040160e06040518083038186803b15801561024557600080fd5b505afa158015610259573d6000803e3d6000fd5b505050506040513d601f19601f8201168201806040525081019061027d9190610381565b9091929394955090919293509091925090915090505080915050919050565b6000813590506102ab81610535565b92915050565b6000815190506102c081610535565b92915050565b6000815190506102d58161054c565b92915050565b6000815190506102ea81610563565b92915050565b6000815190506102ff81610591565b92915050565b6000815190506103148161057a565b92915050565b600081519050610329816105a8565b92915050565b60006020828403121561034157600080fd5b600061034f8482850161029c565b91505092915050565b60006020828403121561036a57600080fd5b6000610378848285016102b1565b91505092915050565b600080600080600080600060e0888a03121561039c57600080fd5b60006103aa8a828b016102f0565b97505060206103bb8a828b016102db565b96505060406103cc8a828b01610305565b95505060606103dd8a828b01610305565b94505060806103ee8a828b01610305565b93505060a06103ff8a828b0161031a565b92505060c06104108a828b016102c6565b91505092959891949750929550565b610428816104ab565b82525050565b61043781610511565b82525050565b610446816104c9565b82525050565b6000604082019050610461600083018561041f565b61046e602083018461041f565b9392505050565b600060208201905061048a600083018461042e565b92915050565b60006020820190506104a5600083018461043d565b92915050565b60006104b6826104e4565b9050919050565b60008115159050919050565b60008160020b9050919050565b600061ffff82169050919050565b600073ffffffffffffffffffffffffffffffffffffffff82169050919050565b600060ff82169050919050565b600061051c82610523565b9050919050565b600061052e826104e4565b9050919050565b61053e816104ab565b811461054957600080fd5b50565b610555816104bd565b811461056057600080fd5b50565b61056c816104c9565b811461057757600080fd5b50565b610583816104d6565b811461058e57600080fd5b50565b61059a816104e4565b81146105a557600080fd5b50565b6105b181610504565b81146105bc57600080fd5b5056fea2646970667358221220e7cf917622a7bc9f5d455c25f4c34f0c1326505d3b233668b879c66900bf5a9a64736f6c63430008000033",
  "immutableReferences": {},
  "source": "/*                              $$\\                                             $$\\                                                         \n                                $$ |                                            $$ |                                                  \n$$$$$$$\\   $$$$$$\\   $$$$$$$\\ $$$$$$\\   $$\\   $$\\  $$$$$$\\  $$$$$$$\\   $$$$$$\\  $$ |     \n$$  __$$\\ $$  __$$\\ $$  _____|\\_$$  _|  $$ |  $$ |$$  __$$\\ $$  __$$\\  \\____$$\\ $$ |    \n$$ |  $$ |$$ /  $$ |$$ /        $$ |    $$ |  $$ |$$ |  \\__|$$ |  $$ | $$$$$$$ |$$ |     \n$$ |  $$ |$$ |  $$ |$$ |        $$ |$$\\ $$ |  $$ |$$ |      $$ |  $$ |$$  __$$ |$$ |     \n$$ |  $$ |\\$$$$$$  |\\$$$$$$$\\   \\$$$$  |\\$$$$$$  |$$ |      $$ |  $$ |\\$$$$$$$ |$$ |      \n\\__|  \\__| \\______/  \\_______|   \\____/  \\______/ \\__|      \\__|  \\__| \\_______|\\__|     \n*/\n\npragma solidity ^0.8.0;\n\nimport \"@uniswap/v3-core/contracts/interfaces/IUniswapV3Pool.sol\";\nimport {NocturnalFinanceInterface} from \"./Interfaces/NocturnalFinanceInterface.sol\";\n\ncontract Oracle {\n\n    IUniswapV3Pool public pool;\n    \n    constructor() public {\n    }\n      \n    function getCurrentPrice(address _pool) external view returns (int24 cPrice) {\n        (, cPrice, , , , , ) = IUniswapV3Pool(_pool).slot0();\n    }\n    \n    // to be used by front end to reduce a pool address to its token addresses\n    // front end should also determine which token (0 or 1) is fromToken\n    function getTokens(address _pool) external view returns (address, address) {\n        address token0 = IUniswapV3Pool(_pool).token0();\n        address token1 = IUniswapV3Pool(_pool).token1();\n        return(token0, token1);\n    }\n    \n    \n}\n",
  "sourcePath": "/Users/knott/Desktop/nocturnal/contracts/Oracle.sol",
  "compiler": {
    "name": "solc",
    "version": "0.8.0+commit.c7dfd78e.Emscripten.clang"
  },
  "schemaVersion": "3.3.3",
  "updatedAt": "2021-05-16T02:21:48.673Z",
  "devdoc": {
    "kind": "dev",
    "methods": {},
    "version": 1
  },
  "userdoc": {
    "kind": "user",
    "methods": {},
    "version": 1
  }
}