{
  "contractName": "Oracle",
  "abi": [
    {
      "inputs": [],
      "stateMutability": "nonpayable",
      "type": "constructor"
    },
    {
      "inputs": [],
      "name": "pool",
      "outputs": [
        {
          "internalType": "contract IUniswapV3Pool",
          "name": "",
          "type": "address"
        }
      ],
      "stateMutability": "view",
      "type": "function",
      "constant": true
    },
    {
      "inputs": [
        {
          "internalType": "address",
          "name": "_pool",
          "type": "address"
        }
      ],
      "name": "getCurrentPrice",
      "outputs": [
        {
          "internalType": "uint256",
          "name": "",
          "type": "uint256"
        }
      ],
      "stateMutability": "view",
      "type": "function",
      "constant": true
    },
    {
      "inputs": [
        {
          "internalType": "address",
          "name": "_pool",
          "type": "address"
        }
      ],
      "name": "getCurrentPriceReciprocal",
      "outputs": [
        {
          "internalType": "uint256",
          "name": "",
          "type": "uint256"
        }
      ],
      "stateMutability": "view",
      "type": "function",
      "constant": true
    },
    {
      "inputs": [
        {
          "internalType": "address",
          "name": "_pool",
          "type": "address"
        }
      ],
      "name": "getTokens",
      "outputs": [
        {
          "internalType": "address",
          "name": "",
          "type": "address"
        },
        {
          "internalType": "address",
          "name": "",
          "type": "address"
        },
        {
          "internalType": "uint24",
          "name": "",
          "type": "uint24"
        }
      ],
      "stateMutability": "view",
      "type": "function",
      "constant": true
    },
    {
      "inputs": [
        {
          "internalType": "address",
          "name": "_pool",
          "type": "address"
        },
        {
          "internalType": "address",
          "name": "_token",
          "type": "address"
        }
      ],
      "name": "isToken0",
      "outputs": [
        {
          "internalType": "bool",
          "name": "",
          "type": "bool"
        }
      ],
      "stateMutability": "view",
      "type": "function",
      "constant": true
    },
    {
      "inputs": [
        {
          "internalType": "address",
          "name": "_pool",
          "type": "address"
        }
      ],
      "name": "isV3",
      "outputs": [
        {
          "internalType": "bool",
          "name": "",
          "type": "bool"
        }
      ],
      "stateMutability": "view",
      "type": "function",
      "constant": true
    }
  ],
  "bytecode": "0x608060405234801561001057600080fd5b50610892806100206000396000f3fe608060405234801561001057600080fd5b50600436106100725760003560e01c8063450efe2111610050578063450efe21146100c857806384cc315b146100ea578063b10866dc1461010a57610072565b806313c925eb1461007757806316f0115b146100a057806322fbd83a146100b5575b600080fd5b61008a6100853660046105ff565b61011d565b6040516100979190610767565b60405180910390f35b6100a86101e7565b6040516100979190610772565b61008a6100c3366004610637565b610203565b6100db6100d63660046105ff565b6102c8565b60405161009793929190610732565b6100fd6100f83660046105ff565b61045e565b6040516100979190610793565b6100fd6101183660046105ff565b610505565b6000808273ffffffffffffffffffffffffffffffffffffffff1663c45a01556040518163ffffffff1660e01b815260040160206040518083038186803b15801561016657600080fd5b505afa15801561017a573d6000803e3d6000fd5b505050506040513d601f19601f8201168201806040525081019061019e919061061b565b905073ffffffffffffffffffffffffffffffffffffffff8116737046f9311663db8b7cf218bc7b6f3f17b0ea104714156101dc5760019150506101e2565b60009150505b919050565b60005473ffffffffffffffffffffffffffffffffffffffff1681565b60008273ffffffffffffffffffffffffffffffffffffffff16630dfe16816040518163ffffffff1660e01b815260040160206040518083038186803b15801561024b57600080fd5b505afa15801561025f573d6000803e3d6000fd5b505050506040513d601f19601f82011682018060405250810190610283919061061b565b73ffffffffffffffffffffffffffffffffffffffff168273ffffffffffffffffffffffffffffffffffffffff1614156102be575060016102c2565b5060005b92915050565b6000806000808473ffffffffffffffffffffffffffffffffffffffff16630dfe16816040518163ffffffff1660e01b815260040160206040518083038186803b15801561031457600080fd5b505afa158015610328573d6000803e3d6000fd5b505050506040513d601f19601f8201168201806040525081019061034c919061061b565b905060008573ffffffffffffffffffffffffffffffffffffffff1663d21220a76040518163ffffffff1660e01b815260040160206040518083038186803b15801561039657600080fd5b505afa1580156103aa573d6000803e3d6000fd5b505050506040513d601f19601f820116820180604052508101906103ce919061061b565b905060008673ffffffffffffffffffffffffffffffffffffffff1663ddca3f436040518163ffffffff1660e01b815260040160206040518083038186803b15801561041857600080fd5b505afa15801561042c573d6000803e3d6000fd5b505050506040513d601f19601f82011682018060405250810190610450919061070f565b929791965091945092505050565b6000808273ffffffffffffffffffffffffffffffffffffffff16633850c7bd6040518163ffffffff1660e01b815260040160e06040518083038186803b1580156104a757600080fd5b505afa1580156104bb573d6000803e3d6000fd5b505050506040513d601f19601f820116820180604052508101906104df919061066f565b505073ffffffffffffffffffffffffffffffffffffffff90941695505050505050919050565b6000808273ffffffffffffffffffffffffffffffffffffffff16633850c7bd6040518163ffffffff1660e01b815260040160e06040518083038186803b15801561054e57600080fd5b505afa158015610562573d6000803e3d6000fd5b505050506040513d601f19601f82011682018060405250810190610586919061066f565b509495505073ffffffffffffffffffffffffffffffffffffffff851693506105c692508391506105c09050670de0b6b3a7640000806105ce565b906105e1565b949350505050565b60006105da82846107d5565b9392505050565b60006105da828461079c565b805161ffff811681146101e257600080fd5b600060208284031215610610578081fd5b81356105da81610837565b60006020828403121561062c578081fd5b81516105da81610837565b60008060408385031215610649578081fd5b823561065481610837565b9150602083013561066481610837565b809150509250929050565b600080600080600080600060e0888a031215610689578283fd5b875161069481610837565b8097505060208801518060020b81146106ab578384fd5b95506106b9604089016105ed565b94506106c7606089016105ed565b93506106d5608089016105ed565b925060a088015160ff811681146106ea578283fd5b60c089015190925080151581146106ff578182fd5b8091505092959891949750929550565b600060208284031215610720578081fd5b815162ffffff811681146105da578182fd5b73ffffffffffffffffffffffffffffffffffffffff938416815291909216602082015262ffffff909116604082015260600190565b901515815260200190565b73ffffffffffffffffffffffffffffffffffffffff91909116815260200190565b90815260200190565b6000826107d0577f4e487b710000000000000000000000000000000000000000000000000000000081526012600452602481fd5b500490565b6000817fffffffffffffffffffffffffffffffffffffffffffffffffffffffffffffffff0483118215151615610832577f4e487b710000000000000000000000000000000000000000000000000000000081526011600452602481fd5b500290565b73ffffffffffffffffffffffffffffffffffffffff8116811461085957600080fd5b5056fea26469706673582212208483cb38ca2414c95a77315e6c37642ebd6b7dc611ca2a28fc7865864fc1f5e564736f6c63430008000033",
  "immutableReferences": {},
  "source": "/*                              $$\\                                             $$\\                                                         \n                                $$ |                                            $$ |                                                  \n$$$$$$$\\   $$$$$$\\   $$$$$$$\\ $$$$$$\\   $$\\   $$\\  $$$$$$\\  $$$$$$$\\   $$$$$$\\  $$ |     \n$$  __$$\\ $$  __$$\\ $$  _____|\\_$$  _|  $$ |  $$ |$$  __$$\\ $$  __$$\\  \\____$$\\ $$ |    \n$$ |  $$ |$$ /  $$ |$$ /        $$ |    $$ |  $$ |$$ |  \\__|$$ |  $$ | $$$$$$$ |$$ |     \n$$ |  $$ |$$ |  $$ |$$ |        $$ |$$\\ $$ |  $$ |$$ |      $$ |  $$ |$$  __$$ |$$ |     \n$$ |  $$ |\\$$$$$$  |\\$$$$$$$\\   \\$$$$  |\\$$$$$$  |$$ |      $$ |  $$ |\\$$$$$$$ |$$ |      \n\\__|  \\__| \\______/  \\_______|   \\____/  \\______/ \\__|      \\__|  \\__| \\_______|\\__|     \n*/\n\npragma solidity ^0.8.0;\n\nimport \"@uniswap/v3-core/contracts/interfaces/IUniswapV3Pool.sol\";\nimport \"@openzeppelin/contracts/utils/math/SafeMath.sol\";\nimport {NocturnalFinanceInterface} from \"./Interfaces/NocturnalFinanceInterface.sol\";\n\ncontract Oracle {\n    using SafeMath for uint256;\n\n    uint256 internal constant multiplicand = 1e18;\n    address internal constant UniswapV3Factory = 0x7046f9311663DB8B7cf218BC7B6F3f17B0Ea1047;                               \n  \n    IUniswapV3Pool public pool;\n    \n    constructor() {\n    }\n    \n    function getCurrentPrice(address _pool) external view returns (uint256) {\n        (uint160 sqrtPriceX96,,,,,,) = IUniswapV3Pool(_pool).slot0();\n        //return uint256(sqrtPriceX96).mul(uint256(sqrtPriceX96)).mul(1e18) >> (96*2);\n        return uint256(sqrtPriceX96);\n    }\n    \n    function getCurrentPriceReciprocal(address _pool) external view returns (uint256) {\n        (uint160 sqrtPriceX96,,,,,,) = IUniswapV3Pool(_pool).slot0();\n        //uint256 _price = uint256(sqrtPriceX96).mul(uint256(sqrtPriceX96)).mul(1e18) >> (96*2);\n        uint256 _price = uint256(sqrtPriceX96);\n        return (multiplicand.mul(multiplicand).div(_price));\n    }\n    \n    function getTokens(address _pool) external view returns (address, address, uint24) {\n        address token0 = IUniswapV3Pool(_pool).token0();\n        address token1 = IUniswapV3Pool(_pool).token1();\n        uint24 fee = IUniswapV3Pool(_pool).fee();\n        return(token0, token1, fee);\n    }\n    \n    function isToken0(address _pool, address _token) external view returns (bool) {\n        if (_token == IUniswapV3Pool(_pool).token0()) {\n            return true;\n        } else {\n            return false;\n        }\n    }\n    \n    function isV3(address _pool) external view returns (bool) {\n        address factory = IUniswapV3Pool(_pool).factory(); \n        if (factory == UniswapV3Factory) {\n            return (true);\n        } else {\n            return (false);\n        }\n    }\n}\n",
  "sourcePath": "/Users/knott/Desktop/nocturnal/contracts/Oracle.sol",
  "compiler": {
    "name": "solc",
    "version": "0.8.0+commit.c7dfd78e.Emscripten.clang"
  },
  "schemaVersion": "3.3.3",
  "updatedAt": "2021-06-13T20:49:23.668Z",
  "networkType": "ethereum",
  "devdoc": {
    "kind": "dev",
    "methods": {},
    "version": 1
  },
  "userdoc": {
    "kind": "user",
    "methods": {},
    "version": 1
  }
}