{
  "contractName": "Oracle",
  "abi": [
    {
      "inputs": [],
      "stateMutability": "nonpayable",
      "type": "constructor"
    },
    {
      "inputs": [],
      "name": "pool",
      "outputs": [
        {
          "internalType": "contract IUniswapV3Pool",
          "name": "",
          "type": "address"
        }
      ],
      "stateMutability": "view",
      "type": "function"
    },
    {
      "inputs": [
        {
          "internalType": "address",
          "name": "_pool",
          "type": "address"
        }
      ],
      "name": "getCurrentPrice",
      "outputs": [
        {
          "internalType": "uint256",
          "name": "",
          "type": "uint256"
        }
      ],
      "stateMutability": "view",
      "type": "function"
    },
    {
      "inputs": [
        {
          "internalType": "address",
          "name": "_pool",
          "type": "address"
        }
      ],
      "name": "getCurrentSqrtPrice",
      "outputs": [
        {
          "internalType": "uint160",
          "name": "",
          "type": "uint160"
        }
      ],
      "stateMutability": "view",
      "type": "function"
    },
    {
      "inputs": [
        {
          "internalType": "uint256",
          "name": "_price",
          "type": "uint256"
        }
      ],
      "name": "getPriceReciprocal",
      "outputs": [
        {
          "internalType": "uint256",
          "name": "",
          "type": "uint256"
        }
      ],
      "stateMutability": "pure",
      "type": "function"
    },
    {
      "inputs": [
        {
          "internalType": "address",
          "name": "_pool",
          "type": "address"
        }
      ],
      "name": "getTokens",
      "outputs": [
        {
          "internalType": "address",
          "name": "",
          "type": "address"
        },
        {
          "internalType": "address",
          "name": "",
          "type": "address"
        }
      ],
      "stateMutability": "view",
      "type": "function"
    }
  ],
  "bytecode": "0x608060405234801561001057600080fd5b50610622806100206000396000f3fe608060405234801561001057600080fd5b50600436106100675760003560e01c8063450efe2111610050578063450efe21146100aa578063814d578b146100cb57806384cc315b146100de57610067565b806316f0115b1461006c57806332ce25c11461008a575b600080fd5b6100746100f1565b6040516100819190610502565b60405180910390f35b61009d6100983660046104c3565b61010d565b6040516100819190610523565b6100bd6100b83660046103eb565b610135565b6040516100819291906104db565b6100746100d93660046103eb565b610246565b61009d6100ec3660046103eb565b6102d5565b60005473ffffffffffffffffffffffffffffffffffffffff1681565b60008061012c83610126670de0b6b3a7640000806103ba565b906103cd565b9150505b919050565b60008060008373ffffffffffffffffffffffffffffffffffffffff16630dfe16816040518163ffffffff1660e01b815260040160206040518083038186803b15801561018057600080fd5b505afa158015610194573d6000803e3d6000fd5b505050506040513d601f19601f820116820180604052508101906101b89190610407565b905060008473ffffffffffffffffffffffffffffffffffffffff1663d21220a76040518163ffffffff1660e01b815260040160206040518083038186803b15801561020257600080fd5b505afa158015610216573d6000803e3d6000fd5b505050506040513d601f19601f8201168201806040525081019061023a9190610407565b91935090915050915091565b6000808273ffffffffffffffffffffffffffffffffffffffff16633850c7bd6040518163ffffffff1660e01b815260040160e06040518083038186803b15801561028f57600080fd5b505afa1580156102a3573d6000803e3d6000fd5b505050506040513d601f19601f820116820180604052508101906102c79190610423565b509498975050505050505050565b6000808273ffffffffffffffffffffffffffffffffffffffff16633850c7bd6040518163ffffffff1660e01b815260040160e06040518083038186803b15801561031e57600080fd5b505afa158015610332573d6000803e3d6000fd5b505050506040513d601f19601f820116820180604052508101906103569190610423565b505050505050905060c06103b1670de0b6b3a76400006103ab8473ffffffffffffffffffffffffffffffffffffffff168573ffffffffffffffffffffffffffffffffffffffff166103ba90919063ffffffff16565b906103ba565b901c9392505050565b60006103c68284610565565b9392505050565b60006103c6828461052c565b805161ffff8116811461013057600080fd5b6000602082840312156103fc578081fd5b81356103c6816105c7565b600060208284031215610418578081fd5b81516103c6816105c7565b600080600080600080600060e0888a03121561043d578283fd5b8751610448816105c7565b8097505060208801518060020b811461045f578384fd5b955061046d604089016103d9565b945061047b606089016103d9565b9350610489608089016103d9565b925060a088015160ff8116811461049e578283fd5b60c089015190925080151581146104b3578182fd5b8091505092959891949750929550565b6000602082840312156104d4578081fd5b5035919050565b73ffffffffffffffffffffffffffffffffffffffff92831681529116602082015260400190565b73ffffffffffffffffffffffffffffffffffffffff91909116815260200190565b90815260200190565b600082610560577f4e487b710000000000000000000000000000000000000000000000000000000081526012600452602481fd5b500490565b6000817fffffffffffffffffffffffffffffffffffffffffffffffffffffffffffffffff04831182151516156105c2577f4e487b710000000000000000000000000000000000000000000000000000000081526011600452602481fd5b500290565b73ffffffffffffffffffffffffffffffffffffffff811681146105e957600080fd5b5056fea2646970667358221220af029062a44f9659de7cd950805f88077287364f1849817e1ddc5dacc570316264736f6c63430008000033",
  "immutableReferences": {},
  "source": "/*                              $$\\                                             $$\\                                                         \n                                $$ |                                            $$ |                                                  \n$$$$$$$\\   $$$$$$\\   $$$$$$$\\ $$$$$$\\   $$\\   $$\\  $$$$$$\\  $$$$$$$\\   $$$$$$\\  $$ |     \n$$  __$$\\ $$  __$$\\ $$  _____|\\_$$  _|  $$ |  $$ |$$  __$$\\ $$  __$$\\  \\____$$\\ $$ |    \n$$ |  $$ |$$ /  $$ |$$ /        $$ |    $$ |  $$ |$$ |  \\__|$$ |  $$ | $$$$$$$ |$$ |     \n$$ |  $$ |$$ |  $$ |$$ |        $$ |$$\\ $$ |  $$ |$$ |      $$ |  $$ |$$  __$$ |$$ |     \n$$ |  $$ |\\$$$$$$  |\\$$$$$$$\\   \\$$$$  |\\$$$$$$  |$$ |      $$ |  $$ |\\$$$$$$$ |$$ |      \n\\__|  \\__| \\______/  \\_______|   \\____/  \\______/ \\__|      \\__|  \\__| \\_______|\\__|     \n*/\n\npragma solidity ^0.8.0;\n\nimport \"@uniswap/v3-core/contracts/interfaces/IUniswapV3Pool.sol\";\nimport \"@openzeppelin/contracts/utils/math/SafeMath.sol\";\nimport {NocturnalFinanceInterface} from \"./Interfaces/NocturnalFinanceInterface.sol\";\n\ncontract Oracle {\n    using SafeMath for uint256;\n\n    uint256 internal constant multiplicand = 1e18;\n\n    IUniswapV3Pool public pool;\n    \n    constructor() {\n    }\n    \n    function getCurrentPrice(address _pool) external view returns (uint256) {\n        (uint160 sqrtPriceX96,,,,,,) = IUniswapV3Pool(_pool).slot0();\n        return uint256(sqrtPriceX96).mul(uint256(sqrtPriceX96)).mul(1e18) >> (96*2);\n    }\n    \n    function getCurrentSqrtPrice(address _pool) external view returns (uint160) {\n        (uint160 sqrtPriceX96,,,,,,) = IUniswapV3Pool(_pool).slot0();\n        return sqrtPriceX96;\n    }\n    \n    function getPriceReciprocal(uint256 _price) external pure returns (uint256) {\n        uint256 reciprocalPrice = multiplicand.mul(multiplicand).div(_price);\n        return (reciprocalPrice);\n    }\n    \n    // to be used by front end to reduce a pool address to its token addresses\n    // front end should also determine which token (0 or 1) is fromToken\n    function getTokens(address _pool) external view returns (address, address) {\n        address token0 = IUniswapV3Pool(_pool).token0();\n        address token1 = IUniswapV3Pool(_pool).token1();\n        return(token0, token1);\n    }\n    \n    \n}\n",
  "sourcePath": "/Users/knott/Desktop/nocturnal/contracts/Oracle.sol",
  "compiler": {
    "name": "solc",
    "version": "0.8.0+commit.c7dfd78e.Emscripten.clang"
  },
  "schemaVersion": "3.3.3",
  "updatedAt": "2021-05-20T06:19:55.862Z",
  "devdoc": {
    "kind": "dev",
    "methods": {},
    "version": 1
  },
  "userdoc": {
    "kind": "user",
    "methods": {},
    "version": 1
  }
}