{
  "contractName": "OrderCloser",
  "abi": [
    {
      "inputs": [
        {
          "internalType": "address",
          "name": "_nocturnalFinance",
          "type": "address"
        }
      ],
      "stateMutability": "nonpayable",
      "type": "constructor"
    },
    {
      "anonymous": false,
      "inputs": [
        {
          "indexed": false,
          "internalType": "uint256",
          "name": "_orderID",
          "type": "uint256"
        },
        {
          "indexed": false,
          "internalType": "address",
          "name": "_orderAddress",
          "type": "address"
        }
      ],
      "name": "orderClosed",
      "type": "event"
    },
    {
      "inputs": [],
      "name": "nocturnalFinance",
      "outputs": [
        {
          "internalType": "contract NocturnalFinanceInterface",
          "name": "",
          "type": "address"
        }
      ],
      "stateMutability": "view",
      "type": "function"
    },
    {
      "inputs": [
        {
          "internalType": "address",
          "name": "_address",
          "type": "address"
        }
      ],
      "name": "closeLimitOrder",
      "outputs": [],
      "stateMutability": "nonpayable",
      "type": "function"
    }
  ],
  "bytecode": "0x608060405234801561001057600080fd5b506040516112c03803806112c083398101604081905261002f91610054565b600080546001600160a01b0319166001600160a01b0392909216919091179055610082565b600060208284031215610065578081fd5b81516001600160a01b038116811461007b578182fd5b9392505050565b61122f806100916000396000f3fe608060405234801561001057600080fd5b50600436106100365760003560e01c8063801030491461003b578063ee64deab14610050575b600080fd5b61004e610049366004611018565b61006e565b005b610058610ffc565b604051610065919061108f565b60405180910390f35b60008054906101000a900473ffffffffffffffffffffffffffffffffffffffff1673ffffffffffffffffffffffffffffffffffffffff1663e272981b6040518163ffffffff1660e01b815260040160206040518083038186803b1580156100d457600080fd5b505afa1580156100e8573d6000803e3d6000fd5b505050506040513d601f19601f8201168201806040525081019061010c919061103b565b73ffffffffffffffffffffffffffffffffffffffff163373ffffffffffffffffffffffffffffffffffffffff1614610179576040517f08c379a00000000000000000000000000000000000000000000000000000000081526004016101709061113e565b60405180910390fd5b60008054906101000a900473ffffffffffffffffffffffffffffffffffffffff1673ffffffffffffffffffffffffffffffffffffffff1663e272981b6040518163ffffffff1660e01b815260040160206040518083038186803b1580156101df57600080fd5b505afa1580156101f3573d6000803e3d6000fd5b505050506040513d601f19601f82011682018060405250810190610217919061103b565b73ffffffffffffffffffffffffffffffffffffffff16634fc8f45e826040518263ffffffff1660e01b815260040161024f919061108f565b60206040518083038186803b15801561026757600080fd5b505afa15801561027b573d6000803e3d6000fd5b505050506040513d601f19601f8201168201806040525081019061029f9190611057565b15156001141561095b5760008054906101000a900473ffffffffffffffffffffffffffffffffffffffff1673ffffffffffffffffffffffffffffffffffffffff16634f5843426040518163ffffffff1660e01b815260040160206040518083038186803b15801561030f57600080fd5b505afa158015610323573d6000803e3d6000fd5b505050506040513d601f19601f82011682018060405250810190610347919061103b565b73ffffffffffffffffffffffffffffffffffffffff16633740876b60008054906101000a900473ffffffffffffffffffffffffffffffffffffffff1673ffffffffffffffffffffffffffffffffffffffff1663e272981b6040518163ffffffff1660e01b815260040160206040518083038186803b1580156103c857600080fd5b505afa1580156103dc573d6000803e3d6000fd5b505050506040513d601f19601f82011682018060405250810190610400919061103b565b73ffffffffffffffffffffffffffffffffffffffff1663bd5de4be846040518263ffffffff1660e01b8152600401610438919061108f565b60206040518083038186803b15801561045057600080fd5b505afa158015610464573d6000803e3d6000fd5b505050506040513d601f19601f820116820180604052508101906104889190611077565b60008054906101000a900473ffffffffffffffffffffffffffffffffffffffff1673ffffffffffffffffffffffffffffffffffffffff1663e272981b6040518163ffffffff1660e01b815260040160206040518083038186803b1580156104ee57600080fd5b505afa158015610502573d6000803e3d6000fd5b505050506040513d601f19601f82011682018060405250810190610526919061103b565b73ffffffffffffffffffffffffffffffffffffffff166326a37095856040518263ffffffff1660e01b815260040161055e919061108f565b60206040518083038186803b15801561057657600080fd5b505afa15801561058a573d6000803e3d6000fd5b505050506040513d601f19601f820116820180604052508101906105ae919061103b565b600054604080517fe272981b0000000000000000000000000000000000000000000000000000000081529051339273ffffffffffffffffffffffffffffffffffffffff169163e272981b916004808301926020929190829003018186803b15801561061857600080fd5b505afa15801561062c573d6000803e3d6000fd5b505050506040513d601f19601f82011682018060405250810190610650919061103b565b73ffffffffffffffffffffffffffffffffffffffff1663ef2836c8876040518263ffffffff1660e01b8152600401610688919061108f565b60206040518083038186803b1580156106a057600080fd5b505afa1580156106b4573d6000803e3d6000fd5b505050506040513d601f19601f820116820180604052508101906106d89190611077565b6040518563ffffffff1660e01b81526004016106f794939291906111a2565b600060405180830381600087803b15801561071157600080fd5b505af1158015610725573d6000803e3d6000fd5b5050505060008054906101000a900473ffffffffffffffffffffffffffffffffffffffff1673ffffffffffffffffffffffffffffffffffffffff16634f5843426040518163ffffffff1660e01b815260040160206040518083038186803b15801561078f57600080fd5b505afa1580156107a3573d6000803e3d6000fd5b505050506040513d601f19601f820116820180604052508101906107c7919061103b565b73ffffffffffffffffffffffffffffffffffffffff166342966c6860008054906101000a900473ffffffffffffffffffffffffffffffffffffffff1673ffffffffffffffffffffffffffffffffffffffff1663e272981b6040518163ffffffff1660e01b815260040160206040518083038186803b15801561084857600080fd5b505afa15801561085c573d6000803e3d6000fd5b505050506040513d601f19601f82011682018060405250810190610880919061103b565b73ffffffffffffffffffffffffffffffffffffffff1663bd5de4be846040518263ffffffff1660e01b81526004016108b8919061108f565b60206040518083038186803b1580156108d057600080fd5b505afa1580156108e4573d6000803e3d6000fd5b505050506040513d601f19601f820116820180604052508101906109089190611077565b6040518263ffffffff1660e01b81526004016109249190611175565b600060405180830381600087803b15801561093e57600080fd5b505af1158015610952573d6000803e3d6000fd5b50505050610e98565b60008054906101000a900473ffffffffffffffffffffffffffffffffffffffff1673ffffffffffffffffffffffffffffffffffffffff1663e272981b6040518163ffffffff1660e01b815260040160206040518083038186803b1580156109c157600080fd5b505afa1580156109d5573d6000803e3d6000fd5b505050506040513d601f19601f820116820180604052508101906109f9919061103b565b73ffffffffffffffffffffffffffffffffffffffff16633c1fa065826040518263ffffffff1660e01b8152600401610a31919061108f565b60206040518083038186803b158015610a4957600080fd5b505afa158015610a5d573d6000803e3d6000fd5b505050506040513d601f19601f82011682018060405250810190610a81919061103b565b73ffffffffffffffffffffffffffffffffffffffff166323b872dd823360008054906101000a900473ffffffffffffffffffffffffffffffffffffffff1673ffffffffffffffffffffffffffffffffffffffff1663e272981b6040518163ffffffff1660e01b815260040160206040518083038186803b158015610b0457600080fd5b505afa158015610b18573d6000803e3d6000fd5b505050506040513d601f19601f82011682018060405250810190610b3c919061103b565b73ffffffffffffffffffffffffffffffffffffffff1663d4f70f9e866040518263ffffffff1660e01b8152600401610b74919061108f565b60206040518083038186803b158015610b8c57600080fd5b505afa158015610ba0573d6000803e3d6000fd5b505050506040513d601f19601f82011682018060405250810190610bc49190611077565b6040518463ffffffff1660e01b8152600401610be2939291906110b0565b602060405180830381600087803b158015610bfc57600080fd5b505af1158015610c10573d6000803e3d6000fd5b505050506040513d601f19601f82011682018060405250810190610c349190611057565b610c6a576040517f08c379a0000000000000000000000000000000000000000000000000000000008152600401610170906110e1565b60008054906101000a900473ffffffffffffffffffffffffffffffffffffffff1673ffffffffffffffffffffffffffffffffffffffff16634f5843426040518163ffffffff1660e01b815260040160206040518083038186803b158015610cd057600080fd5b505afa158015610ce4573d6000803e3d6000fd5b505050506040513d601f19601f82011682018060405250810190610d08919061103b565b73ffffffffffffffffffffffffffffffffffffffff166342966c6860008054906101000a900473ffffffffffffffffffffffffffffffffffffffff1673ffffffffffffffffffffffffffffffffffffffff1663e272981b6040518163ffffffff1660e01b815260040160206040518083038186803b158015610d8957600080fd5b505afa158015610d9d573d6000803e3d6000fd5b505050506040513d601f19601f82011682018060405250810190610dc1919061103b565b73ffffffffffffffffffffffffffffffffffffffff1663bd5de4be846040518263ffffffff1660e01b8152600401610df9919061108f565b60206040518083038186803b158015610e1157600080fd5b505afa158015610e25573d6000803e3d6000fd5b505050506040513d601f19601f82011682018060405250810190610e499190611077565b6040518263ffffffff1660e01b8152600401610e659190611175565b600060405180830381600087803b158015610e7f57600080fd5b505af1158015610e93573d6000803e3d6000fd5b505050505b600054604080517fe272981b00000000000000000000000000000000000000000000000000000000815290517fdfe7087dd52f7eaed4118d5f015121308d3feaa8371baa606587abafbd9c9f649273ffffffffffffffffffffffffffffffffffffffff169163e272981b916004808301926020929190829003018186803b158015610f2257600080fd5b505afa158015610f36573d6000803e3d6000fd5b505050506040513d601f19601f82011682018060405250810190610f5a919061103b565b73ffffffffffffffffffffffffffffffffffffffff1663bd5de4be836040518263ffffffff1660e01b8152600401610f92919061108f565b60206040518083038186803b158015610faa57600080fd5b505afa158015610fbe573d6000803e3d6000fd5b505050506040513d601f19601f82011682018060405250810190610fe29190611077565b82604051610ff192919061117e565b60405180910390a150565b60005473ffffffffffffffffffffffffffffffffffffffff1681565b600060208284031215611029578081fd5b8135611034816111d4565b9392505050565b60006020828403121561104c578081fd5b8151611034816111d4565b600060208284031215611068578081fd5b81518015158114611034578182fd5b600060208284031215611088578081fd5b5051919050565b73ffffffffffffffffffffffffffffffffffffffff91909116815260200190565b73ffffffffffffffffffffffffffffffffffffffff9384168152919092166020820152604081019190915260600190565b60208082526028908201527f6f7264657220746f2063726561746f722062616c616e6365207472616e73666560408201527f72206661696c6564000000000000000000000000000000000000000000000000606082015260800190565b6020808252601b908201527f63616c6c6572206973206e6f74206f7264657220666163746f72790000000000604082015260600190565b90815260200190565b91825273ffffffffffffffffffffffffffffffffffffffff16602082015260400190565b93845273ffffffffffffffffffffffffffffffffffffffff928316602085015291166040830152606082015260800190565b73ffffffffffffffffffffffffffffffffffffffff811681146111f657600080fd5b5056fea2646970667358221220405edda018e3424e833b2230b79dfac79da219983580a7fbd8b82de4aa08fd5164736f6c63430008000033",
  "immutableReferences": {},
  "source": "/*                              $$\\                                             $$\\                                                         \n                                $$ |                                            $$ |                                                  \n$$$$$$$\\   $$$$$$\\   $$$$$$$\\ $$$$$$\\   $$\\   $$\\  $$$$$$\\  $$$$$$$\\   $$$$$$\\  $$ |     \n$$  __$$\\ $$  __$$\\ $$  _____|\\_$$  _|  $$ |  $$ |$$  __$$\\ $$  __$$\\  \\____$$\\ $$ |    \n$$ |  $$ |$$ /  $$ |$$ /        $$ |    $$ |  $$ |$$ |  \\__|$$ |  $$ | $$$$$$$ |$$ |     \n$$ |  $$ |$$ |  $$ |$$ |        $$ |$$\\ $$ |  $$ |$$ |      $$ |  $$ |$$  __$$ |$$ |     \n$$ |  $$ |\\$$$$$$  |\\$$$$$$$\\   \\$$$$  |\\$$$$$$  |$$ |      $$ |  $$ |\\$$$$$$$ |$$ |      \n\\__|  \\__| \\______/  \\_______|   \\____/  \\______/ \\__|      \\__|  \\__| \\_______|\\__|     \n*/\n\npragma solidity ^0.8.0;\n\nimport \"@openzeppelin/contracts/token/ERC20/IERC20.sol\";\nimport {NocturnalFinanceInterface} from \"./Interfaces/NocturnalFinanceInterface.sol\";\nimport {OrderInterface} from \"./Interfaces/OrderInterface.sol\";\nimport {OrderFactoryInterface} from \"./Interfaces/OrderFactoryInterface.sol\";\n\ncontract OrderCloser {\n    \n    // may include all attributes in events\n    // someone may want to analyze trade data in future\n    event orderClosed(uint256 _orderID, address _orderAddress);\n    \n    NocturnalFinanceInterface public nocturnalFinance;\n    \n    constructor(address _nocturnalFinance) {\n        nocturnalFinance = NocturnalFinanceInterface(_nocturnalFinance);\n    }\n    \n    function closeLimitOrder(address _address) external {\n        require(msg.sender == nocturnalFinance.orderFactoryAddress(), \"caller is not order factory\");\n        if (OrderFactoryInterface(nocturnalFinance.orderFactoryAddress()).swapSettledFlag(_address) == true) {\n            // transfer fromTokenBalance from order to msg.sender address\n            OrderInterface(nocturnalFinance.orderAddress()).closeOrder(OrderFactoryInterface(nocturnalFinance.orderFactoryAddress()).swapOrderID(_address), OrderFactoryInterface(nocturnalFinance.orderFactoryAddress()).swapToTokenAddress(_address), msg.sender, OrderFactoryInterface(nocturnalFinance.orderFactoryAddress()).swapToTokenBalance(_address));\n            // burn order\n            OrderInterface(nocturnalFinance.orderAddress()).burn(OrderFactoryInterface(nocturnalFinance.orderFactoryAddress()).swapOrderID(_address));  \n        } else {\n            // transfer fromTokenBalance from order to msg.sender address\n            require(IERC20(OrderFactoryInterface(nocturnalFinance.orderFactoryAddress()).swapFromTokenAddress(_address)).transferFrom(_address, msg.sender, OrderFactoryInterface(nocturnalFinance.orderFactoryAddress()).swapFromTokenBalance(_address)), \"order to creator balance transfer failed\");\n            // burn order\n            OrderInterface(nocturnalFinance.orderAddress()).burn(OrderFactoryInterface(nocturnalFinance.orderFactoryAddress()).swapOrderID(_address));  \n        }\n        // emit events\n        emit orderClosed(OrderFactoryInterface(nocturnalFinance.orderFactoryAddress()).swapOrderID(_address), _address);\n    }\n}\n",
  "sourcePath": "/Users/knott/Desktop/nocturnal/contracts/OrderCloser.sol",
  "compiler": {
    "name": "solc",
    "version": "0.8.0+commit.c7dfd78e.Emscripten.clang"
  },
  "schemaVersion": "3.3.3",
  "updatedAt": "2021-05-20T06:19:55.925Z",
  "devdoc": {
    "kind": "dev",
    "methods": {},
    "version": 1
  },
  "userdoc": {
    "kind": "user",
    "methods": {},
    "version": 1
  }
}