{
  "contractName": "Order",
  "abi": [
    {
      "inputs": [
        {
          "internalType": "address",
          "name": "_nocturnalFinance",
          "type": "address"
        }
      ],
      "stateMutability": "nonpayable",
      "type": "constructor"
    },
    {
      "anonymous": false,
      "inputs": [
        {
          "indexed": true,
          "internalType": "address",
          "name": "owner",
          "type": "address"
        },
        {
          "indexed": true,
          "internalType": "address",
          "name": "approved",
          "type": "address"
        },
        {
          "indexed": true,
          "internalType": "uint256",
          "name": "tokenId",
          "type": "uint256"
        }
      ],
      "name": "Approval",
      "type": "event"
    },
    {
      "anonymous": false,
      "inputs": [
        {
          "indexed": true,
          "internalType": "address",
          "name": "owner",
          "type": "address"
        },
        {
          "indexed": true,
          "internalType": "address",
          "name": "operator",
          "type": "address"
        },
        {
          "indexed": false,
          "internalType": "bool",
          "name": "approved",
          "type": "bool"
        }
      ],
      "name": "ApprovalForAll",
      "type": "event"
    },
    {
      "anonymous": false,
      "inputs": [
        {
          "indexed": true,
          "internalType": "address",
          "name": "from",
          "type": "address"
        },
        {
          "indexed": true,
          "internalType": "address",
          "name": "to",
          "type": "address"
        },
        {
          "indexed": true,
          "internalType": "uint256",
          "name": "tokenId",
          "type": "uint256"
        }
      ],
      "name": "Transfer",
      "type": "event"
    },
    {
      "inputs": [
        {
          "internalType": "address",
          "name": "to",
          "type": "address"
        },
        {
          "internalType": "uint256",
          "name": "tokenId",
          "type": "uint256"
        }
      ],
      "name": "approve",
      "outputs": [],
      "stateMutability": "nonpayable",
      "type": "function"
    },
    {
      "inputs": [
        {
          "internalType": "address",
          "name": "owner",
          "type": "address"
        }
      ],
      "name": "balanceOf",
      "outputs": [
        {
          "internalType": "uint256",
          "name": "",
          "type": "uint256"
        }
      ],
      "stateMutability": "view",
      "type": "function",
      "constant": true
    },
    {
      "inputs": [
        {
          "internalType": "uint256",
          "name": "tokenId",
          "type": "uint256"
        }
      ],
      "name": "getApproved",
      "outputs": [
        {
          "internalType": "address",
          "name": "",
          "type": "address"
        }
      ],
      "stateMutability": "view",
      "type": "function",
      "constant": true
    },
    {
      "inputs": [
        {
          "internalType": "address",
          "name": "owner",
          "type": "address"
        },
        {
          "internalType": "address",
          "name": "operator",
          "type": "address"
        }
      ],
      "name": "isApprovedForAll",
      "outputs": [
        {
          "internalType": "bool",
          "name": "",
          "type": "bool"
        }
      ],
      "stateMutability": "view",
      "type": "function",
      "constant": true
    },
    {
      "inputs": [],
      "name": "name",
      "outputs": [
        {
          "internalType": "string",
          "name": "",
          "type": "string"
        }
      ],
      "stateMutability": "view",
      "type": "function",
      "constant": true
    },
    {
      "inputs": [],
      "name": "nocturnalFinance",
      "outputs": [
        {
          "internalType": "contract NocturnalFinanceInterface",
          "name": "",
          "type": "address"
        }
      ],
      "stateMutability": "view",
      "type": "function",
      "constant": true
    },
    {
      "inputs": [
        {
          "internalType": "uint256",
          "name": "tokenId",
          "type": "uint256"
        }
      ],
      "name": "ownerOf",
      "outputs": [
        {
          "internalType": "address",
          "name": "",
          "type": "address"
        }
      ],
      "stateMutability": "view",
      "type": "function",
      "constant": true
    },
    {
      "inputs": [],
      "name": "pool",
      "outputs": [
        {
          "internalType": "contract IUniswapV3Pool",
          "name": "",
          "type": "address"
        }
      ],
      "stateMutability": "view",
      "type": "function",
      "constant": true
    },
    {
      "inputs": [
        {
          "internalType": "address",
          "name": "from",
          "type": "address"
        },
        {
          "internalType": "address",
          "name": "to",
          "type": "address"
        },
        {
          "internalType": "uint256",
          "name": "tokenId",
          "type": "uint256"
        }
      ],
      "name": "safeTransferFrom",
      "outputs": [],
      "stateMutability": "nonpayable",
      "type": "function"
    },
    {
      "inputs": [
        {
          "internalType": "address",
          "name": "from",
          "type": "address"
        },
        {
          "internalType": "address",
          "name": "to",
          "type": "address"
        },
        {
          "internalType": "uint256",
          "name": "tokenId",
          "type": "uint256"
        },
        {
          "internalType": "bytes",
          "name": "_data",
          "type": "bytes"
        }
      ],
      "name": "safeTransferFrom",
      "outputs": [],
      "stateMutability": "nonpayable",
      "type": "function"
    },
    {
      "inputs": [
        {
          "internalType": "address",
          "name": "operator",
          "type": "address"
        },
        {
          "internalType": "bool",
          "name": "approved",
          "type": "bool"
        }
      ],
      "name": "setApprovalForAll",
      "outputs": [],
      "stateMutability": "nonpayable",
      "type": "function"
    },
    {
      "inputs": [
        {
          "internalType": "bytes4",
          "name": "interfaceId",
          "type": "bytes4"
        }
      ],
      "name": "supportsInterface",
      "outputs": [
        {
          "internalType": "bool",
          "name": "",
          "type": "bool"
        }
      ],
      "stateMutability": "view",
      "type": "function",
      "constant": true
    },
    {
      "inputs": [],
      "name": "swapRouter",
      "outputs": [
        {
          "internalType": "contract ISwapRouter",
          "name": "",
          "type": "address"
        }
      ],
      "stateMutability": "view",
      "type": "function",
      "constant": true
    },
    {
      "inputs": [],
      "name": "symbol",
      "outputs": [
        {
          "internalType": "string",
          "name": "",
          "type": "string"
        }
      ],
      "stateMutability": "view",
      "type": "function",
      "constant": true
    },
    {
      "inputs": [
        {
          "internalType": "uint256",
          "name": "index",
          "type": "uint256"
        }
      ],
      "name": "tokenByIndex",
      "outputs": [
        {
          "internalType": "uint256",
          "name": "",
          "type": "uint256"
        }
      ],
      "stateMutability": "view",
      "type": "function",
      "constant": true
    },
    {
      "inputs": [
        {
          "internalType": "address",
          "name": "owner",
          "type": "address"
        },
        {
          "internalType": "uint256",
          "name": "index",
          "type": "uint256"
        }
      ],
      "name": "tokenOfOwnerByIndex",
      "outputs": [
        {
          "internalType": "uint256",
          "name": "",
          "type": "uint256"
        }
      ],
      "stateMutability": "view",
      "type": "function",
      "constant": true
    },
    {
      "inputs": [],
      "name": "totalSupply",
      "outputs": [
        {
          "internalType": "uint256",
          "name": "",
          "type": "uint256"
        }
      ],
      "stateMutability": "view",
      "type": "function",
      "constant": true
    },
    {
      "inputs": [
        {
          "internalType": "address",
          "name": "from",
          "type": "address"
        },
        {
          "internalType": "address",
          "name": "to",
          "type": "address"
        },
        {
          "internalType": "uint256",
          "name": "tokenId",
          "type": "uint256"
        }
      ],
      "name": "transferFrom",
      "outputs": [],
      "stateMutability": "nonpayable",
      "type": "function"
    },
    {
      "inputs": [
        {
          "internalType": "uint256",
          "name": "_tokenId",
          "type": "uint256"
        }
      ],
      "name": "tokenURI",
      "outputs": [
        {
          "internalType": "string",
          "name": "",
          "type": "string"
        }
      ],
      "stateMutability": "view",
      "type": "function",
      "constant": true
    },
    {
      "inputs": [
        {
          "internalType": "uint256",
          "name": "tokenId",
          "type": "uint256"
        }
      ],
      "name": "burn",
      "outputs": [],
      "stateMutability": "nonpayable",
      "type": "function"
    },
    {
      "inputs": [
        {
          "internalType": "address",
          "name": "to",
          "type": "address"
        },
        {
          "internalType": "uint256",
          "name": "tokenId",
          "type": "uint256"
        }
      ],
      "name": "mint",
      "outputs": [],
      "stateMutability": "nonpayable",
      "type": "function"
    },
    {
      "inputs": [
        {
          "internalType": "address",
          "name": "_tokenIn",
          "type": "address"
        },
        {
          "internalType": "address",
          "name": "_tokenOut",
          "type": "address"
        },
        {
          "internalType": "uint24",
          "name": "_fee",
          "type": "uint24"
        },
        {
          "internalType": "address",
          "name": "_recipient",
          "type": "address"
        },
        {
          "internalType": "uint256",
          "name": "minOut",
          "type": "uint256"
        },
        {
          "internalType": "uint256",
          "name": "_amount",
          "type": "uint256"
        }
      ],
      "name": "getExactInputSingle",
      "outputs": [
        {
          "internalType": "uint256",
          "name": "amountOut",
          "type": "uint256"
        }
      ],
      "stateMutability": "nonpayable",
      "type": "function"
    },
    {
      "inputs": [
        {
          "internalType": "address",
          "name": "_tokenAddress",
          "type": "address"
        },
        {
          "internalType": "address",
          "name": "_recipientAddress",
          "type": "address"
        },
        {
          "internalType": "uint256",
          "name": "_amount",
          "type": "uint256"
        }
      ],
      "name": "orderTransfer",
      "outputs": [],
      "stateMutability": "nonpayable",
      "type": "function"
    }
  ],
  "bytecode": "0x60806040523480156200001157600080fd5b5060405162002eb238038062002eb2833981016040819052620000349162000290565b604080518082018252600f81526e2737b1ba3ab93730b61027b93232b960891b6020808301918252835180850190945260058452641bd393d0d560da1b9084015281519192916200008891600091620001ea565b5080516200009e906001906020840190620001ea565b505060408051808201909152600f8082526e2737b1ba3ab93730b61027b93232b960891b6020909201918252620000da9250600d9190620001ea565b50604080518082019091526005808252641bd393d0d560da1b60209092019182526200010991600e91620001ea565b50600a80546001600160a01b0319166001600160a01b03838116919091179182905560408051639c9c0d0f60e01b815290519290911691639c9c0d0f91600480820192600092909190829003018186803b1580156200016757600080fd5b505afa1580156200017c573d6000803e3d6000fd5b505050506040513d6000823e601f3d908101601f19168201604052620001a69190810190620002c0565b8051620001bc91600f91602090910190620001ea565b5050600c80546001600160a01b03191673e592427a0aece92de3edee1f18e0157c05861564179055620003e2565b828054620001f8906200038f565b90600052602060002090601f0160209004810192826200021c576000855562000267565b82601f106200023757805160ff191683800117855562000267565b8280016001018555821562000267579182015b82811115620002675782518255916020019190600101906200024a565b506200027592915062000279565b5090565b5b808211156200027557600081556001016200027a565b600060208284031215620002a2578081fd5b81516001600160a01b0381168114620002b9578182fd5b9392505050565b60006020808385031215620002d3578182fd5b82516001600160401b0380821115620002ea578384fd5b818501915085601f830112620002fe578384fd5b815181811115620003135762000313620003cc565b604051601f8201601f1916810185018381118282101715620003395762000339620003cc565b604052818152838201850188101562000350578586fd5b8592505b8183101562000373578383018501518184018601529184019162000354565b818311156200038457858583830101525b979650505050505050565b600281046001821680620003a457607f821691505b60208210811415620003c657634e487b7160e01b600052602260045260246000fd5b50919050565b634e487b7160e01b600052604160045260246000fd5b612ac080620003f26000396000f3fe608060405234801561001057600080fd5b506004361061018d5760003560e01c80634f6ccce7116100e3578063b88d4fde1161008c578063e5e8b8a111610066578063e5e8b8a114610316578063e985e9c514610329578063ee64deab1461033c5761018d565b8063b88d4fde146102e8578063c31c9c07146102fb578063c87b56dd146103035761018d565b806376fd198a116100bd57806376fd198a146102ba57806395d89b41146102cd578063a22cb465146102d55761018d565b80634f6ccce7146102815780636352211e1461029457806370a08231146102a75761018d565b806318160ddd1161014557806340c10f191161011f57806340c10f191461024857806342842e0e1461025b57806342966c681461026e5761018d565b806318160ddd1461020d57806323b872dd146102225780632f745c59146102355761018d565b8063081812fc11610176578063081812fc146101d0578063095ea7b3146101f057806316f0115b146102055761018d565b806301ffc9a71461019257806306fdde03146101bb575b600080fd5b6101a56101a036600461210f565b610344565b6040516101b29190612270565b60405180910390f35b6101c36103a0565b6040516101b29190612284565b6101e36101de366004612147565b610432565b6040516101b291906121e0565b6102036101fe3660046120c8565b6104a5565b005b6101e36105a5565b6102156105c1565b6040516101b2919061227b565b610203610230366004611f6d565b6105c7565b6102156102433660046120c8565b610619565b6102036102563660046120c8565b610692565b610203610269366004611f6d565b6107b2565b61020361027c366004612147565b6107cd565b61021561028f366004612147565b6108ea565b6101e36102a2366004612147565b610978565b6102156102b5366004611e82565b6109d4565b6102036102c8366004611f6d565b610a4c565b6101c3610d1c565b6102036102e336600461209b565b610d2b565b6102036102f6366004611fad565b610e65565b6101e3610ebe565b6101c3610311366004612147565b610eda565b610215610324366004611ef9565b610f6e565b6101a5610337366004611ec1565b611274565b6101e36112af565b60007fffffffff0000000000000000000000000000000000000000000000000000000082167f780e9d6300000000000000000000000000000000000000000000000000000000148061039a575061039a826112cb565b92915050565b6060600080546103af9061297a565b80601f01602080910402602001604051908101604052809291908181526020018280546103db9061297a565b80156104285780601f106103fd57610100808354040283529160200191610428565b820191906000526020600020905b81548152906001019060200180831161040b57829003601f168201915b5050505050905090565b600061043d8261136d565b61047c576040517f08c379a0000000000000000000000000000000000000000000000000000000008152600401610473906126c7565b60405180910390fd5b5060009081526004602052604090205473ffffffffffffffffffffffffffffffffffffffff1690565b60006104b082610978565b90508073ffffffffffffffffffffffffffffffffffffffff168373ffffffffffffffffffffffffffffffffffffffff161415610518576040517f08c379a0000000000000000000000000000000000000000000000000000000008152600401610473906127b8565b8073ffffffffffffffffffffffffffffffffffffffff16610537611397565b73ffffffffffffffffffffffffffffffffffffffff161480610560575061056081610337611397565b610596576040517f08c379a000000000000000000000000000000000000000000000000000000000815260040161047390612544565b6105a0838361139b565b505050565b600b5473ffffffffffffffffffffffffffffffffffffffff1681565b60085490565b6105d86105d2611397565b8261143b565b61060e576040517f08c379a000000000000000000000000000000000000000000000000000000000815260040161047390612815565b6105a083838361150e565b6000610624836109d4565b821061065c576040517f08c379a0000000000000000000000000000000000000000000000000000000008152600401610473906122f4565b5073ffffffffffffffffffffffffffffffffffffffff919091166000908152600660209081526040808320938352929052205490565b600a546040517f8bf83b0400000000000000000000000000000000000000000000000000000000815273ffffffffffffffffffffffffffffffffffffffff90911690638bf83b04906106e99060019060040161227b565b60206040518083038186803b15801561070157600080fd5b505afa158015610715573d6000803e3d6000fd5b505050506040513d601f19601f820116820180604052508101906107399190611ea5565b73ffffffffffffffffffffffffffffffffffffffff16610757611397565b73ffffffffffffffffffffffffffffffffffffffff16146107a4576040517f08c379a000000000000000000000000000000000000000000000000000000000815260040161047390612690565b6107ae82826116d5565b5050565b6105a083838360405180602001604052806000815250610e65565b600a546040517f8bf83b0400000000000000000000000000000000000000000000000000000000815273ffffffffffffffffffffffffffffffffffffffff90911690638bf83b049061082390600490810161227b565b60206040518083038186803b15801561083b57600080fd5b505afa15801561084f573d6000803e3d6000fd5b505050506040513d601f19601f820116820180604052508101906108739190611ea5565b73ffffffffffffffffffffffffffffffffffffffff16610891611397565b73ffffffffffffffffffffffffffffffffffffffff16146108de576040517f08c379a0000000000000000000000000000000000000000000000000000000008152600401610473906123e5565b6108e781611827565b50565b60006108f46105c1565b821061092c576040517f08c379a000000000000000000000000000000000000000000000000000000000815260040161047390612872565b60088281548110610966577f4e487b7100000000000000000000000000000000000000000000000000000000600052603260045260246000fd5b90600052602060002001549050919050565b60008181526002602052604081205473ffffffffffffffffffffffffffffffffffffffff168061039a576040517f08c379a0000000000000000000000000000000000000000000000000000000008152600401610473906125fe565b600073ffffffffffffffffffffffffffffffffffffffff8216610a23576040517f08c379a0000000000000000000000000000000000000000000000000000000008152600401610473906125a1565b5073ffffffffffffffffffffffffffffffffffffffff1660009081526003602052604090205490565b600a546040517f8bf83b0400000000000000000000000000000000000000000000000000000000815273ffffffffffffffffffffffffffffffffffffffff90911690638bf83b0490610aa290600490810161227b565b60206040518083038186803b158015610aba57600080fd5b505afa158015610ace573d6000803e3d6000fd5b505050506040513d601f19601f82011682018060405250810190610af29190611ea5565b73ffffffffffffffffffffffffffffffffffffffff16610b10611397565b73ffffffffffffffffffffffffffffffffffffffff161480610c0a5750600a546040517f8bf83b0400000000000000000000000000000000000000000000000000000000815273ffffffffffffffffffffffffffffffffffffffff90911690638bf83b0490610b849060069060040161227b565b60206040518083038186803b158015610b9c57600080fd5b505afa158015610bb0573d6000803e3d6000fd5b505050506040513d601f19601f82011682018060405250810190610bd49190611ea5565b73ffffffffffffffffffffffffffffffffffffffff16610bf2611397565b73ffffffffffffffffffffffffffffffffffffffff16145b610c40576040517f08c379a000000000000000000000000000000000000000000000000000000000815260040161047390612297565b6040517fa9059cbb00000000000000000000000000000000000000000000000000000000815273ffffffffffffffffffffffffffffffffffffffff84169063a9059cbb90610c94908590859060040161224a565b602060405180830381600087803b158015610cae57600080fd5b505af1158015610cc2573d6000803e3d6000fd5b505050506040513d601f19601f82011682018060405250810190610ce691906120f3565b6105a0576040517f08c379a000000000000000000000000000000000000000000000000000000000815260040161047390612724565b6060600180546103af9061297a565b610d33611397565b73ffffffffffffffffffffffffffffffffffffffff168273ffffffffffffffffffffffffffffffffffffffff161415610d98576040517f08c379a000000000000000000000000000000000000000000000000000000000815260040161047390612479565b8060056000610da5611397565b73ffffffffffffffffffffffffffffffffffffffff90811682526020808301939093526040918201600090812091871680825291909352912080547fffffffffffffffffffffffffffffffffffffffffffffffffffffffffffffff001692151592909217909155610e14611397565b73ffffffffffffffffffffffffffffffffffffffff167f17307eab39ab6107e8899845ad3d59bd9653f200f220920489ca2b5937696c3183604051610e599190612270565b60405180910390a35050565b610e76610e70611397565b8361143b565b610eac576040517f08c379a000000000000000000000000000000000000000000000000000000000815260040161047390612815565b610eb884848484611900565b50505050565b600c5473ffffffffffffffffffffffffffffffffffffffff1681565b6060600f8054610ee99061297a565b80601f0160208091040260200160405190810160405280929190818152602001828054610f159061297a565b8015610f625780601f10610f3757610100808354040283529160200191610f62565b820191906000526020600020905b815481529060010190602001808311610f4557829003601f168201915b50505050509050919050565b600a546040517f8bf83b0400000000000000000000000000000000000000000000000000000000815260009173ffffffffffffffffffffffffffffffffffffffff1690638bf83b0490610fc69060069060040161227b565b60206040518083038186803b158015610fde57600080fd5b505afa158015610ff2573d6000803e3d6000fd5b505050506040513d601f19601f820116820180604052508101906110169190611ea5565b73ffffffffffffffffffffffffffffffffffffffff16611034611397565b73ffffffffffffffffffffffffffffffffffffffff1614611081576040517f08c379a000000000000000000000000000000000000000000000000000000000815260040161047390612297565b6040517f095ea7b300000000000000000000000000000000000000000000000000000000815273ffffffffffffffffffffffffffffffffffffffff88169063095ea7b3906110e99073e592427a0aece92de3edee1f18e0157c0586156490869060040161224a565b602060405180830381600087803b15801561110357600080fd5b505af1158015611117573d6000803e3d6000fd5b505050506040513d601f19601f8201168201806040525081019061113b91906120f3565b611171576040517f08c379a00000000000000000000000000000000000000000000000000000000081526004016104739061250d565b600c54604080516101008101825273ffffffffffffffffffffffffffffffffffffffff8a81168252898116602083015262ffffff891692820192909252868216606082015291169063414bf38990608081016111cf4261025861294b565b8152602001858152602001868152602001600073ffffffffffffffffffffffffffffffffffffffff168152506040518263ffffffff1660e01b815260040161121791906128cf565b602060405180830381600087803b15801561123157600080fd5b505af1158015611245573d6000803e3d6000fd5b505050506040513d601f19601f82011682018060405250810190611269919061215f565b979650505050505050565b73ffffffffffffffffffffffffffffffffffffffff918216600090815260056020908152604080832093909416825291909152205460ff1690565b600a5473ffffffffffffffffffffffffffffffffffffffff1681565b60007fffffffff0000000000000000000000000000000000000000000000000000000082167f80ac58cd00000000000000000000000000000000000000000000000000000000148061135e57507fffffffff0000000000000000000000000000000000000000000000000000000082167f5b5e139f00000000000000000000000000000000000000000000000000000000145b8061039a575061039a8261194d565b60009081526002602052604090205473ffffffffffffffffffffffffffffffffffffffff16151590565b3390565b600081815260046020526040902080547fffffffffffffffffffffffff00000000000000000000000000000000000000001673ffffffffffffffffffffffffffffffffffffffff841690811790915581906113f582610978565b73ffffffffffffffffffffffffffffffffffffffff167f8c5be1e5ebec7d5bd14f71427d1e84f3dd0314c0f7b2291e5b200ac8c7c3b92560405160405180910390a45050565b60006114468261136d565b61147c576040517f08c379a0000000000000000000000000000000000000000000000000000000008152600401610473906124b0565b600061148783610978565b90508073ffffffffffffffffffffffffffffffffffffffff168473ffffffffffffffffffffffffffffffffffffffff1614806114f657508373ffffffffffffffffffffffffffffffffffffffff166114de84610432565b73ffffffffffffffffffffffffffffffffffffffff16145b8061150657506115068185611274565b949350505050565b8273ffffffffffffffffffffffffffffffffffffffff1661152e82610978565b73ffffffffffffffffffffffffffffffffffffffff161461157b576040517f08c379a00000000000000000000000000000000000000000000000000000000081526004016104739061275b565b73ffffffffffffffffffffffffffffffffffffffff82166115c8576040517f08c379a00000000000000000000000000000000000000000000000000000000081526004016104739061241c565b6115d3838383611997565b6115de60008261139b565b73ffffffffffffffffffffffffffffffffffffffff83166000908152600360205260408120805460019290611614908490612963565b909155505073ffffffffffffffffffffffffffffffffffffffff8216600090815260036020526040812080546001929061164f90849061294b565b909155505060008181526002602052604080822080547fffffffffffffffffffffffff00000000000000000000000000000000000000001673ffffffffffffffffffffffffffffffffffffffff86811691821790925591518493918716917fddf252ad1be2c89b69c2b068fc378daa952ba7f163c4a11628f55a4df523b3ef91a4505050565b73ffffffffffffffffffffffffffffffffffffffff8216611722576040517f08c379a00000000000000000000000000000000000000000000000000000000081526004016104739061265b565b61172b8161136d565b15611762576040517f08c379a0000000000000000000000000000000000000000000000000000000008152600401610473906123ae565b61176e60008383611997565b73ffffffffffffffffffffffffffffffffffffffff821660009081526003602052604081208054600192906117a490849061294b565b909155505060008181526002602052604080822080547fffffffffffffffffffffffff00000000000000000000000000000000000000001673ffffffffffffffffffffffffffffffffffffffff861690811790915590518392907fddf252ad1be2c89b69c2b068fc378daa952ba7f163c4a11628f55a4df523b3ef908290a45050565b600061183282610978565b905061184081600084611997565b61184b60008361139b565b73ffffffffffffffffffffffffffffffffffffffff81166000908152600360205260408120805460019290611881908490612963565b909155505060008281526002602052604080822080547fffffffffffffffffffffffff00000000000000000000000000000000000000001690555183919073ffffffffffffffffffffffffffffffffffffffff8416907fddf252ad1be2c89b69c2b068fc378daa952ba7f163c4a11628f55a4df523b3ef908390a45050565b61190b84848461150e565b61191784848484611a6e565b610eb8576040517f08c379a000000000000000000000000000000000000000000000000000000000815260040161047390612351565b7fffffffff0000000000000000000000000000000000000000000000000000000081167f01ffc9a70000000000000000000000000000000000000000000000000000000014919050565b6119a28383836105a0565b73ffffffffffffffffffffffffffffffffffffffff83166119cb576119c681611c0c565b611a08565b8173ffffffffffffffffffffffffffffffffffffffff168373ffffffffffffffffffffffffffffffffffffffff1614611a0857611a088382611c50565b73ffffffffffffffffffffffffffffffffffffffff8216611a3157611a2c81611d07565b6105a0565b8273ffffffffffffffffffffffffffffffffffffffff168273ffffffffffffffffffffffffffffffffffffffff16146105a0576105a08282611e2b565b6000611a8f8473ffffffffffffffffffffffffffffffffffffffff16611e7c565b15611c01578373ffffffffffffffffffffffffffffffffffffffff1663150b7a02611ab8611397565b8786866040518563ffffffff1660e01b8152600401611ada9493929190612201565b602060405180830381600087803b158015611af457600080fd5b505af1925050508015611b42575060408051601f3d9081017fffffffffffffffffffffffffffffffffffffffffffffffffffffffffffffffe0168201909252611b3f9181019061212b565b60015b611bb6573d808015611b70576040519150601f19603f3d011682016040523d82523d6000602084013e611b75565b606091505b508051611bae576040517f08c379a000000000000000000000000000000000000000000000000000000000815260040161047390612351565b805181602001fd5b7fffffffff00000000000000000000000000000000000000000000000000000000167f150b7a0200000000000000000000000000000000000000000000000000000000149050611506565b506001949350505050565b600880546000838152600960205260408120829055600182018355919091527ff3f7a9fe364faab93b216da50a3214154f22a0a2b415b23a84c8169e8b636ee30155565b60006001611c5d846109d4565b611c679190612963565b600083815260076020526040902054909150808214611cc75773ffffffffffffffffffffffffffffffffffffffff841660009081526006602090815260408083208584528252808320548484528184208190558352600790915290208190555b50600091825260076020908152604080842084905573ffffffffffffffffffffffffffffffffffffffff9094168352600681528383209183525290812055565b600854600090611d1990600190612963565b60008381526009602052604081205460088054939450909284908110611d68577f4e487b7100000000000000000000000000000000000000000000000000000000600052603260045260246000fd5b906000526020600020015490508060088381548110611db0577f4e487b7100000000000000000000000000000000000000000000000000000000600052603260045260246000fd5b6000918252602080832090910192909255828152600990915260408082208490558582528120556008805480611e0f577f4e487b7100000000000000000000000000000000000000000000000000000000600052603160045260246000fd5b6001900381819060005260206000200160009055905550505050565b6000611e36836109d4565b73ffffffffffffffffffffffffffffffffffffffff9093166000908152600660209081526040808320868452825280832085905593825260079052919091209190915550565b3b151590565b600060208284031215611e93578081fd5b8135611e9e81612a2c565b9392505050565b600060208284031215611eb6578081fd5b8151611e9e81612a2c565b60008060408385031215611ed3578081fd5b8235611ede81612a2c565b91506020830135611eee81612a2c565b809150509250929050565b60008060008060008060c08789031215611f11578182fd5b8635611f1c81612a2c565b95506020870135611f2c81612a2c565b9450604087013562ffffff81168114611f43578283fd5b93506060870135611f5381612a2c565b9598949750929560808101359460a0909101359350915050565b600080600060608486031215611f81578283fd5b8335611f8c81612a2c565b92506020840135611f9c81612a2c565b929592945050506040919091013590565b60008060008060808587031215611fc2578384fd5b8435611fcd81612a2c565b9350602085810135611fde81612a2c565b935060408601359250606086013567ffffffffffffffff80821115612001578384fd5b818801915088601f830112612014578384fd5b813581811115612026576120266129fd565b604051847fffffffffffffffffffffffffffffffffffffffffffffffffffffffffffffffe0601f8401168201018181108482111715612067576120676129fd565b60405281815283820185018b101561207d578586fd5b81858501868301379081019093019390935250939692955090935050565b600080604083850312156120ad578182fd5b82356120b881612a2c565b91506020830135611eee81612a4e565b600080604083850312156120da578182fd5b82356120e581612a2c565b946020939093013593505050565b600060208284031215612104578081fd5b8151611e9e81612a4e565b600060208284031215612120578081fd5b8135611e9e81612a5c565b60006020828403121561213c578081fd5b8151611e9e81612a5c565b600060208284031215612158578081fd5b5035919050565b600060208284031215612170578081fd5b5051919050565b60008151808452815b8181101561219c57602081850181015186830182015201612180565b818111156121ad5782602083870101525b50601f017fffffffffffffffffffffffffffffffffffffffffffffffffffffffffffffffe0169290920160200192915050565b73ffffffffffffffffffffffffffffffffffffffff91909116815260200190565b600073ffffffffffffffffffffffffffffffffffffffff8087168352808616602084015250836040830152608060608301526122406080830184612177565b9695505050505050565b73ffffffffffffffffffffffffffffffffffffffff929092168252602082015260400190565b901515815260200190565b90815260200190565b600060208252611e9e6020830184612177565b60208082526022908201527f63616c6c6572206973206e6f742061206e6f637475726e616c20636f6e74726160408201527f6374000000000000000000000000000000000000000000000000000000000000606082015260800190565b6020808252602b908201527f455243373231456e756d657261626c653a206f776e657220696e646578206f7560408201527f74206f6620626f756e6473000000000000000000000000000000000000000000606082015260800190565b60208082526032908201527f4552433732313a207472616e7366657220746f206e6f6e20455243373231526560408201527f63656976657220696d706c656d656e7465720000000000000000000000000000606082015260800190565b6020808252601c908201527f4552433732313a20746f6b656e20616c7265616479206d696e74656400000000604082015260600190565b60208082526017908201527f6e6f7420436c6f73654f7264657220636f6e7472616374000000000000000000604082015260600190565b60208082526024908201527f4552433732313a207472616e7366657220746f20746865207a65726f2061646460408201527f7265737300000000000000000000000000000000000000000000000000000000606082015260800190565b60208082526019908201527f4552433732313a20617070726f766520746f2063616c6c657200000000000000604082015260600190565b6020808252602c908201527f4552433732313a206f70657261746f7220717565727920666f72206e6f6e657860408201527f697374656e7420746f6b656e0000000000000000000000000000000000000000606082015260800190565b6020808252600e908201527f617070726f7665206661696c6564000000000000000000000000000000000000604082015260600190565b60208082526038908201527f4552433732313a20617070726f76652063616c6c6572206973206e6f74206f7760408201527f6e6572206e6f7220617070726f76656420666f7220616c6c0000000000000000606082015260800190565b6020808252602a908201527f4552433732313a2062616c616e636520717565727920666f7220746865207a6560408201527f726f206164647265737300000000000000000000000000000000000000000000606082015260800190565b60208082526029908201527f4552433732313a206f776e657220717565727920666f72206e6f6e657869737460408201527f656e7420746f6b656e0000000000000000000000000000000000000000000000606082015260800190565b6020808252818101527f4552433732313a206d696e7420746f20746865207a65726f2061646472657373604082015260600190565b60208082526018908201527f6e6f74204372656174654f7264657220636f6e74726163740000000000000000604082015260600190565b6020808252602c908201527f4552433732313a20617070726f76656420717565727920666f72206e6f6e657860408201527f697374656e7420746f6b656e0000000000000000000000000000000000000000606082015260800190565b6020808252601c908201527f6f72646572207472616e7366657220616d6f756e74206661696c656400000000604082015260600190565b60208082526029908201527f4552433732313a207472616e73666572206f6620746f6b656e2074686174206960408201527f73206e6f74206f776e0000000000000000000000000000000000000000000000606082015260800190565b60208082526021908201527f4552433732313a20617070726f76616c20746f2063757272656e74206f776e6560408201527f7200000000000000000000000000000000000000000000000000000000000000606082015260800190565b60208082526031908201527f4552433732313a207472616e736665722063616c6c6572206973206e6f74206f60408201527f776e6572206e6f7220617070726f766564000000000000000000000000000000606082015260800190565b6020808252602c908201527f455243373231456e756d657261626c653a20676c6f62616c20696e646578206f60408201527f7574206f6620626f756e64730000000000000000000000000000000000000000606082015260800190565b60006101008201905073ffffffffffffffffffffffffffffffffffffffff80845116835280602085015116602084015262ffffff60408501511660408401528060608501511660608401526080840151608084015260a084015160a084015260c084015160c08401528060e08501511660e08401525092915050565b6000821982111561295e5761295e6129ce565b500190565b600082821015612975576129756129ce565b500390565b60028104600182168061298e57607f821691505b602082108114156129c8577f4e487b7100000000000000000000000000000000000000000000000000000000600052602260045260246000fd5b50919050565b7f4e487b7100000000000000000000000000000000000000000000000000000000600052601160045260246000fd5b7f4e487b7100000000000000000000000000000000000000000000000000000000600052604160045260246000fd5b73ffffffffffffffffffffffffffffffffffffffff811681146108e757600080fd5b80151581146108e757600080fd5b7fffffffff00000000000000000000000000000000000000000000000000000000811681146108e757600080fdfea26469706673582212201a2f652d51ca3557cb4870b371c97aba2a2a7077453ff7da7540b947299e0fcb64736f6c63430008000033",
  "immutableReferences": {},
  "source": "/*                              $$\\                                             $$\\                                                         \n                                $$ |                                            $$ |                                                  \n$$$$$$$\\   $$$$$$\\   $$$$$$$\\ $$$$$$\\   $$\\   $$\\  $$$$$$\\  $$$$$$$\\   $$$$$$\\  $$ |     \n$$  __$$\\ $$  __$$\\ $$  _____|\\_$$  _|  $$ |  $$ |$$  __$$\\ $$  __$$\\  \\____$$\\ $$ |    \n$$ |  $$ |$$ /  $$ |$$ /        $$ |    $$ |  $$ |$$ |  \\__|$$ |  $$ | $$$$$$$ |$$ |     \n$$ |  $$ |$$ |  $$ |$$ |        $$ |$$\\ $$ |  $$ |$$ |      $$ |  $$ |$$  __$$ |$$ |     \n$$ |  $$ |\\$$$$$$  |\\$$$$$$$\\   \\$$$$  |\\$$$$$$  |$$ |      $$ |  $$ |\\$$$$$$$ |$$ |      \n\\__|  \\__| \\______/  \\_______|   \\____/  \\______/ \\__|      \\__|  \\__| \\_______|\\__|     \n*/\n\npragma solidity ^0.8.0;\n\nimport \"@openzeppelin/contracts/utils/math/SafeMath.sol\";\nimport \"@openzeppelin/contracts/token/ERC721/ERC721.sol\";\nimport \"@openzeppelin/contracts/token/ERC721/extensions/ERC721Enumerable.sol\";\nimport \"@openzeppelin/contracts/token/ERC20/IERC20.sol\";\nimport \"@uniswap/v3-core/contracts/interfaces/IUniswapV3Pool.sol\";\nimport \"@uniswap/v3-periphery/contracts/interfaces/ISwapRouter.sol\";\n//import \"@uniswap/v3-periphery/contracts/interfaces/IPeripheryPayments.sol\";\nimport {NocturnalFinanceInterface} from \"./Interfaces/NocturnalFinanceInterface.sol\";\nimport {OracleInterface} from \"./Interfaces/OracleInterface.sol\";\n\ncontract Order is ERC721Enumerable {\n    using SafeMath for uint256;\n\n    address internal constant UniswapV3SwapRouter = 0xE592427A0AEce92De3Edee1F18E0157C05861564;\n    \n    NocturnalFinanceInterface public nocturnalFinance;\n    IUniswapV3Pool public pool;\n    ISwapRouter public swapRouter;\n    \n    // Token name\n    string private __name;\n\n    // Token symbol\n    string private __symbol;\n    \n    // Token baseURI\n    string private __uriBase;\n    \n    uint[] internal tokenIndexes;\n    \n    mapping(uint => uint) internal indexTokens; \n    mapping(address => uint[]) internal ownerTokenIndexes;\n    mapping(uint => uint) internal tokenTokenIndexes;\n    \n    constructor(address _nocturnalFinance) ERC721(\"Nocturnal Order\", \"oNOCT\") {\n        __name = \"Nocturnal Order\";\n        __symbol = \"oNOCT\";\n        nocturnalFinance = NocturnalFinanceInterface(_nocturnalFinance);\n        __uriBase = nocturnalFinance.orderURI();\n        swapRouter = ISwapRouter(UniswapV3SwapRouter);\n    }\n    \n    function tokenURI(uint256 _tokenId) public view override returns (string memory) {\n        // concatinate _tokenId to __uriBase for tokenURI in future... \n        return (__uriBase);\n    }\n    \n    function burn(uint256 tokenId) public {\n        require(_msgSender() == nocturnalFinance._contract(4), \"not CloseOrder contract\");\n        _burn(tokenId);\n    }\n    \n    function mint(address to, uint256 tokenId) public {\n        require(_msgSender() == nocturnalFinance._contract(1), \"not CreateOrder contract\");\n        _mint(to, tokenId);\n    }\n    \n    function getExactInputSingle(address _tokenIn, address _tokenOut, uint24 _fee, address _recipient, uint256 minOut, uint256 _amount) external returns (uint256 amountOut) {\n        require(_msgSender() == nocturnalFinance._contract(6), \"caller is not a nocturnal contract\");\n        require(IERC20(_tokenIn).approve(UniswapV3SwapRouter, _amount), \"approve failed\");\n\t\tamountOut = swapRouter.exactInputSingle(\n\t\t    ISwapRouter.ExactInputSingleParams({\n\t\t        tokenIn: _tokenIn,\n\t\t        tokenOut: _tokenOut,\n\t\t        fee: _fee,\n\t\t        recipient: _recipient,\n\t\t        deadline: block.timestamp + 600, // 10 minutes from current block\n\t\t        amountIn: _amount,\n\t\t        amountOutMinimum: minOut, \n\t\t        sqrtPriceLimitX96: 0\n\t\t    })\n\t\t);\n    }\n    \n    function orderTransfer(address _tokenAddress, address _recipientAddress, uint256 _amount) public {\n        require(_msgSender() == nocturnalFinance._contract(4) || _msgSender() == nocturnalFinance._contract(6), \"caller is not a nocturnal contract\");\n        require(IERC20(_tokenAddress).transfer(_recipientAddress, _amount), \"order transfer amount failed\");\n    } \n    \n    /*function orderPayout(address _recipientAddress, uint256 _amount) public {\n        require(_msgSender() == nocturnalFinance._contract(6), \"caller is not a nocturnal contract\");\n        payment.unwrapWETH9(_amount, _recipientAddress);\n    }*/\n}\n",
  "sourcePath": "/Users/knott/Desktop/nocturnal/contracts/Order.sol",
  "compiler": {
    "name": "solc",
    "version": "0.8.0+commit.c7dfd78e.Emscripten.clang"
  },
  "schemaVersion": "3.3.3",
  "updatedAt": "2021-06-13T20:49:23.676Z",
  "networkType": "ethereum",
  "devdoc": {
    "kind": "dev",
    "methods": {
      "approve(address,uint256)": {
        "details": "See {IERC721-approve}."
      },
      "balanceOf(address)": {
        "details": "See {IERC721-balanceOf}."
      },
      "getApproved(uint256)": {
        "details": "See {IERC721-getApproved}."
      },
      "isApprovedForAll(address,address)": {
        "details": "See {IERC721-isApprovedForAll}."
      },
      "name()": {
        "details": "See {IERC721Metadata-name}."
      },
      "ownerOf(uint256)": {
        "details": "See {IERC721-ownerOf}."
      },
      "safeTransferFrom(address,address,uint256)": {
        "details": "See {IERC721-safeTransferFrom}."
      },
      "safeTransferFrom(address,address,uint256,bytes)": {
        "details": "See {IERC721-safeTransferFrom}."
      },
      "setApprovalForAll(address,bool)": {
        "details": "See {IERC721-setApprovalForAll}."
      },
      "supportsInterface(bytes4)": {
        "details": "See {IERC165-supportsInterface}."
      },
      "symbol()": {
        "details": "See {IERC721Metadata-symbol}."
      },
      "tokenByIndex(uint256)": {
        "details": "See {IERC721Enumerable-tokenByIndex}."
      },
      "tokenOfOwnerByIndex(address,uint256)": {
        "details": "See {IERC721Enumerable-tokenOfOwnerByIndex}."
      },
      "totalSupply()": {
        "details": "See {IERC721Enumerable-totalSupply}."
      },
      "transferFrom(address,address,uint256)": {
        "details": "See {IERC721-transferFrom}."
      }
    },
    "version": 1
  },
  "userdoc": {
    "kind": "user",
    "methods": {},
    "version": 1
  }
}