{
  "contractName": "OrderTransfer",
  "abi": [
    {
      "inputs": [
        {
          "internalType": "address",
          "name": "_nocturnalFinance",
          "type": "address"
        }
      ],
      "stateMutability": "nonpayable",
      "type": "constructor"
    },
    {
      "inputs": [],
      "name": "nocturnalFinance",
      "outputs": [
        {
          "internalType": "contract NocturnalFinanceInterface",
          "name": "",
          "type": "address"
        }
      ],
      "stateMutability": "view",
      "type": "function"
    },
    {
      "inputs": [
        {
          "internalType": "uint256",
          "name": "dFee",
          "type": "uint256"
        },
        {
          "internalType": "address",
          "name": "orderAddress",
          "type": "address"
        }
      ],
      "name": "fromWETHCreate",
      "outputs": [],
      "stateMutability": "nonpayable",
      "type": "function"
    },
    {
      "inputs": [
        {
          "internalType": "uint256",
          "name": "dFee",
          "type": "uint256"
        },
        {
          "internalType": "address",
          "name": "orderAddress",
          "type": "address"
        },
        {
          "internalType": "bool",
          "name": "fromToken0",
          "type": "bool"
        }
      ],
      "name": "toWETHCreate",
      "outputs": [],
      "stateMutability": "nonpayable",
      "type": "function"
    },
    {
      "inputs": [
        {
          "internalType": "address",
          "name": "_address",
          "type": "address"
        },
        {
          "internalType": "bool",
          "name": "fromToken0",
          "type": "bool"
        }
      ],
      "name": "fromWETHSettle",
      "outputs": [],
      "stateMutability": "nonpayable",
      "type": "function"
    },
    {
      "inputs": [
        {
          "internalType": "address",
          "name": "_address",
          "type": "address"
        },
        {
          "internalType": "bool",
          "name": "fromToken0",
          "type": "bool"
        }
      ],
      "name": "toWETHSettle",
      "outputs": [],
      "stateMutability": "nonpayable",
      "type": "function"
    }
  ],
  "bytecode": "0x60806040523480156200001157600080fd5b506040516200260b3803806200260b83398101604081905262000034916200005a565b600080546001600160a01b0319166001600160a01b03929092169190911790556200008a565b6000602082840312156200006c578081fd5b81516001600160a01b038116811462000083578182fd5b9392505050565b612571806200009a6000396000f3fe608060405234801561001057600080fd5b50600436106100675760003560e01c80638878a58d116100505780638878a58d14610094578063a0f861d4146100a7578063ee64deab146100ba57610067565b806331de94ce1461006c5780634cfff56f14610081575b600080fd5b61007f61007a36600461216d565b6100d8565b005b61007f61008f36600461216d565b6108c6565b61007f6100a23660046121d9565b6111d0565b61007f6100b53660046121fd565b61183b565b6100c2612122565b6040516100cf919061223e565b60405180910390f35b60008054906101000a900473ffffffffffffffffffffffffffffffffffffffff1673ffffffffffffffffffffffffffffffffffffffff16638bc8e71c6040518163ffffffff1660e01b815260040160206040518083038186803b15801561013e57600080fd5b505afa158015610152573d6000803e3d6000fd5b505050506040513d601f19601f820116820180604052508101906101769190612151565b73ffffffffffffffffffffffffffffffffffffffff163373ffffffffffffffffffffffffffffffffffffffff16146101e3576040517f08c379a00000000000000000000000000000000000000000000000000000000081526004016101da906122fb565b60405180910390fd5b60008060009054906101000a900473ffffffffffffffffffffffffffffffffffffffff1673ffffffffffffffffffffffffffffffffffffffff1663e272981b6040518163ffffffff1660e01b815260040160206040518083038186803b15801561024c57600080fd5b505afa158015610260573d6000803e3d6000fd5b505050506040513d601f19601f820116820180604052508101906102849190612151565b73ffffffffffffffffffffffffffffffffffffffff1663b3319595846040518263ffffffff1660e01b81526004016102bc919061223e565b60206040518083038186803b1580156102d457600080fd5b505afa1580156102e8573d6000803e3d6000fd5b505050506040513d601f19601f8201168201806040525081019061030c91906121c1565b905060008060009054906101000a900473ffffffffffffffffffffffffffffffffffffffff1673ffffffffffffffffffffffffffffffffffffffff1663e272981b6040518163ffffffff1660e01b815260040160206040518083038186803b15801561037757600080fd5b505afa15801561038b573d6000803e3d6000fd5b505050506040513d601f19601f820116820180604052508101906103af9190612151565b73ffffffffffffffffffffffffffffffffffffffff1663ccab283c856040518263ffffffff1660e01b81526004016103e7919061223e565b60206040518083038186803b1580156103ff57600080fd5b505afa158015610413573d6000803e3d6000fd5b505050506040513d601f19601f820116820180604052508101906104379190612151565b905060008060009054906101000a900473ffffffffffffffffffffffffffffffffffffffff1673ffffffffffffffffffffffffffffffffffffffff1663e272981b6040518163ffffffff1660e01b815260040160206040518083038186803b1580156104a257600080fd5b505afa1580156104b6573d6000803e3d6000fd5b505050506040513d601f19601f820116820180604052508101906104da9190612151565b73ffffffffffffffffffffffffffffffffffffffff1663c5150fb8866040518263ffffffff1660e01b8152600401610512919061223e565b60206040518083038186803b15801561052a57600080fd5b505afa15801561053e573d6000803e3d6000fd5b505050506040513d601f19601f8201168201806040525081019061056291906121c1565b905060008060009054906101000a900473ffffffffffffffffffffffffffffffffffffffff1673ffffffffffffffffffffffffffffffffffffffff1663e272981b6040518163ffffffff1660e01b815260040160206040518083038186803b1580156105cd57600080fd5b505afa1580156105e1573d6000803e3d6000fd5b505050506040513d601f19601f820116820180604052508101906106059190612151565b73ffffffffffffffffffffffffffffffffffffffff1663d4f70f9e876040518263ffffffff1660e01b815260040161063d919061223e565b60206040518083038186803b15801561065557600080fd5b505afa158015610669573d6000803e3d6000fd5b505050506040513d601f19601f8201168201806040525081019061068d91906121c1565b905060008054906101000a900473ffffffffffffffffffffffffffffffffffffffff1673ffffffffffffffffffffffffffffffffffffffff16634f5843426040518163ffffffff1660e01b815260040160206040518083038186803b1580156106f557600080fd5b505afa158015610709573d6000803e3d6000fd5b505050506040513d601f19601f8201168201806040525081019061072d9190612151565b73ffffffffffffffffffffffffffffffffffffffff166366b701b1843388868960006040518763ffffffff1660e01b81526004016107709695949392919061225f565b600060405180830381600087803b15801561078a57600080fd5b505af115801561079e573d6000803e3d6000fd5b5050505060008054906101000a900473ffffffffffffffffffffffffffffffffffffffff1673ffffffffffffffffffffffffffffffffffffffff16634f5843426040518163ffffffff1660e01b815260040160206040518083038186803b15801561080857600080fd5b505afa15801561081c573d6000803e3d6000fd5b505050506040513d601f19601f820116820180604052508101906108409190612151565b73ffffffffffffffffffffffffffffffffffffffff166366b701b184888886610869878b61213e565b60006040518763ffffffff1660e01b815260040161088c9695949392919061225f565b600060405180830381600087803b1580156108a657600080fd5b505af11580156108ba573d6000803e3d6000fd5b50505050505050505050565b60008054906101000a900473ffffffffffffffffffffffffffffffffffffffff1673ffffffffffffffffffffffffffffffffffffffff16638bc8e71c6040518163ffffffff1660e01b815260040160206040518083038186803b15801561092c57600080fd5b505afa158015610940573d6000803e3d6000fd5b505050506040513d601f19601f820116820180604052508101906109649190612151565b73ffffffffffffffffffffffffffffffffffffffff163373ffffffffffffffffffffffffffffffffffffffff16146109c8576040517f08c379a00000000000000000000000000000000000000000000000000000000081526004016101da906122fb565b60008060009054906101000a900473ffffffffffffffffffffffffffffffffffffffff1673ffffffffffffffffffffffffffffffffffffffff1663e272981b6040518163ffffffff1660e01b815260040160206040518083038186803b158015610a3157600080fd5b505afa158015610a45573d6000803e3d6000fd5b505050506040513d601f19601f82011682018060405250810190610a699190612151565b73ffffffffffffffffffffffffffffffffffffffff16633c1fa065846040518263ffffffff1660e01b8152600401610aa1919061223e565b60206040518083038186803b158015610ab957600080fd5b505afa158015610acd573d6000803e3d6000fd5b505050506040513d601f19601f82011682018060405250810190610af19190612151565b905060008060009054906101000a900473ffffffffffffffffffffffffffffffffffffffff1673ffffffffffffffffffffffffffffffffffffffff1663e272981b6040518163ffffffff1660e01b815260040160206040518083038186803b158015610b5c57600080fd5b505afa158015610b70573d6000803e3d6000fd5b505050506040513d601f19601f82011682018060405250810190610b949190612151565b73ffffffffffffffffffffffffffffffffffffffff1663b3319595856040518263ffffffff1660e01b8152600401610bcc919061223e565b60206040518083038186803b158015610be457600080fd5b505afa158015610bf8573d6000803e3d6000fd5b505050506040513d601f19601f82011682018060405250810190610c1c91906121c1565b905060008060009054906101000a900473ffffffffffffffffffffffffffffffffffffffff1673ffffffffffffffffffffffffffffffffffffffff1663e272981b6040518163ffffffff1660e01b815260040160206040518083038186803b158015610c8757600080fd5b505afa158015610c9b573d6000803e3d6000fd5b505050506040513d601f19601f82011682018060405250810190610cbf9190612151565b73ffffffffffffffffffffffffffffffffffffffff1663ccab283c866040518263ffffffff1660e01b8152600401610cf7919061223e565b60206040518083038186803b158015610d0f57600080fd5b505afa158015610d23573d6000803e3d6000fd5b505050506040513d601f19601f82011682018060405250810190610d479190612151565b905060008060009054906101000a900473ffffffffffffffffffffffffffffffffffffffff1673ffffffffffffffffffffffffffffffffffffffff1663e272981b6040518163ffffffff1660e01b815260040160206040518083038186803b158015610db257600080fd5b505afa158015610dc6573d6000803e3d6000fd5b505050506040513d601f19601f82011682018060405250810190610dea9190612151565b73ffffffffffffffffffffffffffffffffffffffff1663c5150fb8876040518263ffffffff1660e01b8152600401610e22919061223e565b60206040518083038186803b158015610e3a57600080fd5b505afa158015610e4e573d6000803e3d6000fd5b505050506040513d601f19601f82011682018060405250810190610e7291906121c1565b905060008060009054906101000a900473ffffffffffffffffffffffffffffffffffffffff1673ffffffffffffffffffffffffffffffffffffffff1663e272981b6040518163ffffffff1660e01b815260040160206040518083038186803b158015610edd57600080fd5b505afa158015610ef1573d6000803e3d6000fd5b505050506040513d601f19601f82011682018060405250810190610f159190612151565b73ffffffffffffffffffffffffffffffffffffffff1663d4f70f9e886040518263ffffffff1660e01b8152600401610f4d919061223e565b60206040518083038186803b158015610f6557600080fd5b505afa158015610f79573d6000803e3d6000fd5b505050506040513d601f19601f82011682018060405250810190610f9d91906121c1565b905060008054906101000a900473ffffffffffffffffffffffffffffffffffffffff1673ffffffffffffffffffffffffffffffffffffffff16634f5843426040518163ffffffff1660e01b815260040160206040518083038186803b15801561100557600080fd5b505afa158015611019573d6000803e3d6000fd5b505050506040513d601f19601f8201168201806040525081019061103d9190612151565b73ffffffffffffffffffffffffffffffffffffffff16638bcf4d718633876040518463ffffffff1660e01b8152600401611079939291906122a4565b600060405180830381600087803b15801561109357600080fd5b505af11580156110a7573d6000803e3d6000fd5b5050505060008054906101000a900473ffffffffffffffffffffffffffffffffffffffff1673ffffffffffffffffffffffffffffffffffffffff16634f5843426040518163ffffffff1660e01b815260040160206040518083038186803b15801561111157600080fd5b505afa158015611125573d6000803e3d6000fd5b505050506040513d601f19601f820116820180604052508101906111499190612151565b73ffffffffffffffffffffffffffffffffffffffff166366b701b184898986611172878b61213e565b60006040518763ffffffff1660e01b81526004016111959695949392919061225f565b600060405180830381600087803b1580156111af57600080fd5b505af11580156111c3573d6000803e3d6000fd5b5050505050505050505050565b60008054906101000a900473ffffffffffffffffffffffffffffffffffffffff1673ffffffffffffffffffffffffffffffffffffffff1663ef5f63866040518163ffffffff1660e01b815260040160206040518083038186803b15801561123657600080fd5b505afa15801561124a573d6000803e3d6000fd5b505050506040513d601f19601f8201168201806040525081019061126e9190612151565b73ffffffffffffffffffffffffffffffffffffffff163373ffffffffffffffffffffffffffffffffffffffff16146112d2576040517f08c379a00000000000000000000000000000000000000000000000000000000081526004016101da9061246f565b60008060009054906101000a900473ffffffffffffffffffffffffffffffffffffffff1673ffffffffffffffffffffffffffffffffffffffff1663e272981b6040518163ffffffff1660e01b815260040160206040518083038186803b15801561133b57600080fd5b505afa15801561134f573d6000803e3d6000fd5b505050506040513d601f19601f820116820180604052508101906113739190612151565b73ffffffffffffffffffffffffffffffffffffffff1663d4f70f9e836040518263ffffffff1660e01b81526004016113ab919061223e565b60206040518083038186803b1580156113c357600080fd5b505afa1580156113d7573d6000803e3d6000fd5b505050506040513d601f19601f820116820180604052508101906113fb91906121c1565b905060008060009054906101000a900473ffffffffffffffffffffffffffffffffffffffff1673ffffffffffffffffffffffffffffffffffffffff1663e272981b6040518163ffffffff1660e01b815260040160206040518083038186803b15801561146657600080fd5b505afa15801561147a573d6000803e3d6000fd5b505050506040513d601f19601f8201168201806040525081019061149e9190612151565b73ffffffffffffffffffffffffffffffffffffffff16633c1fa065846040518263ffffffff1660e01b81526004016114d6919061223e565b60206040518083038186803b1580156114ee57600080fd5b505afa158015611502573d6000803e3d6000fd5b505050506040513d601f19601f820116820180604052508101906115269190612151565b6040517f095ea7b300000000000000000000000000000000000000000000000000000000815290915073ffffffffffffffffffffffffffffffffffffffff82169063095ea7b39061157d90309086906004016122d5565b602060405180830381600087803b15801561159757600080fd5b505af11580156115ab573d6000803e3d6000fd5b505050506040513d601f19601f820116820180604052508101906115cf91906121a5565b611605576040517f08c379a00000000000000000000000000000000000000000000000000000000081526004016101da90612358565b8073ffffffffffffffffffffffffffffffffffffffff166323b872dd3360008054906101000a900473ffffffffffffffffffffffffffffffffffffffff1673ffffffffffffffffffffffffffffffffffffffff1663cb1048ff6040518163ffffffff1660e01b815260040160206040518083038186803b15801561168857600080fd5b505afa15801561169c573d6000803e3d6000fd5b505050506040513d601f19601f820116820180604052508101906116c09190612151565b876040518463ffffffff1660e01b81526004016116df939291906122a4565b602060405180830381600087803b1580156116f957600080fd5b505af115801561170d573d6000803e3d6000fd5b505050506040513d601f19601f8201168201806040525081019061173191906121a5565b611767576040517f08c379a00000000000000000000000000000000000000000000000000000000081526004016101da90612412565b73ffffffffffffffffffffffffffffffffffffffff81166323b872dd338561178f868961213e565b6040518463ffffffff1660e01b81526004016117ad939291906122a4565b602060405180830381600087803b1580156117c757600080fd5b505af11580156117db573d6000803e3d6000fd5b505050506040513d601f19601f820116820180604052508101906117ff91906121a5565b611835576040517f08c379a00000000000000000000000000000000000000000000000000000000081526004016101da906123b5565b50505050565b60008054906101000a900473ffffffffffffffffffffffffffffffffffffffff1673ffffffffffffffffffffffffffffffffffffffff1663ef5f63866040518163ffffffff1660e01b815260040160206040518083038186803b1580156118a157600080fd5b505afa1580156118b5573d6000803e3d6000fd5b505050506040513d601f19601f820116820180604052508101906118d99190612151565b73ffffffffffffffffffffffffffffffffffffffff163373ffffffffffffffffffffffffffffffffffffffff161461193d576040517f08c379a00000000000000000000000000000000000000000000000000000000081526004016101da9061246f565b60008060009054906101000a900473ffffffffffffffffffffffffffffffffffffffff1673ffffffffffffffffffffffffffffffffffffffff1663e272981b6040518163ffffffff1660e01b815260040160206040518083038186803b1580156119a657600080fd5b505afa1580156119ba573d6000803e3d6000fd5b505050506040513d601f19601f820116820180604052508101906119de9190612151565b73ffffffffffffffffffffffffffffffffffffffff16633c1fa065846040518263ffffffff1660e01b8152600401611a16919061223e565b60206040518083038186803b158015611a2e57600080fd5b505afa158015611a42573d6000803e3d6000fd5b505050506040513d601f19601f82011682018060405250810190611a669190612151565b905060008060009054906101000a900473ffffffffffffffffffffffffffffffffffffffff1673ffffffffffffffffffffffffffffffffffffffff1663e272981b6040518163ffffffff1660e01b815260040160206040518083038186803b158015611ad157600080fd5b505afa158015611ae5573d6000803e3d6000fd5b505050506040513d601f19601f82011682018060405250810190611b099190612151565b73ffffffffffffffffffffffffffffffffffffffff1663d4f70f9e856040518263ffffffff1660e01b8152600401611b41919061223e565b60206040518083038186803b158015611b5957600080fd5b505afa158015611b6d573d6000803e3d6000fd5b505050506040513d601f19601f82011682018060405250810190611b9191906121c1565b905060008060009054906101000a900473ffffffffffffffffffffffffffffffffffffffff1673ffffffffffffffffffffffffffffffffffffffff1663e272981b6040518163ffffffff1660e01b815260040160206040518083038186803b158015611bfc57600080fd5b505afa158015611c10573d6000803e3d6000fd5b505050506040513d601f19601f82011682018060405250810190611c349190612151565b73ffffffffffffffffffffffffffffffffffffffff1663c5150fb8866040518263ffffffff1660e01b8152600401611c6c919061223e565b60206040518083038186803b158015611c8457600080fd5b505afa158015611c98573d6000803e3d6000fd5b505050506040513d601f19601f82011682018060405250810190611cbc91906121c1565b905060008060009054906101000a900473ffffffffffffffffffffffffffffffffffffffff1673ffffffffffffffffffffffffffffffffffffffff1663e272981b6040518163ffffffff1660e01b815260040160206040518083038186803b158015611d2757600080fd5b505afa158015611d3b573d6000803e3d6000fd5b505050506040513d601f19601f82011682018060405250810190611d5f9190612151565b73ffffffffffffffffffffffffffffffffffffffff1663ccab283c876040518263ffffffff1660e01b8152600401611d97919061223e565b60206040518083038186803b158015611daf57600080fd5b505afa158015611dc3573d6000803e3d6000fd5b505050506040513d601f19601f82011682018060405250810190611de79190612151565b6040517f095ea7b300000000000000000000000000000000000000000000000000000000815290915073ffffffffffffffffffffffffffffffffffffffff85169063095ea7b390611e3e90309087906004016122d5565b602060405180830381600087803b158015611e5857600080fd5b505af1158015611e6c573d6000803e3d6000fd5b505050506040513d601f19601f82011682018060405250810190611e9091906121a5565b611ec6576040517f08c379a00000000000000000000000000000000000000000000000000000000081526004016101da90612358565b6040517f23b872dd00000000000000000000000000000000000000000000000000000000815273ffffffffffffffffffffffffffffffffffffffff8516906323b872dd90611f1c9033908a9088906004016122a4565b602060405180830381600087803b158015611f3657600080fd5b505af1158015611f4a573d6000803e3d6000fd5b505050506040513d601f19601f82011682018060405250810190611f6e91906121a5565b611fa4576040517f08c379a00000000000000000000000000000000000000000000000000000000081526004016101da906123b5565b60008054906101000a900473ffffffffffffffffffffffffffffffffffffffff1673ffffffffffffffffffffffffffffffffffffffff16634f5843426040518163ffffffff1660e01b815260040160206040518083038186803b15801561200a57600080fd5b505afa15801561201e573d6000803e3d6000fd5b505050506040513d601f19601f820116820180604052508101906120429190612151565b73ffffffffffffffffffffffffffffffffffffffff166366b701b18260008054906101000a900473ffffffffffffffffffffffffffffffffffffffff1673ffffffffffffffffffffffffffffffffffffffff1663cb1048ff6040518163ffffffff1660e01b815260040160206040518083038186803b1580156120c457600080fd5b505afa1580156120d8573d6000803e3d6000fd5b505050506040513d601f19601f820116820180604052508101906120fc9190612151565b888b8760006040518763ffffffff1660e01b81526004016111959695949392919061225f565b60005473ffffffffffffffffffffffffffffffffffffffff1681565b600061214a82846124cc565b9392505050565b600060208284031215612162578081fd5b815161214a81612508565b6000806040838503121561217f578081fd5b823561218a81612508565b9150602083013561219a8161252d565b809150509250929050565b6000602082840312156121b6578081fd5b815161214a8161252d565b6000602082840312156121d2578081fd5b5051919050565b600080604083850312156121eb578182fd5b82359150602083013561219a81612508565b600080600060608486031215612211578081fd5b83359250602084013561222381612508565b915060408401356122338161252d565b809150509250925092565b73ffffffffffffffffffffffffffffffffffffffff91909116815260200190565b73ffffffffffffffffffffffffffffffffffffffff9687168152948616602086015292151560408501526060840191909152608083015290911660a082015260c00190565b73ffffffffffffffffffffffffffffffffffffffff9384168152919092166020820152604081019190915260600190565b73ffffffffffffffffffffffffffffffffffffffff929092168252602082015260400190565b60208082526027908201527f6f6e6c7920746865204f72646572536574746c657220636f6e7472616374206360408201527f616e2063616c6c00000000000000000000000000000000000000000000000000606082015260800190565b60208082526026908201527f4f726465725472616e7366657220636f6e747261637420617070726f76616c2060408201527f6661696c65640000000000000000000000000000000000000000000000000000606082015260800190565b60208082526028908201527f63726561746f7220746f206f726465722062616c616e6365207472616e73666560408201527f72206661696c6564000000000000000000000000000000000000000000000000606082015260800190565b60208082526027908201527f63726561746f7220746f207374616b6572732064466565207472616e7366657260408201527f206661696c656400000000000000000000000000000000000000000000000000606082015260800190565b60208082526027908201527f6f6e6c7920746865204f7264657243726561746f7220636f6e7472616374206360408201527f616e2063616c6c00000000000000000000000000000000000000000000000000606082015260800190565b600082821015612503577f4e487b710000000000000000000000000000000000000000000000000000000081526011600452602481fd5b500390565b73ffffffffffffffffffffffffffffffffffffffff8116811461252a57600080fd5b50565b801515811461252a57600080fdfea26469706673582212205cdf0e62d7738cc82b2e47c6bc3997ce5ac4fd66f827c0206a1d984abbe9a30c64736f6c63430008000033",
  "immutableReferences": {},
  "source": "/*                              $$\\                                             $$\\                                                         \n                                $$ |                                            $$ |                                                  \n$$$$$$$\\   $$$$$$\\   $$$$$$$\\ $$$$$$\\   $$\\   $$\\  $$$$$$\\  $$$$$$$\\   $$$$$$\\  $$ |     \n$$  __$$\\ $$  __$$\\ $$  _____|\\_$$  _|  $$ |  $$ |$$  __$$\\ $$  __$$\\  \\____$$\\ $$ |    \n$$ |  $$ |$$ /  $$ |$$ /        $$ |    $$ |  $$ |$$ |  \\__|$$ |  $$ | $$$$$$$ |$$ |     \n$$ |  $$ |$$ |  $$ |$$ |        $$ |$$\\ $$ |  $$ |$$ |      $$ |  $$ |$$  __$$ |$$ |     \n$$ |  $$ |\\$$$$$$  |\\$$$$$$$\\   \\$$$$  |\\$$$$$$  |$$ |      $$ |  $$ |\\$$$$$$$ |$$ |      \n\\__|  \\__| \\______/  \\_______|   \\____/  \\______/ \\__|      \\__|  \\__| \\_______|\\__|     \n*/\n\npragma solidity ^0.8.0;\n\nimport \"@openzeppelin/contracts/token/ERC20/IERC20.sol\";\nimport \"@openzeppelin/contracts/utils/math/SafeMath.sol\";\nimport {NocturnalFinanceInterface} from \"./Interfaces/NocturnalFinanceInterface.sol\";\nimport {OrderInterface} from \"./Interfaces/OrderInterface.sol\";\nimport {OrderCreatorInterface} from \"./Interfaces/OrderCreatorInterface.sol\";\nimport {OrderSettlerInterface} from \"./Interfaces/OrderSettlerInterface.sol\";\nimport {OrderFactoryInterface} from \"./Interfaces/OrderFactoryInterface.sol\";\n\ncontract OrderTransfer {\n    using SafeMath for uint256;\n    \n    NocturnalFinanceInterface public nocturnalFinance;\n    \n    constructor(address _nocturnalFinance) {\n        nocturnalFinance = NocturnalFinanceInterface(_nocturnalFinance);\n    }\n    \n    function fromWETHCreate(uint256 dFee, address orderAddress) external {\n        require(msg.sender == nocturnalFinance.orderCreatorAddress(), \"only the OrderCreator contract can call\");\n        uint256 swapFromBalance = OrderFactoryInterface(nocturnalFinance.orderFactoryAddress()).swapFromTokenBalance(orderAddress);\n        address swapFromTokenAddress = OrderFactoryInterface(nocturnalFinance.orderFactoryAddress()).swapFromTokenAddress(orderAddress);\n        \n        // 2)  If fromToken is WETH, transfer dFee WETH to Staking.sol then Transfer fromTokenBalance-dFee fromToken to order\n        // must first obtain approval from msg.sender to transfer WETH to staking.sol and to order contract\n        require(IERC20(swapFromTokenAddress).approve(address(this), swapFromBalance), \"OrderTransfer contract approval failed\");\n        require(IERC20(swapFromTokenAddress).transferFrom(msg.sender, nocturnalFinance.sNoctAddress(), dFee), \"creator to stakers dFee transfer failed\");\n        require(IERC20(swapFromTokenAddress).transferFrom(msg.sender, orderAddress, swapFromBalance.sub(dFee)), \"creator to order balance transfer failed\");\n    }\n    \n    function toWETHCreate(uint256 dFee, address orderAddress, bool fromToken0) external {\n        require(msg.sender == nocturnalFinance.orderCreatorAddress(), \"only the OrderCreator contract can call\");\n        address swapFromTokenAddress = OrderFactoryInterface(nocturnalFinance.orderFactoryAddress()).swapFromTokenAddress(orderAddress);\n        uint256 swapFromBalance = OrderFactoryInterface(nocturnalFinance.orderFactoryAddress()).swapFromTokenBalance(orderAddress);\n        uint256 swapSlippage = OrderFactoryInterface(nocturnalFinance.orderFactoryAddress()).swapSlippage(orderAddress);\n        address swapPoolAddress = OrderFactoryInterface(nocturnalFinance.orderFactoryAddress()).swapPoolAddress(orderAddress);\n        \n        // 3)  If toToken is WETH, Transfer fromTokenBalance fromToken to order, then swap dFee for WETH and send it to Staking.sol \n        require(IERC20(swapFromTokenAddress).approve(address(this), swapFromBalance), \"OrderTransfer contract approval failed\");\n        require(IERC20(swapFromTokenAddress).transferFrom(msg.sender, orderAddress, swapFromBalance), \"creator to order balance transfer failed\");\n        OrderInterface(nocturnalFinance.orderAddress()).orderSwap(swapPoolAddress, nocturnalFinance.sNoctAddress(), fromToken0, dFee, swapSlippage, 0);\n    }\n    \n    function fromWETHSettle(address _address, bool fromToken0) external {\n        require(msg.sender == nocturnalFinance.orderSettlerAddress(), \"only the OrderSettler contract can call\");\n        address fromTokenAddress = OrderFactoryInterface(nocturnalFinance.orderFactoryAddress()).swapFromTokenAddress(_address);\n        uint256 gratuity = OrderFactoryInterface(nocturnalFinance.orderFactoryAddress()).swapSettlementGratuity(_address);\n        address poolAddress = OrderFactoryInterface(nocturnalFinance.orderFactoryAddress()).swapPoolAddress(_address);\n        uint256 slippage = OrderFactoryInterface(nocturnalFinance.orderFactoryAddress()).swapSlippage(_address);\n        uint256 fromTokenBalance = OrderFactoryInterface(nocturnalFinance.orderFactoryAddress()).swapFromTokenBalance(_address);\n        \n        OrderInterface(nocturnalFinance.orderAddress()).transferOrder(fromTokenAddress, msg.sender, gratuity);            \n        OrderInterface(nocturnalFinance.orderAddress()).orderSwap(poolAddress, _address, fromToken0, slippage, fromTokenBalance.sub(gratuity), 0);  \n    }\n\n    function toWETHSettle(address _address, bool fromToken0) external {\n        require(msg.sender == nocturnalFinance.orderSettlerAddress(), \"only the OrderSettler contract can call\");\n        uint256 gratuity = OrderFactoryInterface(nocturnalFinance.orderFactoryAddress()).swapSettlementGratuity(_address);\n        address poolAddress = OrderFactoryInterface(nocturnalFinance.orderFactoryAddress()).swapPoolAddress(_address);\n        uint256 slippage = OrderFactoryInterface(nocturnalFinance.orderFactoryAddress()).swapSlippage(_address);\n        uint256 fromTokenBalance = OrderFactoryInterface(nocturnalFinance.orderFactoryAddress()).swapFromTokenBalance(_address);\n        \n        OrderInterface(nocturnalFinance.orderAddress()).orderSwap(poolAddress, msg.sender, fromToken0, slippage, gratuity, 0);\n        OrderInterface(nocturnalFinance.orderAddress()).orderSwap(poolAddress, _address, fromToken0, slippage, fromTokenBalance.sub(gratuity), 0);\n    }\n}\n",
  "sourcePath": "/Users/knott/Desktop/nocturnal/contracts/OrderTransfer.sol",
  "compiler": {
    "name": "solc",
    "version": "0.8.0+commit.c7dfd78e.Emscripten.clang"
  },
  "schemaVersion": "3.3.3",
  "updatedAt": "2021-05-20T06:19:55.972Z",
  "devdoc": {
    "kind": "dev",
    "methods": {},
    "version": 1
  },
  "userdoc": {
    "kind": "user",
    "methods": {},
    "version": 1
  }
}