{
  "contractName": "OrderSettler",
  "abi": [
    {
      "inputs": [
        {
          "internalType": "address",
          "name": "_nocturnalFinance",
          "type": "address"
        },
        {
          "internalType": "address",
          "name": "_WETH",
          "type": "address"
        }
      ],
      "stateMutability": "nonpayable",
      "type": "constructor"
    },
    {
      "anonymous": false,
      "inputs": [
        {
          "indexed": false,
          "internalType": "uint256",
          "name": "_orderID",
          "type": "uint256"
        },
        {
          "indexed": false,
          "internalType": "address",
          "name": "_orderAddress",
          "type": "address"
        },
        {
          "indexed": false,
          "internalType": "uint256",
          "name": "_settlementGratuity",
          "type": "uint256"
        }
      ],
      "name": "orderSettled",
      "type": "event"
    },
    {
      "anonymous": false,
      "inputs": [
        {
          "indexed": false,
          "internalType": "uint256",
          "name": "_volume",
          "type": "uint256"
        }
      ],
      "name": "platformVolumeUpdate",
      "type": "event"
    },
    {
      "inputs": [],
      "name": "nocturnalFinance",
      "outputs": [
        {
          "internalType": "contract NocturnalFinanceInterface",
          "name": "",
          "type": "address"
        }
      ],
      "stateMutability": "view",
      "type": "function"
    },
    {
      "inputs": [],
      "name": "platformVolume",
      "outputs": [
        {
          "internalType": "uint256",
          "name": "",
          "type": "uint256"
        }
      ],
      "stateMutability": "view",
      "type": "function"
    },
    {
      "inputs": [],
      "name": "pool",
      "outputs": [
        {
          "internalType": "contract IUniswapV3Pool",
          "name": "",
          "type": "address"
        }
      ],
      "stateMutability": "view",
      "type": "function"
    },
    {
      "inputs": [
        {
          "internalType": "address",
          "name": "_address",
          "type": "address"
        }
      ],
      "name": "settleLimitOrder",
      "outputs": [],
      "stateMutability": "nonpayable",
      "type": "function"
    }
  ],
  "bytecode": "0x60806040523480156200001157600080fd5b506040516200257538038062002575833981016040819052620000349162000083565b600280546001600160a01b039384166001600160a01b03199182161790915560018054929093169116179055620000ba565b80516001600160a01b03811681146200007e57600080fd5b919050565b6000806040838503121562000096578182fd5b620000a18362000066565b9150620000b16020840162000066565b90509250929050565b6124ab80620000ca6000396000f3fe608060405234801561001057600080fd5b506004361061004c5760003560e01c806316f0115b146100515780633043a3341461006f578063a2dcec5014610084578063ee64deab14610099575b600080fd5b6100596100a1565b604051610066919061226a565b60405180910390f35b61008261007d3660046121fa565b6100bd565b005b61008c611982565b6040516100669190612347565b610059611988565b60035473ffffffffffffffffffffffffffffffffffffffff1681565b600260009054906101000a900473ffffffffffffffffffffffffffffffffffffffff1673ffffffffffffffffffffffffffffffffffffffff1663e272981b6040518163ffffffff1660e01b815260040160206040518083038186803b15801561012557600080fd5b505afa158015610139573d6000803e3d6000fd5b505050506040513d601f19601f8201168201806040525081019061015d9190612216565b73ffffffffffffffffffffffffffffffffffffffff163373ffffffffffffffffffffffffffffffffffffffff16146101ca576040517f08c379a00000000000000000000000000000000000000000000000000000000081526004016101c190612310565b60405180910390fd5b600254604080517fe272981b000000000000000000000000000000000000000000000000000000008152905160009273ffffffffffffffffffffffffffffffffffffffff169163e272981b916004808301926020929190829003018186803b15801561023557600080fd5b505afa158015610249573d6000803e3d6000fd5b505050506040513d601f19601f8201168201806040525081019061026d9190612216565b73ffffffffffffffffffffffffffffffffffffffff166398ff8291836040518263ffffffff1660e01b81526004016102a5919061226a565b60206040518083038186803b1580156102bd57600080fd5b505afa1580156102d1573d6000803e3d6000fd5b505050506040513d601f19601f820116820180604052508101906102f59190612232565b90506000600260009054906101000a900473ffffffffffffffffffffffffffffffffffffffff1673ffffffffffffffffffffffffffffffffffffffff1663e272981b6040518163ffffffff1660e01b815260040160206040518083038186803b15801561036157600080fd5b505afa158015610375573d6000803e3d6000fd5b505050506040513d601f19601f820116820180604052508101906103999190612216565b73ffffffffffffffffffffffffffffffffffffffff1663d98bc88f846040518263ffffffff1660e01b81526004016103d1919061226a565b60206040518083038186803b1580156103e957600080fd5b505afa1580156103fd573d6000803e3d6000fd5b505050506040513d601f19601f820116820180604052508101906104219190612252565b90506000600260009054906101000a900473ffffffffffffffffffffffffffffffffffffffff1673ffffffffffffffffffffffffffffffffffffffff1663e272981b6040518163ffffffff1660e01b815260040160206040518083038186803b15801561048d57600080fd5b505afa1580156104a1573d6000803e3d6000fd5b505050506040513d601f19601f820116820180604052508101906104c59190612216565b73ffffffffffffffffffffffffffffffffffffffff16633c1fa065856040518263ffffffff1660e01b81526004016104fd919061226a565b60206040518083038186803b15801561051557600080fd5b505afa158015610529573d6000803e3d6000fd5b505050506040513d601f19601f8201168201806040525081019061054d9190612216565b90506000600260009054906101000a900473ffffffffffffffffffffffffffffffffffffffff1673ffffffffffffffffffffffffffffffffffffffff1663e272981b6040518163ffffffff1660e01b815260040160206040518083038186803b1580156105b957600080fd5b505afa1580156105cd573d6000803e3d6000fd5b505050506040513d601f19601f820116820180604052508101906105f19190612216565b73ffffffffffffffffffffffffffffffffffffffff1663ccab283c866040518263ffffffff1660e01b8152600401610629919061226a565b60206040518083038186803b15801561064157600080fd5b505afa158015610655573d6000803e3d6000fd5b505050506040513d601f19601f820116820180604052508101906106799190612216565b600380547fffffffffffffffffffffffff00000000000000000000000000000000000000001673ffffffffffffffffffffffffffffffffffffffff8381169190911791829055604080517f0dfe168100000000000000000000000000000000000000000000000000000000815290519394506000938683169390921691630dfe168191600480820192602092909190829003018186803b15801561071c57600080fd5b505afa158015610730573d6000803e3d6000fd5b505050506040513d601f19601f820116820180604052508101906107549190612216565b73ffffffffffffffffffffffffffffffffffffffff16141561089f57600260009054906101000a900473ffffffffffffffffffffffffffffffffffffffff1673ffffffffffffffffffffffffffffffffffffffff1663a89ae4ba6040518163ffffffff1660e01b815260040160206040518083038186803b1580156107d857600080fd5b505afa1580156107ec573d6000803e3d6000fd5b505050506040513d601f19601f820116820180604052508101906108109190612216565b73ffffffffffffffffffffffffffffffffffffffff166384cc315b876040518263ffffffff1660e01b8152600401610848919061226a565b60206040518083038186803b15801561086057600080fd5b505afa158015610874573d6000803e3d6000fd5b505050506040513d601f19601f820116820180604052508101906108989190612252565b9050610af4565b600260009054906101000a900473ffffffffffffffffffffffffffffffffffffffff1673ffffffffffffffffffffffffffffffffffffffff1663a89ae4ba6040518163ffffffff1660e01b815260040160206040518083038186803b15801561090757600080fd5b505afa15801561091b573d6000803e3d6000fd5b505050506040513d601f19601f8201168201806040525081019061093f9190612216565b73ffffffffffffffffffffffffffffffffffffffff166384cc315b876040518263ffffffff1660e01b8152600401610977919061226a565b60206040518083038186803b15801561098f57600080fd5b505afa1580156109a3573d6000803e3d6000fd5b505050506040513d601f19601f820116820180604052508101906109c79190612252565b9050600260009054906101000a900473ffffffffffffffffffffffffffffffffffffffff1673ffffffffffffffffffffffffffffffffffffffff1663a89ae4ba6040518163ffffffff1660e01b815260040160206040518083038186803b158015610a3157600080fd5b505afa158015610a45573d6000803e3d6000fd5b505050506040513d601f19601f82011682018060405250810190610a699190612216565b73ffffffffffffffffffffffffffffffffffffffff166332ce25c1826040518263ffffffff1660e01b8152600401610aa19190612347565b60206040518083038186803b158015610ab957600080fd5b505afa158015610acd573d6000803e3d6000fd5b505050506040513d601f19601f82011682018060405250810190610af19190612252565b90505b60018515151415610b3e5783811015610b39576040517f08c379a00000000000000000000000000000000000000000000000000000000081526004016101c1906122d9565b610b7d565b84610b7d5783811115610b7d576040517f08c379a00000000000000000000000000000000000000000000000000000000081526004016101c1906122d9565b600254604080517fe272981b000000000000000000000000000000000000000000000000000000008152905160009273ffffffffffffffffffffffffffffffffffffffff169163e272981b916004808301926020929190829003018186803b158015610be857600080fd5b505afa158015610bfc573d6000803e3d6000fd5b505050506040513d601f19601f82011682018060405250810190610c209190612216565b73ffffffffffffffffffffffffffffffffffffffff1663d4f70f9e886040518263ffffffff1660e01b8152600401610c58919061226a565b60206040518083038186803b158015610c7057600080fd5b505afa158015610c84573d6000803e3d6000fd5b505050506040513d601f19601f82011682018060405250810190610ca89190612252565b90506000600260009054906101000a900473ffffffffffffffffffffffffffffffffffffffff1673ffffffffffffffffffffffffffffffffffffffff1663e272981b6040518163ffffffff1660e01b815260040160206040518083038186803b158015610d1457600080fd5b505afa158015610d28573d6000803e3d6000fd5b505050506040513d601f19601f82011682018060405250810190610d4c9190612216565b73ffffffffffffffffffffffffffffffffffffffff1663b3319595896040518263ffffffff1660e01b8152600401610d84919061226a565b60206040518083038186803b158015610d9c57600080fd5b505afa158015610db0573d6000803e3d6000fd5b505050506040513d601f19601f82011682018060405250810190610dd49190612252565b90506000600260009054906101000a900473ffffffffffffffffffffffffffffffffffffffff1673ffffffffffffffffffffffffffffffffffffffff16634f5843426040518163ffffffff1660e01b815260040160206040518083038186803b158015610e4057600080fd5b505afa158015610e54573d6000803e3d6000fd5b505050506040513d601f19601f82011682018060405250810190610e789190612216565b73ffffffffffffffffffffffffffffffffffffffff16636352211e600260009054906101000a900473ffffffffffffffffffffffffffffffffffffffff1673ffffffffffffffffffffffffffffffffffffffff1663e272981b6040518163ffffffff1660e01b815260040160206040518083038186803b158015610efb57600080fd5b505afa158015610f0f573d6000803e3d6000fd5b505050506040513d601f19601f82011682018060405250810190610f339190612216565b73ffffffffffffffffffffffffffffffffffffffff1663bd5de4be8c6040518263ffffffff1660e01b8152600401610f6b919061226a565b60206040518083038186803b158015610f8357600080fd5b505afa158015610f97573d6000803e3d6000fd5b505050506040513d601f19601f82011682018060405250810190610fbb9190612252565b6040518263ffffffff1660e01b8152600401610fd79190612347565b60206040518083038186803b158015610fef57600080fd5b505afa158015611003573d6000803e3d6000fd5b505050506040513d601f19601f820116820180604052508101906110279190612216565b90506000600260009054906101000a900473ffffffffffffffffffffffffffffffffffffffff1673ffffffffffffffffffffffffffffffffffffffff1663e272981b6040518163ffffffff1660e01b815260040160206040518083038186803b15801561109357600080fd5b505afa1580156110a7573d6000803e3d6000fd5b505050506040513d601f19601f820116820180604052508101906110cb9190612216565b73ffffffffffffffffffffffffffffffffffffffff1663d2d536198b6040518263ffffffff1660e01b8152600401611103919061226a565b60206040518083038186803b15801561111b57600080fd5b505afa15801561112f573d6000803e3d6000fd5b505050506040513d601f19601f820116820180604052508101906111539190612252565b9050600061116d61271061116787876119a4565b906119b7565b905060008873ffffffffffffffffffffffffffffffffffffffff16600360009054906101000a900473ffffffffffffffffffffffffffffffffffffffff1673ffffffffffffffffffffffffffffffffffffffff16630dfe16816040518163ffffffff1660e01b815260040160206040518083038186803b1580156111f057600080fd5b505afa158015611204573d6000803e3d6000fd5b505050506040513d601f19601f820116820180604052508101906112289190612216565b73ffffffffffffffffffffffffffffffffffffffff16141561124c57506001611250565b5060005b60015473ffffffffffffffffffffffffffffffffffffffff8a81169116141561138457600260009054906101000a900473ffffffffffffffffffffffffffffffffffffffff1673ffffffffffffffffffffffffffffffffffffffff1663d9a555536040518163ffffffff1660e01b815260040160206040518083038186803b1580156112db57600080fd5b505afa1580156112ef573d6000803e3d6000fd5b505050506040513d601f19601f820116820180604052508101906113139190612216565b73ffffffffffffffffffffffffffffffffffffffff16634cfff56f8d836040518363ffffffff1660e01b815260040161134d92919061228b565b600060405180830381600087803b15801561136757600080fd5b505af115801561137b573d6000803e3d6000fd5b50505050611491565b600260009054906101000a900473ffffffffffffffffffffffffffffffffffffffff1673ffffffffffffffffffffffffffffffffffffffff1663d9a555536040518163ffffffff1660e01b815260040160206040518083038186803b1580156113ec57600080fd5b505afa158015611400573d6000803e3d6000fd5b505050506040513d601f19601f820116820180604052508101906114249190612216565b73ffffffffffffffffffffffffffffffffffffffff166331de94ce8d836040518363ffffffff1660e01b815260040161145e92919061228b565b600060405180830381600087803b15801561147857600080fd5b505af115801561148c573d6000803e3d6000fd5b505050505b600260009054906101000a900473ffffffffffffffffffffffffffffffffffffffff1673ffffffffffffffffffffffffffffffffffffffff1663e272981b6040518163ffffffff1660e01b815260040160206040518083038186803b1580156114f957600080fd5b505afa15801561150d573d6000803e3d6000fd5b505050506040513d601f19601f820116820180604052508101906115319190612216565b73ffffffffffffffffffffffffffffffffffffffff16636053c1d38d61155789866119c3565b6040518363ffffffff1660e01b81526004016115749291906122b3565b600060405180830381600087803b15801561158e57600080fd5b505af11580156115a2573d6000803e3d6000fd5b50505050600260009054906101000a900473ffffffffffffffffffffffffffffffffffffffff1673ffffffffffffffffffffffffffffffffffffffff1663e272981b6040518163ffffffff1660e01b815260040160206040518083038186803b15801561160e57600080fd5b505afa158015611622573d6000803e3d6000fd5b505050506040513d601f19601f820116820180604052508101906116469190612216565b73ffffffffffffffffffffffffffffffffffffffff1663a28897a58d60006040518363ffffffff1660e01b81526004016116819291906122b3565b600060405180830381600087803b15801561169b57600080fd5b505af11580156116af573d6000803e3d6000fd5b50505050600260009054906101000a900473ffffffffffffffffffffffffffffffffffffffff1673ffffffffffffffffffffffffffffffffffffffff1663e272981b6040518163ffffffff1660e01b815260040160206040518083038186803b15801561171b57600080fd5b505afa15801561172f573d6000803e3d6000fd5b505050506040513d601f19601f820116820180604052508101906117539190612216565b73ffffffffffffffffffffffffffffffffffffffff16635c3d56f88d60016040518363ffffffff1660e01b815260040161178e92919061228b565b600060405180830381600087803b1580156117a857600080fd5b505af11580156117bc573d6000803e3d6000fd5b505050506117ca83856119cf565b6000546117d790846121ee565b50600254604080517fe272981b00000000000000000000000000000000000000000000000000000000815290517fda57d47865c8e0f5ada5a47a9ad3b1ed6f8a98c32998963da4c34505379f42919273ffffffffffffffffffffffffffffffffffffffff169163e272981b916004808301926020929190829003018186803b15801561186257600080fd5b505afa158015611876573d6000803e3d6000fd5b505050506040513d601f19601f8201168201806040525081019061189a9190612216565b73ffffffffffffffffffffffffffffffffffffffff1663bd5de4be8e6040518263ffffffff1660e01b81526004016118d2919061226a565b60206040518083038186803b1580156118ea57600080fd5b505afa1580156118fe573d6000803e3d6000fd5b505050506040513d601f19601f820116820180604052508101906119229190612252565b8d8760405161193393929190612350565b60405180910390a17f6f356b318c44fad508346fa20753a2d70d2c74e03cbef142a911648f5445160060005460405161196c9190612347565b60405180910390a1505050505050505050505050565b60005481565b60025473ffffffffffffffffffffffffffffffffffffffff1681565b60006119b082846123cd565b9392505050565b60006119b08284612394565b60006119b0828461240a565b600254604080517fc0973eed000000000000000000000000000000000000000000000000000000008152905160009273ffffffffffffffffffffffffffffffffffffffff169163c0973eed916004808301926020929190829003018186803b158015611a3a57600080fd5b505afa158015611a4e573d6000803e3d6000fd5b505050506040513d601f19601f82011682018060405250810190611a729190612216565b73ffffffffffffffffffffffffffffffffffffffff1663b7d142e5846040518263ffffffff1660e01b8152600401611aaa9190612347565b602060405180830381600087803b158015611ac457600080fd5b505af1158015611ad8573d6000803e3d6000fd5b505050506040513d601f19601f82011682018060405250810190611afc9190612252565b90506000611bb0612710611167600260009054906101000a900473ffffffffffffffffffffffffffffffffffffffff1673ffffffffffffffffffffffffffffffffffffffff16635d8ba5a16040518163ffffffff1660e01b815260040160206040518083038186803b158015611b7157600080fd5b505afa158015611b85573d6000803e3d6000fd5b505050506040513d601f19601f82011682018060405250810190611ba99190612252565b85906119a4565b9050611d8381600260009054906101000a900473ffffffffffffffffffffffffffffffffffffffff1673ffffffffffffffffffffffffffffffffffffffff1663c0973eed6040518163ffffffff1660e01b815260040160206040518083038186803b158015611c1e57600080fd5b505afa158015611c32573d6000803e3d6000fd5b505050506040513d601f19601f82011682018060405250810190611c569190612216565b73ffffffffffffffffffffffffffffffffffffffff1663949813b8600260009054906101000a900473ffffffffffffffffffffffffffffffffffffffff1673ffffffffffffffffffffffffffffffffffffffff1663c5f956af6040518163ffffffff1660e01b815260040160206040518083038186803b158015611cd957600080fd5b505afa158015611ced573d6000803e3d6000fd5b505050506040513d601f19601f82011682018060405250810190611d119190612216565b6040518263ffffffff1660e01b8152600401611d2d919061226a565b60206040518083038186803b158015611d4557600080fd5b505afa158015611d59573d6000803e3d6000fd5b505050506040513d601f19601f82011682018060405250810190611d7d9190612252565b906121ee565b50611e8381600260009054906101000a900473ffffffffffffffffffffffffffffffffffffffff1673ffffffffffffffffffffffffffffffffffffffff1663c0973eed6040518163ffffffff1660e01b815260040160206040518083038186803b158015611df057600080fd5b505afa158015611e04573d6000803e3d6000fd5b505050506040513d601f19601f82011682018060405250810190611e289190612216565b73ffffffffffffffffffffffffffffffffffffffff16630e15561a6040518163ffffffff1660e01b8152600401602060405180830381600087803b158015611e6f57600080fd5b505af1158015611d59573d6000803e3d6000fd5b50611e8e82826119c3565b91506000611f42612710611167600260009054906101000a900473ffffffffffffffffffffffffffffffffffffffff1673ffffffffffffffffffffffffffffffffffffffff16634369c2506040518163ffffffff1660e01b815260040160206040518083038186803b158015611f0357600080fd5b505afa158015611f17573d6000803e3d6000fd5b505050506040513d601f19601f82011682018060405250810190611f3b9190612252565b86906119a4565b905061202081600260009054906101000a900473ffffffffffffffffffffffffffffffffffffffff1673ffffffffffffffffffffffffffffffffffffffff1663c0973eed6040518163ffffffff1660e01b815260040160206040518083038186803b158015611fb057600080fd5b505afa158015611fc4573d6000803e3d6000fd5b505050506040513d601f19601f82011682018060405250810190611fe89190612216565b73ffffffffffffffffffffffffffffffffffffffff1663949813b8876040518263ffffffff1660e01b8152600401611d2d919061226a565b5061208d81600260009054906101000a900473ffffffffffffffffffffffffffffffffffffffff1673ffffffffffffffffffffffffffffffffffffffff1663c0973eed6040518163ffffffff1660e01b815260040160206040518083038186803b158015611df057600080fd5b50600061209a84836119c3565b905061217881600260009054906101000a900473ffffffffffffffffffffffffffffffffffffffff1673ffffffffffffffffffffffffffffffffffffffff1663c0973eed6040518163ffffffff1660e01b815260040160206040518083038186803b15801561210857600080fd5b505afa15801561211c573d6000803e3d6000fd5b505050506040513d601f19601f820116820180604052508101906121409190612216565b73ffffffffffffffffffffffffffffffffffffffff1663949813b8336040518263ffffffff1660e01b8152600401611d2d919061226a565b506121e581600260009054906101000a900473ffffffffffffffffffffffffffffffffffffffff1673ffffffffffffffffffffffffffffffffffffffff1663c0973eed6040518163ffffffff1660e01b815260040160206040518083038186803b158015611df057600080fd5b50505050505050565b60006119b0828461237c565b60006020828403121561220b578081fd5b81356119b081612450565b600060208284031215612227578081fd5b81516119b081612450565b600060208284031215612243578081fd5b815180151581146119b0578182fd5b600060208284031215612263578081fd5b5051919050565b73ffffffffffffffffffffffffffffffffffffffff91909116815260200190565b73ffffffffffffffffffffffffffffffffffffffff9290921682521515602082015260400190565b73ffffffffffffffffffffffffffffffffffffffff929092168252602082015260400190565b6020808252600d908201527f6c696d6974206e6f74206d657400000000000000000000000000000000000000604082015260600190565b6020808252601b908201527f63616c6c6572206973206e6f74206f7264657220666163746f72790000000000604082015260600190565b90815260200190565b92835273ffffffffffffffffffffffffffffffffffffffff919091166020830152604082015260600190565b6000821982111561238f5761238f612421565b500190565b6000826123c8577f4e487b710000000000000000000000000000000000000000000000000000000081526012600452602481fd5b500490565b6000817fffffffffffffffffffffffffffffffffffffffffffffffffffffffffffffffff048311821515161561240557612405612421565b500290565b60008282101561241c5761241c612421565b500390565b7f4e487b7100000000000000000000000000000000000000000000000000000000600052601160045260246000fd5b73ffffffffffffffffffffffffffffffffffffffff8116811461247257600080fd5b5056fea2646970667358221220916b49b9bf5e0b2984ec11736ad655b9b1698f0e72f801d1e9f69aea1b6b1bad64736f6c63430008000033",
  "immutableReferences": {},
  "source": "/*                              $$\\                                             $$\\                                                         \n                                $$ |                                            $$ |                                                  \n$$$$$$$\\   $$$$$$\\   $$$$$$$\\ $$$$$$\\   $$\\   $$\\  $$$$$$\\  $$$$$$$\\   $$$$$$\\  $$ |     \n$$  __$$\\ $$  __$$\\ $$  _____|\\_$$  _|  $$ |  $$ |$$  __$$\\ $$  __$$\\  \\____$$\\ $$ |    \n$$ |  $$ |$$ /  $$ |$$ /        $$ |    $$ |  $$ |$$ |  \\__|$$ |  $$ | $$$$$$$ |$$ |     \n$$ |  $$ |$$ |  $$ |$$ |        $$ |$$\\ $$ |  $$ |$$ |      $$ |  $$ |$$  __$$ |$$ |     \n$$ |  $$ |\\$$$$$$  |\\$$$$$$$\\   \\$$$$  |\\$$$$$$  |$$ |      $$ |  $$ |\\$$$$$$$ |$$ |      \n\\__|  \\__| \\______/  \\_______|   \\____/  \\______/ \\__|      \\__|  \\__| \\_______|\\__|     \n*/\n\npragma solidity ^0.8.0;\n\nimport \"@openzeppelin/contracts/utils/math/SafeMath.sol\";\nimport \"@uniswap/v3-core/contracts/interfaces/IUniswapV3Pool.sol\";\nimport {NocturnalFinanceInterface} from \"./Interfaces/NocturnalFinanceInterface.sol\";\nimport {NoctInterface} from \"./Interfaces/NoctInterface.sol\";\nimport {OracleInterface} from \"./Interfaces/OracleInterface.sol\";\nimport {OrderInterface} from \"./Interfaces/OrderInterface.sol\";\nimport {RewardsInterface} from \"./Interfaces/RewardsInterface.sol\";\nimport {OrderFactoryInterface} from \"./Interfaces/OrderFactoryInterface.sol\";\nimport {OrderTransferInterface} from \"./Interfaces/OrderTransferInterface.sol\";\n\ncontract OrderSettler {\n    using SafeMath for uint256;\n    \n    uint256 public platformVolume;\n    uint256 internal constant bPDivisor = 10000;  // 100th of a bip\n    address WETH; \n    \n    // may include all attributes in events\n    // someone may want to analyze trade data in future\n    event orderSettled(uint256 _orderID, address _orderAddress, uint256 _settlementGratuity);\n    event platformVolumeUpdate(uint256 _volume);\n    \n    NocturnalFinanceInterface public nocturnalFinance;\n    IUniswapV3Pool public pool;\n    \n    constructor(address _nocturnalFinance, address _WETH) {\n        nocturnalFinance = NocturnalFinanceInterface(_nocturnalFinance);\n        WETH = _WETH;\n    }\n    \n    function settleLimitOrder(address _address) external {\n        require(msg.sender == nocturnalFinance.orderFactoryAddress(), \"caller is not order factory\");\n        bool above = OrderFactoryInterface(nocturnalFinance.orderFactoryAddress()).swapAbove(_address);\n        uint256 limitPrice = OrderFactoryInterface(nocturnalFinance.orderFactoryAddress()).swapLimitPrice(_address);\n        address fromTokenAddress = OrderFactoryInterface(nocturnalFinance.orderFactoryAddress()).swapFromTokenAddress(_address);\n        address poolAddress = OrderFactoryInterface(nocturnalFinance.orderFactoryAddress()).swapPoolAddress(_address);\n        uint256 currentPrice;\n        pool = IUniswapV3Pool(poolAddress);\n        \n        // the value of the limit returned by front end \n        // is a function of token0 (fromToken or toToken)\n        if (pool.token0() == fromTokenAddress) {\n            currentPrice = OracleInterface(nocturnalFinance.oracleAddress()).getCurrentPrice(_address);\n        } else {\n            // obtain the reciprocal of below value\n            currentPrice = OracleInterface(nocturnalFinance.oracleAddress()).getCurrentPrice(_address);\n            currentPrice = OracleInterface(nocturnalFinance.oracleAddress()).getPriceReciprocal(currentPrice);\n        }\n        \n        if (above == true) {\n            require(currentPrice >= limitPrice, \"limit not met\");\n        } else if (above == false) {\n            require(currentPrice <= limitPrice, \"limit not met\");\n        }\n      \n        uint256 fromTokenBalance = OrderFactoryInterface(nocturnalFinance.orderFactoryAddress()).swapFromTokenBalance(_address);\n        uint256 settlementGratuity = OrderFactoryInterface(nocturnalFinance.orderFactoryAddress()).swapSettlementGratuity(_address);\n        address orderCreatorAddress = OrderInterface(nocturnalFinance.orderAddress()).ownerOf(OrderFactoryInterface(nocturnalFinance.orderFactoryAddress()).swapOrderID(_address));\n        uint256 sFTVIE = OrderFactoryInterface(nocturnalFinance.orderFactoryAddress()).swapFromTokenValueInETH(_address);\n        \n        // 1)  Calculate gratuity\n        uint256 gratuity = fromTokenBalance.mul(settlementGratuity).div(bPDivisor);\n        \n        bool fromToken0;\n        if (pool.token0() == fromTokenAddress) {\n            fromToken0 = true;\n        } else {\n            fromToken0 = false;\n        }\n        // 2)  If fromToken is WETH, deduct gratuity from WETH and send to settler before performing the swap\n        if (fromTokenAddress == WETH) {\n            OrderTransferInterface(nocturnalFinance.orderTransferAddress()).fromWETHSettle(_address, fromToken0);        \n        // 3)  If toToken is WETH, perform the swap and then deduct gratuity from WETH and send to settler\n        } else {\n            OrderTransferInterface(nocturnalFinance.orderTransferAddress()).toWETHSettle(_address, fromToken0);\n        }\n        // update Order toTokenBalance attribute for order closure\n        OrderFactoryInterface(nocturnalFinance.orderFactoryAddress()).setOrderToTokenBalance(_address, fromTokenBalance.sub(gratuity));\n        // update Order fromTokenBalance attribute for order closure\n        OrderFactoryInterface(nocturnalFinance.orderFactoryAddress()).setOrderFromTokenBalance(_address, 0);\n        // set swap settle flag to true\n        OrderFactoryInterface(nocturnalFinance.orderFactoryAddress()).setOrderSettledFlag(_address, true);            \n        // 4)  Distribute the NOCT rewards to the settler and the creator \n        distributeNOCTRewards(sFTVIE, orderCreatorAddress);\n        // increment platform volume tracker counter\n        platformVolume.add(sFTVIE);\n        // 6) emit events\n        emit orderSettled(OrderFactoryInterface(nocturnalFinance.orderFactoryAddress()).swapOrderID(_address), _address, settlementGratuity);\n        emit platformVolumeUpdate(platformVolume);\n    }\n\n    function distributeNOCTRewards(uint256 sFTVIE, address orderCreatorAddress) internal {\n        \n        uint256 totalRewards = RewardsInterface(nocturnalFinance.rewardsAddress()).calcRewards(sFTVIE);\n        \n        // distribute treasury rewards\n        uint256 treasuryRewards = totalRewards.mul(nocturnalFinance.treasuryFactor()).div(bPDivisor);\n        RewardsInterface(nocturnalFinance.rewardsAddress()).unclaimedRewards(nocturnalFinance.treasuryAddress()).add(treasuryRewards);\n        RewardsInterface(nocturnalFinance.rewardsAddress()).totalRewards().add(treasuryRewards);\n        \n        totalRewards = totalRewards.sub(treasuryRewards);\n    \n        // distribute creator rewards\n        uint256 creatorRewards = totalRewards.mul(nocturnalFinance.rewardsFactor()).div(bPDivisor);\n        RewardsInterface(nocturnalFinance.rewardsAddress()).unclaimedRewards(orderCreatorAddress).add(creatorRewards);\n        RewardsInterface(nocturnalFinance.rewardsAddress()).totalRewards().add(creatorRewards);\n        \n        // distribute settler rewards\n        uint256 settlerRewards = totalRewards.sub(creatorRewards);\n        RewardsInterface(nocturnalFinance.rewardsAddress()).unclaimedRewards(msg.sender).add(settlerRewards);\n        RewardsInterface(nocturnalFinance.rewardsAddress()).totalRewards().add(settlerRewards);\n        \n        \n    }\n}\n",
  "sourcePath": "/Users/knott/Desktop/nocturnal/contracts/OrderSettler.sol",
  "compiler": {
    "name": "solc",
    "version": "0.8.0+commit.c7dfd78e.Emscripten.clang"
  },
  "schemaVersion": "3.3.3",
  "updatedAt": "2021-05-20T06:19:55.964Z",
  "devdoc": {
    "kind": "dev",
    "methods": {},
    "version": 1
  },
  "userdoc": {
    "kind": "user",
    "methods": {},
    "version": 1
  }
}