{
  "contractName": "Order",
  "abi": [
    {
      "inputs": [
        {
          "internalType": "string",
          "name": "name_",
          "type": "string"
        },
        {
          "internalType": "string",
          "name": "symbol_",
          "type": "string"
        }
      ],
      "stateMutability": "nonpayable",
      "type": "constructor"
    },
    {
      "anonymous": false,
      "inputs": [
        {
          "indexed": true,
          "internalType": "address",
          "name": "owner",
          "type": "address"
        },
        {
          "indexed": true,
          "internalType": "address",
          "name": "approved",
          "type": "address"
        },
        {
          "indexed": true,
          "internalType": "uint256",
          "name": "tokenId",
          "type": "uint256"
        }
      ],
      "name": "Approval",
      "type": "event"
    },
    {
      "anonymous": false,
      "inputs": [
        {
          "indexed": true,
          "internalType": "address",
          "name": "owner",
          "type": "address"
        },
        {
          "indexed": true,
          "internalType": "address",
          "name": "operator",
          "type": "address"
        },
        {
          "indexed": false,
          "internalType": "bool",
          "name": "approved",
          "type": "bool"
        }
      ],
      "name": "ApprovalForAll",
      "type": "event"
    },
    {
      "anonymous": false,
      "inputs": [
        {
          "indexed": true,
          "internalType": "address",
          "name": "from",
          "type": "address"
        },
        {
          "indexed": true,
          "internalType": "address",
          "name": "to",
          "type": "address"
        },
        {
          "indexed": true,
          "internalType": "uint256",
          "name": "tokenId",
          "type": "uint256"
        }
      ],
      "name": "Transfer",
      "type": "event"
    },
    {
      "inputs": [],
      "name": "MAXINT",
      "outputs": [
        {
          "internalType": "uint256",
          "name": "",
          "type": "uint256"
        }
      ],
      "stateMutability": "view",
      "type": "function"
    },
    {
      "inputs": [],
      "name": "nocturnalFinance",
      "outputs": [
        {
          "internalType": "contract NocturnalFinanceInterface",
          "name": "",
          "type": "address"
        }
      ],
      "stateMutability": "view",
      "type": "function"
    },
    {
      "inputs": [],
      "name": "pool",
      "outputs": [
        {
          "internalType": "contract IUniswapV3Pool",
          "name": "",
          "type": "address"
        }
      ],
      "stateMutability": "view",
      "type": "function"
    },
    {
      "inputs": [],
      "name": "swapRouter",
      "outputs": [
        {
          "internalType": "contract ISwapRouter",
          "name": "",
          "type": "address"
        }
      ],
      "stateMutability": "view",
      "type": "function"
    },
    {
      "inputs": [
        {
          "internalType": "bytes4",
          "name": "interfaceId",
          "type": "bytes4"
        }
      ],
      "name": "supportsInterface",
      "outputs": [
        {
          "internalType": "bool",
          "name": "",
          "type": "bool"
        }
      ],
      "stateMutability": "view",
      "type": "function"
    },
    {
      "inputs": [
        {
          "internalType": "address",
          "name": "owner",
          "type": "address"
        }
      ],
      "name": "balanceOf",
      "outputs": [
        {
          "internalType": "uint256",
          "name": "",
          "type": "uint256"
        }
      ],
      "stateMutability": "view",
      "type": "function"
    },
    {
      "inputs": [
        {
          "internalType": "uint256",
          "name": "tokenId",
          "type": "uint256"
        }
      ],
      "name": "ownerOf",
      "outputs": [
        {
          "internalType": "address",
          "name": "",
          "type": "address"
        }
      ],
      "stateMutability": "view",
      "type": "function"
    },
    {
      "inputs": [],
      "name": "name",
      "outputs": [
        {
          "internalType": "string",
          "name": "",
          "type": "string"
        }
      ],
      "stateMutability": "view",
      "type": "function"
    },
    {
      "inputs": [],
      "name": "symbol",
      "outputs": [
        {
          "internalType": "string",
          "name": "",
          "type": "string"
        }
      ],
      "stateMutability": "view",
      "type": "function"
    },
    {
      "inputs": [
        {
          "internalType": "uint256",
          "name": "tokenId",
          "type": "uint256"
        }
      ],
      "name": "tokenURI",
      "outputs": [
        {
          "internalType": "string",
          "name": "",
          "type": "string"
        }
      ],
      "stateMutability": "view",
      "type": "function"
    },
    {
      "inputs": [
        {
          "internalType": "uint256",
          "name": "tokenId",
          "type": "uint256"
        },
        {
          "internalType": "string",
          "name": "_tokenURI",
          "type": "string"
        }
      ],
      "name": "_setTokenURI",
      "outputs": [],
      "stateMutability": "nonpayable",
      "type": "function"
    },
    {
      "inputs": [
        {
          "internalType": "address",
          "name": "to",
          "type": "address"
        },
        {
          "internalType": "uint256",
          "name": "tokenId",
          "type": "uint256"
        }
      ],
      "name": "approve",
      "outputs": [],
      "stateMutability": "nonpayable",
      "type": "function"
    },
    {
      "inputs": [
        {
          "internalType": "uint256",
          "name": "tokenId",
          "type": "uint256"
        }
      ],
      "name": "getApproved",
      "outputs": [
        {
          "internalType": "address",
          "name": "",
          "type": "address"
        }
      ],
      "stateMutability": "view",
      "type": "function"
    },
    {
      "inputs": [
        {
          "internalType": "address",
          "name": "operator",
          "type": "address"
        },
        {
          "internalType": "bool",
          "name": "approved",
          "type": "bool"
        }
      ],
      "name": "setApprovalForAll",
      "outputs": [],
      "stateMutability": "nonpayable",
      "type": "function"
    },
    {
      "inputs": [
        {
          "internalType": "address",
          "name": "owner",
          "type": "address"
        },
        {
          "internalType": "address",
          "name": "operator",
          "type": "address"
        }
      ],
      "name": "isApprovedForAll",
      "outputs": [
        {
          "internalType": "bool",
          "name": "",
          "type": "bool"
        }
      ],
      "stateMutability": "view",
      "type": "function"
    },
    {
      "inputs": [
        {
          "internalType": "address",
          "name": "from",
          "type": "address"
        },
        {
          "internalType": "address",
          "name": "to",
          "type": "address"
        },
        {
          "internalType": "uint256",
          "name": "tokenId",
          "type": "uint256"
        }
      ],
      "name": "transferFrom",
      "outputs": [],
      "stateMutability": "nonpayable",
      "type": "function"
    },
    {
      "inputs": [
        {
          "internalType": "address",
          "name": "from",
          "type": "address"
        },
        {
          "internalType": "address",
          "name": "to",
          "type": "address"
        },
        {
          "internalType": "uint256",
          "name": "tokenId",
          "type": "uint256"
        }
      ],
      "name": "safeTransferFrom",
      "outputs": [],
      "stateMutability": "nonpayable",
      "type": "function"
    },
    {
      "inputs": [
        {
          "internalType": "address",
          "name": "from",
          "type": "address"
        },
        {
          "internalType": "address",
          "name": "to",
          "type": "address"
        },
        {
          "internalType": "uint256",
          "name": "tokenId",
          "type": "uint256"
        },
        {
          "internalType": "bytes",
          "name": "_data",
          "type": "bytes"
        }
      ],
      "name": "safeTransferFrom",
      "outputs": [],
      "stateMutability": "nonpayable",
      "type": "function"
    },
    {
      "inputs": [
        {
          "internalType": "uint256",
          "name": "tokenId",
          "type": "uint256"
        }
      ],
      "name": "burn",
      "outputs": [],
      "stateMutability": "nonpayable",
      "type": "function"
    },
    {
      "inputs": [
        {
          "internalType": "address",
          "name": "_tokenAddress",
          "type": "address"
        },
        {
          "internalType": "address",
          "name": "_recipientAddress",
          "type": "address"
        },
        {
          "internalType": "uint256",
          "name": "_amount",
          "type": "uint256"
        }
      ],
      "name": "transferOrder",
      "outputs": [],
      "stateMutability": "nonpayable",
      "type": "function"
    },
    {
      "inputs": [
        {
          "internalType": "address",
          "name": "_pool",
          "type": "address"
        },
        {
          "internalType": "address",
          "name": "_recipient",
          "type": "address"
        },
        {
          "internalType": "bool",
          "name": "_fromToken0",
          "type": "bool"
        },
        {
          "internalType": "uint256",
          "name": "_amount",
          "type": "uint256"
        },
        {
          "internalType": "uint256",
          "name": "_slippage",
          "type": "uint256"
        },
        {
          "internalType": "uint160",
          "name": "_sqrtPriceLimitX96",
          "type": "uint160"
        }
      ],
      "name": "orderSwap",
      "outputs": [
        {
          "internalType": "uint256",
          "name": "amountOut",
          "type": "uint256"
        }
      ],
      "stateMutability": "nonpayable",
      "type": "function"
    },
    {
      "inputs": [
        {
          "internalType": "uint256",
          "name": "tokenId",
          "type": "uint256"
        },
        {
          "internalType": "address",
          "name": "_tokenAddress",
          "type": "address"
        },
        {
          "internalType": "address",
          "name": "_recipientAddress",
          "type": "address"
        },
        {
          "internalType": "uint256",
          "name": "_amount",
          "type": "uint256"
        }
      ],
      "name": "closeOrder",
      "outputs": [],
      "stateMutability": "nonpayable",
      "type": "function"
    }
  ],
  "bytecode": "0x60a06040526000196080523480156200001757600080fd5b50604051620032b8380380620032b88339810160408190526200003a91620001e5565b81516200004f90600390602085019062000094565b5080516200006590600490602084019062000094565b5050600280546001600160a01b03191673bbca0ffbfe60f60071630a8c80bb6253dc9d6023179055506200029f565b828054620000a2906200024c565b90600052602060002090601f016020900481019282620000c6576000855562000111565b82601f10620000e157805160ff191683800117855562000111565b8280016001018555821562000111579182015b8281111562000111578251825591602001919060010190620000f4565b506200011f92915062000123565b5090565b5b808211156200011f576000815560010162000124565b600082601f8301126200014b578081fd5b81516001600160401b038082111562000168576200016862000289565b6040516020601f8401601f191682018101838111838210171562000190576200019062000289565b6040528382528584018101871015620001a7578485fd5b8492505b83831015620001ca5785830181015182840182015291820191620001ab565b83831115620001db57848185840101525b5095945050505050565b60008060408385031215620001f8578182fd5b82516001600160401b03808211156200020f578384fd5b6200021d868387016200013a565b9350602085015191508082111562000233578283fd5b5062000242858286016200013a565b9150509250929050565b6002810460018216806200026157607f821691505b602082108114156200028357634e487b7160e01b600052602260045260246000fd5b50919050565b634e487b7160e01b600052604160045260246000fd5b608051612ff6620002c2600039600081816105d20152611d430152612ff66000f3fe608060405234801561001057600080fd5b50600436106101825760003560e01c80636352211e116100d8578063a22cb4651161008c578063c87b56dd11610066578063c87b56dd146102f8578063e985e9c51461030b578063ee64deab1461031e57610182565b8063a22cb465146102ca578063b88d4fde146102dd578063c31c9c07146102f057610182565b806370a08231116100bd57806370a082311461029c5780638bcf4d71146102af57806395d89b41146102c257610182565b80636352211e1461027657806366b701b11461028957610182565b8063095ea7b31161013a5780633740876b116101145780633740876b1461023d57806342842e0e1461025057806342966c681461026357610182565b8063095ea7b31461020f57806316f0115b1461022257806323b872dd1461022a57610182565b806306fdde031161016b57806306fdde03146101c55780630763cf85146101da578063081812fc146101ef57610182565b8063015388681461018757806301ffc9a71461019c575b600080fd5b61019a610195366004612566565b610326565b005b6101af6101aa366004612494565b610494565b6040516101bc91906126c7565b60405180910390f35b6101cd61053e565b6040516101bc91906126d2565b6101e26105d0565b6040516101bc9190612dd6565b6102026101fd3660046124ef565b6105f4565b6040516101bc9190612637565b61019a61021d36600461244d565b61065e565b610202610759565b61019a610238366004612363565b610775565b61019a61024b36600461251f565b6107c7565b61019a61025e366004612363565b6109bb565b61019a6102713660046124ef565b6109d6565b6102026102843660046124ef565b610aeb565b6101e26102973660046122f4565b610b47565b6101e26102aa366004612284565b611166565b61019a6102bd366004612363565b6111de565b6101cd61149d565b61019a6102d8366004612420565b6114ac565b61019a6102eb3660046123a3565b6115e6565b610202611639565b6101cd6103063660046124ef565b611655565b6101af6103193660046122bc565b611786565b6102026117c1565b60008054906101000a900473ffffffffffffffffffffffffffffffffffffffff1673ffffffffffffffffffffffffffffffffffffffff1663ef5f63866040518163ffffffff1660e01b815260040160206040518083038186803b15801561038c57600080fd5b505afa1580156103a0573d6000803e3d6000fd5b505050506040513d601f19601f820116820180604052508101906103c491906122a0565b73ffffffffffffffffffffffffffffffffffffffff163373ffffffffffffffffffffffffffffffffffffffff1614610431576040517f08c379a000000000000000000000000000000000000000000000000000000000815260040161042890612859565b60405180910390fd5b61043a826117dd565b610470576040517f08c379a000000000000000000000000000000000000000000000000000000000815260040161042890612a61565b6000828152600960209081526040909120825161048f92840190612125565b505050565b60007fffffffff0000000000000000000000000000000000000000000000000000000082167f80ac58cd00000000000000000000000000000000000000000000000000000000148061052757507fffffffff0000000000000000000000000000000000000000000000000000000082167f5b5e139f00000000000000000000000000000000000000000000000000000000145b80610536575061053682611807565b90505b919050565b60606003805461054d90612eb0565b80601f016020809104026020016040519081016040528092919081815260200182805461057990612eb0565b80156105c65780601f1061059b576101008083540402835291602001916105c6565b820191906000526020600020905b8154815290600101906020018083116105a957829003601f168201915b5050505050905090565b7f000000000000000000000000000000000000000000000000000000000000000081565b60006105ff826117dd565b610635576040517f08c379a000000000000000000000000000000000000000000000000000000000815260040161042890612b1b565b5060009081526007602052604090205473ffffffffffffffffffffffffffffffffffffffff1690565b600061066982610aeb565b90508073ffffffffffffffffffffffffffffffffffffffff168373ffffffffffffffffffffffffffffffffffffffff1614156106d1576040517f08c379a000000000000000000000000000000000000000000000000000000000815260040161042890612c69565b8073ffffffffffffffffffffffffffffffffffffffff166106f0611851565b73ffffffffffffffffffffffffffffffffffffffff161480610719575061071981610319611851565b61074f576040517f08c379a0000000000000000000000000000000000000000000000000000000008152600401610428906126e5565b61048f8383611855565b60015473ffffffffffffffffffffffffffffffffffffffff1681565b610786610780611851565b826118f5565b6107bc576040517f08c379a000000000000000000000000000000000000000000000000000000000815260040161042890612cc6565b61048f8383836119c8565b60008054906101000a900473ffffffffffffffffffffffffffffffffffffffff1673ffffffffffffffffffffffffffffffffffffffff1663d81f3a5a6040518163ffffffff1660e01b815260040160206040518083038186803b15801561082d57600080fd5b505afa158015610841573d6000803e3d6000fd5b505050506040513d601f19601f8201168201806040525081019061086591906122a0565b73ffffffffffffffffffffffffffffffffffffffff16610883611851565b73ffffffffffffffffffffffffffffffffffffffff16146108d0576040517f08c379a000000000000000000000000000000000000000000000000000000000815260040161042890612d23565b6040517fa9059cbb00000000000000000000000000000000000000000000000000000000815273ffffffffffffffffffffffffffffffffffffffff84169063a9059cbb9061092490859085906004016126a1565b602060405180830381600087803b15801561093e57600080fd5b505af1158015610952573d6000803e3d6000fd5b505050506040513d601f19601f820116820180604052508101906109769190612478565b6109ac576040517f08c379a000000000000000000000000000000000000000000000000000000000815260040161042890612b78565b6109b584611b8f565b50505050565b61048f838383604051806020016040528060008152506115e6565b60008054906101000a900473ffffffffffffffffffffffffffffffffffffffff1673ffffffffffffffffffffffffffffffffffffffff1663d81f3a5a6040518163ffffffff1660e01b815260040160206040518083038186803b158015610a3c57600080fd5b505afa158015610a50573d6000803e3d6000fd5b505050506040513d601f19601f82011682018060405250810190610a7491906122a0565b73ffffffffffffffffffffffffffffffffffffffff16610a92611851565b73ffffffffffffffffffffffffffffffffffffffff1614610adf576040517f08c379a00000000000000000000000000000000000000000000000000000000081526004016104289061294a565b610ae881611b8f565b50565b60008181526005602052604081205473ffffffffffffffffffffffffffffffffffffffff1680610536576040517f08c379a000000000000000000000000000000000000000000000000000000000815260040161042890612a04565b60008060009054906101000a900473ffffffffffffffffffffffffffffffffffffffff1673ffffffffffffffffffffffffffffffffffffffff1663d9a555536040518163ffffffff1660e01b815260040160206040518083038186803b158015610bb057600080fd5b505afa158015610bc4573d6000803e3d6000fd5b505050506040513d601f19601f82011682018060405250810190610be891906122a0565b73ffffffffffffffffffffffffffffffffffffffff16610c06611851565b73ffffffffffffffffffffffffffffffffffffffff161480610cf7575060008054906101000a900473ffffffffffffffffffffffffffffffffffffffff1673ffffffffffffffffffffffffffffffffffffffff1663ef5f63866040518163ffffffff1660e01b815260040160206040518083038186803b158015610c8957600080fd5b505afa158015610c9d573d6000803e3d6000fd5b505050506040513d601f19601f82011682018060405250810190610cc191906122a0565b73ffffffffffffffffffffffffffffffffffffffff16610cdf611851565b73ffffffffffffffffffffffffffffffffffffffff16145b610d2d576040517f08c379a000000000000000000000000000000000000000000000000000000000815260040161042890612d23565b60008773ffffffffffffffffffffffffffffffffffffffff16630dfe16816040518163ffffffff1660e01b815260040160206040518083038186803b158015610d7557600080fd5b505afa158015610d89573d6000803e3d6000fd5b505050506040513d601f19601f82011682018060405250810190610dad91906122a0565b905060008873ffffffffffffffffffffffffffffffffffffffff1663d21220a76040518163ffffffff1660e01b815260040160206040518083038186803b158015610df757600080fd5b505afa158015610e0b573d6000803e3d6000fd5b505050506040513d601f19601f82011682018060405250810190610e2f91906122a0565b905060008973ffffffffffffffffffffffffffffffffffffffff1663ddca3f436040518163ffffffff1660e01b815260040160206040518083038186803b158015610e7957600080fd5b505afa158015610e8d573d6000803e3d6000fd5b505050506040513d601f19601f82011682018060405250810190610eb191906124cc565b905060008060008054906101000a900473ffffffffffffffffffffffffffffffffffffffff1673ffffffffffffffffffffffffffffffffffffffff1663a89ae4ba6040518163ffffffff1660e01b815260040160206040518083038186803b158015610f1c57600080fd5b505afa158015610f30573d6000803e3d6000fd5b505050506040513d601f19601f82011682018060405250810190610f5491906122a0565b73ffffffffffffffffffffffffffffffffffffffff166384cc315b8d6040518263ffffffff1660e01b8152600401610f8c9190612637565b60206040518083038186803b158015610fa457600080fd5b505afa158015610fb8573d6000803e3d6000fd5b505050506040513d601f19601f82011682018060405250810190610fdc9190612507565b905060008060009054906101000a900473ffffffffffffffffffffffffffffffffffffffff1673ffffffffffffffffffffffffffffffffffffffff1663a89ae4ba6040518163ffffffff1660e01b815260040160206040518083038186803b15801561104757600080fd5b505afa15801561105b573d6000803e3d6000fd5b505050506040513d601f19601f8201168201806040525081019061107f91906122a0565b73ffffffffffffffffffffffffffffffffffffffff166332ce25c1836040518263ffffffff1660e01b81526004016110b79190612dd6565b60206040518083038186803b1580156110cf57600080fd5b505afa1580156110e3573d6000803e3d6000fd5b505050506040513d601f19601f820116820180604052508101906111079190612507565b905060018b151514156111375761111f818b8b611c9e565b92506111308686868f8e888e611cde565b9650611156565b611142828b8b611c9e565b92506111538587868f8e888e611cde565b96505b5050505050509695505050505050565b600073ffffffffffffffffffffffffffffffffffffffff82166111b5576040517f08c379a0000000000000000000000000000000000000000000000000000000008152600401610428906129a7565b5073ffffffffffffffffffffffffffffffffffffffff1660009081526006602052604090205490565b60008054906101000a900473ffffffffffffffffffffffffffffffffffffffff1673ffffffffffffffffffffffffffffffffffffffff1663d9a555536040518163ffffffff1660e01b815260040160206040518083038186803b15801561124457600080fd5b505afa158015611258573d6000803e3d6000fd5b505050506040513d601f19601f8201168201806040525081019061127c91906122a0565b73ffffffffffffffffffffffffffffffffffffffff1661129a611851565b73ffffffffffffffffffffffffffffffffffffffff16148061138b575060008054906101000a900473ffffffffffffffffffffffffffffffffffffffff1673ffffffffffffffffffffffffffffffffffffffff1663ef5f63866040518163ffffffff1660e01b815260040160206040518083038186803b15801561131d57600080fd5b505afa158015611331573d6000803e3d6000fd5b505050506040513d601f19601f8201168201806040525081019061135591906122a0565b73ffffffffffffffffffffffffffffffffffffffff16611373611851565b73ffffffffffffffffffffffffffffffffffffffff16145b6113c1576040517f08c379a000000000000000000000000000000000000000000000000000000000815260040161042890612c0c565b6040517fa9059cbb00000000000000000000000000000000000000000000000000000000815273ffffffffffffffffffffffffffffffffffffffff84169063a9059cbb9061141590859085906004016126a1565b602060405180830381600087803b15801561142f57600080fd5b505af1158015611443573d6000803e3d6000fd5b505050506040513d601f19601f820116820180604052508101906114679190612478565b61048f576040517f08c379a000000000000000000000000000000000000000000000000000000000815260040161042890612b78565b60606004805461054d90612eb0565b6114b4611851565b73ffffffffffffffffffffffffffffffffffffffff168273ffffffffffffffffffffffffffffffffffffffff161415611519576040517f08c379a000000000000000000000000000000000000000000000000000000000815260040161042890612822565b8060086000611526611851565b73ffffffffffffffffffffffffffffffffffffffff90811682526020808301939093526040918201600090812091871680825291909352912080547fffffffffffffffffffffffffffffffffffffffffffffffffffffffffffffff001692151592909217909155611595611851565b73ffffffffffffffffffffffffffffffffffffffff167f17307eab39ab6107e8899845ad3d59bd9653f200f220920489ca2b5937696c31836040516115da91906126c7565b60405180910390a35050565b6115f76115f1611851565b836118f5565b61162d576040517f08c379a000000000000000000000000000000000000000000000000000000000815260040161042890612cc6565b6109b584848484611ef7565b60025473ffffffffffffffffffffffffffffffffffffffff1681565b6060611660826117dd565b611696576040517f08c379a000000000000000000000000000000000000000000000000000000000815260040161042890612abe565b600082815260096020526040812080546116af90612eb0565b80601f01602080910402602001604051908101604052809291908181526020018280546116db90612eb0565b80156117285780601f106116fd57610100808354040283529160200191611728565b820191906000526020600020905b81548152906001019060200180831161170b57829003601f168201915b505050505090506000611739611f44565b905080516000141561174d57509050610539565b81511561177f578082604051602001611767929190612608565b60405160208183030381529060405292505050610539565b5050919050565b73ffffffffffffffffffffffffffffffffffffffff918216600090815260086020908152604080832093909416825291909152205460ff1690565b60005473ffffffffffffffffffffffffffffffffffffffff1681565b60009081526005602052604090205473ffffffffffffffffffffffffffffffffffffffff16151590565b7fffffffff0000000000000000000000000000000000000000000000000000000081167f01ffc9a70000000000000000000000000000000000000000000000000000000014919050565b3390565b600081815260076020526040902080547fffffffffffffffffffffffff00000000000000000000000000000000000000001673ffffffffffffffffffffffffffffffffffffffff841690811790915581906118af82610aeb565b73ffffffffffffffffffffffffffffffffffffffff167f8c5be1e5ebec7d5bd14f71427d1e84f3dd0314c0f7b2291e5b200ac8c7c3b92560405160405180910390a45050565b6000611900826117dd565b611936576040517f08c379a0000000000000000000000000000000000000000000000000000000008152600401610428906128b6565b600061194183610aeb565b90508073ffffffffffffffffffffffffffffffffffffffff168473ffffffffffffffffffffffffffffffffffffffff1614806119b057508373ffffffffffffffffffffffffffffffffffffffff16611998846105f4565b73ffffffffffffffffffffffffffffffffffffffff16145b806119c057506119c08185611786565b949350505050565b8273ffffffffffffffffffffffffffffffffffffffff166119e882610aeb565b73ffffffffffffffffffffffffffffffffffffffff1614611a35576040517f08c379a000000000000000000000000000000000000000000000000000000000815260040161042890612baf565b73ffffffffffffffffffffffffffffffffffffffff8216611a82576040517f08c379a0000000000000000000000000000000000000000000000000000000008152600401610428906127c5565b611a8d83838361048f565b611a98600082611855565b73ffffffffffffffffffffffffffffffffffffffff83166000908152600660205260408120805460019290611ace908490612e6d565b909155505073ffffffffffffffffffffffffffffffffffffffff82166000908152600660205260408120805460019290611b09908490612ddf565b909155505060008181526005602052604080822080547fffffffffffffffffffffffff00000000000000000000000000000000000000001673ffffffffffffffffffffffffffffffffffffffff86811691821790925591518493918716917fddf252ad1be2c89b69c2b068fc378daa952ba7f163c4a11628f55a4df523b3ef91a4505050565b6000611b9a82610aeb565b9050611ba88160008461048f565b611bb3600083611855565b73ffffffffffffffffffffffffffffffffffffffff81166000908152600660205260408120805460019290611be9908490612e6d565b9091555050600082815260056020908152604080832080547fffffffffffffffffffffffff0000000000000000000000000000000000000000169055600990915290208054611c3790612eb0565b159050611c55576000828152600960205260408120611c55916121a9565b604051829060009073ffffffffffffffffffffffffffffffffffffffff8416907fddf252ad1be2c89b69c2b068fc378daa952ba7f163c4a11628f55a4df523b3ef908390a45050565b600080611cab8585611f56565b90506000611cc5612710611cbf8487611f56565b90611f69565b90506000611cd38383611f75565b979650505050505050565b6040517f095ea7b3000000000000000000000000000000000000000000000000000000008152600090889073ffffffffffffffffffffffffffffffffffffffff82169063095ea7b390611d6b9073bbca0ffbfe60f60071630a8c80bb6253dc9d6023907f0000000000000000000000000000000000000000000000000000000000000000906004016126a1565b602060405180830381600087803b158015611d8557600080fd5b505af1158015611d99573d6000803e3d6000fd5b505050506040513d601f19601f82011682018060405250810190611dbd9190612478565b611df3576040517f08c379a000000000000000000000000000000000000000000000000000000000815260040161042890612913565b600254604080516101008101825273ffffffffffffffffffffffffffffffffffffffff8c811682528b8116602083015262ffffff8b1692820192909252888216606082015291169063414bf3899060808101611e5142610258612ddf565b81526020018881526020018781526020018673ffffffffffffffffffffffffffffffffffffffff168152506040518263ffffffff1660e01b8152600401611e989190612d5a565b602060405180830381600087803b158015611eb257600080fd5b505af1158015611ec6573d6000803e3d6000fd5b505050506040513d601f19601f82011682018060405250810190611eea9190612507565b9998505050505050505050565b611f028484846119c8565b611f0e84848484611f81565b6109b5576040517f08c379a000000000000000000000000000000000000000000000000000000000815260040161042890612768565b60408051602081019091526000815290565b6000611f628284612e30565b9392505050565b6000611f628284612df7565b6000611f628284612e6d565b6000611fa28473ffffffffffffffffffffffffffffffffffffffff1661211f565b15612114578373ffffffffffffffffffffffffffffffffffffffff1663150b7a02611fcb611851565b8786866040518563ffffffff1660e01b8152600401611fed9493929190612658565b602060405180830381600087803b15801561200757600080fd5b505af1925050508015612055575060408051601f3d9081017fffffffffffffffffffffffffffffffffffffffffffffffffffffffffffffffe0168201909252612052918101906124b0565b60015b6120c9573d808015612083576040519150601f19603f3d011682016040523d82523d6000602084013e612088565b606091505b5080516120c1576040517f08c379a000000000000000000000000000000000000000000000000000000000815260040161042890612768565b805181602001fd5b7fffffffff00000000000000000000000000000000000000000000000000000000167f150b7a02000000000000000000000000000000000000000000000000000000001490506119c0565b506001949350505050565b3b151590565b82805461213190612eb0565b90600052602060002090601f0160209004810192826121535760008555612199565b82601f1061216c57805160ff1916838001178555612199565b82800160010185558215612199579182015b8281111561219957825182559160200191906001019061217e565b506121a59291506121e1565b5090565b5080546121b590612eb0565b6000825580601f106121c75750610ae8565b601f016020900490600052602060002090810190610ae891905b5b808211156121a557600081556001016121e2565b600067ffffffffffffffff8084111561221157612211612f33565b60405160207fffffffffffffffffffffffffffffffffffffffffffffffffffffffffffffffe0601f870116820101818110838211171561225357612253612f33565b60405284815291508183850186101561226b57600080fd5b8484602083013760006020868301015250509392505050565b600060208284031215612295578081fd5b8135611f6281612f62565b6000602082840312156122b1578081fd5b8151611f6281612f62565b600080604083850312156122ce578081fd5b82356122d981612f62565b915060208301356122e981612f62565b809150509250929050565b60008060008060008060c0878903121561230c578182fd5b863561231781612f62565b9550602087013561232781612f62565b9450604087013561233781612f84565b9350606087013592506080870135915060a087013561235581612f62565b809150509295509295509295565b600080600060608486031215612377578283fd5b833561238281612f62565b9250602084013561239281612f62565b929592945050506040919091013590565b600080600080608085870312156123b8578384fd5b84356123c381612f62565b935060208501356123d381612f62565b925060408501359150606085013567ffffffffffffffff8111156123f5578182fd5b8501601f81018713612405578182fd5b612414878235602084016121f6565b91505092959194509250565b60008060408385031215612432578182fd5b823561243d81612f62565b915060208301356122e981612f84565b6000806040838503121561245f578182fd5b823561246a81612f62565b946020939093013593505050565b600060208284031215612489578081fd5b8151611f6281612f84565b6000602082840312156124a5578081fd5b8135611f6281612f92565b6000602082840312156124c1578081fd5b8151611f6281612f92565b6000602082840312156124dd578081fd5b815162ffffff81168114611f62578182fd5b600060208284031215612500578081fd5b5035919050565b600060208284031215612518578081fd5b5051919050565b60008060008060808587031215612534578182fd5b84359350602085013561254681612f62565b9250604085013561255681612f62565b9396929550929360600135925050565b60008060408385031215612578578182fd5b82359150602083013567ffffffffffffffff811115612595578182fd5b8301601f810185136125a5578182fd5b6125b4858235602084016121f6565b9150509250929050565b600081518084526125d6816020860160208601612e84565b601f017fffffffffffffffffffffffffffffffffffffffffffffffffffffffffffffffe0169290920160200192915050565b6000835161261a818460208801612e84565b83519083019061262e818360208801612e84565b01949350505050565b73ffffffffffffffffffffffffffffffffffffffff91909116815260200190565b600073ffffffffffffffffffffffffffffffffffffffff80871683528086166020840152508360408301526080606083015261269760808301846125be565b9695505050505050565b73ffffffffffffffffffffffffffffffffffffffff929092168252602082015260400190565b901515815260200190565b600060208252611f6260208301846125be565b60208082526047908201527f4552433732313a20617070726f76652063616c6c6572206973206e6f74206f7760408201527f6e65722c206f72646572466163746f72792c206e6f7220617070726f7665642060608201527f666f7220616c6c00000000000000000000000000000000000000000000000000608082015260a00190565b60208082526032908201527f4552433732313a207472616e7366657220746f206e6f6e20455243373231526560408201527f63656976657220696d706c656d656e7465720000000000000000000000000000606082015260800190565b60208082526024908201527f4552433732313a207472616e7366657220746f20746865207a65726f2061646460408201527f7265737300000000000000000000000000000000000000000000000000000000606082015260800190565b60208082526019908201527f4552433732313a20617070726f766520746f2063616c6c657200000000000000604082015260600190565b6020808252602b908201527f746f6b656e55524920736574206279206f726465722063726561746f7220636f60408201527f6e7472616374206f6e6c79000000000000000000000000000000000000000000606082015260800190565b6020808252602c908201527f4552433732313a206f70657261746f7220717565727920666f72206e6f6e657860408201527f697374656e7420746f6b656e0000000000000000000000000000000000000000606082015260800190565b6020808252600e908201527f617070726f7665206661696c6564000000000000000000000000000000000000604082015260600190565b60208082526022908201527f63616c6c6572206973206e6f74204f72646572436c6f73657220636f6e74726160408201527f6374000000000000000000000000000000000000000000000000000000000000606082015260800190565b6020808252602a908201527f4552433732313a2062616c616e636520717565727920666f7220746865207a6560408201527f726f206164647265737300000000000000000000000000000000000000000000606082015260800190565b60208082526029908201527f4552433732313a206f776e657220717565727920666f72206e6f6e657869737460408201527f656e7420746f6b656e0000000000000000000000000000000000000000000000606082015260800190565b6020808252602e908201527f45524337323155524953746f726167653a2055524920736574206f66206e6f6e60408201527f6578697374656e7420746f6b656e000000000000000000000000000000000000606082015260800190565b60208082526031908201527f45524337323155524953746f726167653a2055524920717565727920666f722060408201527f6e6f6e6578697374656e7420746f6b656e000000000000000000000000000000606082015260800190565b6020808252602c908201527f4552433732313a20617070726f76656420717565727920666f72206e6f6e657860408201527f697374656e7420746f6b656e0000000000000000000000000000000000000000606082015260800190565b6020808252601c908201527f6f72646572207472616e7366657220616d6f756e74206661696c656400000000604082015260600190565b60208082526029908201527f4552433732313a207472616e73666572206f6620746f6b656e2074686174206960408201527f73206e6f74206f776e0000000000000000000000000000000000000000000000606082015260800190565b60208082526023908201527f63616c6c6572206973206e6f74204f72646572536574746c657220636f6e747260408201527f6163740000000000000000000000000000000000000000000000000000000000606082015260800190565b60208082526021908201527f4552433732313a20617070726f76616c20746f2063757272656e74206f776e6560408201527f7200000000000000000000000000000000000000000000000000000000000000606082015260800190565b60208082526031908201527f4552433732313a207472616e736665722063616c6c6572206973206e6f74206f60408201527f776e6572206e6f7220617070726f766564000000000000000000000000000000606082015260800190565b6020808252601b908201527f63616c6c6572206973206e6f74206f7264657220666163746f72790000000000604082015260600190565b60006101008201905073ffffffffffffffffffffffffffffffffffffffff80845116835280602085015116602084015262ffffff60408501511660408401528060608501511660608401526080840151608084015260a084015160a084015260c084015160c08401528060e08501511660e08401525092915050565b90815260200190565b60008219821115612df257612df2612f04565b500190565b600082612e2b577f4e487b710000000000000000000000000000000000000000000000000000000081526012600452602481fd5b500490565b6000817fffffffffffffffffffffffffffffffffffffffffffffffffffffffffffffffff0483118215151615612e6857612e68612f04565b500290565b600082821015612e7f57612e7f612f04565b500390565b60005b83811015612e9f578181015183820152602001612e87565b838111156109b55750506000910152565b600281046001821680612ec457607f821691505b60208210811415612efe577f4e487b7100000000000000000000000000000000000000000000000000000000600052602260045260246000fd5b50919050565b7f4e487b7100000000000000000000000000000000000000000000000000000000600052601160045260246000fd5b7f4e487b7100000000000000000000000000000000000000000000000000000000600052604160045260246000fd5b73ffffffffffffffffffffffffffffffffffffffff81168114610ae857600080fd5b8015158114610ae857600080fd5b7fffffffff0000000000000000000000000000000000000000000000000000000081168114610ae857600080fdfea26469706673582212203a77a6b5feeb6d7b8ad9f544ea27120e4a26c793838a074842ef718a27c0327264736f6c63430008000033",
  "immutableReferences": {
    "2141": [
      {
        "length": 32,
        "start": 1490
      },
      {
        "length": 32,
        "start": 7491
      }
    ]
  },
  "source": "/*                              $$\\                                             $$\\                                                         \n                                $$ |                                            $$ |                                                  \n$$$$$$$\\   $$$$$$\\   $$$$$$$\\ $$$$$$\\   $$\\   $$\\  $$$$$$\\  $$$$$$$\\   $$$$$$\\  $$ |     \n$$  __$$\\ $$  __$$\\ $$  _____|\\_$$  _|  $$ |  $$ |$$  __$$\\ $$  __$$\\  \\____$$\\ $$ |    \n$$ |  $$ |$$ /  $$ |$$ /        $$ |    $$ |  $$ |$$ |  \\__|$$ |  $$ | $$$$$$$ |$$ |     \n$$ |  $$ |$$ |  $$ |$$ |        $$ |$$\\ $$ |  $$ |$$ |      $$ |  $$ |$$  __$$ |$$ |     \n$$ |  $$ |\\$$$$$$  |\\$$$$$$$\\   \\$$$$  |\\$$$$$$  |$$ |      $$ |  $$ |\\$$$$$$$ |$$ |      \n\\__|  \\__| \\______/  \\_______|   \\____/  \\______/ \\__|      \\__|  \\__| \\_______|\\__|     \n*/\n\npragma solidity ^0.8.0;\n\nimport \"@openzeppelin/contracts/token/ERC721/IERC721.sol\";\nimport \"@openzeppelin/contracts/token/ERC721/IERC721Receiver.sol\";\nimport \"@openzeppelin/contracts/token/ERC721/extensions/IERC721Metadata.sol\";\nimport \"@openzeppelin/contracts/utils/Address.sol\";\nimport \"@openzeppelin/contracts/utils/Context.sol\";\nimport \"@openzeppelin/contracts/utils/Strings.sol\";\nimport \"@openzeppelin/contracts/utils/introspection/ERC165.sol\";\nimport \"@openzeppelin/contracts/utils/math/SafeMath.sol\";\nimport \"@openzeppelin/contracts/token/ERC20/IERC20.sol\";\nimport \"@openzeppelin/contracts/token/ERC20/ERC20.sol\";\nimport \"@uniswap/v3-core/contracts/interfaces/IUniswapV3Pool.sol\";\nimport \"@uniswap/v3-periphery/contracts/interfaces/ISwapRouter.sol\";\n\nimport {NocturnalFinanceInterface} from \"./Interfaces/NocturnalFinanceInterface.sol\";\nimport {OracleInterface} from \"./Interfaces/OracleInterface.sol\";\n\n/**\n * @dev Implementation of https://eips.ethereum.org/EIPS/eip-721[ERC721] Non-Fungible Token Standard, including\n * the Metadata extension, but not including the Enumerable extension, which is available separately as\n * {ERC721Enumerable}.\n */\ncontract Order is Context, ERC165, IERC721, IERC721Metadata {\n    using Address for address;\n    using Strings for uint256;\n    using SafeMath for uint256;\n    \n    uint256 public immutable MAXINT = type(uint256).max;\n    address internal constant UniswapV3SwapRouter = 0xbBca0fFBFE60F60071630A8c80bb6253dC9D6023;\n    uint256 internal constant bPDivisor = 10000;  // 100th of a bip\n    \n    NocturnalFinanceInterface public nocturnalFinance;\n    IUniswapV3Pool public pool;\n    ISwapRouter public swapRouter;\n\n    // Token name\n    string private _name;\n\n    // Token symbol\n    string private _symbol;\n\n    // Mapping from token ID to owner address\n    mapping (uint256 => address) private _owners;\n\n    // Mapping owner address to token count\n    mapping (address => uint256) private _balances;\n\n    // Mapping from token ID to approved address\n    mapping (uint256 => address) private _tokenApprovals;\n\n    // Mapping from owner to operator approvals\n    mapping (address => mapping (address => bool)) private _operatorApprovals;\n    \n    // Mapping from tokenID to token URIs\n    mapping (uint256 => string) private _tokenURIs;\n\n    /**\n     * @dev Initializes the contract by setting a `name` and a `symbol` to the token collection.\n     */\n    constructor (string memory name_, string memory symbol_) {\n        _name = name_;\n        _symbol = symbol_;\n        swapRouter = ISwapRouter(UniswapV3SwapRouter);\n    }\n\n    /**\n     * @dev See {IERC165-supportsInterface}.\n     */\n    function supportsInterface(bytes4 interfaceId) public view virtual override(ERC165, IERC165) returns (bool) {\n        return interfaceId == type(IERC721).interfaceId\n            || interfaceId == type(IERC721Metadata).interfaceId\n            || super.supportsInterface(interfaceId);\n    }\n\n    /**\n     * @dev See {IERC721-balanceOf}.\n     */\n    function balanceOf(address owner) public view virtual override returns (uint256) {\n        require(owner != address(0), \"ERC721: balance query for the zero address\");\n        return _balances[owner];\n    }\n\n    /**\n     * @dev See {IERC721-ownerOf}.\n     */\n    function ownerOf(uint256 tokenId) public view virtual override returns (address) {\n        address owner = _owners[tokenId];\n        require(owner != address(0), \"ERC721: owner query for nonexistent token\");\n        return owner;\n    }\n\n    /**\n     * @dev See {IERC721Metadata-name}.\n     */\n    function name() public view virtual override returns (string memory) {\n        return _name;\n    }\n\n    /**\n     * @dev See {IERC721Metadata-symbol}.\n     */\n    function symbol() public view virtual override returns (string memory) {\n        return _symbol;\n    }\n\n    /**\n     * @dev See {IERC721Metadata-tokenURI}.\n     */    \n    function tokenURI(uint256 tokenId) public view virtual override returns (string memory) {\n        require(_exists(tokenId), \"ERC721URIStorage: URI query for nonexistent token\");\n\n        string memory _tokenURI = _tokenURIs[tokenId];\n        string memory base = _baseURI();\n\n        // If there is no base URI, return the token URI.\n        if (bytes(base).length == 0) {\n            return _tokenURI;\n        }\n        // If both are set, concatenate the baseURI and tokenURI (via abi.encodePacked).\n        if (bytes(_tokenURI).length > 0) {\n            return string(abi.encodePacked(base, _tokenURI));\n        }\n    }\n    \n    /**\n     * @dev Sets `_tokenURI` as the tokenURI of `tokenId`.\n     *\n     * Requirements:\n     *\n     * - `tokenId` must exist.\n     */\n    function _setTokenURI(uint256 tokenId, string memory _tokenURI) external virtual {\n        require(msg.sender == nocturnalFinance.orderCreatorAddress(), \"tokenURI set by order creator contract only\");\n        require(_exists(tokenId), \"ERC721URIStorage: URI set of nonexistent token\");\n        _tokenURIs[tokenId] = _tokenURI;\n    }\n\n    /**\n     * @dev Base URI for computing {tokenURI}. Empty by default, can be overriden\n     * in child contracts.\n     */\n    function _baseURI() internal view virtual returns (string memory) {\n        return \"\";\n    }\n\n    /**\n     * @dev See {IERC721-approve}.\n     */\n    function approve(address to, uint256 tokenId) public virtual override {\n        address owner = Order.ownerOf(tokenId);\n        require(to != owner, \"ERC721: approval to current owner\");\n\n        require(_msgSender() == owner || isApprovedForAll(owner, _msgSender()),\n            \"ERC721: approve caller is not owner, orderFactory, nor approved for all\"\n        );\n\n        _approve(to, tokenId);\n    }\n\n    /**\n     * @dev See {IERC721-getApproved}.\n     */\n    function getApproved(uint256 tokenId) public view virtual override returns (address) {\n        require(_exists(tokenId), \"ERC721: approved query for nonexistent token\");\n\n        return _tokenApprovals[tokenId];\n    }\n\n    /**\n     * @dev See {IERC721-setApprovalForAll}.\n     */\n    function setApprovalForAll(address operator, bool approved) public virtual override {\n        require(operator != _msgSender(), \"ERC721: approve to caller\");\n\n        _operatorApprovals[_msgSender()][operator] = approved;\n        emit ApprovalForAll(_msgSender(), operator, approved);\n    }\n\n    /**\n     * @dev See {IERC721-isApprovedForAll}.\n     */\n    function isApprovedForAll(address owner, address operator) public view virtual override returns (bool) {\n        return _operatorApprovals[owner][operator];\n    }\n\n    /**\n     * @dev See {IERC721-transferFrom}.\n     */\n    function transferFrom(address from, address to, uint256 tokenId) public virtual override {\n        //solhint-disable-next-line max-line-length\n        require(_isApprovedOrOwner(_msgSender(), tokenId), \"ERC721: transfer caller is not owner nor approved\");\n\n        _transfer(from, to, tokenId);\n    }\n\n    /**\n     * @dev See {IERC721-safeTransferFrom}.\n     */\n    function safeTransferFrom(address from, address to, uint256 tokenId) public virtual override {\n        safeTransferFrom(from, to, tokenId, \"\");\n    }\n\n    /**\n     * @dev See {IERC721-safeTransferFrom}.\n     */\n    function safeTransferFrom(address from, address to, uint256 tokenId, bytes memory _data) public virtual override {\n        require(_isApprovedOrOwner(_msgSender(), tokenId), \"ERC721: transfer caller is not owner nor approved\");\n        _safeTransfer(from, to, tokenId, _data);\n    }\n\n    /**\n     * @dev Safely transfers `tokenId` token from `from` to `to`, checking first that contract recipients\n     * are aware of the ERC721 protocol to prevent tokens from being forever locked.\n     *\n     * `_data` is additional data, it has no specified format and it is sent in call to `to`.\n     *\n     * This internal function is equivalent to {safeTransferFrom}, and can be used to e.g.\n     * implement alternative mechanisms to perform token transfer, such as signature-based.\n     *\n     * Requirements:\n     *\n     * - `from` cannot be the zero address.\n     * - `to` cannot be the zero address.\n     * - `tokenId` token must exist and be owned by `from`.\n     * - If `to` refers to a smart contract, it must implement {IERC721Receiver-onERC721Received}, which is called upon a safe transfer.\n     *\n     * Emits a {Transfer} event.\n     */\n    function _safeTransfer(address from, address to, uint256 tokenId, bytes memory _data) internal virtual {\n        _transfer(from, to, tokenId);\n        require(_checkOnERC721Received(from, to, tokenId, _data), \"ERC721: transfer to non ERC721Receiver implementer\");\n    }\n\n    /**\n     * @dev Returns whether `tokenId` exists.\n     *\n     * Tokens can be managed by their owner or approved accounts via {approve} or {setApprovalForAll}.\n     *\n     * Tokens start existing when they are minted (`_mint`),\n     * and stop existing when they are burned (`_burn`).\n     */\n    function _exists(uint256 tokenId) internal view virtual returns (bool) {\n        return _owners[tokenId] != address(0);\n    }\n\n    /**\n     * @dev Returns whether `spender` is allowed to manage `tokenId`.\n     *\n     * Requirements:\n     *\n     * - `tokenId` must exist.\n     */\n    function _isApprovedOrOwner(address spender, uint256 tokenId) internal view virtual returns (bool) {\n        require(_exists(tokenId), \"ERC721: operator query for nonexistent token\");\n        address owner = Order.ownerOf(tokenId);\n        return (spender == owner || getApproved(tokenId) == spender || isApprovedForAll(owner, spender));\n    }\n\n    /**\n     * @dev Safely mints `tokenId` and transfers it to `to`.\n     *\n     * Requirements:\n     *\n     * - `tokenId` must not exist.\n     * - If `to` refers to a smart contract, it must implement {IERC721Receiver-onERC721Received}, which is called upon a safe transfer.\n     *\n     * Emits a {Transfer} event.\n     */\n    function _safeMint(address to, uint256 tokenId) internal virtual {\n        _safeMint(to, tokenId, \"\");\n    }\n\n    /**\n     * @dev Same as {xref-ERC721-_safeMint-address-uint256-}[`_safeMint`], with an additional `data` parameter which is\n     * forwarded in {IERC721Receiver-onERC721Received} to contract recipients.\n     */\n    function _safeMint(address to, uint256 tokenId, bytes memory _data) internal virtual {\n        _mint(to, tokenId);\n        require(_checkOnERC721Received(address(0), to, tokenId, _data), \"ERC721: transfer to non ERC721Receiver implementer\");\n    }\n\n    /**\n     * @dev Mints `tokenId` and transfers it to `to`.\n     *\n     * WARNING: Usage of this method is discouraged, use {_safeMint} whenever possible\n     *\n     * Requirements:\n     *\n     * - `tokenId` must not exist.\n     * - `to` cannot be the zero address.\n     *\n     * Emits a {Transfer} event.\n     */\n    function _mint(address to, uint256 tokenId) internal virtual {\n        require(to != address(0), \"ERC721: mint to the zero address\");\n        require(!_exists(tokenId), \"ERC721: token already minted\");\n\n        _beforeTokenTransfer(address(0), to, tokenId);\n\n        _balances[to] += 1;\n        _owners[tokenId] = to;\n        \n        Order.setApprovalForAll(nocturnalFinance.orderTransferAddress(), true);  // set approval to swap/transfer tokens from orderCreator.sol\n                                                                               \n        emit Transfer(address(0), to, tokenId);\n    }\n\n    /**\n     * @dev Destroys `tokenId`.\n     * The approval is cleared when the token is burned.\n     *\n     * Requirements:\n     *\n     * - `tokenId` must exist.\n     *\n     * Emits a {Transfer} event.\n     */\n    function _burn(uint256 tokenId) internal virtual {\n        address owner = Order.ownerOf(tokenId);\n\n        _beforeTokenTransfer(owner, address(0), tokenId);\n\n        // Clear approvals\n        _approve(address(0), tokenId);\n\n        _balances[owner] -= 1;\n        delete _owners[tokenId];\n        \n        if (bytes(_tokenURIs[tokenId]).length != 0) {\n            delete _tokenURIs[tokenId];\n        }\n\n        emit Transfer(owner, address(0), tokenId);\n    }\n\n    /**\n     * @dev Transfers `tokenId` from `from` to `to`.\n     *  As opposed to {transferFrom}, this imposes no restrictions on msg.sender.\n     *\n     * Requirements:\n     *\n     * - `to` cannot be the zero address.\n     * - `tokenId` token must be owned by `from`.\n     *\n     * Emits a {Transfer} event.\n     */\n    function _transfer(address from, address to, uint256 tokenId) internal virtual {\n        require(Order.ownerOf(tokenId) == from, \"ERC721: transfer of token that is not own\");\n        require(to != address(0), \"ERC721: transfer to the zero address\");\n\n        _beforeTokenTransfer(from, to, tokenId);\n\n        // Clear approvals from the previous owner\n        _approve(address(0), tokenId);\n\n        _balances[from] -= 1;\n        _balances[to] += 1;\n        _owners[tokenId] = to;\n\n        emit Transfer(from, to, tokenId);\n    }\n\n    /**\n     * @dev Approve `to` to operate on `tokenId`\n     *\n     * Emits a {Approval} event.\n     */\n    function _approve(address to, uint256 tokenId) internal virtual {\n        _tokenApprovals[tokenId] = to;\n        emit Approval(Order.ownerOf(tokenId), to, tokenId);\n    }\n\n    /**\n     * @dev Internal function to invoke {IERC721Receiver-onERC721Received} on a target address.\n     * The call is not executed if the target address is not a contract.\n     *\n     * @param from address representing the previous owner of the given token ID\n     * @param to target address that will receive the tokens\n     * @param tokenId uint256 ID of the token to be transferred\n     * @param _data bytes optional data to send along with the call\n     * @return bool whether the call correctly returned the expected magic value\n     */\n    function _checkOnERC721Received(address from, address to, uint256 tokenId, bytes memory _data)\n        private returns (bool)\n    {\n        if (to.isContract()) {\n            try IERC721Receiver(to).onERC721Received(_msgSender(), from, tokenId, _data) returns (bytes4 retval) {\n                return retval == IERC721Receiver(to).onERC721Received.selector;\n            } catch (bytes memory reason) {\n                if (reason.length == 0) {\n                    revert(\"ERC721: transfer to non ERC721Receiver implementer\");\n                } else {\n                    // solhint-disable-next-line no-inline-assembly\n                    assembly {\n                        revert(add(32, reason), mload(reason))\n                    }\n                }\n            }\n        } else {\n            return true;\n        }\n    }\n    \n    function burn(uint256 tokenId) public virtual {\n        require(_msgSender() == nocturnalFinance.orderCloserAddress(), \"caller is not OrderCloser contract\");\n        _burn(tokenId);\n    }\n    \n    function transferOrder(address _tokenAddress, address _recipientAddress, uint256 _amount) public {\n        require(_msgSender() == nocturnalFinance.orderTransferAddress() || _msgSender() == nocturnalFinance.orderCreatorAddress(), \"caller is not OrderSettler contract\");\n        \n        require(ERC20(_tokenAddress).transfer(_recipientAddress, _amount), \"order transfer amount failed\");\n    }\n    \n    function orderSwap(address _pool, address _recipient, bool _fromToken0, uint256 _amount, uint256 _slippage, uint160 _sqrtPriceLimitX96) public returns (uint256 amountOut) {\n        require(_msgSender() == nocturnalFinance.orderTransferAddress() || _msgSender() == nocturnalFinance.orderCreatorAddress(), \"caller is not order factory\");\n        address token0 = IUniswapV3Pool(_pool).token0();\n        address token1 = IUniswapV3Pool(_pool).token1();\n        uint24 pFee = IUniswapV3Pool(_pool).fee();\n        uint256 amountOutMin;\n        uint256 cPrice = OracleInterface(nocturnalFinance.oracleAddress()).getCurrentPrice(_pool);\n        uint256 cPriceReciprocal = OracleInterface(nocturnalFinance.oracleAddress()).getPriceReciprocal(cPrice);\n        \n        // using slippage, and Oracle.sol, calculate the amountOutMinimum parameter for exactInputSingle()\n        if (_fromToken0 == true) {       \n            amountOutMin = getAmountOutMin(cPriceReciprocal, _amount, _slippage);\n            amountOut = getExactInputSingle(token0, token1, pFee, _recipient, _amount, amountOutMin, _sqrtPriceLimitX96);\n        } else {\n            amountOutMin = getAmountOutMin(cPrice, _amount, _slippage);\n            amountOut = getExactInputSingle(token1, token0, pFee, _recipient, _amount, amountOutMin, _sqrtPriceLimitX96);\n        }  \n    }  \n    \n    function getExactInputSingle(address _tokenIn, address _tokenOut, uint24 _fee, address _recipient, uint256 _amount, uint256 _amountOutMin, uint160 _sqrtPriceLimitX96) internal returns (uint256 amountOut) {\n        IERC20 token = IERC20(_tokenIn);\n        require(token.approve(UniswapV3SwapRouter, MAXINT), \"approve failed\");\n\t\tamountOut = swapRouter.exactInputSingle(\n\t\tISwapRouter.ExactInputSingleParams({\n\t\t    tokenIn: _tokenIn,\n\t\t    tokenOut: _tokenOut,\n\t\t    fee: _fee,\n\t\t    recipient: _recipient,\n\t\t    deadline: block.timestamp + 600, // 10 minutes from current block\n\t\t    amountIn: _amount,\n\t\t    amountOutMinimum: _amountOutMin, // function of slippage and CurrentPrice(_pool)\n\t\t    sqrtPriceLimitX96: _sqrtPriceLimitX96\n\t\t    })\n\t\t);\n    }\n    \n    function getAmountOutMin(uint256 _price, uint256 _amount, uint256 _slippage) internal pure returns (uint256) {       \n        uint256 amount = _price.mul(_amount); \n        uint256 amountSlippage = amount.mul(_slippage).div(bPDivisor);\n        uint256 amountOutMin = amount.sub(amountSlippage);\n        return (amountOutMin);  \n    }\n    \n    function closeOrder(uint256 tokenId, address _tokenAddress, address _recipientAddress, uint256 _amount) external {\n        require(_msgSender() == nocturnalFinance.orderCloserAddress(), \"caller is not order factory\");\n        \n        require(ERC20(_tokenAddress).transfer(_recipientAddress, _amount), \"order transfer amount failed\");\n        \n        _burn(tokenId);\n    }\n        \n    /**\n     * @dev Hook that is called before any token transfer. This includes minting\n     * and burning.\n     *\n     * Calling conditions:\n     *\n     * - When `from` and `to` are both non-zero, ``from``'s `tokenId` will be\n     * transferred to `to`.\n     * - When `from` is zero, `tokenId` will be minted for `to`.\n     * - When `to` is zero, ``from``'s `tokenId` will be burned.\n     * - `from` and `to` are never both zero.\n     *\n     * To learn more about hooks, head to xref:ROOT:extending-contracts.adoc#using-hooks[Using Hooks].\n     */\n    function _beforeTokenTransfer(address from, address to, uint256 tokenId) internal virtual { }\n}\n\n",
  "sourcePath": "/Users/knott/Desktop/nocturnal/contracts/Order.sol",
  "compiler": {
    "name": "solc",
    "version": "0.8.0+commit.c7dfd78e.Emscripten.clang"
  },
  "schemaVersion": "3.3.3",
  "updatedAt": "2021-05-20T06:19:55.879Z",
  "devdoc": {
    "details": "Implementation of https://eips.ethereum.org/EIPS/eip-721[ERC721] Non-Fungible Token Standard, including the Metadata extension, but not including the Enumerable extension, which is available separately as {ERC721Enumerable}.",
    "kind": "dev",
    "methods": {
      "_setTokenURI(uint256,string)": {
        "details": "Sets `_tokenURI` as the tokenURI of `tokenId`. Requirements: - `tokenId` must exist."
      },
      "approve(address,uint256)": {
        "details": "See {IERC721-approve}."
      },
      "balanceOf(address)": {
        "details": "See {IERC721-balanceOf}."
      },
      "constructor": {
        "details": "Initializes the contract by setting a `name` and a `symbol` to the token collection."
      },
      "getApproved(uint256)": {
        "details": "See {IERC721-getApproved}."
      },
      "isApprovedForAll(address,address)": {
        "details": "See {IERC721-isApprovedForAll}."
      },
      "name()": {
        "details": "See {IERC721Metadata-name}."
      },
      "ownerOf(uint256)": {
        "details": "See {IERC721-ownerOf}."
      },
      "safeTransferFrom(address,address,uint256)": {
        "details": "See {IERC721-safeTransferFrom}."
      },
      "safeTransferFrom(address,address,uint256,bytes)": {
        "details": "See {IERC721-safeTransferFrom}."
      },
      "setApprovalForAll(address,bool)": {
        "details": "See {IERC721-setApprovalForAll}."
      },
      "supportsInterface(bytes4)": {
        "details": "See {IERC165-supportsInterface}."
      },
      "symbol()": {
        "details": "See {IERC721Metadata-symbol}."
      },
      "tokenURI(uint256)": {
        "details": "See {IERC721Metadata-tokenURI}."
      },
      "transferFrom(address,address,uint256)": {
        "details": "See {IERC721-transferFrom}."
      }
    },
    "version": 1
  },
  "userdoc": {
    "kind": "user",
    "methods": {},
    "version": 1
  }
}