{
  "contractName": "OrderFactory",
  "abi": [
    {
      "inputs": [
        {
          "internalType": "address",
          "name": "_nocturnalFinance",
          "type": "address"
        }
      ],
      "stateMutability": "nonpayable",
      "type": "constructor"
    },
    {
      "inputs": [],
      "name": "nocturnalFinance",
      "outputs": [
        {
          "internalType": "contract NocturnalFinanceInterface",
          "name": "",
          "type": "address"
        }
      ],
      "stateMutability": "view",
      "type": "function"
    },
    {
      "inputs": [
        {
          "internalType": "address",
          "name": "_swapPoolAddress",
          "type": "address"
        },
        {
          "internalType": "address",
          "name": "_swapFromTokenAddress",
          "type": "address"
        },
        {
          "internalType": "address",
          "name": "_swapToTokenAddress",
          "type": "address"
        },
        {
          "internalType": "uint256",
          "name": "_swapFromTokenBalance",
          "type": "uint256"
        },
        {
          "internalType": "uint256",
          "name": "_swapLimitPrice",
          "type": "uint256"
        },
        {
          "internalType": "uint256",
          "name": "_swapSlippage",
          "type": "uint256"
        },
        {
          "internalType": "bool",
          "name": "_swapAbove",
          "type": "bool"
        },
        {
          "internalType": "uint256",
          "name": "_swapSettlementGratuity",
          "type": "uint256"
        }
      ],
      "name": "createLimitOrder",
      "outputs": [],
      "stateMutability": "nonpayable",
      "type": "function"
    },
    {
      "inputs": [
        {
          "internalType": "address",
          "name": "_address",
          "type": "address"
        }
      ],
      "name": "settleLimitOrder",
      "outputs": [],
      "stateMutability": "nonpayable",
      "type": "function"
    },
    {
      "inputs": [
        {
          "internalType": "address",
          "name": "_address",
          "type": "address"
        }
      ],
      "name": "closeLimitOrder",
      "outputs": [],
      "stateMutability": "nonpayable",
      "type": "function"
    },
    {
      "inputs": [
        {
          "internalType": "address",
          "name": "_orderAddress",
          "type": "address"
        },
        {
          "internalType": "uint256",
          "name": "_orderID",
          "type": "uint256"
        }
      ],
      "name": "setOrderID",
      "outputs": [],
      "stateMutability": "nonpayable",
      "type": "function"
    },
    {
      "inputs": [
        {
          "internalType": "address",
          "name": "_orderAddress",
          "type": "address"
        },
        {
          "internalType": "address",
          "name": "_poolAddress",
          "type": "address"
        }
      ],
      "name": "setOrderPoolAddress",
      "outputs": [],
      "stateMutability": "nonpayable",
      "type": "function"
    },
    {
      "inputs": [
        {
          "internalType": "address",
          "name": "_orderAddress",
          "type": "address"
        },
        {
          "internalType": "address",
          "name": "_tokenAddress",
          "type": "address"
        }
      ],
      "name": "setOrderFromTokenAddress",
      "outputs": [],
      "stateMutability": "nonpayable",
      "type": "function"
    },
    {
      "inputs": [
        {
          "internalType": "address",
          "name": "_orderAddress",
          "type": "address"
        },
        {
          "internalType": "uint256",
          "name": "_tokenBalance",
          "type": "uint256"
        }
      ],
      "name": "setOrderFromTokenBalance",
      "outputs": [],
      "stateMutability": "nonpayable",
      "type": "function"
    },
    {
      "inputs": [
        {
          "internalType": "address",
          "name": "_orderAddress",
          "type": "address"
        },
        {
          "internalType": "address",
          "name": "_tokenAddress",
          "type": "address"
        }
      ],
      "name": "setOrderToTokenAddress",
      "outputs": [],
      "stateMutability": "nonpayable",
      "type": "function"
    },
    {
      "inputs": [
        {
          "internalType": "address",
          "name": "_orderAddress",
          "type": "address"
        },
        {
          "internalType": "uint256",
          "name": "_tokenBalance",
          "type": "uint256"
        }
      ],
      "name": "setOrderToTokenBalance",
      "outputs": [],
      "stateMutability": "nonpayable",
      "type": "function"
    },
    {
      "inputs": [
        {
          "internalType": "address",
          "name": "_orderAddress",
          "type": "address"
        },
        {
          "internalType": "uint256",
          "name": "_balance",
          "type": "uint256"
        }
      ],
      "name": "setOrderFromTokenValueInETH",
      "outputs": [],
      "stateMutability": "nonpayable",
      "type": "function"
    },
    {
      "inputs": [
        {
          "internalType": "address",
          "name": "_orderAddress",
          "type": "address"
        },
        {
          "internalType": "uint256",
          "name": "_limitPrice",
          "type": "uint256"
        }
      ],
      "name": "setOrderLimitPrice",
      "outputs": [],
      "stateMutability": "nonpayable",
      "type": "function"
    },
    {
      "inputs": [
        {
          "internalType": "address",
          "name": "_orderAddress",
          "type": "address"
        },
        {
          "internalType": "bool",
          "name": "_limitType",
          "type": "bool"
        }
      ],
      "name": "setOrderLimitType",
      "outputs": [],
      "stateMutability": "nonpayable",
      "type": "function"
    },
    {
      "inputs": [
        {
          "internalType": "address",
          "name": "_orderAddress",
          "type": "address"
        },
        {
          "internalType": "uint256",
          "name": "_slippage",
          "type": "uint256"
        }
      ],
      "name": "setOrderSwapSlippage",
      "outputs": [],
      "stateMutability": "nonpayable",
      "type": "function"
    },
    {
      "inputs": [
        {
          "internalType": "address",
          "name": "_orderAddress",
          "type": "address"
        },
        {
          "internalType": "uint256",
          "name": "_gratuity",
          "type": "uint256"
        }
      ],
      "name": "setOrderSettlementGratuity",
      "outputs": [],
      "stateMutability": "nonpayable",
      "type": "function"
    },
    {
      "inputs": [
        {
          "internalType": "address",
          "name": "_orderAddress",
          "type": "address"
        },
        {
          "internalType": "bool",
          "name": "_settleFlag",
          "type": "bool"
        }
      ],
      "name": "setOrderSettledFlag",
      "outputs": [],
      "stateMutability": "nonpayable",
      "type": "function"
    },
    {
      "inputs": [
        {
          "internalType": "address",
          "name": "_orderAddress",
          "type": "address"
        }
      ],
      "name": "getOrderID",
      "outputs": [
        {
          "internalType": "uint256",
          "name": "",
          "type": "uint256"
        }
      ],
      "stateMutability": "view",
      "type": "function"
    },
    {
      "inputs": [
        {
          "internalType": "address",
          "name": "_orderAddress",
          "type": "address"
        }
      ],
      "name": "getOrderPoolAddress",
      "outputs": [
        {
          "internalType": "address",
          "name": "",
          "type": "address"
        }
      ],
      "stateMutability": "view",
      "type": "function"
    },
    {
      "inputs": [
        {
          "internalType": "address",
          "name": "_orderAddress",
          "type": "address"
        }
      ],
      "name": "getOrderFromTokenAddress",
      "outputs": [
        {
          "internalType": "address",
          "name": "",
          "type": "address"
        }
      ],
      "stateMutability": "view",
      "type": "function"
    },
    {
      "inputs": [
        {
          "internalType": "address",
          "name": "_orderAddress",
          "type": "address"
        }
      ],
      "name": "getOrderFromTokenBalance",
      "outputs": [
        {
          "internalType": "uint256",
          "name": "",
          "type": "uint256"
        }
      ],
      "stateMutability": "view",
      "type": "function"
    },
    {
      "inputs": [
        {
          "internalType": "address",
          "name": "_orderAddress",
          "type": "address"
        }
      ],
      "name": "getOrderToTokenAddress",
      "outputs": [
        {
          "internalType": "address",
          "name": "",
          "type": "address"
        }
      ],
      "stateMutability": "view",
      "type": "function"
    },
    {
      "inputs": [
        {
          "internalType": "address",
          "name": "_orderAddress",
          "type": "address"
        }
      ],
      "name": "getOrderToTokenBalance",
      "outputs": [
        {
          "internalType": "uint256",
          "name": "",
          "type": "uint256"
        }
      ],
      "stateMutability": "view",
      "type": "function"
    },
    {
      "inputs": [
        {
          "internalType": "address",
          "name": "_orderAddress",
          "type": "address"
        }
      ],
      "name": "getOrderLimitPrice",
      "outputs": [
        {
          "internalType": "uint256",
          "name": "",
          "type": "uint256"
        }
      ],
      "stateMutability": "view",
      "type": "function"
    },
    {
      "inputs": [
        {
          "internalType": "address",
          "name": "_orderAddress",
          "type": "address"
        }
      ],
      "name": "getOrderLimitType",
      "outputs": [
        {
          "internalType": "bool",
          "name": "",
          "type": "bool"
        }
      ],
      "stateMutability": "view",
      "type": "function"
    },
    {
      "inputs": [
        {
          "internalType": "address",
          "name": "_orderAddress",
          "type": "address"
        }
      ],
      "name": "getOrderSwapSlippage",
      "outputs": [
        {
          "internalType": "uint256",
          "name": "",
          "type": "uint256"
        }
      ],
      "stateMutability": "view",
      "type": "function"
    },
    {
      "inputs": [
        {
          "internalType": "address",
          "name": "_orderAddress",
          "type": "address"
        }
      ],
      "name": "getOrderSettlementGratuity",
      "outputs": [
        {
          "internalType": "uint256",
          "name": "",
          "type": "uint256"
        }
      ],
      "stateMutability": "view",
      "type": "function"
    },
    {
      "inputs": [
        {
          "internalType": "address",
          "name": "_orderAddress",
          "type": "address"
        }
      ],
      "name": "getOrderSettledFlag",
      "outputs": [
        {
          "internalType": "bool",
          "name": "",
          "type": "bool"
        }
      ],
      "stateMutability": "view",
      "type": "function"
    }
  ],
  "bytecode": "0x608060405234801561001057600080fd5b50604051611b09380380611b0983398101604081905261002f91610054565b600c80546001600160a01b0319166001600160a01b0392909216919091179055610082565b600060208284031215610065578081fd5b81516001600160a01b038116811461007b578182fd5b9392505050565b611a78806100916000396000f3fe608060405234801561001057600080fd5b50600436106101b95760003560e01c80636a4112de116100f9578063a238286411610097578063d9e73e7a11610071578063d9e73e7a146103a5578063dff0158f146103b8578063e9c81570146103cb578063ee64deab146103de576101b9565b8063a23828641461036c578063a27e97541461037f578063a28897a514610392576101b9565b80637753b987116100d35780637753b9871461032057806377b25c2314610333578063801030491461034657806391c02c6514610359576101b9565b80636a4112de146102e75780636b49e26e146102fa5780636bd200a41461030d576101b9565b80632c8d41df116101665780635b437e77116101405780635b437e771461029b5780635c3d56f8146102ae5780636053c1d3146102c157806361df797e146102d4576101b9565b80632c8d41df146102625780633043a33414610275578063423a678214610288576101b9565b80631cf979e8116101975780631cf979e81461021a5780631d60e3ae1461022f57806323918cf01461024f576101b9565b80630df1e59a146101be57806313cc6449146101e75780631830c30814610207575b600080fd5b6101d16101cc3660046117e1565b6103e6565b6040516101de91906119ac565b60405180910390f35b6101fa6101f53660046117e1565b610415565b6040516101de9190611a14565b6101fa6102153660046117e1565b61043d565b61022d61022836600461190c565b610465565b005b61024261023d3660046117e1565b61059b565b6040516101de9190611937565b6101fa61025d3660046117e1565b6105c6565b61022d610270366004611820565b6105ee565b61022d6102833660046117e1565b610745565b61022d610296366004611858565b610852565b61022d6102a9366004611820565b610974565b61022d6102bc3660046118d8565b610acb565b61022d6102cf36600461190c565b610c25565b6102426102e23660046117e1565b610d52565b61022d6102f536600461190c565b610d7d565b6101fa6103083660046117e1565b610eaa565b61024261031b3660046117e1565b610ed2565b6101d161032e3660046117e1565b610efd565b61022d61034136600461190c565b610f28565b61022d6103543660046117e1565b611055565b6101fa6103673660046117e1565b61112d565b6101fa61037a3660046117e1565b611155565b61022d61038d366004611820565b61117d565b61022d6103a036600461190c565b6112d4565b61022d6103b33660046118d8565b611401565b61022d6103c636600461190c565b61155b565b61022d6103d936600461190c565b611688565b6102426117b5565b73ffffffffffffffffffffffffffffffffffffffff81166000908152600b602052604090205460ff165b919050565b73ffffffffffffffffffffffffffffffffffffffff166000908152600a602052604090205490565b73ffffffffffffffffffffffffffffffffffffffff1660009081526005602052604090205490565b600c60009054906101000a900473ffffffffffffffffffffffffffffffffffffffff1673ffffffffffffffffffffffffffffffffffffffff1663ef5f63866040518163ffffffff1660e01b815260040160206040518083038186803b1580156104cd57600080fd5b505afa1580156104e1573d6000803e3d6000fd5b505050506040513d601f19601f820116820180604052508101906105059190611804565b73ffffffffffffffffffffffffffffffffffffffff163373ffffffffffffffffffffffffffffffffffffffff1614610572576040517f08c379a0000000000000000000000000000000000000000000000000000000008152600401610569906119b7565b60405180910390fd5b73ffffffffffffffffffffffffffffffffffffffff909116600090815260066020526040902055565b73ffffffffffffffffffffffffffffffffffffffff9081166000908152600360205260409020541690565b73ffffffffffffffffffffffffffffffffffffffff1660009081526007602052604090205490565b600c60009054906101000a900473ffffffffffffffffffffffffffffffffffffffff1673ffffffffffffffffffffffffffffffffffffffff1663ef5f63866040518163ffffffff1660e01b815260040160206040518083038186803b15801561065657600080fd5b505afa15801561066a573d6000803e3d6000fd5b505050506040513d601f19601f8201168201806040525081019061068e9190611804565b73ffffffffffffffffffffffffffffffffffffffff163373ffffffffffffffffffffffffffffffffffffffff16146106f2576040517f08c379a0000000000000000000000000000000000000000000000000000000008152600401610569906119b7565b73ffffffffffffffffffffffffffffffffffffffff918216600090815260016020526040902080547fffffffffffffffffffffffff00000000000000000000000000000000000000001691909216179055565b600c60009054906101000a900473ffffffffffffffffffffffffffffffffffffffff1673ffffffffffffffffffffffffffffffffffffffff16638bc8e71c6040518163ffffffff1660e01b815260040160206040518083038186803b1580156107ad57600080fd5b505afa1580156107c1573d6000803e3d6000fd5b505050506040513d601f19601f820116820180604052508101906107e59190611804565b73ffffffffffffffffffffffffffffffffffffffff16633043a334826040518263ffffffff1660e01b815260040161081d9190611937565b600060405180830381600087803b15801561083757600080fd5b505af115801561084b573d6000803e3d6000fd5b5050505050565b600c60009054906101000a900473ffffffffffffffffffffffffffffffffffffffff1673ffffffffffffffffffffffffffffffffffffffff1663ef5f63866040518163ffffffff1660e01b815260040160206040518083038186803b1580156108ba57600080fd5b505afa1580156108ce573d6000803e3d6000fd5b505050506040513d601f19601f820116820180604052508101906108f29190611804565b73ffffffffffffffffffffffffffffffffffffffff1663423a678289898989898989896040518963ffffffff1660e01b8152600401610938989796959493929190611958565b600060405180830381600087803b15801561095257600080fd5b505af1158015610966573d6000803e3d6000fd5b505050505050505050505050565b600c60009054906101000a900473ffffffffffffffffffffffffffffffffffffffff1673ffffffffffffffffffffffffffffffffffffffff1663ef5f63866040518163ffffffff1660e01b815260040160206040518083038186803b1580156109dc57600080fd5b505afa1580156109f0573d6000803e3d6000fd5b505050506040513d601f19601f82011682018060405250810190610a149190611804565b73ffffffffffffffffffffffffffffffffffffffff163373ffffffffffffffffffffffffffffffffffffffff1614610a78576040517f08c379a0000000000000000000000000000000000000000000000000000000008152600401610569906119b7565b73ffffffffffffffffffffffffffffffffffffffff918216600090815260036020526040902080547fffffffffffffffffffffffff00000000000000000000000000000000000000001691909216179055565b600c60009054906101000a900473ffffffffffffffffffffffffffffffffffffffff1673ffffffffffffffffffffffffffffffffffffffff1663ef5f63866040518163ffffffff1660e01b815260040160206040518083038186803b158015610b3357600080fd5b505afa158015610b47573d6000803e3d6000fd5b505050506040513d601f19601f82011682018060405250810190610b6b9190611804565b73ffffffffffffffffffffffffffffffffffffffff163373ffffffffffffffffffffffffffffffffffffffff1614610bcf576040517f08c379a0000000000000000000000000000000000000000000000000000000008152600401610569906119b7565b73ffffffffffffffffffffffffffffffffffffffff919091166000908152600b6020526040902080547fffffffffffffffffffffffffffffffffffffffffffffffffffffffffffffff0016911515919091179055565b600c60009054906101000a900473ffffffffffffffffffffffffffffffffffffffff1673ffffffffffffffffffffffffffffffffffffffff1663ef5f63866040518163ffffffff1660e01b815260040160206040518083038186803b158015610c8d57600080fd5b505afa158015610ca1573d6000803e3d6000fd5b505050506040513d601f19601f82011682018060405250810190610cc59190611804565b73ffffffffffffffffffffffffffffffffffffffff163373ffffffffffffffffffffffffffffffffffffffff1614610d29576040517f08c379a0000000000000000000000000000000000000000000000000000000008152600401610569906119b7565b73ffffffffffffffffffffffffffffffffffffffff909116600090815260056020526040902055565b73ffffffffffffffffffffffffffffffffffffffff9081166000908152600260205260409020541690565b600c60009054906101000a900473ffffffffffffffffffffffffffffffffffffffff1673ffffffffffffffffffffffffffffffffffffffff1663ef5f63866040518163ffffffff1660e01b815260040160206040518083038186803b158015610de557600080fd5b505afa158015610df9573d6000803e3d6000fd5b505050506040513d601f19601f82011682018060405250810190610e1d9190611804565b73ffffffffffffffffffffffffffffffffffffffff163373ffffffffffffffffffffffffffffffffffffffff1614610e81576040517f08c379a0000000000000000000000000000000000000000000000000000000008152600401610569906119b7565b73ffffffffffffffffffffffffffffffffffffffff9091166000908152600a6020526040902055565b73ffffffffffffffffffffffffffffffffffffffff1660009081526004602052604090205490565b73ffffffffffffffffffffffffffffffffffffffff9081166000908152600160205260409020541690565b73ffffffffffffffffffffffffffffffffffffffff1660009081526008602052604090205460ff1690565b600c60009054906101000a900473ffffffffffffffffffffffffffffffffffffffff1673ffffffffffffffffffffffffffffffffffffffff1663ef5f63866040518163ffffffff1660e01b815260040160206040518083038186803b158015610f9057600080fd5b505afa158015610fa4573d6000803e3d6000fd5b505050506040513d601f19601f82011682018060405250810190610fc89190611804565b73ffffffffffffffffffffffffffffffffffffffff163373ffffffffffffffffffffffffffffffffffffffff161461102c576040517f08c379a0000000000000000000000000000000000000000000000000000000008152600401610569906119b7565b73ffffffffffffffffffffffffffffffffffffffff909116600090815260076020526040902055565b600c60009054906101000a900473ffffffffffffffffffffffffffffffffffffffff1673ffffffffffffffffffffffffffffffffffffffff1663d81f3a5a6040518163ffffffff1660e01b815260040160206040518083038186803b1580156110bd57600080fd5b505afa1580156110d1573d6000803e3d6000fd5b505050506040513d601f19601f820116820180604052508101906110f59190611804565b73ffffffffffffffffffffffffffffffffffffffff166380103049826040518263ffffffff1660e01b815260040161081d9190611937565b73ffffffffffffffffffffffffffffffffffffffff1660009081526020819052604090205490565b73ffffffffffffffffffffffffffffffffffffffff1660009081526009602052604090205490565b600c60009054906101000a900473ffffffffffffffffffffffffffffffffffffffff1673ffffffffffffffffffffffffffffffffffffffff1663ef5f63866040518163ffffffff1660e01b815260040160206040518083038186803b1580156111e557600080fd5b505afa1580156111f9573d6000803e3d6000fd5b505050506040513d601f19601f8201168201806040525081019061121d9190611804565b73ffffffffffffffffffffffffffffffffffffffff163373ffffffffffffffffffffffffffffffffffffffff1614611281576040517f08c379a0000000000000000000000000000000000000000000000000000000008152600401610569906119b7565b73ffffffffffffffffffffffffffffffffffffffff918216600090815260026020526040902080547fffffffffffffffffffffffff00000000000000000000000000000000000000001691909216179055565b600c60009054906101000a900473ffffffffffffffffffffffffffffffffffffffff1673ffffffffffffffffffffffffffffffffffffffff1663ef5f63866040518163ffffffff1660e01b815260040160206040518083038186803b15801561133c57600080fd5b505afa158015611350573d6000803e3d6000fd5b505050506040513d601f19601f820116820180604052508101906113749190611804565b73ffffffffffffffffffffffffffffffffffffffff163373ffffffffffffffffffffffffffffffffffffffff16146113d8576040517f08c379a0000000000000000000000000000000000000000000000000000000008152600401610569906119b7565b73ffffffffffffffffffffffffffffffffffffffff909116600090815260046020526040902055565b600c60009054906101000a900473ffffffffffffffffffffffffffffffffffffffff1673ffffffffffffffffffffffffffffffffffffffff1663ef5f63866040518163ffffffff1660e01b815260040160206040518083038186803b15801561146957600080fd5b505afa15801561147d573d6000803e3d6000fd5b505050506040513d601f19601f820116820180604052508101906114a19190611804565b73ffffffffffffffffffffffffffffffffffffffff163373ffffffffffffffffffffffffffffffffffffffff1614611505576040517f08c379a0000000000000000000000000000000000000000000000000000000008152600401610569906119b7565b73ffffffffffffffffffffffffffffffffffffffff91909116600090815260086020526040902080547fffffffffffffffffffffffffffffffffffffffffffffffffffffffffffffff0016911515919091179055565b600c60009054906101000a900473ffffffffffffffffffffffffffffffffffffffff1673ffffffffffffffffffffffffffffffffffffffff1663ef5f63866040518163ffffffff1660e01b815260040160206040518083038186803b1580156115c357600080fd5b505afa1580156115d7573d6000803e3d6000fd5b505050506040513d601f19601f820116820180604052508101906115fb9190611804565b73ffffffffffffffffffffffffffffffffffffffff163373ffffffffffffffffffffffffffffffffffffffff161461165f576040517f08c379a0000000000000000000000000000000000000000000000000000000008152600401610569906119b7565b73ffffffffffffffffffffffffffffffffffffffff909116600090815260208190526040902055565b600c60009054906101000a900473ffffffffffffffffffffffffffffffffffffffff1673ffffffffffffffffffffffffffffffffffffffff1663ef5f63866040518163ffffffff1660e01b815260040160206040518083038186803b1580156116f057600080fd5b505afa158015611704573d6000803e3d6000fd5b505050506040513d601f19601f820116820180604052508101906117289190611804565b73ffffffffffffffffffffffffffffffffffffffff163373ffffffffffffffffffffffffffffffffffffffff161461178c576040517f08c379a0000000000000000000000000000000000000000000000000000000008152600401610569906119b7565b73ffffffffffffffffffffffffffffffffffffffff909116600090815260096020526040902055565b600c5473ffffffffffffffffffffffffffffffffffffffff1681565b8035801515811461041057600080fd5b6000602082840312156117f2578081fd5b81356117fd81611a1d565b9392505050565b600060208284031215611815578081fd5b81516117fd81611a1d565b60008060408385031215611832578081fd5b823561183d81611a1d565b9150602083013561184d81611a1d565b809150509250929050565b600080600080600080600080610100898b031215611874578384fd5b883561187f81611a1d565b9750602089013561188f81611a1d565b9650604089013561189f81611a1d565b9550606089013594506080890135935060a089013592506118c260c08a016117d1565b915060e089013590509295985092959890939650565b600080604083850312156118ea578182fd5b82356118f581611a1d565b9150611903602084016117d1565b90509250929050565b6000806040838503121561191e578182fd5b823561192981611a1d565b946020939093013593505050565b73ffffffffffffffffffffffffffffffffffffffff91909116815260200190565b73ffffffffffffffffffffffffffffffffffffffff988916815296881660208801529490961660408601526060850192909252608084015260a083015291151560c082015260e08101919091526101000190565b901515815260200190565b60208082526032908201527f6f6e6c79204f7264657243726561746f7220636f6e74726163742063616e207360408201527f6574206f72646572206174747269627574650000000000000000000000000000606082015260800190565b90815260200190565b73ffffffffffffffffffffffffffffffffffffffff81168114611a3f57600080fd5b5056fea2646970667358221220ecb56eab6c3721f522a3762d538960c140e2d11d508eb705851f8b3c61823aaf64736f6c63430008000033",
  "immutableReferences": {},
  "source": "/*                              $$\\                                             $$\\                                                         \n                                $$ |                                            $$ |                                                  \n$$$$$$$\\   $$$$$$\\   $$$$$$$\\ $$$$$$\\   $$\\   $$\\  $$$$$$\\  $$$$$$$\\   $$$$$$\\  $$ |     \n$$  __$$\\ $$  __$$\\ $$  _____|\\_$$  _|  $$ |  $$ |$$  __$$\\ $$  __$$\\  \\____$$\\ $$ |    \n$$ |  $$ |$$ /  $$ |$$ /        $$ |    $$ |  $$ |$$ |  \\__|$$ |  $$ | $$$$$$$ |$$ |     \n$$ |  $$ |$$ |  $$ |$$ |        $$ |$$\\ $$ |  $$ |$$ |      $$ |  $$ |$$  __$$ |$$ |     \n$$ |  $$ |\\$$$$$$  |\\$$$$$$$\\   \\$$$$  |\\$$$$$$  |$$ |      $$ |  $$ |\\$$$$$$$ |$$ |      \n\\__|  \\__| \\______/  \\_______|   \\____/  \\______/ \\__|      \\__|  \\__| \\_______|\\__|     \n*/\n\npragma solidity ^0.8.0;\n\nimport {NocturnalFinanceInterface} from \"./Interfaces/NocturnalFinanceInterface.sol\";\nimport {OrderCreatorInterface} from \"./Interfaces/OrderCreatorInterface.sol\";\nimport {OrderSettlerInterface} from \"./Interfaces/OrderSettlerInterface.sol\";\nimport {OrderCloserInterface} from \"./Interfaces/OrderCloserInterface.sol\";\nimport {OrderModifierInterface} from \"./Interfaces/OrderModifierInterface.sol\";\n\ncontract OrderFactory {\n    \n    mapping(address => uint256) swapOrderID;\n    mapping(address => address) swapPoolAddress;\n    mapping(address => address) swapFromTokenAddress;\n    mapping(address => address) swapToTokenAddress;\n    mapping(address => uint256) swapFromTokenBalance;\n    mapping(address => uint256) swapToTokenBalance;\n    mapping(address => uint256) swapFromTokenValueInETH;\n    mapping(address => uint256) swapLimitPrice;\n    mapping(address => bool) swapAbove;\n    mapping(address => uint256) swapSlippage;\n    mapping(address => uint256) swapSettlementGratuity;\n    mapping(address => bool) swapSettledFlag;\n    \n    NocturnalFinanceInterface public nocturnalFinance;\n    \n    constructor(address _nocturnalFinance) {\n        nocturnalFinance = NocturnalFinanceInterface(_nocturnalFinance);\n    }\n    \n    function createLimitOrder(\n            address _swapPoolAddress, \n            address _swapFromTokenAddress, \n            address _swapToTokenAddress, \n            uint256 _swapFromTokenBalance, \n            uint256 _swapLimitPrice,\n            uint256 _swapSlippage,\n            bool _swapAbove,\n            uint256 _swapSettlementGratuity) public {\n        OrderCreatorInterface(nocturnalFinance.orderCreatorAddress()).createLimitOrder(_swapPoolAddress, \n                                                                                       _swapFromTokenAddress, \n                                                                                       _swapToTokenAddress, \n                                                                                       _swapFromTokenBalance, \n                                                                                       _swapLimitPrice, \n                                                                                       _swapSlippage, \n                                                                                       _swapAbove, \n                                                                                       _swapSettlementGratuity); \n    }\n    \n    function settleLimitOrder(address _address) public {\n        OrderSettlerInterface(nocturnalFinance.orderSettlerAddress()).settleLimitOrder(_address);\n    }\n    \n    function closeLimitOrder(address _address) public {\n        OrderCloserInterface(nocturnalFinance.orderCloserAddress()).closeLimitOrder(_address);\n    }\n    \n    \n\n    function setOrderID(address _orderAddress, uint256 _orderID) public {\n        require(msg.sender == nocturnalFinance.orderCreatorAddress(), \"only OrderCreator contract can set order attribute\");\n        swapOrderID[_orderAddress] = _orderID;\n    }\n    \n    function setOrderPoolAddress(address _orderAddress, address _poolAddress) public {\n        require(msg.sender == nocturnalFinance.orderCreatorAddress(), \"only OrderCreator contract can set order attribute\");\n        swapPoolAddress[_orderAddress] = _poolAddress;\n    }\n    \n    function setOrderFromTokenAddress(address _orderAddress, address _tokenAddress) public {\n        require(msg.sender == nocturnalFinance.orderCreatorAddress(), \"only OrderCreator contract can set order attribute\");\n        swapFromTokenAddress[_orderAddress] = _tokenAddress;\n    }\n    \n    function setOrderFromTokenBalance(address _orderAddress, uint256 _tokenBalance) public {\n        require(msg.sender == nocturnalFinance.orderCreatorAddress(), \"only OrderCreator contract can set order attribute\");\n        swapFromTokenBalance[_orderAddress] = _tokenBalance;\n    }\n    \n    function setOrderToTokenAddress(address _orderAddress, address _tokenAddress) public {\n        require(msg.sender == nocturnalFinance.orderCreatorAddress(), \"only OrderCreator contract can set order attribute\");\n        swapToTokenAddress[_orderAddress] = _tokenAddress;\n    }\n    \n    function setOrderToTokenBalance(address _orderAddress, uint256 _tokenBalance) public {\n        require(msg.sender == nocturnalFinance.orderCreatorAddress(), \"only OrderCreator contract can set order attribute\");\n        swapToTokenBalance[_orderAddress] = _tokenBalance;\n    }\n    \n    function setOrderFromTokenValueInETH(address _orderAddress, uint256 _balance) public {\n         require(msg.sender == nocturnalFinance.orderCreatorAddress(), \"only OrderCreator contract can set order attribute\");   \n         swapFromTokenValueInETH[_orderAddress] = _balance;\n    }\n    \n    function setOrderLimitPrice(address _orderAddress, uint256 _limitPrice) public {\n        require(msg.sender == nocturnalFinance.orderCreatorAddress(), \"only OrderCreator contract can set order attribute\");\n        swapLimitPrice[_orderAddress] = _limitPrice;\n    }\n    \n    function setOrderLimitType(address _orderAddress, bool _limitType) public {\n        require(msg.sender == nocturnalFinance.orderCreatorAddress(), \"only OrderCreator contract can set order attribute\");\n        swapAbove[_orderAddress] = _limitType;\n    }\n    \n    function setOrderSwapSlippage(address _orderAddress, uint256 _slippage) public {\n        require(msg.sender == nocturnalFinance.orderCreatorAddress(), \"only OrderCreator contract can set order attribute\");\n        swapSlippage[_orderAddress] = _slippage;\n    }\n    \n    function setOrderSettlementGratuity(address _orderAddress, uint256 _gratuity) public {\n        require(msg.sender == nocturnalFinance.orderCreatorAddress(), \"only OrderCreator contract can set order attribute\");\n        swapSettlementGratuity[_orderAddress] = _gratuity;\n    }\n    \n    function setOrderSettledFlag(address _orderAddress, bool _settleFlag) public {\n        require(msg.sender == nocturnalFinance.orderCreatorAddress(), \"only OrderCreator contract can set order attribute\");\n        swapSettledFlag[_orderAddress] = _settleFlag;\n    }\n\n\n\n    function getOrderID(address _orderAddress) public view returns (uint256) {\n        return swapOrderID[_orderAddress];\n    }\n    \n    function getOrderPoolAddress(address _orderAddress) public view returns (address) {\n        return swapPoolAddress[_orderAddress];\n    }\n    \n    function getOrderFromTokenAddress(address _orderAddress) public view returns (address) {\n        return swapFromTokenAddress[_orderAddress];\n    }\n    \n    function getOrderFromTokenBalance(address _orderAddress) public view returns (uint256) {\n        return swapFromTokenBalance[_orderAddress];\n    }\n    \n    function getOrderToTokenAddress(address _orderAddress) public view returns (address) {\n        return swapToTokenAddress[_orderAddress];\n    }\n    \n    function getOrderToTokenBalance(address _orderAddress) public view returns (uint256) {\n        return swapToTokenBalance[_orderAddress];\n    }\n    \n    function getOrderLimitPrice(address _orderAddress) public view returns (uint256) {\n        return swapLimitPrice[_orderAddress];\n    }\n    \n    function getOrderLimitType(address _orderAddress) public view returns (bool) {\n        return swapAbove[_orderAddress];\n    }\n    \n    function getOrderSwapSlippage(address _orderAddress) public view returns (uint256) {\n        return swapSlippage[_orderAddress];\n    }\n    \n    function getOrderSettlementGratuity(address _orderAddress) public view returns (uint256) {\n        return swapSettlementGratuity[_orderAddress];\n    }\n    \n    function getOrderSettledFlag(address _orderAddress) public view returns (bool) {\n        return swapSettledFlag[_orderAddress];\n    }\n    \n}\n",
  "sourcePath": "/Users/knott/Desktop/nocturnal/contracts/OrderFactory.sol",
  "compiler": {
    "name": "solc",
    "version": "0.8.0+commit.c7dfd78e.Emscripten.clang"
  },
  "schemaVersion": "3.3.3",
  "updatedAt": "2021-05-20T06:19:55.951Z",
  "devdoc": {
    "kind": "dev",
    "methods": {},
    "version": 1
  },
  "userdoc": {
    "kind": "user",
    "methods": {},
    "version": 1
  }
}