{
  "contractName": "OrderFactory",
  "abi": [
    {
      "inputs": [
        {
          "internalType": "address",
          "name": "_nocturnalFinance",
          "type": "address"
        },
        {
          "internalType": "address",
          "name": "_WETH",
          "type": "address"
        }
      ],
      "stateMutability": "nonpayable",
      "type": "constructor"
    },
    {
      "anonymous": false,
      "inputs": [
        {
          "indexed": false,
          "internalType": "uint256",
          "name": "_orderID",
          "type": "uint256"
        },
        {
          "indexed": false,
          "internalType": "address",
          "name": "_orderAddress",
          "type": "address"
        }
      ],
      "name": "orderClosed",
      "type": "event"
    },
    {
      "anonymous": false,
      "inputs": [
        {
          "indexed": false,
          "internalType": "uint256",
          "name": "_orderID",
          "type": "uint256"
        },
        {
          "indexed": false,
          "internalType": "address",
          "name": "_orderAddress",
          "type": "address"
        },
        {
          "indexed": false,
          "internalType": "uint256",
          "name": "_settlementGratuity",
          "type": "uint256"
        }
      ],
      "name": "orderCreated",
      "type": "event"
    },
    {
      "anonymous": false,
      "inputs": [
        {
          "indexed": false,
          "internalType": "uint256",
          "name": "_orderID",
          "type": "uint256"
        },
        {
          "indexed": false,
          "internalType": "address",
          "name": "_orderAddress",
          "type": "address"
        },
        {
          "indexed": false,
          "internalType": "uint256",
          "name": "_settlementGratuity",
          "type": "uint256"
        }
      ],
      "name": "orderModified",
      "type": "event"
    },
    {
      "anonymous": false,
      "inputs": [
        {
          "indexed": false,
          "internalType": "uint256",
          "name": "_orderID",
          "type": "uint256"
        },
        {
          "indexed": false,
          "internalType": "address",
          "name": "_orderAddress",
          "type": "address"
        },
        {
          "indexed": false,
          "internalType": "uint256",
          "name": "_settlementGratuity",
          "type": "uint256"
        }
      ],
      "name": "orderSettled",
      "type": "event"
    },
    {
      "anonymous": false,
      "inputs": [
        {
          "indexed": false,
          "internalType": "uint256",
          "name": "_volume",
          "type": "uint256"
        }
      ],
      "name": "platformVolumeUpdate",
      "type": "event"
    },
    {
      "inputs": [],
      "name": "nocturnalFinance",
      "outputs": [
        {
          "internalType": "contract NocturnalFinanceInterface",
          "name": "",
          "type": "address"
        }
      ],
      "stateMutability": "view",
      "type": "function"
    },
    {
      "inputs": [],
      "name": "orderCounter",
      "outputs": [
        {
          "internalType": "uint256",
          "name": "_value",
          "type": "uint256"
        }
      ],
      "stateMutability": "view",
      "type": "function"
    },
    {
      "inputs": [],
      "name": "platformVolume",
      "outputs": [
        {
          "internalType": "uint256",
          "name": "",
          "type": "uint256"
        }
      ],
      "stateMutability": "view",
      "type": "function"
    },
    {
      "inputs": [],
      "name": "pool",
      "outputs": [
        {
          "internalType": "contract IUniswapV3Pool",
          "name": "",
          "type": "address"
        }
      ],
      "stateMutability": "view",
      "type": "function"
    },
    {
      "inputs": [
        {
          "internalType": "address",
          "name": "_swapPoolAddress",
          "type": "address"
        },
        {
          "internalType": "address",
          "name": "_swapFromTokenAddress",
          "type": "address"
        },
        {
          "internalType": "address",
          "name": "_swapToTokenAddress",
          "type": "address"
        },
        {
          "internalType": "uint256",
          "name": "_swapFromTokenBalance",
          "type": "uint256"
        },
        {
          "internalType": "uint256",
          "name": "_swapLimitPrice",
          "type": "uint256"
        },
        {
          "internalType": "uint256",
          "name": "_swapSlippage",
          "type": "uint256"
        },
        {
          "internalType": "bool",
          "name": "_swapAbove",
          "type": "bool"
        },
        {
          "internalType": "uint256",
          "name": "_swapSettlementGratuity",
          "type": "uint256"
        }
      ],
      "name": "createLimitOrder",
      "outputs": [],
      "stateMutability": "nonpayable",
      "type": "function"
    },
    {
      "inputs": [
        {
          "internalType": "address",
          "name": "_address",
          "type": "address"
        }
      ],
      "name": "settleLimitOrder",
      "outputs": [],
      "stateMutability": "nonpayable",
      "type": "function"
    },
    {
      "inputs": [
        {
          "internalType": "address",
          "name": "_address",
          "type": "address"
        }
      ],
      "name": "closeLimitOrder",
      "outputs": [],
      "stateMutability": "nonpayable",
      "type": "function"
    },
    {
      "inputs": [
        {
          "internalType": "address",
          "name": "_orderAddress",
          "type": "address"
        }
      ],
      "name": "getOrderID",
      "outputs": [
        {
          "internalType": "uint256",
          "name": "",
          "type": "uint256"
        }
      ],
      "stateMutability": "view",
      "type": "function"
    },
    {
      "inputs": [
        {
          "internalType": "address",
          "name": "_orderAddress",
          "type": "address"
        }
      ],
      "name": "getOrderPoolAddress",
      "outputs": [
        {
          "internalType": "address",
          "name": "",
          "type": "address"
        }
      ],
      "stateMutability": "view",
      "type": "function"
    },
    {
      "inputs": [
        {
          "internalType": "address",
          "name": "_orderAddress",
          "type": "address"
        }
      ],
      "name": "getOrderFromTokenAddress",
      "outputs": [
        {
          "internalType": "address",
          "name": "",
          "type": "address"
        }
      ],
      "stateMutability": "view",
      "type": "function"
    },
    {
      "inputs": [
        {
          "internalType": "address",
          "name": "_orderAddress",
          "type": "address"
        }
      ],
      "name": "getOrderFromTokenBalance",
      "outputs": [
        {
          "internalType": "uint256",
          "name": "",
          "type": "uint256"
        }
      ],
      "stateMutability": "view",
      "type": "function"
    },
    {
      "inputs": [
        {
          "internalType": "address",
          "name": "_orderAddress",
          "type": "address"
        }
      ],
      "name": "getOrderToTokenAddress",
      "outputs": [
        {
          "internalType": "address",
          "name": "",
          "type": "address"
        }
      ],
      "stateMutability": "view",
      "type": "function"
    },
    {
      "inputs": [
        {
          "internalType": "address",
          "name": "_orderAddress",
          "type": "address"
        }
      ],
      "name": "getOrderToTokenBalance",
      "outputs": [
        {
          "internalType": "uint256",
          "name": "",
          "type": "uint256"
        }
      ],
      "stateMutability": "view",
      "type": "function"
    },
    {
      "inputs": [
        {
          "internalType": "address",
          "name": "_orderAddress",
          "type": "address"
        }
      ],
      "name": "getOrderLimitPrice",
      "outputs": [
        {
          "internalType": "uint256",
          "name": "",
          "type": "uint256"
        }
      ],
      "stateMutability": "view",
      "type": "function"
    },
    {
      "inputs": [
        {
          "internalType": "address",
          "name": "_orderAddress",
          "type": "address"
        }
      ],
      "name": "getOrderLimitType",
      "outputs": [
        {
          "internalType": "bool",
          "name": "",
          "type": "bool"
        }
      ],
      "stateMutability": "view",
      "type": "function"
    },
    {
      "inputs": [
        {
          "internalType": "address",
          "name": "_orderAddress",
          "type": "address"
        }
      ],
      "name": "getOrderSwapSlippage",
      "outputs": [
        {
          "internalType": "uint256",
          "name": "",
          "type": "uint256"
        }
      ],
      "stateMutability": "view",
      "type": "function"
    },
    {
      "inputs": [
        {
          "internalType": "address",
          "name": "_orderAddress",
          "type": "address"
        }
      ],
      "name": "getOrderSettlementGratuity",
      "outputs": [
        {
          "internalType": "uint256",
          "name": "",
          "type": "uint256"
        }
      ],
      "stateMutability": "view",
      "type": "function"
    },
    {
      "inputs": [
        {
          "internalType": "address",
          "name": "_orderAddress",
          "type": "address"
        }
      ],
      "name": "getOrderSettledFlag",
      "outputs": [
        {
          "internalType": "bool",
          "name": "",
          "type": "bool"
        }
      ],
      "stateMutability": "view",
      "type": "function"
    },
    {
      "inputs": [
        {
          "internalType": "address",
          "name": "_orderAddress",
          "type": "address"
        },
        {
          "internalType": "uint256",
          "name": "_newSwapSlippage",
          "type": "uint256"
        }
      ],
      "name": "modifyOrderSwapSlippage",
      "outputs": [
        {
          "internalType": "uint256",
          "name": "",
          "type": "uint256"
        }
      ],
      "stateMutability": "nonpayable",
      "type": "function"
    },
    {
      "inputs": [
        {
          "internalType": "address",
          "name": "_orderAddress",
          "type": "address"
        },
        {
          "internalType": "uint256",
          "name": "_newSettlementGratuity",
          "type": "uint256"
        }
      ],
      "name": "modifyOrderSettlementGratuity",
      "outputs": [
        {
          "internalType": "uint256",
          "name": "",
          "type": "uint256"
        }
      ],
      "stateMutability": "nonpayable",
      "type": "function"
    }
  ],
  "bytecode": "0x60806040523480156200001157600080fd5b50604051620089c5380380620089c58339818101604052810190620000379190620000d8565b81600f60006101000a81548173ffffffffffffffffffffffffffffffffffffffff021916908373ffffffffffffffffffffffffffffffffffffffff16021790555080600260006101000a81548173ffffffffffffffffffffffffffffffffffffffff021916908373ffffffffffffffffffffffffffffffffffffffff160217905550505062000167565b600081519050620000d2816200014d565b92915050565b60008060408385031215620000ec57600080fd5b6000620000fc85828601620000c1565b92505060206200010f85828601620000c1565b9150509250929050565b600062000126826200012d565b9050919050565b600073ffffffffffffffffffffffffffffffffffffffff82169050919050565b620001588162000119565b81146200016457600080fd5b50565b61884e80620001776000396000f3fe60806040523480156200001157600080fd5b5060043610620001485760003560e01c80636b49e26e11620000bd578063a2382864116200007b578063a23828641462000421578063a2dcec501462000457578063abd5db5e1462000479578063b789bf5214620004af578063ee64deab14620004d15762000148565b80636b49e26e14620003295780636bd200a4146200035f5780637753b98714620003955780638010304914620003cb57806391c02c6514620003eb5762000148565b806323918cf0116200010b57806323918cf0146200024757806329cbb825146200027d5780633043a33414620002b3578063423a678214620002d357806361df797e14620002f35762000148565b80630df1e59a146200014d57806313cc6449146200018357806316f0115b14620001b95780631830c30814620001db5780631d60e3ae1462000211575b600080fd5b6200016b600480360381019062000165919062004880565b620004f3565b6040516200017a919062004ecb565b60405180910390f35b620001a160048036038101906200019b919062004880565b62000549565b604051620001b0919062005047565b60405180910390f35b620001c362000592565b604051620001d2919062004ee8565b60405180910390f35b620001f96004803603810190620001f3919062004880565b620005b8565b60405162000208919062005047565b60405180910390f35b6200022f600480360381019062000229919062004880565b62000601565b6040516200023e919062004de7565b60405180910390f35b6200026560048036038101906200025f919062004880565b6200066a565b60405162000274919062005047565b60405180910390f35b6200029b60048036038101906200029591906200499b565b620006b3565b604051620002aa919062005047565b60405180910390f35b620002d16004803603810190620002cb919062004880565b62000922565b005b620002f16004803603810190620002eb9190620048d8565b6200152a565b005b6200031160048036038101906200030b919062004880565b62002068565b60405162000320919062004de7565b60405180910390f35b62000347600480360381019062000341919062004880565b620020d1565b60405162000356919062005047565b60405180910390f35b6200037d600480360381019062000377919062004880565b6200211a565b6040516200038c919062004de7565b60405180910390f35b620003b36004803603810190620003ad919062004880565b62002183565b604051620003c2919062004ecb565b60405180910390f35b620003e96004803603810190620003e3919062004880565b620021d9565b005b62000409600480360381019062000403919062004880565b62002aa4565b60405162000418919062005047565b60405180910390f35b6200043f600480360381019062000439919062004880565b62002aed565b6040516200044e919062005047565b60405180910390f35b6200046162002b36565b60405162000470919062005047565b60405180910390f35b6200049760048036038101906200049191906200499b565b62002b3c565b604051620004a6919062005047565b60405180910390f35b620004b962002df0565b604051620004c8919062005047565b60405180910390f35b620004db62002dfc565b604051620004ea919062004f05565b60405180910390f35b6000600e60008373ffffffffffffffffffffffffffffffffffffffff1673ffffffffffffffffffffffffffffffffffffffff16815260200190815260200160002060009054906101000a900460ff169050919050565b6000600d60008373ffffffffffffffffffffffffffffffffffffffff1673ffffffffffffffffffffffffffffffffffffffff168152602001908152602001600020549050919050565b601060009054906101000a900473ffffffffffffffffffffffffffffffffffffffff1681565b6000600860008373ffffffffffffffffffffffffffffffffffffffff1673ffffffffffffffffffffffffffffffffffffffff168152602001908152602001600020549050919050565b6000600660008373ffffffffffffffffffffffffffffffffffffffff1673ffffffffffffffffffffffffffffffffffffffff16815260200190815260200160002060009054906101000a900473ffffffffffffffffffffffffffffffffffffffff169050919050565b6000600a60008373ffffffffffffffffffffffffffffffffffffffff1673ffffffffffffffffffffffffffffffffffffffff168152602001908152602001600020549050919050565b600080600360008573ffffffffffffffffffffffffffffffffffffffff1673ffffffffffffffffffffffffffffffffffffffff1681526020019081526020016000205490503373ffffffffffffffffffffffffffffffffffffffff16600f60009054906101000a900473ffffffffffffffffffffffffffffffffffffffff1673ffffffffffffffffffffffffffffffffffffffff16634f5843426040518163ffffffff1660e01b815260040160206040518083038186803b1580156200077857600080fd5b505afa1580156200078d573d6000803e3d6000fd5b505050506040513d601f19601f82011682018060405250810190620007b39190620048ac565b73ffffffffffffffffffffffffffffffffffffffff16636352211e836040518263ffffffff1660e01b8152600401620007ed919062005047565b60206040518083038186803b1580156200080657600080fd5b505afa1580156200081b573d6000803e3d6000fd5b505050506040513d601f19601f82011682018060405250810190620008419190620048ac565b73ffffffffffffffffffffffffffffffffffffffff16146200089a576040517f08c379a0000000000000000000000000000000000000000000000000000000008152600401620008919062005025565b60405180910390fd5b82600d60008673ffffffffffffffffffffffffffffffffffffffff1673ffffffffffffffffffffffffffffffffffffffff168152602001908152602001600020819055507f5a3658449e0206cd7403c8149a68b4bfca463119d65774d499cf0f338d16d1fe8185856040516200091393929190620050de565b60405180910390a15092915050565b6000600b60008373ffffffffffffffffffffffffffffffffffffffff1673ffffffffffffffffffffffffffffffffffffffff16815260200190815260200160002060009054906101000a900460ff1690506000600a60008473ffffffffffffffffffffffffffffffffffffffff1673ffffffffffffffffffffffffffffffffffffffff1681526020019081526020016000205490506000600560008573ffffffffffffffffffffffffffffffffffffffff1673ffffffffffffffffffffffffffffffffffffffff16815260200190815260200160002060009054906101000a900473ffffffffffffffffffffffffffffffffffffffff1690506000600460008673ffffffffffffffffffffffffffffffffffffffff1673ffffffffffffffffffffffffffffffffffffffff16815260200190815260200160002060009054906101000a900473ffffffffffffffffffffffffffffffffffffffff169050600081601060006101000a81548173ffffffffffffffffffffffffffffffffffffffff021916908373ffffffffffffffffffffffffffffffffffffffff1602179055508273ffffffffffffffffffffffffffffffffffffffff16601060009054906101000a900473ffffffffffffffffffffffffffffffffffffffff1673ffffffffffffffffffffffffffffffffffffffff16630dfe16816040518163ffffffff1660e01b815260040160206040518083038186803b15801562000b4257600080fd5b505afa15801562000b57573d6000803e3d6000fd5b505050506040513d601f19601f8201168201806040525081019062000b7d9190620048ac565b73ffffffffffffffffffffffffffffffffffffffff16141562000cd757600f60009054906101000a900473ffffffffffffffffffffffffffffffffffffffff1673ffffffffffffffffffffffffffffffffffffffff1663a89ae4ba6040518163ffffffff1660e01b815260040160206040518083038186803b15801562000c0357600080fd5b505afa15801562000c18573d6000803e3d6000fd5b505050506040513d601f19601f8201168201806040525081019062000c3e9190620048ac565b73ffffffffffffffffffffffffffffffffffffffff166384cc315b876040518263ffffffff1660e01b815260040162000c78919062004de7565b60206040518083038186803b15801562000c9157600080fd5b505afa15801562000ca6573d6000803e3d6000fd5b505050506040513d601f19601f8201168201806040525081019062000ccc919062004a08565b60020b905062000e0f565b600f60009054906101000a900473ffffffffffffffffffffffffffffffffffffffff1673ffffffffffffffffffffffffffffffffffffffff1663a89ae4ba6040518163ffffffff1660e01b815260040160206040518083038186803b15801562000d4057600080fd5b505afa15801562000d55573d6000803e3d6000fd5b505050506040513d601f19601f8201168201806040525081019062000d7b9190620048ac565b73ffffffffffffffffffffffffffffffffffffffff166384cc315b876040518263ffffffff1660e01b815260040162000db5919062004de7565b60206040518083038186803b15801562000dce57600080fd5b505afa15801562000de3573d6000803e3d6000fd5b505050506040513d601f19601f8201168201806040525081019062000e09919062004a08565b60020b90505b60011515851515141562000e69578381101562000e63576040517f08c379a000000000000000000000000000000000000000000000000000000000815260040162000e5a9062004f22565b60405180910390fd5b62000ebf565b60001515851515141562000ebe578381111562000ebd576040517f08c379a000000000000000000000000000000000000000000000000000000000815260040162000eb49062004f22565b60405180910390fd5b5b5b6000600760008873ffffffffffffffffffffffffffffffffffffffff1673ffffffffffffffffffffffffffffffffffffffff1681526020019081526020016000205490506000600d60008973ffffffffffffffffffffffffffffffffffffffff1673ffffffffffffffffffffffffffffffffffffffff1681526020019081526020016000205490506000600f60009054906101000a900473ffffffffffffffffffffffffffffffffffffffff1673ffffffffffffffffffffffffffffffffffffffff16634f5843426040518163ffffffff1660e01b815260040160206040518083038186803b15801562000fb257600080fd5b505afa15801562000fc7573d6000803e3d6000fd5b505050506040513d601f19601f8201168201806040525081019062000fed9190620048ac565b73ffffffffffffffffffffffffffffffffffffffff16636352211e600360008c73ffffffffffffffffffffffffffffffffffffffff1673ffffffffffffffffffffffffffffffffffffffff168152602001908152602001600020546040518263ffffffff1660e01b815260040162001066919062005047565b60206040518083038186803b1580156200107f57600080fd5b505afa15801562001094573d6000803e3d6000fd5b505050506040513d601f19601f82011682018060405250810190620010ba9190620048ac565b90506000600960008b73ffffffffffffffffffffffffffffffffffffffff1673ffffffffffffffffffffffffffffffffffffffff16815260200190815260200160002054905060006200112d6103e86200111e868862002e2290919063ffffffff16565b62002e3a90919063ffffffff16565b905060008873ffffffffffffffffffffffffffffffffffffffff16601060009054906101000a900473ffffffffffffffffffffffffffffffffffffffff1673ffffffffffffffffffffffffffffffffffffffff16630dfe16816040518163ffffffff1660e01b815260040160206040518083038186803b158015620011b157600080fd5b505afa158015620011c6573d6000803e3d6000fd5b505050506040513d601f19601f82011682018060405250810190620011ec9190620048ac565b73ffffffffffffffffffffffffffffffffffffffff16141562001213576001905062001218565b600090505b600260009054906101000a900473ffffffffffffffffffffffffffffffffffffffff1673ffffffffffffffffffffffffffffffffffffffff168973ffffffffffffffffffffffffffffffffffffffff16141562001285576200127f89838a8f858b62002e52565b6200134c565b600260009054906101000a900473ffffffffffffffffffffffffffffffffffffffff1673ffffffffffffffffffffffffffffffffffffffff16600660008e73ffffffffffffffffffffffffffffffffffffffff1673ffffffffffffffffffffffffffffffffffffffff16815260200190815260200160002060009054906101000a900473ffffffffffffffffffffffffffffffffffffffff1673ffffffffffffffffffffffffffffffffffffffff1614156200134b576200134a82898e848a6200309f565b5b5b620013618287620032f090919063ffffffff16565b600860008e73ffffffffffffffffffffffffffffffffffffffff1673ffffffffffffffffffffffffffffffffffffffff168152602001908152602001600020819055506000600760008e73ffffffffffffffffffffffffffffffffffffffff1673ffffffffffffffffffffffffffffffffffffffff168152602001908152602001600020819055506001600e60008e73ffffffffffffffffffffffffffffffffffffffff1673ffffffffffffffffffffffffffffffffffffffff16815260200190815260200160002060006101000a81548160ff0219169083151502179055506200144d838562003308565b620014648360015462003c6d90919063ffffffff16565b507fda57d47865c8e0f5ada5a47a9ad3b1ed6f8a98c32998963da4c34505379f4291600360008e73ffffffffffffffffffffffffffffffffffffffff1673ffffffffffffffffffffffffffffffffffffffff168152602001908152602001600020548d87604051620014d993929190620050de565b60405180910390a17f6f356b318c44fad508346fa20753a2d70d2c74e03cbef142a911648f5445160060015460405162001514919062005047565b60405180910390a1505050505050505050505050565b600260009054906101000a900473ffffffffffffffffffffffffffffffffffffffff1673ffffffffffffffffffffffffffffffffffffffff168773ffffffffffffffffffffffffffffffffffffffff161480620015d45750600260009054906101000a900473ffffffffffffffffffffffffffffffffffffffff1673ffffffffffffffffffffffffffffffffffffffff168673ffffffffffffffffffffffffffffffffffffffff16145b62001616576040517f08c379a00000000000000000000000000000000000000000000000000000000081526004016200160d9062004fbf565b60405180910390fd5b848773ffffffffffffffffffffffffffffffffffffffff166370a08231336040518263ffffffff1660e01b815260040162001652919062004de7565b60206040518083038186803b1580156200166b57600080fd5b505afa15801562001680573d6000803e3d6000fd5b505050506040513d601f19601f82011682018060405250810190620016a6919062004a34565b1015620016b257600080fd5b600081101580156200179157506200178e6103e86200177f6064600f60009054906101000a900473ffffffffffffffffffffffffffffffffffffffff1673ffffffffffffffffffffffffffffffffffffffff16637e74a1ed6040518163ffffffff1660e01b815260040160206040518083038186803b1580156200173557600080fd5b505afa1580156200174a573d6000803e3d6000fd5b505050506040513d601f19601f8201168201806040525081019062001770919062004a34565b62002e2290919063ffffffff16565b62002e3a90919063ffffffff16565b81105b6200179b57600080fd5b6000604051620017ab90620047d1565b620017b69062004f88565b604051809103906000f080158015620017d3573d6000803e3d6000fd5b509050620017e2600062003c85565b620017ee600062003c9b565b600360008373ffffffffffffffffffffffffffffffffffffffff1673ffffffffffffffffffffffffffffffffffffffff1681526020019081526020016000208190555088600460008373ffffffffffffffffffffffffffffffffffffffff1673ffffffffffffffffffffffffffffffffffffffff16815260200190815260200160002060006101000a81548173ffffffffffffffffffffffffffffffffffffffff021916908373ffffffffffffffffffffffffffffffffffffffff16021790555087600560008373ffffffffffffffffffffffffffffffffffffffff1673ffffffffffffffffffffffffffffffffffffffff16815260200190815260200160002060006101000a81548173ffffffffffffffffffffffffffffffffffffffff021916908373ffffffffffffffffffffffffffffffffffffffff16021790555086600660008373ffffffffffffffffffffffffffffffffffffffff1673ffffffffffffffffffffffffffffffffffffffff16815260200190815260200160002060006101000a81548173ffffffffffffffffffffffffffffffffffffffff021916908373ffffffffffffffffffffffffffffffffffffffff16021790555085600760008373ffffffffffffffffffffffffffffffffffffffff1673ffffffffffffffffffffffffffffffffffffffff1681526020019081526020016000208190555084600a60008373ffffffffffffffffffffffffffffffffffffffff1673ffffffffffffffffffffffffffffffffffffffff1681526020019081526020016000208190555082600b60008373ffffffffffffffffffffffffffffffffffffffff1673ffffffffffffffffffffffffffffffffffffffff16815260200190815260200160002060006101000a81548160ff02191690831515021790555083600c60008373ffffffffffffffffffffffffffffffffffffffff1673ffffffffffffffffffffffffffffffffffffffff1681526020019081526020016000208190555081600d60008373ffffffffffffffffffffffffffffffffffffffff1673ffffffffffffffffffffffffffffffffffffffff16815260200190815260200160002081905550600f60009054906101000a900473ffffffffffffffffffffffffffffffffffffffff1673ffffffffffffffffffffffffffffffffffffffff16634f5843426040518163ffffffff1660e01b815260040160206040518083038186803b15801562001b7b57600080fd5b505afa15801562001b90573d6000803e3d6000fd5b505050506040513d601f19601f8201168201806040525081019062001bb69190620048ac565b73ffffffffffffffffffffffffffffffffffffffff16634e6ec2473362001bde600062003c9b565b6040518363ffffffff1660e01b815260040162001bfd92919062004e9e565b600060405180830381600087803b15801562001c1857600080fd5b505af115801562001c2d573d6000803e3d6000fd5b5050505088601060006101000a81548173ffffffffffffffffffffffffffffffffffffffff021916908373ffffffffffffffffffffffffffffffffffffffff160217905550600062001d426103e862001d33600f60009054906101000a900473ffffffffffffffffffffffffffffffffffffffff1673ffffffffffffffffffffffffffffffffffffffff16637e74a1ed6040518163ffffffff1660e01b815260040160206040518083038186803b15801562001ce857600080fd5b505afa15801562001cfd573d6000803e3d6000fd5b505050506040513d601f19601f8201168201806040525081019062001d23919062004a34565b8a62002e2290919063ffffffff16565b62002e3a90919063ffffffff16565b9050600260009054906101000a900473ffffffffffffffffffffffffffffffffffffffff1673ffffffffffffffffffffffffffffffffffffffff168973ffffffffffffffffffffffffffffffffffffffff16141562001e825762001e7c8982848a8d73ffffffffffffffffffffffffffffffffffffffff16601060009054906101000a900473ffffffffffffffffffffffffffffffffffffffff1673ffffffffffffffffffffffffffffffffffffffff16630dfe16816040518163ffffffff1660e01b815260040160206040518083038186803b15801562001e2357600080fd5b505afa15801562001e38573d6000803e3d6000fd5b505050506040513d601f19601f8201168201806040525081019062001e5e9190620048ac565b73ffffffffffffffffffffffffffffffffffffffff16148f62003ca9565b62001fbc565b600260009054906101000a900473ffffffffffffffffffffffffffffffffffffffff1673ffffffffffffffffffffffffffffffffffffffff168873ffffffffffffffffffffffffffffffffffffffff16141562001fbb5762001fba8982848a8d73ffffffffffffffffffffffffffffffffffffffff16601060009054906101000a900473ffffffffffffffffffffffffffffffffffffffff1673ffffffffffffffffffffffffffffffffffffffff16630dfe16816040518163ffffffff1660e01b815260040160206040518083038186803b15801562001f6157600080fd5b505afa15801562001f76573d6000803e3d6000fd5b505050506040513d601f19601f8201168201806040525081019062001f9c9190620048ac565b73ffffffffffffffffffffffffffffffffffffffff16148f6200421b565b5b5b62001fd18188620032f090919063ffffffff16565b600760008473ffffffffffffffffffffffffffffffffffffffff1673ffffffffffffffffffffffffffffffffffffffff168152602001908152602001600020819055507f499923b5f54b67035661fa7d0f5718bf5f33a1fc7bb542bc6b1c6fe84c0e229862002041600062003c9b565b83856040516200205493929190620050de565b60405180910390a150505050505050505050565b6000600560008373ffffffffffffffffffffffffffffffffffffffff1673ffffffffffffffffffffffffffffffffffffffff16815260200190815260200160002060009054906101000a900473ffffffffffffffffffffffffffffffffffffffff169050919050565b6000600760008373ffffffffffffffffffffffffffffffffffffffff1673ffffffffffffffffffffffffffffffffffffffff168152602001908152602001600020549050919050565b6000600460008373ffffffffffffffffffffffffffffffffffffffff1673ffffffffffffffffffffffffffffffffffffffff16815260200190815260200160002060009054906101000a900473ffffffffffffffffffffffffffffffffffffffff169050919050565b6000600b60008373ffffffffffffffffffffffffffffffffffffffff1673ffffffffffffffffffffffffffffffffffffffff16815260200190815260200160002060009054906101000a900460ff169050919050565b3373ffffffffffffffffffffffffffffffffffffffff16600f60009054906101000a900473ffffffffffffffffffffffffffffffffffffffff1673ffffffffffffffffffffffffffffffffffffffff16634f5843426040518163ffffffff1660e01b815260040160206040518083038186803b1580156200225957600080fd5b505afa1580156200226e573d6000803e3d6000fd5b505050506040513d601f19601f82011682018060405250810190620022949190620048ac565b73ffffffffffffffffffffffffffffffffffffffff16636352211e600360008573ffffffffffffffffffffffffffffffffffffffff1673ffffffffffffffffffffffffffffffffffffffff168152602001908152602001600020546040518263ffffffff1660e01b81526004016200230d919062005047565b60206040518083038186803b1580156200232657600080fd5b505afa1580156200233b573d6000803e3d6000fd5b505050506040513d601f19601f82011682018060405250810190620023619190620048ac565b73ffffffffffffffffffffffffffffffffffffffff1614620023ba576040517f08c379a0000000000000000000000000000000000000000000000000000000008152600401620023b19062004f66565b60405180910390fd5b60011515600e60008373ffffffffffffffffffffffffffffffffffffffff1673ffffffffffffffffffffffffffffffffffffffff16815260200190815260200160002060009054906101000a900460ff16151514156200276057600f60009054906101000a900473ffffffffffffffffffffffffffffffffffffffff1673ffffffffffffffffffffffffffffffffffffffff16634f5843426040518163ffffffff1660e01b815260040160206040518083038186803b1580156200247d57600080fd5b505afa15801562002492573d6000803e3d6000fd5b505050506040513d601f19601f82011682018060405250810190620024b89190620048ac565b73ffffffffffffffffffffffffffffffffffffffff16633740876b600360008473ffffffffffffffffffffffffffffffffffffffff1673ffffffffffffffffffffffffffffffffffffffff16815260200190815260200160002054600660008573ffffffffffffffffffffffffffffffffffffffff1673ffffffffffffffffffffffffffffffffffffffff16815260200190815260200160002060009054906101000a900473ffffffffffffffffffffffffffffffffffffffff1633600860008773ffffffffffffffffffffffffffffffffffffffff1673ffffffffffffffffffffffffffffffffffffffff168152602001908152602001600020546040518563ffffffff1660e01b8152600401620025d5949392919062005091565b600060405180830381600087803b158015620025f057600080fd5b505af115801562002605573d6000803e3d6000fd5b50505050600f60009054906101000a900473ffffffffffffffffffffffffffffffffffffffff1673ffffffffffffffffffffffffffffffffffffffff16634f5843426040518163ffffffff1660e01b815260040160206040518083038186803b1580156200267257600080fd5b505afa15801562002687573d6000803e3d6000fd5b505050506040513d601f19601f82011682018060405250810190620026ad9190620048ac565b73ffffffffffffffffffffffffffffffffffffffff166342966c68600360008473ffffffffffffffffffffffffffffffffffffffff1673ffffffffffffffffffffffffffffffffffffffff168152602001908152602001600020546040518263ffffffff1660e01b815260040162002726919062005047565b600060405180830381600087803b1580156200274157600080fd5b505af115801562002756573d6000803e3d6000fd5b5050505062002a27565b600560008273ffffffffffffffffffffffffffffffffffffffff1673ffffffffffffffffffffffffffffffffffffffff16815260200190815260200160002060009054906101000a900473ffffffffffffffffffffffffffffffffffffffff1673ffffffffffffffffffffffffffffffffffffffff166323b872dd8233600760008673ffffffffffffffffffffffffffffffffffffffff1673ffffffffffffffffffffffffffffffffffffffff168152602001908152602001600020546040518463ffffffff1660e01b81526004016200283d9392919062004e61565b602060405180830381600087803b1580156200285857600080fd5b505af11580156200286d573d6000803e3d6000fd5b505050506040513d601f19601f82011682018060405250810190620028939190620049dc565b620028d5576040517f08c379a0000000000000000000000000000000000000000000000000000000008152600401620028cc9062004f44565b60405180910390fd5b600f60009054906101000a900473ffffffffffffffffffffffffffffffffffffffff1673ffffffffffffffffffffffffffffffffffffffff16634f5843426040518163ffffffff1660e01b815260040160206040518083038186803b1580156200293e57600080fd5b505afa15801562002953573d6000803e3d6000fd5b505050506040513d601f19601f82011682018060405250810190620029799190620048ac565b73ffffffffffffffffffffffffffffffffffffffff166342966c68600360008473ffffffffffffffffffffffffffffffffffffffff1673ffffffffffffffffffffffffffffffffffffffff168152602001908152602001600020546040518263ffffffff1660e01b8152600401620029f2919062005047565b600060405180830381600087803b15801562002a0d57600080fd5b505af115801562002a22573d6000803e3d6000fd5b505050505b7fdfe7087dd52f7eaed4118d5f015121308d3feaa8371baa606587abafbd9c9f64600360008373ffffffffffffffffffffffffffffffffffffffff1673ffffffffffffffffffffffffffffffffffffffff168152602001908152602001600020548260405162002a9992919062005064565b60405180910390a150565b6000600360008373ffffffffffffffffffffffffffffffffffffffff1673ffffffffffffffffffffffffffffffffffffffff168152602001908152602001600020549050919050565b6000600c60008373ffffffffffffffffffffffffffffffffffffffff1673ffffffffffffffffffffffffffffffffffffffff168152602001908152602001600020549050919050565b60015481565b600080600360008573ffffffffffffffffffffffffffffffffffffffff1673ffffffffffffffffffffffffffffffffffffffff1681526020019081526020016000205490503373ffffffffffffffffffffffffffffffffffffffff16600f60009054906101000a900473ffffffffffffffffffffffffffffffffffffffff1673ffffffffffffffffffffffffffffffffffffffff16634f5843426040518163ffffffff1660e01b815260040160206040518083038186803b15801562002c0157600080fd5b505afa15801562002c16573d6000803e3d6000fd5b505050506040513d601f19601f8201168201806040525081019062002c3c9190620048ac565b73ffffffffffffffffffffffffffffffffffffffff16636352211e836040518263ffffffff1660e01b815260040162002c76919062005047565b60206040518083038186803b15801562002c8f57600080fd5b505afa15801562002ca4573d6000803e3d6000fd5b505050506040513d601f19601f8201168201806040525081019062002cca9190620048ac565b73ffffffffffffffffffffffffffffffffffffffff161462002d23576040517f08c379a000000000000000000000000000000000000000000000000000000000815260040162002d1a9062005025565b60405180910390fd5b82600c60008673ffffffffffffffffffffffffffffffffffffffff1673ffffffffffffffffffffffffffffffffffffffff168152602001908152602001600020819055506000600d60008673ffffffffffffffffffffffffffffffffffffffff1673ffffffffffffffffffffffffffffffffffffffff1681526020019081526020016000205490507f5a3658449e0206cd7403c8149a68b4bfca463119d65774d499cf0f338d16d1fe82868360405162002de093929190620050de565b60405180910390a1505092915050565b60008060000154905081565b600f60009054906101000a900473ffffffffffffffffffffffffffffffffffffffff1681565b6000818362002e329190620051c1565b905092915050565b6000818362002e4a919062005189565b905092915050565b600f60009054906101000a900473ffffffffffffffffffffffffffffffffffffffff1673ffffffffffffffffffffffffffffffffffffffff16634f5843426040518163ffffffff1660e01b815260040160206040518083038186803b15801562002ebb57600080fd5b505afa15801562002ed0573d6000803e3d6000fd5b505050506040513d601f19601f8201168201806040525081019062002ef69190620048ac565b73ffffffffffffffffffffffffffffffffffffffff16638bcf4d718733886040518463ffffffff1660e01b815260040162002f349392919062004e61565b600060405180830381600087803b15801562002f4f57600080fd5b505af115801562002f64573d6000803e3d6000fd5b50505050600f60009054906101000a900473ffffffffffffffffffffffffffffffffffffffff1673ffffffffffffffffffffffffffffffffffffffff16634f5843426040518163ffffffff1660e01b815260040160206040518083038186803b15801562002fd157600080fd5b505afa15801562002fe6573d6000803e3d6000fd5b505050506040513d601f19601f820116820180604052508101906200300c9190620048ac565b73ffffffffffffffffffffffffffffffffffffffff1663cb57b4898585856200303f8a87620032f090919063ffffffff16565b60006040518663ffffffff1660e01b81526004016200306395949392919062004e04565b600060405180830381600087803b1580156200307e57600080fd5b505af115801562003093573d6000803e3d6000fd5b50505050505050505050565b600f60009054906101000a900473ffffffffffffffffffffffffffffffffffffffff1673ffffffffffffffffffffffffffffffffffffffff16634f5843426040518163ffffffff1660e01b815260040160206040518083038186803b1580156200310857600080fd5b505afa1580156200311d573d6000803e3d6000fd5b505050506040513d601f19601f82011682018060405250810190620031439190620048ac565b73ffffffffffffffffffffffffffffffffffffffff1663cb57b4898533858960006040518663ffffffff1660e01b81526004016200318695949392919062004e04565b600060405180830381600087803b158015620031a157600080fd5b505af1158015620031b6573d6000803e3d6000fd5b50505050600f60009054906101000a900473ffffffffffffffffffffffffffffffffffffffff1673ffffffffffffffffffffffffffffffffffffffff16634f5843426040518163ffffffff1660e01b815260040160206040518083038186803b1580156200322357600080fd5b505afa15801562003238573d6000803e3d6000fd5b505050506040513d601f19601f820116820180604052508101906200325e9190620048ac565b73ffffffffffffffffffffffffffffffffffffffff1663cb57b489858585620032918a87620032f090919063ffffffff16565b60006040518663ffffffff1660e01b8152600401620032b595949392919062004e04565b600060405180830381600087803b158015620032d057600080fd5b505af1158015620032e5573d6000803e3d6000fd5b505050505050505050565b6000818362003300919062005222565b905092915050565b6000620033d86103e8620033c9600f60009054906101000a900473ffffffffffffffffffffffffffffffffffffffff1673ffffffffffffffffffffffffffffffffffffffff16634369c2506040518163ffffffff1660e01b815260040160206040518083038186803b1580156200337e57600080fd5b505afa15801562003393573d6000803e3d6000fd5b505050506040513d601f19601f82011682018060405250810190620033b9919062004a34565b8662002e2290919063ffffffff16565b62002e3a90919063ffffffff16565b9050600f60009054906101000a900473ffffffffffffffffffffffffffffffffffffffff1673ffffffffffffffffffffffffffffffffffffffff16631d1d929b6040518163ffffffff1660e01b815260040160206040518083038186803b1580156200344357600080fd5b505afa15801562003458573d6000803e3d6000fd5b505050506040513d601f19601f820116820180604052508101906200347e9190620048ac565b73ffffffffffffffffffffffffffffffffffffffff16636a20de92600f60009054906101000a900473ffffffffffffffffffffffffffffffffffffffff1673ffffffffffffffffffffffffffffffffffffffff1663c0973eed6040518163ffffffff1660e01b815260040160206040518083038186803b1580156200350257600080fd5b505afa15801562003517573d6000803e3d6000fd5b505050506040513d601f19601f820116820180604052508101906200353d9190620048ac565b836040518363ffffffff1660e01b81526004016200355d92919062004e9e565b600060405180830381600087803b1580156200357857600080fd5b505af11580156200358d573d6000803e3d6000fd5b50505050620036d781600f60009054906101000a900473ffffffffffffffffffffffffffffffffffffffff1673ffffffffffffffffffffffffffffffffffffffff1663c0973eed6040518163ffffffff1660e01b815260040160206040518083038186803b158015620035ff57600080fd5b505afa15801562003614573d6000803e3d6000fd5b505050506040513d601f19601f820116820180604052508101906200363a9190620048ac565b73ffffffffffffffffffffffffffffffffffffffff1663949813b8856040518263ffffffff1660e01b815260040162003674919062004de7565b60206040518083038186803b1580156200368d57600080fd5b505afa158015620036a2573d6000803e3d6000fd5b505050506040513d601f19601f82011682018060405250810190620036c8919062004a34565b62003c6d90919063ffffffff16565b506200381381600f60009054906101000a900473ffffffffffffffffffffffffffffffffffffffff1673ffffffffffffffffffffffffffffffffffffffff1663c0973eed6040518163ffffffff1660e01b815260040160206040518083038186803b1580156200374657600080fd5b505afa1580156200375b573d6000803e3d6000fd5b505050506040513d601f19601f82011682018060405250810190620037819190620048ac565b73ffffffffffffffffffffffffffffffffffffffff16630e15561a6040518163ffffffff1660e01b8152600401602060405180830381600087803b158015620037c957600080fd5b505af1158015620037de573d6000803e3d6000fd5b505050506040513d601f19601f8201168201806040525081019062003804919062004a34565b62003c6d90919063ffffffff16565b5060006200382b8285620032f090919063ffffffff16565b9050600f60009054906101000a900473ffffffffffffffffffffffffffffffffffffffff1673ffffffffffffffffffffffffffffffffffffffff16631d1d929b6040518163ffffffff1660e01b815260040160206040518083038186803b1580156200389657600080fd5b505afa158015620038ab573d6000803e3d6000fd5b505050506040513d601f19601f82011682018060405250810190620038d19190620048ac565b73ffffffffffffffffffffffffffffffffffffffff16636a20de92600f60009054906101000a900473ffffffffffffffffffffffffffffffffffffffff1673ffffffffffffffffffffffffffffffffffffffff1663c0973eed6040518163ffffffff1660e01b815260040160206040518083038186803b1580156200395557600080fd5b505afa1580156200396a573d6000803e3d6000fd5b505050506040513d601f19601f82011682018060405250810190620039909190620048ac565b836040518363ffffffff1660e01b8152600401620039b092919062004e9e565b600060405180830381600087803b158015620039cb57600080fd5b505af1158015620039e0573d6000803e3d6000fd5b5050505062003b2a81600f60009054906101000a900473ffffffffffffffffffffffffffffffffffffffff1673ffffffffffffffffffffffffffffffffffffffff1663c0973eed6040518163ffffffff1660e01b815260040160206040518083038186803b15801562003a5257600080fd5b505afa15801562003a67573d6000803e3d6000fd5b505050506040513d601f19601f8201168201806040525081019062003a8d9190620048ac565b73ffffffffffffffffffffffffffffffffffffffff1663949813b8336040518263ffffffff1660e01b815260040162003ac7919062004de7565b60206040518083038186803b15801562003ae057600080fd5b505afa15801562003af5573d6000803e3d6000fd5b505050506040513d601f19601f8201168201806040525081019062003b1b919062004a34565b62003c6d90919063ffffffff16565b5062003c6681600f60009054906101000a900473ffffffffffffffffffffffffffffffffffffffff1673ffffffffffffffffffffffffffffffffffffffff1663c0973eed6040518163ffffffff1660e01b815260040160206040518083038186803b15801562003b9957600080fd5b505afa15801562003bae573d6000803e3d6000fd5b505050506040513d601f19601f8201168201806040525081019062003bd49190620048ac565b73ffffffffffffffffffffffffffffffffffffffff16630e15561a6040518163ffffffff1660e01b8152600401602060405180830381600087803b15801562003c1c57600080fd5b505af115801562003c31573d6000803e3d6000fd5b505050506040513d601f19601f8201168201806040525081019062003c57919062004a34565b62003c6d90919063ffffffff16565b5050505050565b6000818362003c7d91906200512c565b905092915050565b6001816000016000828254019250508190555050565b600081600001549050919050565b8573ffffffffffffffffffffffffffffffffffffffff166323b872dd33600f60009054906101000a900473ffffffffffffffffffffffffffffffffffffffff1673ffffffffffffffffffffffffffffffffffffffff1663cb1048ff6040518163ffffffff1660e01b815260040160206040518083038186803b15801562003d2f57600080fd5b505afa15801562003d44573d6000803e3d6000fd5b505050506040513d601f19601f8201168201806040525081019062003d6a9190620048ac565b886040518463ffffffff1660e01b815260040162003d8b9392919062004e61565b602060405180830381600087803b15801562003da657600080fd5b505af115801562003dbb573d6000803e3d6000fd5b505050506040513d601f19601f8201168201806040525081019062003de19190620049dc565b62003e23576040517f08c379a000000000000000000000000000000000000000000000000000000000815260040162003e1a9062005003565b60405180910390fd5b8573ffffffffffffffffffffffffffffffffffffffff166323b872dd338662003e568988620032f090919063ffffffff16565b6040518463ffffffff1660e01b815260040162003e769392919062004e61565b602060405180830381600087803b15801562003e9157600080fd5b505af115801562003ea6573d6000803e3d6000fd5b505050506040513d601f19601f8201168201806040525081019062003ecc9190620049dc565b62003f0e576040517f08c379a000000000000000000000000000000000000000000000000000000000815260040162003f059062004fe1565b60405180910390fd5b6001151582151514156200409a57600f60009054906101000a900473ffffffffffffffffffffffffffffffffffffffff1673ffffffffffffffffffffffffffffffffffffffff1663a89ae4ba6040518163ffffffff1660e01b815260040160206040518083038186803b15801562003f8557600080fd5b505afa15801562003f9a573d6000803e3d6000fd5b505050506040513d601f19601f8201168201806040525081019062003fc09190620048ac565b73ffffffffffffffffffffffffffffffffffffffff166384cc315b826040518263ffffffff1660e01b815260040162003ffa919062004de7565b60206040518083038186803b1580156200401357600080fd5b505afa15801562004028573d6000803e3d6000fd5b505050506040513d601f19601f820116820180604052508101906200404e919062004a08565b60020b600960008673ffffffffffffffffffffffffffffffffffffffff1673ffffffffffffffffffffffffffffffffffffffff1681526020019081526020016000208190555062004213565b600f60009054906101000a900473ffffffffffffffffffffffffffffffffffffffff1673ffffffffffffffffffffffffffffffffffffffff1663a89ae4ba6040518163ffffffff1660e01b815260040160206040518083038186803b1580156200410357600080fd5b505afa15801562004118573d6000803e3d6000fd5b505050506040513d601f19601f820116820180604052508101906200413e9190620048ac565b73ffffffffffffffffffffffffffffffffffffffff166384cc315b826040518263ffffffff1660e01b815260040162004178919062004de7565b60206040518083038186803b1580156200419157600080fd5b505afa158015620041a6573d6000803e3d6000fd5b505050506040513d601f19601f82011682018060405250810190620041cc919062004a08565b60020b600960008673ffffffffffffffffffffffffffffffffffffffff1673ffffffffffffffffffffffffffffffffffffffff168152602001908152602001600020819055505b505050505050565b600f60009054906101000a900473ffffffffffffffffffffffffffffffffffffffff1673ffffffffffffffffffffffffffffffffffffffff16634f5843426040518163ffffffff1660e01b815260040160206040518083038186803b1580156200428457600080fd5b505afa15801562004299573d6000803e3d6000fd5b505050506040513d601f19601f82011682018060405250810190620042bf9190620048ac565b73ffffffffffffffffffffffffffffffffffffffff1663cb57b48982600f60009054906101000a900473ffffffffffffffffffffffffffffffffffffffff1673ffffffffffffffffffffffffffffffffffffffff1663cb1048ff6040518163ffffffff1660e01b815260040160206040518083038186803b1580156200434457600080fd5b505afa15801562004359573d6000803e3d6000fd5b505050506040513d601f19601f820116820180604052508101906200437f9190620048ac565b858960006040518663ffffffff1660e01b8152600401620043a595949392919062004e04565b600060405180830381600087803b158015620043c057600080fd5b505af1158015620043d5573d6000803e3d6000fd5b505050508573ffffffffffffffffffffffffffffffffffffffff166323b872dd33866200440c8988620032f090919063ffffffff16565b6040518463ffffffff1660e01b81526004016200442c9392919062004e61565b602060405180830381600087803b1580156200444757600080fd5b505af11580156200445c573d6000803e3d6000fd5b505050506040513d601f19601f82011682018060405250810190620044829190620049dc565b620044c4576040517f08c379a0000000000000000000000000000000000000000000000000000000008152600401620044bb9062004fe1565b60405180910390fd5b6001151582151514156200465057600f60009054906101000a900473ffffffffffffffffffffffffffffffffffffffff1673ffffffffffffffffffffffffffffffffffffffff1663a89ae4ba6040518163ffffffff1660e01b815260040160206040518083038186803b1580156200453b57600080fd5b505afa15801562004550573d6000803e3d6000fd5b505050506040513d601f19601f82011682018060405250810190620045769190620048ac565b73ffffffffffffffffffffffffffffffffffffffff166384cc315b826040518263ffffffff1660e01b8152600401620045b0919062004de7565b60206040518083038186803b158015620045c957600080fd5b505afa158015620045de573d6000803e3d6000fd5b505050506040513d601f19601f8201168201806040525081019062004604919062004a08565b60020b600960008673ffffffffffffffffffffffffffffffffffffffff1673ffffffffffffffffffffffffffffffffffffffff16815260200190815260200160002081905550620047c9565b600f60009054906101000a900473ffffffffffffffffffffffffffffffffffffffff1673ffffffffffffffffffffffffffffffffffffffff1663a89ae4ba6040518163ffffffff1660e01b815260040160206040518083038186803b158015620046b957600080fd5b505afa158015620046ce573d6000803e3d6000fd5b505050506040513d601f19601f82011682018060405250810190620046f49190620048ac565b73ffffffffffffffffffffffffffffffffffffffff166384cc315b826040518263ffffffff1660e01b81526004016200472e919062004de7565b60206040518083038186803b1580156200474757600080fd5b505afa1580156200475c573d6000803e3d6000fd5b505050506040513d601f19601f8201168201806040525081019062004782919062004a08565b60020b600960008673ffffffffffffffffffffffffffffffffffffffff1673ffffffffffffffffffffffffffffffffffffffff168152602001908152602001600020819055505b505050505050565b61343080620053e983390190565b600081359050620047f08162005380565b92915050565b600081519050620048078162005380565b92915050565b6000813590506200481e816200539a565b92915050565b60008151905062004835816200539a565b92915050565b6000815190506200484c81620053b4565b92915050565b6000813590506200486381620053ce565b92915050565b6000815190506200487a81620053ce565b92915050565b6000602082840312156200489357600080fd5b6000620048a384828501620047df565b91505092915050565b600060208284031215620048bf57600080fd5b6000620048cf84828501620047f6565b91505092915050565b600080600080600080600080610100898b031215620048f657600080fd5b6000620049068b828c01620047df565b9850506020620049198b828c01620047df565b97505060406200492c8b828c01620047df565b96505060606200493f8b828c0162004852565b9550506080620049528b828c0162004852565b94505060a0620049658b828c0162004852565b93505060c0620049788b828c016200480d565b92505060e06200498b8b828c0162004852565b9150509295985092959890939650565b60008060408385031215620049af57600080fd5b6000620049bf85828601620047df565b9250506020620049d28582860162004852565b9150509250929050565b600060208284031215620049ef57600080fd5b6000620049ff8482850162004824565b91505092915050565b60006020828403121562004a1b57600080fd5b600062004a2b848285016200483b565b91505092915050565b60006020828403121562004a4757600080fd5b600062004a578482850162004869565b91505092915050565b62004a6b816200525d565b82525050565b62004a7c8162005271565b82525050565b62004a8d81620052be565b82525050565b62004a9e81620052e6565b82525050565b62004aaf816200528a565b82525050565b62004ac0816200530e565b82525050565b600062004ad5600d836200511b565b91507f6c696d6974206e6f74206d6574000000000000000000000000000000000000006000830152602082019050919050565b600062004b176028836200511b565b91507f6f7264657220746f2063726561746f722062616c616e6365207472616e73666560008301527f72206661696c65640000000000000000000000000000000000000000000000006020830152604082019050919050565b600062004b7f6023836200511b565b91507f6f6e6c79206f72646572206f776e65722063616e20636c6f736520616e206f7260008301527f64657200000000000000000000000000000000000000000000000000000000006020830152604082019050919050565b600062004be7600f836200511b565b91507f4e6f637475726e616c204f7264657200000000000000000000000000000000006000830152602082019050919050565b600062004c296016836200511b565b91507f706f6f6c206d75737420636f6e7461696e2057455448000000000000000000006000830152602082019050919050565b600062004c6b6028836200511b565b91507f63726561746f7220746f206f726465722062616c616e6365207472616e73666560008301527f72206661696c65640000000000000000000000000000000000000000000000006020830152604082019050919050565b600062004cd36027836200511b565b91507f63726561746f7220746f207374616b6572732064466565207472616e7366657260008301527f206661696c6564000000000000000000000000000000000000000000000000006020830152604082019050919050565b600062004d3b6027836200511b565b91507f6f6e6c79206f776e65722063616e206d6f6469667920616e206578697374696e60008301527f67206f72646572000000000000000000000000000000000000000000000000006020830152604082019050919050565b600062004da36005836200511b565b91507f6f4e4f43540000000000000000000000000000000000000000000000000000006000830152602082019050919050565b62004de181620052b4565b82525050565b600060208201905062004dfe600083018462004a60565b92915050565b600060a08201905062004e1b600083018862004a60565b62004e2a602083018762004a60565b62004e39604083018662004a71565b62004e48606083018562004aa4565b62004e57608083018462004ab5565b9695505050505050565b600060608201905062004e78600083018662004a60565b62004e87602083018562004a60565b62004e96604083018462004dd6565b949350505050565b600060408201905062004eb5600083018562004a60565b62004ec4602083018462004dd6565b9392505050565b600060208201905062004ee2600083018462004a71565b92915050565b600060208201905062004eff600083018462004a82565b92915050565b600060208201905062004f1c600083018462004a93565b92915050565b6000602082019050818103600083015262004f3d8162004ac6565b9050919050565b6000602082019050818103600083015262004f5f8162004b08565b9050919050565b6000602082019050818103600083015262004f818162004b70565b9050919050565b6000604082019050818103600083015262004fa38162004bd8565b9050818103602083015262004fb88162004d94565b9050919050565b6000602082019050818103600083015262004fda8162004c1a565b9050919050565b6000602082019050818103600083015262004ffc8162004c5c565b9050919050565b600060208201905081810360008301526200501e8162004cc4565b9050919050565b60006020820190508181036000830152620050408162004d2c565b9050919050565b60006020820190506200505e600083018462004dd6565b92915050565b60006040820190506200507b600083018562004dd6565b6200508a602083018462004a60565b9392505050565b6000608082019050620050a8600083018762004dd6565b620050b7602083018662004a60565b620050c6604083018562004a60565b620050d5606083018462004dd6565b95945050505050565b6000606082019050620050f5600083018662004dd6565b62005104602083018562004a60565b62005113604083018462004dd6565b949350505050565b600082825260208201905092915050565b60006200513982620052b4565b91506200514683620052b4565b9250827fffffffffffffffffffffffffffffffffffffffffffffffffffffffffffffffff038211156200517e576200517d62005322565b5b828201905092915050565b60006200519682620052b4565b9150620051a383620052b4565b925082620051b657620051b562005351565b5b828204905092915050565b6000620051ce82620052b4565b9150620051db83620052b4565b9250817fffffffffffffffffffffffffffffffffffffffffffffffffffffffffffffffff048311821515161562005217576200521662005322565b5b828202905092915050565b60006200522f82620052b4565b91506200523c83620052b4565b92508282101562005252576200525162005322565b5b828203905092915050565b60006200526a8262005294565b9050919050565b60008115159050919050565b60008160020b9050919050565b6000819050919050565b600073ffffffffffffffffffffffffffffffffffffffff82169050919050565b6000819050919050565b6000620052cb82620052d2565b9050919050565b6000620052df8262005294565b9050919050565b6000620052f382620052fa565b9050919050565b6000620053078262005294565b9050919050565b60006200531b8262005294565b9050919050565b7f4e487b7100000000000000000000000000000000000000000000000000000000600052601160045260246000fd5b7f4e487b7100000000000000000000000000000000000000000000000000000000600052601260045260246000fd5b6200538b816200525d565b81146200539757600080fd5b50565b620053a58162005271565b8114620053b157600080fd5b50565b620053bf816200527d565b8114620053cb57600080fd5b50565b620053d981620052b4565b8114620053e557600080fd5b5056fe60806040523480156200001157600080fd5b506040516200343038038062003430833981810160405281019062000037919062000193565b81600290805190602001906200004f92919062000071565b5080600390805190602001906200006892919062000071565b50505062000337565b8280546200007f90620002a3565b90600052602060002090601f016020900481019282620000a35760008555620000ef565b82601f10620000be57805160ff1916838001178555620000ef565b82800160010185558215620000ef579182015b82811115620000ee578251825591602001919060010190620000d1565b5b509050620000fe919062000102565b5090565b5b808211156200011d57600081600090555060010162000103565b5090565b60006200013862000132846200023a565b62000206565b9050828152602081018484840111156200015157600080fd5b6200015e8482856200026d565b509392505050565b600082601f8301126200017857600080fd5b81516200018a84826020860162000121565b91505092915050565b60008060408385031215620001a757600080fd5b600083015167ffffffffffffffff811115620001c257600080fd5b620001d08582860162000166565b925050602083015167ffffffffffffffff811115620001ee57600080fd5b620001fc8582860162000166565b9150509250929050565b6000604051905081810181811067ffffffffffffffff8211171562000230576200022f62000308565b5b8060405250919050565b600067ffffffffffffffff82111562000258576200025762000308565b5b601f19601f8301169050602081019050919050565b60005b838110156200028d57808201518184015260208101905062000270565b838111156200029d576000848401525b50505050565b60006002820490506001821680620002bc57607f821691505b60208210811415620002d357620002d2620002d9565b5b50919050565b7f4e487b7100000000000000000000000000000000000000000000000000000000600052602260045260246000fd5b7f4e487b7100000000000000000000000000000000000000000000000000000000600052604160045260246000fd5b6130e980620003476000396000f3fe608060405234801561001057600080fd5b50600436106101215760003560e01c80636352211e116100ad578063a22cb46511610071578063a22cb46514610304578063b88d4fde14610320578063c87b56dd1461033c578063e985e9c51461036c578063ee64deab1461039c57610121565b80636352211e1461024e57806370a082311461027e57806377d1a46f146102ae5780638bcf4d71146102ca57806395d89b41146102e657610121565b806316f0115b116100f457806316f0115b146101c057806323b872dd146101de5780633740876b146101fa57806342842e0e1461021657806342966c681461023257610121565b806301ffc9a71461012657806306fdde0314610156578063081812fc14610174578063095ea7b3146101a4575b600080fd5b610140600480360381019061013b9190612150565b6103ba565b60405161014d91906129fb565b60405180910390f35b61015e61049c565b60405161016b9190612a4c565b60405180910390f35b61018e600480360381019061018991906121de565b61052e565b60405161019b919061290f565b60405180910390f35b6101be60048036038101906101b991906120eb565b6105b3565b005b6101c86106cb565b6040516101d59190612a16565b60405180910390f35b6101f860048036038101906101f39190611fe5565b6106f1565b005b610214600480360381019061020f9190612207565b610751565b005b610230600480360381019061022b9190611fe5565b61093e565b005b61024c600480360381019061024791906121de565b61095e565b005b610268600480360381019061026391906121de565b610a7c565b604051610275919061290f565b60405180910390f35b61029860048036038101906102939190611eb0565b610b2e565b6040516102a59190612c2e565b60405180910390f35b6102c860048036038101906102c39190611f3e565b610be6565b005b6102e460048036038101906102df9190611fe5565b610dc4565b005b6102ee610fa7565b6040516102fb9190612a4c565b60405180910390f35b61031e600480360381019061031991906120af565b611039565b005b61033a60048036038101906103359190612034565b6111ba565b005b610356600480360381019061035191906121de565b61121c565b6040516103639190612a4c565b60405180910390f35b61038660048036038101906103819190611f02565b6112c3565b60405161039391906129fb565b60405180910390f35b6103a4611357565b6040516103b19190612a31565b60405180910390f35b60007f80ac58cd000000000000000000000000000000000000000000000000000000007bffffffffffffffffffffffffffffffffffffffffffffffffffffffff1916827bffffffffffffffffffffffffffffffffffffffffffffffffffffffff1916148061048557507f5b5e139f000000000000000000000000000000000000000000000000000000007bffffffffffffffffffffffffffffffffffffffffffffffffffffffff1916827bffffffffffffffffffffffffffffffffffffffffffffffffffffffff1916145b8061049557506104948261137b565b5b9050919050565b6060600280546104ab90612eb0565b80601f01602080910402602001604051908101604052809291908181526020018280546104d790612eb0565b80156105245780601f106104f957610100808354040283529160200191610524565b820191906000526020600020905b81548152906001019060200180831161050757829003601f168201915b5050505050905090565b6000610539826113e5565b610578576040517f08c379a000000000000000000000000000000000000000000000000000000000815260040161056f90612b4e565b60405180910390fd5b6006600083815260200190815260200160002060009054906101000a900473ffffffffffffffffffffffffffffffffffffffff169050919050565b60006105be82610a7c565b90508073ffffffffffffffffffffffffffffffffffffffff168373ffffffffffffffffffffffffffffffffffffffff16141561062f576040517f08c379a000000000000000000000000000000000000000000000000000000000815260040161062690612bce565b60405180910390fd5b8073ffffffffffffffffffffffffffffffffffffffff1661064e611451565b73ffffffffffffffffffffffffffffffffffffffff16148061067d575061067c81610677611451565b6112c3565b5b6106bc576040517f08c379a00000000000000000000000000000000000000000000000000000000081526004016106b390612a6e565b60405180910390fd5b6106c68383611459565b505050565b600160009054906101000a900473ffffffffffffffffffffffffffffffffffffffff1681565b6107026106fc611451565b82611512565b610741576040517f08c379a000000000000000000000000000000000000000000000000000000000815260040161073890612bee565b60405180910390fd5b61074c8383836115f0565b505050565b60008054906101000a900473ffffffffffffffffffffffffffffffffffffffff1673ffffffffffffffffffffffffffffffffffffffff1663e272981b6040518163ffffffff1660e01b815260040160206040518083038186803b1580156107b757600080fd5b505afa1580156107cb573d6000803e3d6000fd5b505050506040513d601f19601f820116820180604052508101906107ef9190611ed9565b73ffffffffffffffffffffffffffffffffffffffff1661080d611451565b73ffffffffffffffffffffffffffffffffffffffff1614610863576040517f08c379a000000000000000000000000000000000000000000000000000000000815260040161085a90612c0e565b60405180910390fd5b8273ffffffffffffffffffffffffffffffffffffffff1663a9059cbb83836040518363ffffffff1660e01b815260040161089e9291906129d2565b602060405180830381600087803b1580156108b857600080fd5b505af11580156108cc573d6000803e3d6000fd5b505050506040513d601f19601f820116820180604052508101906108f09190612127565b61092f576040517f08c379a000000000000000000000000000000000000000000000000000000000815260040161092690612b6e565b60405180910390fd5b6109388461184c565b50505050565b610959838383604051806020016040528060008152506111ba565b505050565b60008054906101000a900473ffffffffffffffffffffffffffffffffffffffff1673ffffffffffffffffffffffffffffffffffffffff1663e272981b6040518163ffffffff1660e01b815260040160206040518083038186803b1580156109c457600080fd5b505afa1580156109d8573d6000803e3d6000fd5b505050506040513d601f19601f820116820180604052508101906109fc9190611ed9565b73ffffffffffffffffffffffffffffffffffffffff16610a1a611451565b73ffffffffffffffffffffffffffffffffffffffff1614610a70576040517f08c379a0000000000000000000000000000000000000000000000000000000008152600401610a6790612c0e565b60405180910390fd5b610a798161184c565b50565b6000806004600084815260200190815260200160002060009054906101000a900473ffffffffffffffffffffffffffffffffffffffff169050600073ffffffffffffffffffffffffffffffffffffffff168173ffffffffffffffffffffffffffffffffffffffff161415610b25576040517f08c379a0000000000000000000000000000000000000000000000000000000008152600401610b1c90612b2e565b60405180910390fd5b80915050919050565b60008073ffffffffffffffffffffffffffffffffffffffff168273ffffffffffffffffffffffffffffffffffffffff161415610b9f576040517f08c379a0000000000000000000000000000000000000000000000000000000008152600401610b9690612b0e565b60405180910390fd5b600560008373ffffffffffffffffffffffffffffffffffffffff1673ffffffffffffffffffffffffffffffffffffffff168152602001908152602001600020549050919050565b60008054906101000a900473ffffffffffffffffffffffffffffffffffffffff1673ffffffffffffffffffffffffffffffffffffffff1663e272981b6040518163ffffffff1660e01b815260040160206040518083038186803b158015610c4c57600080fd5b505afa158015610c60573d6000803e3d6000fd5b505050506040513d601f19601f82011682018060405250810190610c849190611ed9565b73ffffffffffffffffffffffffffffffffffffffff16610ca2611451565b73ffffffffffffffffffffffffffffffffffffffff1614610cf8576040517f08c379a0000000000000000000000000000000000000000000000000000000008152600401610cef90612c0e565b60405180910390fd5b600080600160009054906101000a900473ffffffffffffffffffffffffffffffffffffffff1673ffffffffffffffffffffffffffffffffffffffff1663128acb088989898989896040518763ffffffff1660e01b8152600401610d6096959493929190612976565b6040805180830381600087803b158015610d7957600080fd5b505af1158015610d8d573d6000803e3d6000fd5b505050506040513d601f19601f82011682018060405250810190610db191906121a2565b8092508193505050505050505050505050565b60008054906101000a900473ffffffffffffffffffffffffffffffffffffffff1673ffffffffffffffffffffffffffffffffffffffff1663e272981b6040518163ffffffff1660e01b815260040160206040518083038186803b158015610e2a57600080fd5b505afa158015610e3e573d6000803e3d6000fd5b505050506040513d601f19601f82011682018060405250810190610e629190611ed9565b73ffffffffffffffffffffffffffffffffffffffff16610e80611451565b73ffffffffffffffffffffffffffffffffffffffff1614610ed6576040517f08c379a0000000000000000000000000000000000000000000000000000000008152600401610ecd90612c0e565b60405180910390fd5b8273ffffffffffffffffffffffffffffffffffffffff1663a9059cbb83836040518363ffffffff1660e01b8152600401610f119291906129d2565b602060405180830381600087803b158015610f2b57600080fd5b505af1158015610f3f573d6000803e3d6000fd5b505050506040513d601f19601f82011682018060405250810190610f639190612127565b610fa2576040517f08c379a0000000000000000000000000000000000000000000000000000000008152600401610f9990612b6e565b60405180910390fd5b505050565b606060038054610fb690612eb0565b80601f0160208091040260200160405190810160405280929190818152602001828054610fe290612eb0565b801561102f5780601f106110045761010080835404028352916020019161102f565b820191906000526020600020905b81548152906001019060200180831161101257829003601f168201915b5050505050905090565b611041611451565b73ffffffffffffffffffffffffffffffffffffffff168273ffffffffffffffffffffffffffffffffffffffff1614156110af576040517f08c379a00000000000000000000000000000000000000000000000000000000081526004016110a690612ace565b60405180910390fd5b80600760006110bc611451565b73ffffffffffffffffffffffffffffffffffffffff1673ffffffffffffffffffffffffffffffffffffffff16815260200190815260200160002060008473ffffffffffffffffffffffffffffffffffffffff1673ffffffffffffffffffffffffffffffffffffffff16815260200190815260200160002060006101000a81548160ff0219169083151502179055508173ffffffffffffffffffffffffffffffffffffffff16611169611451565b73ffffffffffffffffffffffffffffffffffffffff167f17307eab39ab6107e8899845ad3d59bd9653f200f220920489ca2b5937696c31836040516111ae91906129fb565b60405180910390a35050565b6111cb6111c5611451565b83611512565b61120a576040517f08c379a000000000000000000000000000000000000000000000000000000000815260040161120190612bee565b60405180910390fd5b6112168484848461195d565b50505050565b6060611227826113e5565b611266576040517f08c379a000000000000000000000000000000000000000000000000000000000815260040161125d90612bae565b60405180910390fd5b60006112706119b9565b9050600081511161129057604051806020016040528060008152506112bb565b8061129a846119d0565b6040516020016112ab9291906128eb565b6040516020818303038152906040525b915050919050565b6000600760008473ffffffffffffffffffffffffffffffffffffffff1673ffffffffffffffffffffffffffffffffffffffff16815260200190815260200160002060008373ffffffffffffffffffffffffffffffffffffffff1673ffffffffffffffffffffffffffffffffffffffff16815260200190815260200160002060009054906101000a900460ff16905092915050565b60008054906101000a900473ffffffffffffffffffffffffffffffffffffffff1681565b60007f01ffc9a7000000000000000000000000000000000000000000000000000000007bffffffffffffffffffffffffffffffffffffffffffffffffffffffff1916827bffffffffffffffffffffffffffffffffffffffffffffffffffffffff1916149050919050565b60008073ffffffffffffffffffffffffffffffffffffffff166004600084815260200190815260200160002060009054906101000a900473ffffffffffffffffffffffffffffffffffffffff1673ffffffffffffffffffffffffffffffffffffffff1614159050919050565b600033905090565b816006600083815260200190815260200160002060006101000a81548173ffffffffffffffffffffffffffffffffffffffff021916908373ffffffffffffffffffffffffffffffffffffffff160217905550808273ffffffffffffffffffffffffffffffffffffffff166114cc83610a7c565b73ffffffffffffffffffffffffffffffffffffffff167f8c5be1e5ebec7d5bd14f71427d1e84f3dd0314c0f7b2291e5b200ac8c7c3b92560405160405180910390a45050565b600061151d826113e5565b61155c576040517f08c379a000000000000000000000000000000000000000000000000000000000815260040161155390612aee565b60405180910390fd5b600061156783610a7c565b90508073ffffffffffffffffffffffffffffffffffffffff168473ffffffffffffffffffffffffffffffffffffffff1614806115d657508373ffffffffffffffffffffffffffffffffffffffff166115be8461052e565b73ffffffffffffffffffffffffffffffffffffffff16145b806115e757506115e681856112c3565b5b91505092915050565b8273ffffffffffffffffffffffffffffffffffffffff1661161082610a7c565b73ffffffffffffffffffffffffffffffffffffffff1614611666576040517f08c379a000000000000000000000000000000000000000000000000000000000815260040161165d90612b8e565b60405180910390fd5b600073ffffffffffffffffffffffffffffffffffffffff168273ffffffffffffffffffffffffffffffffffffffff1614156116d6576040517f08c379a00000000000000000000000000000000000000000000000000000000081526004016116cd90612aae565b60405180910390fd5b6116e1838383611b7d565b6116ec600082611459565b6001600560008573ffffffffffffffffffffffffffffffffffffffff1673ffffffffffffffffffffffffffffffffffffffff168152602001908152602001600020600082825461173c9190612d74565b925050819055506001600560008473ffffffffffffffffffffffffffffffffffffffff1673ffffffffffffffffffffffffffffffffffffffff16815260200190815260200160002060008282546117939190612ced565b92505081905550816004600083815260200190815260200160002060006101000a81548173ffffffffffffffffffffffffffffffffffffffff021916908373ffffffffffffffffffffffffffffffffffffffff160217905550808273ffffffffffffffffffffffffffffffffffffffff168473ffffffffffffffffffffffffffffffffffffffff167fddf252ad1be2c89b69c2b068fc378daa952ba7f163c4a11628f55a4df523b3ef60405160405180910390a4505050565b600061185782610a7c565b905061186581600084611b7d565b611870600083611459565b6001600560008373ffffffffffffffffffffffffffffffffffffffff1673ffffffffffffffffffffffffffffffffffffffff16815260200190815260200160002060008282546118c09190612d74565b925050819055506004600083815260200190815260200160002060006101000a81549073ffffffffffffffffffffffffffffffffffffffff021916905581600073ffffffffffffffffffffffffffffffffffffffff168273ffffffffffffffffffffffffffffffffffffffff167fddf252ad1be2c89b69c2b068fc378daa952ba7f163c4a11628f55a4df523b3ef60405160405180910390a45050565b6119688484846115f0565b61197484848484611b82565b6119b3576040517f08c379a00000000000000000000000000000000000000000000000000000000081526004016119aa90612a8e565b60405180910390fd5b50505050565b606060405180602001604052806000815250905090565b60606000821415611a18576040518060400160405280600181526020017f30000000000000000000000000000000000000000000000000000000000000008152509050611b78565b600082905060005b60008214611a4a578080611a3390612ee2565b915050600a82611a439190612d43565b9150611a20565b60008167ffffffffffffffff811115611a8c577f4e487b7100000000000000000000000000000000000000000000000000000000600052604160045260246000fd5b6040519080825280601f01601f191660200182016040528015611abe5781602001600182028036833780820191505090505b5090505b60008514611b7157600182611ad79190612d74565b9150600a85611ae69190612f2b565b6030611af29190612ced565b60f81b818381518110611b2e577f4e487b7100000000000000000000000000000000000000000000000000000000600052603260045260246000fd5b60200101907effffffffffffffffffffffffffffffffffffffffffffffffffffffffffffff1916908160001a905350600a85611b6a9190612d43565b9450611ac2565b8093505050505b919050565b505050565b6000611ba38473ffffffffffffffffffffffffffffffffffffffff16611d19565b15611d0c578373ffffffffffffffffffffffffffffffffffffffff1663150b7a02611bcc611451565b8786866040518563ffffffff1660e01b8152600401611bee949392919061292a565b602060405180830381600087803b158015611c0857600080fd5b505af1925050508015611c3957506040513d601f19601f82011682018060405250810190611c369190612179565b60015b611cbc573d8060008114611c69576040519150601f19603f3d011682016040523d82523d6000602084013e611c6e565b606091505b50600081511415611cb4576040517f08c379a0000000000000000000000000000000000000000000000000000000008152600401611cab90612a8e565b60405180910390fd5b805181602001fd5b63150b7a0260e01b7bffffffffffffffffffffffffffffffffffffffffffffffffffffffff1916817bffffffffffffffffffffffffffffffffffffffffffffffffffffffff191614915050611d11565b600190505b949350505050565b600080823b905060008111915050919050565b6000611d3f611d3a84612c7a565b612c49565b905082815260208101848484011115611d5757600080fd5b611d62848285612e6e565b509392505050565b600081359050611d7981613029565b92915050565b600081519050611d8e81613029565b92915050565b600081359050611da381613040565b92915050565b600081519050611db881613040565b92915050565b600081359050611dcd81613057565b92915050565b600081519050611de281613057565b92915050565b60008083601f840112611dfa57600080fd5b8235905067ffffffffffffffff811115611e1357600080fd5b602083019150836001820283011115611e2b57600080fd5b9250929050565b600082601f830112611e4357600080fd5b8135611e53848260208601611d2c565b91505092915050565b600081359050611e6b8161306e565b92915050565b600081519050611e808161306e565b92915050565b600081359050611e9581613085565b92915050565b600081359050611eaa8161309c565b92915050565b600060208284031215611ec257600080fd5b6000611ed084828501611d6a565b91505092915050565b600060208284031215611eeb57600080fd5b6000611ef984828501611d7f565b91505092915050565b60008060408385031215611f1557600080fd5b6000611f2385828601611d6a565b9250506020611f3485828601611d6a565b9150509250929050565b600080600080600080600060c0888a031215611f5957600080fd5b6000611f678a828b01611d6a565b9750506020611f788a828b01611d6a565b9650506040611f898a828b01611d94565b9550506060611f9a8a828b01611e5c565b9450506080611fab8a828b01611e86565b93505060a088013567ffffffffffffffff811115611fc857600080fd5b611fd48a828b01611de8565b925092505092959891949750929550565b600080600060608486031215611ffa57600080fd5b600061200886828701611d6a565b935050602061201986828701611d6a565b925050604061202a86828701611e9b565b9150509250925092565b6000806000806080858703121561204a57600080fd5b600061205887828801611d6a565b945050602061206987828801611d6a565b935050604061207a87828801611e9b565b925050606085013567ffffffffffffffff81111561209757600080fd5b6120a387828801611e32565b91505092959194509250565b600080604083850312156120c257600080fd5b60006120d085828601611d6a565b92505060206120e185828601611d94565b9150509250929050565b600080604083850312156120fe57600080fd5b600061210c85828601611d6a565b925050602061211d85828601611e9b565b9150509250929050565b60006020828403121561213957600080fd5b600061214784828501611da9565b91505092915050565b60006020828403121561216257600080fd5b600061217084828501611dbe565b91505092915050565b60006020828403121561218b57600080fd5b600061219984828501611dd3565b91505092915050565b600080604083850312156121b557600080fd5b60006121c385828601611e71565b92505060206121d485828601611e71565b9150509250929050565b6000602082840312156121f057600080fd5b60006121fe84828501611e9b565b91505092915050565b6000806000806080858703121561221d57600080fd5b600061222b87828801611e9b565b945050602061223c87828801611d6a565b935050604061224d87828801611d6a565b925050606061225e87828801611e9b565b91505092959194509250565b61227381612da8565b82525050565b61228281612dba565b82525050565b60006122948385612cc0565b93506122a1838584612e6e565b6122aa83613018565b840190509392505050565b60006122c082612caa565b6122ca8185612cc0565b93506122da818560208601612e7d565b6122e381613018565b840191505092915050565b6122f781612e26565b82525050565b61230681612e4a565b82525050565b61231581612df2565b82525050565b600061232682612cb5565b6123308185612cd1565b9350612340818560208601612e7d565b61234981613018565b840191505092915050565b600061235f82612cb5565b6123698185612ce2565b9350612379818560208601612e7d565b80840191505092915050565b6000612392604783612cd1565b91507f4552433732313a20617070726f76652063616c6c6572206973206e6f74206f7760008301527f6e65722c206f72646572466163746f72792c206e6f7220617070726f7665642060208301527f666f7220616c6c000000000000000000000000000000000000000000000000006040830152606082019050919050565b600061241e603283612cd1565b91507f4552433732313a207472616e7366657220746f206e6f6e20455243373231526560008301527f63656976657220696d706c656d656e74657200000000000000000000000000006020830152604082019050919050565b6000612484602483612cd1565b91507f4552433732313a207472616e7366657220746f20746865207a65726f2061646460008301527f72657373000000000000000000000000000000000000000000000000000000006020830152604082019050919050565b60006124ea601983612cd1565b91507f4552433732313a20617070726f766520746f2063616c6c6572000000000000006000830152602082019050919050565b600061252a602c83612cd1565b91507f4552433732313a206f70657261746f7220717565727920666f72206e6f6e657860008301527f697374656e7420746f6b656e00000000000000000000000000000000000000006020830152604082019050919050565b6000612590602a83612cd1565b91507f4552433732313a2062616c616e636520717565727920666f7220746865207a6560008301527f726f2061646472657373000000000000000000000000000000000000000000006020830152604082019050919050565b60006125f6602983612cd1565b91507f4552433732313a206f776e657220717565727920666f72206e6f6e657869737460008301527f656e7420746f6b656e00000000000000000000000000000000000000000000006020830152604082019050919050565b600061265c602c83612cd1565b91507f4552433732313a20617070726f76656420717565727920666f72206e6f6e657860008301527f697374656e7420746f6b656e00000000000000000000000000000000000000006020830152604082019050919050565b60006126c2601c83612cd1565b91507f6f72646572207472616e7366657220616d6f756e74206661696c6564000000006000830152602082019050919050565b6000612702602983612cd1565b91507f4552433732313a207472616e73666572206f6620746f6b656e2074686174206960008301527f73206e6f74206f776e00000000000000000000000000000000000000000000006020830152604082019050919050565b6000612768602f83612cd1565b91507f4552433732314d657461646174613a2055524920717565727920666f72206e6f60008301527f6e6578697374656e7420746f6b656e00000000000000000000000000000000006020830152604082019050919050565b60006127ce602183612cd1565b91507f4552433732313a20617070726f76616c20746f2063757272656e74206f776e6560008301527f72000000000000000000000000000000000000000000000000000000000000006020830152604082019050919050565b6000612834603183612cd1565b91507f4552433732313a207472616e736665722063616c6c6572206973206e6f74206f60008301527f776e6572206e6f7220617070726f7665640000000000000000000000000000006020830152604082019050919050565b600061289a601b83612cd1565b91507f63616c6c6572206973206e6f74206f7264657220666163746f727900000000006000830152602082019050919050565b6128d681612dfc565b82525050565b6128e581612e1c565b82525050565b60006128f78285612354565b91506129038284612354565b91508190509392505050565b6000602082019050612924600083018461226a565b92915050565b600060808201905061293f600083018761226a565b61294c602083018661226a565b61295960408301856128dc565b818103606083015261296b81846122b5565b905095945050505050565b600060a08201905061298b600083018961226a565b6129986020830188612279565b6129a5604083018761230c565b6129b260608301866128cd565b81810360808301526129c5818486612288565b9050979650505050505050565b60006040820190506129e7600083018561226a565b6129f460208301846128dc565b9392505050565b6000602082019050612a106000830184612279565b92915050565b6000602082019050612a2b60008301846122ee565b92915050565b6000602082019050612a4660008301846122fd565b92915050565b60006020820190508181036000830152612a66818461231b565b905092915050565b60006020820190508181036000830152612a8781612385565b9050919050565b60006020820190508181036000830152612aa781612411565b9050919050565b60006020820190508181036000830152612ac781612477565b9050919050565b60006020820190508181036000830152612ae7816124dd565b9050919050565b60006020820190508181036000830152612b078161251d565b9050919050565b60006020820190508181036000830152612b2781612583565b9050919050565b60006020820190508181036000830152612b47816125e9565b9050919050565b60006020820190508181036000830152612b678161264f565b9050919050565b60006020820190508181036000830152612b87816126b5565b9050919050565b60006020820190508181036000830152612ba7816126f5565b9050919050565b60006020820190508181036000830152612bc78161275b565b9050919050565b60006020820190508181036000830152612be7816127c1565b9050919050565b60006020820190508181036000830152612c0781612827565b9050919050565b60006020820190508181036000830152612c278161288d565b9050919050565b6000602082019050612c4360008301846128dc565b92915050565b6000604051905081810181811067ffffffffffffffff82111715612c7057612c6f612fe9565b5b8060405250919050565b600067ffffffffffffffff821115612c9557612c94612fe9565b5b601f19601f8301169050602081019050919050565b600081519050919050565b600081519050919050565b600082825260208201905092915050565b600082825260208201905092915050565b600081905092915050565b6000612cf882612e1c565b9150612d0383612e1c565b9250827fffffffffffffffffffffffffffffffffffffffffffffffffffffffffffffffff03821115612d3857612d37612f5c565b5b828201905092915050565b6000612d4e82612e1c565b9150612d5983612e1c565b925082612d6957612d68612f8b565b5b828204905092915050565b6000612d7f82612e1c565b9150612d8a83612e1c565b925082821015612d9d57612d9c612f5c565b5b828203905092915050565b6000612db382612dfc565b9050919050565b60008115159050919050565b60007fffffffff0000000000000000000000000000000000000000000000000000000082169050919050565b6000819050919050565b600073ffffffffffffffffffffffffffffffffffffffff82169050919050565b6000819050919050565b6000612e3182612e38565b9050919050565b6000612e4382612dfc565b9050919050565b6000612e5582612e5c565b9050919050565b6000612e6782612dfc565b9050919050565b82818337600083830152505050565b60005b83811015612e9b578082015181840152602081019050612e80565b83811115612eaa576000848401525b50505050565b60006002820490506001821680612ec857607f821691505b60208210811415612edc57612edb612fba565b5b50919050565b6000612eed82612e1c565b91507fffffffffffffffffffffffffffffffffffffffffffffffffffffffffffffffff821415612f2057612f1f612f5c565b5b600182019050919050565b6000612f3682612e1c565b9150612f4183612e1c565b925082612f5157612f50612f8b565b5b828206905092915050565b7f4e487b7100000000000000000000000000000000000000000000000000000000600052601160045260246000fd5b7f4e487b7100000000000000000000000000000000000000000000000000000000600052601260045260246000fd5b7f4e487b7100000000000000000000000000000000000000000000000000000000600052602260045260246000fd5b7f4e487b7100000000000000000000000000000000000000000000000000000000600052604160045260246000fd5b6000601f19601f8301169050919050565b61303281612da8565b811461303d57600080fd5b50565b61304981612dba565b811461305457600080fd5b50565b61306081612dc6565b811461306b57600080fd5b50565b61307781612df2565b811461308257600080fd5b50565b61308e81612dfc565b811461309957600080fd5b50565b6130a581612e1c565b81146130b057600080fd5b5056fea2646970667358221220283f1478d0e35f88ad23d2a009e451550b195afc29a7d6093224f835cd1b363764736f6c63430008000033a264697066735822122011c8f47f6352e75fbc33158e62bda82aa9300acac9f497eaf80e88527dabf31364736f6c63430008000033",
  "immutableReferences": {},
  "source": "/*                              $$\\                                             $$\\                                                         \n                                $$ |                                            $$ |                                                  \n$$$$$$$\\   $$$$$$\\   $$$$$$$\\ $$$$$$\\   $$\\   $$\\  $$$$$$\\  $$$$$$$\\   $$$$$$\\  $$ |     \n$$  __$$\\ $$  __$$\\ $$  _____|\\_$$  _|  $$ |  $$ |$$  __$$\\ $$  __$$\\  \\____$$\\ $$ |    \n$$ |  $$ |$$ /  $$ |$$ /        $$ |    $$ |  $$ |$$ |  \\__|$$ |  $$ | $$$$$$$ |$$ |     \n$$ |  $$ |$$ |  $$ |$$ |        $$ |$$\\ $$ |  $$ |$$ |      $$ |  $$ |$$  __$$ |$$ |     \n$$ |  $$ |\\$$$$$$  |\\$$$$$$$\\   \\$$$$  |\\$$$$$$  |$$ |      $$ |  $$ |\\$$$$$$$ |$$ |      \n\\__|  \\__| \\______/  \\_______|   \\____/  \\______/ \\__|      \\__|  \\__| \\_______|\\__|     \n*/\n\npragma solidity ^0.8.0;\n\nimport \"@openzeppelin/contracts/utils/Counters.sol\";\nimport \"@openzeppelin/contracts/token/ERC20/ERC20.sol\";\nimport \"@openzeppelin/contracts/utils/math/SafeMath.sol\";\nimport \"@uniswap/v3-core/contracts/interfaces/IUniswapV3Pool.sol\";\nimport {NocturnalFinanceInterface} from \"./Interfaces/NocturnalFinanceInterface.sol\";\nimport {NoctInterface} from \"./Interfaces/NoctInterface.sol\";\nimport {OracleInterface} from \"./Interfaces/OracleInterface.sol\";\nimport {OrderInterface} from \"./Interfaces/OrderInterface.sol\";\nimport {Order} from \"./Order.sol\";\nimport {RewardsInterface} from \"./Interfaces/RewardsInterface.sol\";\n\ncontract OrderFactory {\n    using SafeMath for uint256;\n    using Counters for Counters.Counter;\n    \n    Counters.Counter public orderCounter;\n    \n    uint256 public platformVolume;\n    uint256 internal constant bPDivisor = 1000;  // 100th of a bip\n    address WETH; \n    \n    mapping(address => uint256) swapOrderID;\n    mapping(address => address) swapPoolAddress;\n    mapping(address => address) swapFromTokenAddress;\n    mapping(address => address) swapToTokenAddress;\n    mapping(address => uint256) swapFromTokenBalance;\n    mapping(address => uint256) swapToTokenBalance;\n    mapping(address => uint256) swapFromTokenValueInETH;\n    mapping(address => uint256) swapLimitPrice;\n    mapping(address => bool) swapAbove;\n    mapping(address => uint256) swapSlippage;\n    mapping(address => uint256) swapSettlementGratuity;\n    mapping(address => bool) swapSettledFlag;\n    \n    // may include all attributes in events\n    // someone may want to analyze trade data in future\n    event orderCreated(uint256 _orderID, address _orderAddress, uint256 _settlementGratuity);\n    event orderSettled(uint256 _orderID, address _orderAddress, uint256 _settlementGratuity);\n    event orderClosed(uint256 _orderID, address _orderAddress);\n    event orderModified(uint256 _orderID, address _orderAddress, uint256 _settlementGratuity);\n    event platformVolumeUpdate(uint256 _volume);\n    \n    NocturnalFinanceInterface public nocturnalFinance;\n    IUniswapV3Pool public pool;\n    \n    constructor(address _nocturnalFinance, address _WETH) public {\n        nocturnalFinance = NocturnalFinanceInterface(_nocturnalFinance);\n        WETH = _WETH;\n    }\n    \n    function createLimitOrder(\n            address _swapPoolAddress, \n            address _swapFromTokenAddress, \n            address _swapToTokenAddress, \n            uint256 _swapFromTokenBalance, \n            uint256 _swapLimitPrice,\n            uint256 _swapSlippage,\n            bool _swapAbove,\n            uint256 _swapSettlementGratuity) public {\n        require((_swapFromTokenAddress == WETH) || (_swapToTokenAddress == WETH), \"pool must contain WETH\");\n        require(ERC20(_swapFromTokenAddress).balanceOf(msg.sender) >= _swapFromTokenBalance);\n        require((_swapSettlementGratuity >= 0) && (_swapSettlementGratuity < nocturnalFinance.depositRate().mul(100).div(bPDivisor))); // expressed in basis points\n        Order nocturnalOrder = new Order(\"Nocturnal Order\", \"oNOCT\"); \n        orderCounter.increment();\n        \n        swapOrderID[address(nocturnalOrder)] = orderCounter.current();\n        swapPoolAddress[address(nocturnalOrder)] = _swapPoolAddress;\n        swapFromTokenAddress[address(nocturnalOrder)] = _swapFromTokenAddress;\n        swapToTokenAddress[address(nocturnalOrder)] = _swapToTokenAddress;\n        swapFromTokenBalance[address(nocturnalOrder)] = _swapFromTokenBalance;\n        swapLimitPrice[address(nocturnalOrder)] = _swapLimitPrice;\n        swapAbove[address(nocturnalOrder)] = _swapAbove;\n        swapSlippage[address(nocturnalOrder)] = _swapSlippage;\n        swapSettlementGratuity[address(nocturnalOrder)] = _swapSettlementGratuity;\n\n        OrderInterface(nocturnalFinance.orderAddress())._mint(msg.sender, orderCounter.current());\n        \n        pool = IUniswapV3Pool(_swapPoolAddress);        \n        \n        \n        // Process:\n        \n        // 1)  Calculate dFee\n        uint256 dFee = _swapFromTokenBalance.mul(nocturnalFinance.depositRate()).div(bPDivisor);\n\n        // 2)  If fromToken is WETH, transfer dFee WETH to Staking.sol then Transfer fromTokenBalance-dFee fromToken to order\n        if (_swapFromTokenAddress == WETH) {\n            fromWETHCreate(_swapFromTokenAddress, dFee, address(nocturnalOrder), _swapFromTokenBalance, pool.token0() == _swapFromTokenAddress, _swapPoolAddress);\n                 \n        // 3)  If toToken is WETH, swap dFee for WETH and send it to Staking.sol then Transfer fromTokenBalance-dFee fromToken to order\n        } else if ((_swapToTokenAddress == WETH) ) {\n          toWETHCreate(_swapFromTokenAddress, dFee, address(nocturnalOrder), _swapFromTokenBalance, pool.token0() == _swapFromTokenAddress, _swapPoolAddress);\n        }\n        \n        // update Order fromTokenBalance attribute for settlement\n        swapFromTokenBalance[address(nocturnalOrder)] = _swapFromTokenBalance.sub(dFee);\n        \n        // emit events\n        emit orderCreated(orderCounter.current(), address(nocturnalOrder), _swapSettlementGratuity);\n    }\n\n    function fromWETHCreate(address _swapFromTokenAddress, uint256 dFee, address orderAddress, uint256 _swapFromTokenBalance, bool fromToken0, address _swapPoolAddress) internal {\n         // 2)  If fromToken is WETH, transfer dFee WETH to Staking.sol then Transfer fromTokenBalance-dFee fromToken to order\n            require(ERC20(_swapFromTokenAddress).transferFrom(msg.sender, nocturnalFinance.sNoctAddress(), dFee), \"creator to stakers dFee transfer failed\");\n            require(ERC20(_swapFromTokenAddress).transferFrom(msg.sender, orderAddress, _swapFromTokenBalance.sub(dFee)), \"creator to order balance transfer failed\");\n            \n            // get fromTokenBalance value in ETH for tracking platform volume\n            if (fromToken0 == true) {\n                // interpret price tick data accurately\n                // this is not correct\n                swapFromTokenValueInETH[orderAddress] = uint256(int256(OracleInterface(nocturnalFinance.oracleAddress()).getCurrentPrice(_swapPoolAddress)));\n            } else {\n                // interpret price tick data accurately\n                // this is not correct\n                swapFromTokenValueInETH[orderAddress] = uint256(int256(OracleInterface(nocturnalFinance.oracleAddress()).getCurrentPrice(_swapPoolAddress)));\n            }  \n    }\n\n    function toWETHCreate(address _swapFromTokenAddress, uint256 dFee, address orderAddress, uint256 _swapFromTokenBalance, bool fromToken0, address _swapPoolAddress) internal {\n        // 3)  If toToken is WETH, swap dFee for WETH and send it to Staking.sol then Transfer fromTokenBalance-dFee fromToken to order\n        \n            OrderInterface(nocturnalFinance.orderAddress()).orderSwap(_swapPoolAddress, nocturnalFinance.sNoctAddress(), fromToken0, int256(dFee), 0);\n            require(ERC20(_swapFromTokenAddress).transferFrom(msg.sender, orderAddress, _swapFromTokenBalance.sub(dFee)), \"creator to order balance transfer failed\");\n            \n            // get fromTokenBalance value in ETH for tracking platform volume\n            if (fromToken0 == true) {\n                // interpret price tick data accurately\n                // this is not correct\n                swapFromTokenValueInETH[orderAddress] = uint256(int256(OracleInterface(nocturnalFinance.oracleAddress()).getCurrentPrice(_swapPoolAddress)));\n            } else {\n                // interpret price tick data accurately\n                // this is not correct\n                swapFromTokenValueInETH[orderAddress] = uint256(int256(OracleInterface(nocturnalFinance.oracleAddress()).getCurrentPrice(_swapPoolAddress)));\n            }\n    }\n    \n    function settleLimitOrder(address _address) public {\n        bool above = swapAbove[_address];\n        uint256 limitPrice = swapLimitPrice[_address];\n        address fromTokenAddress = swapFromTokenAddress[_address];\n        address poolAddress = swapPoolAddress[_address];\n        uint256 currentPrice;\n        pool = IUniswapV3Pool(poolAddress);\n        \n        //========================================================//\n        \n        // oracle returns a tick accum value\n        // the value of the limit returned by front end may \n        // need to be a function of token0 (fromToken or toToken?)\n        if (pool.token0() == fromTokenAddress) {\n            // currentPrice = ???\n            currentPrice = uint256(int256(OracleInterface(nocturnalFinance.oracleAddress()).getCurrentPrice(_address)));\n        } else {\n            // currentPrice = ???\n            currentPrice = uint256(int256(OracleInterface(nocturnalFinance.oracleAddress()).getCurrentPrice(_address)));\n        }\n        \n        if (above == true) {\n            require(currentPrice >= limitPrice, \"limit not met\");\n        } else if (above == false) {\n            require(currentPrice <= limitPrice, \"limit not met\");\n        }\n        \n        //========================================================//\n      \n        uint256 fromTokenBalance = swapFromTokenBalance[_address];\n        uint256 settlementGratuity = swapSettlementGratuity[_address];\n        address orderCreatorAddress = OrderInterface(nocturnalFinance.orderAddress()).ownerOf(swapOrderID[_address]);\n        uint256 sFTVIE = swapFromTokenValueInETH[_address];\n        // Process:\n        \n        // 1)  Calculate gratuity\n        uint256 gratuity = fromTokenBalance.mul(settlementGratuity).div(bPDivisor);\n        \n        bool fromToken0;\n        if (pool.token0() == fromTokenAddress) {\n            fromToken0 = true;\n        } else {\n            fromToken0 = false;\n        }\n        \n        // 2)  If fromToken is WETH, deduct gratuity from WETH and send to settler before performing the swap\n        if (fromTokenAddress == WETH) {\n            fromWETHSettle(fromTokenAddress, gratuity, poolAddress, _address, fromToken0, fromTokenBalance);\n                 \n        // 3)  If toToken is WETH, perform the swap and then deduct gratuity from WETH and send to settler\n        } else if (swapToTokenAddress[_address] == WETH) {\n            toWETHSettle( gratuity, poolAddress, _address, fromToken0, fromTokenBalance);\n        }\n        \n        // update Order toTokenBalance attribute for order closure\n        swapToTokenBalance[_address] = fromTokenBalance.sub(gratuity);\n        // update Order fromTokenBalance attribute for order closure\n        swapFromTokenBalance[_address] = 0;\n        \n        // set swap settle flag to true\n        swapSettledFlag[_address] = true;\n                \n        // 4)  Distribute the NOCT rewards to the settler and the creator (for them to claim later?)\n        //     USE MAPPING TO TRACK CLAIMABLE NOCT\n        //     CIRCULATING SUPPLY IS CLAIMED NOCT + UNCLAIMED NOCT\n        //     On front end, rewards owners will have option to claim or claim+stake automatically\n        distributeNOCTRewards(sFTVIE, orderCreatorAddress);\n\n        // increment platform volume tracker counter\n        platformVolume.add(sFTVIE);\n       \n        // 6) emit events\n        emit orderSettled(swapOrderID[_address], _address, settlementGratuity);\n        emit platformVolumeUpdate(platformVolume);\n    }\n\n    function fromWETHSettle(address fromTokenAddress, uint256 gratuity, address poolAddress, address _address, bool fromToken0, uint256 fromTokenBalance) internal {\n        OrderInterface(nocturnalFinance.orderAddress()).transferOrder(fromTokenAddress, msg.sender, gratuity);            \n        OrderInterface(nocturnalFinance.orderAddress()).orderSwap(poolAddress, _address, fromToken0, int256(fromTokenBalance.sub(gratuity)), 0);  \n    }\n\n    function toWETHSettle(uint256 gratuity, address poolAddress, address _address, bool fromToken0, uint256 fromTokenBalance) internal {\n        OrderInterface(nocturnalFinance.orderAddress()).orderSwap(poolAddress, msg.sender, fromToken0, int256(gratuity), 0);\n        OrderInterface(nocturnalFinance.orderAddress()).orderSwap(poolAddress, _address, fromToken0, int256(fromTokenBalance.sub(gratuity)), 0);\n       \n    }\n\n    function distributeNOCTRewards(uint256 sFTVIE, address orderCreatorAddress) internal {\n         // 4)  Distribute the NOCT rewards to the settler and the creator (for them to claim later?)\n        //     USE MAPPING TO TRACK CLAIMABLE NOCT\n        //     CIRCULATING SUPPLY IS CLAIMED NOCT + UNCLAIMED NOCT\n        //     On front end, rewards owners will have option to claim or claim+stake automatically\n        \n        // creator gets 88% of amount of NOCT equal to swapFromTokenValueInETH\n        // rewards balance is updated, and rewards can be claimed at rewards.sol contract address\n        // increment totalRewards by creator rewards\n        uint256 creatorRewards = sFTVIE.mul(nocturnalFinance.rewardsFactor()).div(bPDivisor);\n        NoctInterface(nocturnalFinance.noctAddress()).mintRewards(nocturnalFinance.rewardsAddress(), creatorRewards);\n        RewardsInterface(nocturnalFinance.rewardsAddress()).unclaimedRewards(orderCreatorAddress).add(creatorRewards);\n        RewardsInterface(nocturnalFinance.rewardsAddress()).totalRewards().add(creatorRewards);\n        \n        // settler gets 8% of amount of NOCT equal to swapFromTokenValueInETH\n        // rewards balance is updated, and rewards can be claimed at rewards.sol contract address\n        // increment total rewards by settler rewards\n        uint256 settlerRewards = sFTVIE.sub(creatorRewards);\n        NoctInterface(nocturnalFinance.noctAddress()).mintRewards(nocturnalFinance.rewardsAddress(), settlerRewards);\n        RewardsInterface(nocturnalFinance.rewardsAddress()).unclaimedRewards(msg.sender).add(settlerRewards);\n        RewardsInterface(nocturnalFinance.rewardsAddress()).totalRewards().add(settlerRewards);\n\n    }\n    \n    function closeLimitOrder(address _address) public {\n        require(OrderInterface(nocturnalFinance.orderAddress()).ownerOf(swapOrderID[_address]) == msg.sender, \"only order owner can close an order\");\n        \n        if (swapSettledFlag[_address] == true) {\n            // transfer fromTokenBalance from order to msg.sender address\n            OrderInterface(nocturnalFinance.orderAddress()).closeOrder(swapOrderID[_address], swapToTokenAddress[_address], msg.sender, swapToTokenBalance[_address]);\n            // burn order\n            OrderInterface(nocturnalFinance.orderAddress()).burn(swapOrderID[_address]);  \n        } else {\n            // transfer fromTokenBalance from order to msg.sender address\n            require(ERC20(swapFromTokenAddress[_address]).transferFrom(_address, msg.sender, swapFromTokenBalance[_address]), \"order to creator balance transfer failed\");\n            // burn order\n            OrderInterface(nocturnalFinance.orderAddress()).burn(swapOrderID[_address]);  \n        }\n        \n        // emit events\n        emit orderClosed(swapOrderID[_address], _address);\n    }\n\n    function getOrderID(address _orderAddress) public view returns (uint256) {\n        return swapOrderID[_orderAddress];\n    }\n    \n    function getOrderPoolAddress(address _orderAddress) public view returns (address) {\n        return swapPoolAddress[_orderAddress];\n    }\n    \n    function getOrderFromTokenAddress(address _orderAddress) public view returns (address) {\n        return swapFromTokenAddress[_orderAddress];\n    }\n    \n    function getOrderFromTokenBalance(address _orderAddress) public view returns (uint256) {\n        return swapFromTokenBalance[_orderAddress];\n    }\n    \n    function getOrderToTokenAddress(address _orderAddress) public view returns (address) {\n        return swapToTokenAddress[_orderAddress];\n    }\n    \n    function getOrderToTokenBalance(address _orderAddress) public view returns (uint256) {\n        return swapToTokenBalance[_orderAddress];\n    }\n    \n    function getOrderLimitPrice(address _orderAddress) public view returns (uint256) {\n        return swapLimitPrice[_orderAddress];\n    }\n    \n    function getOrderLimitType(address _orderAddress) public view returns (bool) {\n        return swapAbove[_orderAddress];\n    }\n    \n    function getOrderSwapSlippage(address _orderAddress) public view returns (uint256) {\n        return swapSlippage[_orderAddress];\n    }\n    \n    function getOrderSettlementGratuity(address _orderAddress) public view returns (uint256) {\n        return swapSettlementGratuity[_orderAddress];\n    }\n    \n    function getOrderSettledFlag(address _orderAddress) public view returns (bool) {\n        return swapSettledFlag[_orderAddress];\n    }\n    \n    function modifyOrderSwapSlippage(address _orderAddress, uint256 _newSwapSlippage) public returns (uint256) {\n        uint256 orderID = swapOrderID[_orderAddress];\n        require(OrderInterface(nocturnalFinance.orderAddress()).ownerOf(orderID) == msg.sender, \"only owner can modify an existing order\");\n        swapSlippage[_orderAddress] = _newSwapSlippage;\n      \n        uint256 settlementGratuity = swapSettlementGratuity[_orderAddress];\n        \n        emit orderModified(orderID, _orderAddress, settlementGratuity);      \n    }\n    \n    function modifyOrderSettlementGratuity(address _orderAddress, uint256 _newSettlementGratuity) public returns (uint256) {\n        uint256 orderID = swapOrderID[_orderAddress];\n        require(OrderInterface(nocturnalFinance.orderAddress()).ownerOf(orderID) == msg.sender, \"only owner can modify an existing order\");\n        swapSettlementGratuity[_orderAddress] = _newSettlementGratuity;      \n        \n        emit orderModified(orderID, _orderAddress, _newSettlementGratuity);      \n    }\n}\n",
  "sourcePath": "/Users/knott/Desktop/nocturnal/contracts/OrderFactory.sol",
  "compiler": {
    "name": "solc",
    "version": "0.8.0+commit.c7dfd78e.Emscripten.clang"
  },
  "schemaVersion": "3.3.3",
  "updatedAt": "2021-05-16T02:21:48.709Z",
  "devdoc": {
    "kind": "dev",
    "methods": {},
    "version": 1
  },
  "userdoc": {
    "kind": "user",
    "methods": {},
    "version": 1
  }
}