{
  "contractName": "OrderModifier",
  "abi": [
    {
      "inputs": [
        {
          "internalType": "address",
          "name": "_nocturnalFinance",
          "type": "address"
        }
      ],
      "stateMutability": "nonpayable",
      "type": "constructor"
    },
    {
      "anonymous": false,
      "inputs": [
        {
          "indexed": false,
          "internalType": "uint256",
          "name": "_orderID",
          "type": "uint256"
        },
        {
          "indexed": false,
          "internalType": "address",
          "name": "_orderAddress",
          "type": "address"
        },
        {
          "indexed": false,
          "internalType": "uint256",
          "name": "_settlementGratuity",
          "type": "uint256"
        }
      ],
      "name": "orderModified",
      "type": "event"
    },
    {
      "inputs": [],
      "name": "nocturnalFinance",
      "outputs": [
        {
          "internalType": "contract NocturnalFinanceInterface",
          "name": "",
          "type": "address"
        }
      ],
      "stateMutability": "view",
      "type": "function"
    },
    {
      "inputs": [
        {
          "internalType": "address",
          "name": "_orderAddress",
          "type": "address"
        },
        {
          "internalType": "uint256",
          "name": "_newSwapSlippage",
          "type": "uint256"
        }
      ],
      "name": "modifyOrderSwapSlippage",
      "outputs": [],
      "stateMutability": "nonpayable",
      "type": "function"
    },
    {
      "inputs": [
        {
          "internalType": "address",
          "name": "_orderAddress",
          "type": "address"
        },
        {
          "internalType": "uint256",
          "name": "_newSettlementGratuity",
          "type": "uint256"
        }
      ],
      "name": "modifyOrderSettlementGratuity",
      "outputs": [],
      "stateMutability": "nonpayable",
      "type": "function"
    }
  ],
  "bytecode": "0x608060405234801561001057600080fd5b50604051610e41380380610e4183398101604081905261002f91610054565b600080546001600160a01b0319166001600160a01b0392909216919091179055610082565b600060208284031215610065578081fd5b81516001600160a01b038116811461007b578182fd5b9392505050565b610db0806100916000396000f3fe608060405234801561001057600080fd5b50600436106100415760003560e01c806329cbb82514610046578063abd5db5e1461005b578063ee64deab1461006e575b600080fd5b610059610054366004610c02565b61008c565b005b610059610069366004610c02565b610596565b610076610bc3565b6040516100839190610c45565b60405180910390f35b60008054906101000a900473ffffffffffffffffffffffffffffffffffffffff1673ffffffffffffffffffffffffffffffffffffffff1663e272981b6040518163ffffffff1660e01b815260040160206040518083038186803b1580156100f257600080fd5b505afa158015610106573d6000803e3d6000fd5b505050506040513d601f19601f8201168201806040525081019061012a9190610bdf565b73ffffffffffffffffffffffffffffffffffffffff163373ffffffffffffffffffffffffffffffffffffffff1614610197576040517f08c379a000000000000000000000000000000000000000000000000000000000815260040161018e90610c8c565b60405180910390fd5b60008060009054906101000a900473ffffffffffffffffffffffffffffffffffffffff1673ffffffffffffffffffffffffffffffffffffffff1663e272981b6040518163ffffffff1660e01b815260040160206040518083038186803b15801561020057600080fd5b505afa158015610214573d6000803e3d6000fd5b505050506040513d601f19601f820116820180604052508101906102389190610bdf565b73ffffffffffffffffffffffffffffffffffffffff1663bd5de4be846040518263ffffffff1660e01b81526004016102709190610c45565b60206040518083038186803b15801561028857600080fd5b505afa15801561029c573d6000803e3d6000fd5b505050506040513d601f19601f820116820180604052508101906102c09190610c2d565b90503373ffffffffffffffffffffffffffffffffffffffff1660008054906101000a900473ffffffffffffffffffffffffffffffffffffffff1673ffffffffffffffffffffffffffffffffffffffff16634f5843426040518163ffffffff1660e01b815260040160206040518083038186803b15801561033f57600080fd5b505afa158015610353573d6000803e3d6000fd5b505050506040513d601f19601f820116820180604052508101906103779190610bdf565b73ffffffffffffffffffffffffffffffffffffffff16636352211e836040518263ffffffff1660e01b81526004016103af9190610d20565b60206040518083038186803b1580156103c757600080fd5b505afa1580156103db573d6000803e3d6000fd5b505050506040513d601f19601f820116820180604052508101906103ff9190610bdf565b73ffffffffffffffffffffffffffffffffffffffff161461044c576040517f08c379a000000000000000000000000000000000000000000000000000000000815260040161018e90610cc3565b60008054906101000a900473ffffffffffffffffffffffffffffffffffffffff1673ffffffffffffffffffffffffffffffffffffffff1663e272981b6040518163ffffffff1660e01b815260040160206040518083038186803b1580156104b257600080fd5b505afa1580156104c6573d6000803e3d6000fd5b505050506040513d601f19601f820116820180604052508101906104ea9190610bdf565b73ffffffffffffffffffffffffffffffffffffffff16636a4112de84846040518363ffffffff1660e01b8152600401610524929190610c66565b600060405180830381600087803b15801561053e57600080fd5b505af1158015610552573d6000803e3d6000fd5b505050507f5a3658449e0206cd7403c8149a68b4bfca463119d65774d499cf0f338d16d1fe81848460405161058993929190610d29565b60405180910390a1505050565b60008054906101000a900473ffffffffffffffffffffffffffffffffffffffff1673ffffffffffffffffffffffffffffffffffffffff1663e272981b6040518163ffffffff1660e01b815260040160206040518083038186803b1580156105fc57600080fd5b505afa158015610610573d6000803e3d6000fd5b505050506040513d601f19601f820116820180604052508101906106349190610bdf565b73ffffffffffffffffffffffffffffffffffffffff163373ffffffffffffffffffffffffffffffffffffffff1614610698576040517f08c379a000000000000000000000000000000000000000000000000000000000815260040161018e90610c8c565b60008060009054906101000a900473ffffffffffffffffffffffffffffffffffffffff1673ffffffffffffffffffffffffffffffffffffffff1663e272981b6040518163ffffffff1660e01b815260040160206040518083038186803b15801561070157600080fd5b505afa158015610715573d6000803e3d6000fd5b505050506040513d601f19601f820116820180604052508101906107399190610bdf565b73ffffffffffffffffffffffffffffffffffffffff1663bd5de4be846040518263ffffffff1660e01b81526004016107719190610c45565b60206040518083038186803b15801561078957600080fd5b505afa15801561079d573d6000803e3d6000fd5b505050506040513d601f19601f820116820180604052508101906107c19190610c2d565b90503373ffffffffffffffffffffffffffffffffffffffff1660008054906101000a900473ffffffffffffffffffffffffffffffffffffffff1673ffffffffffffffffffffffffffffffffffffffff16634f5843426040518163ffffffff1660e01b815260040160206040518083038186803b15801561084057600080fd5b505afa158015610854573d6000803e3d6000fd5b505050506040513d601f19601f820116820180604052508101906108789190610bdf565b73ffffffffffffffffffffffffffffffffffffffff16636352211e836040518263ffffffff1660e01b81526004016108b09190610d20565b60206040518083038186803b1580156108c857600080fd5b505afa1580156108dc573d6000803e3d6000fd5b505050506040513d601f19601f820116820180604052508101906109009190610bdf565b73ffffffffffffffffffffffffffffffffffffffff161461094d576040517f08c379a000000000000000000000000000000000000000000000000000000000815260040161018e90610cc3565b60008054906101000a900473ffffffffffffffffffffffffffffffffffffffff1673ffffffffffffffffffffffffffffffffffffffff1663e272981b6040518163ffffffff1660e01b815260040160206040518083038186803b1580156109b357600080fd5b505afa1580156109c7573d6000803e3d6000fd5b505050506040513d601f19601f820116820180604052508101906109eb9190610bdf565b73ffffffffffffffffffffffffffffffffffffffff1663e9c8157084846040518363ffffffff1660e01b8152600401610a25929190610c66565b600060405180830381600087803b158015610a3f57600080fd5b505af1158015610a53573d6000803e3d6000fd5b5050505060008060009054906101000a900473ffffffffffffffffffffffffffffffffffffffff1673ffffffffffffffffffffffffffffffffffffffff1663e272981b6040518163ffffffff1660e01b815260040160206040518083038186803b158015610ac057600080fd5b505afa158015610ad4573d6000803e3d6000fd5b505050506040513d601f19601f82011682018060405250810190610af89190610bdf565b73ffffffffffffffffffffffffffffffffffffffff1663b3319595856040518263ffffffff1660e01b8152600401610b309190610c45565b60206040518083038186803b158015610b4857600080fd5b505afa158015610b5c573d6000803e3d6000fd5b505050506040513d601f19601f82011682018060405250810190610b809190610c2d565b90507f5a3658449e0206cd7403c8149a68b4bfca463119d65774d499cf0f338d16d1fe828583604051610bb593929190610d29565b60405180910390a150505050565b60005473ffffffffffffffffffffffffffffffffffffffff1681565b600060208284031215610bf0578081fd5b8151610bfb81610d55565b9392505050565b60008060408385031215610c14578081fd5b8235610c1f81610d55565b946020939093013593505050565b600060208284031215610c3e578081fd5b5051919050565b73ffffffffffffffffffffffffffffffffffffffff91909116815260200190565b73ffffffffffffffffffffffffffffffffffffffff929092168252602082015260400190565b6020808252601b908201527f63616c6c6572206973206e6f74206f7264657220666163746f72790000000000604082015260600190565b60208082526027908201527f6f6e6c79206f776e65722063616e206d6f6469667920616e206578697374696e60408201527f67206f7264657200000000000000000000000000000000000000000000000000606082015260800190565b90815260200190565b92835273ffffffffffffffffffffffffffffffffffffffff919091166020830152604082015260600190565b73ffffffffffffffffffffffffffffffffffffffff81168114610d7757600080fd5b5056fea2646970667358221220b1faa66a8d343dce38bdf8e2b63d94ed6364d5d11d4faca667212c2c723b8a5464736f6c63430008000033",
  "immutableReferences": {},
  "source": "/*                              $$\\                                             $$\\                                                         \n                                $$ |                                            $$ |                                                  \n$$$$$$$\\   $$$$$$\\   $$$$$$$\\ $$$$$$\\   $$\\   $$\\  $$$$$$\\  $$$$$$$\\   $$$$$$\\  $$ |     \n$$  __$$\\ $$  __$$\\ $$  _____|\\_$$  _|  $$ |  $$ |$$  __$$\\ $$  __$$\\  \\____$$\\ $$ |    \n$$ |  $$ |$$ /  $$ |$$ /        $$ |    $$ |  $$ |$$ |  \\__|$$ |  $$ | $$$$$$$ |$$ |     \n$$ |  $$ |$$ |  $$ |$$ |        $$ |$$\\ $$ |  $$ |$$ |      $$ |  $$ |$$  __$$ |$$ |     \n$$ |  $$ |\\$$$$$$  |\\$$$$$$$\\   \\$$$$  |\\$$$$$$  |$$ |      $$ |  $$ |\\$$$$$$$ |$$ |      \n\\__|  \\__| \\______/  \\_______|   \\____/  \\______/ \\__|      \\__|  \\__| \\_______|\\__|     \n*/\n\npragma solidity ^0.8.0;\n\nimport {NocturnalFinanceInterface} from \"./Interfaces/NocturnalFinanceInterface.sol\";\nimport {OrderInterface} from \"./Interfaces/OrderInterface.sol\";\nimport {OrderFactoryInterface} from \"./Interfaces/OrderFactoryInterface.sol\";\n\ncontract OrderModifier {\n    \n    // may include all attributes in events\n    // someone may want to analyze trade data in future\n    event orderModified(uint256 _orderID, address _orderAddress, uint256 _settlementGratuity);\n    \n    NocturnalFinanceInterface public nocturnalFinance;\n    \n    constructor(address _nocturnalFinance) {\n        nocturnalFinance = NocturnalFinanceInterface(_nocturnalFinance);\n    }\n    \n    function modifyOrderSwapSlippage(address _orderAddress, uint256 _newSwapSlippage) external {\n        require(msg.sender == nocturnalFinance.orderFactoryAddress(), \"caller is not order factory\");\n        uint256 orderID = OrderFactoryInterface(nocturnalFinance.orderFactoryAddress()).swapOrderID(_orderAddress);\n        require(OrderInterface(nocturnalFinance.orderAddress()).ownerOf(orderID) == msg.sender, \"only owner can modify an existing order\");\n        OrderFactoryInterface(nocturnalFinance.orderFactoryAddress()).setOrderSwapSlippage(_orderAddress, _newSwapSlippage);\n      \n        uint256 settlementGratuity = OrderFactoryInterface(nocturnalFinance.orderFactoryAddress()).swapSettlementGratuity(_orderAddress);\n        \n        emit orderModified(orderID, _orderAddress, settlementGratuity);      \n    }\n    \n    function modifyOrderSettlementGratuity(address _orderAddress, uint256 _newSettlementGratuity) external {\n        require(msg.sender == nocturnalFinance.orderFactoryAddress(), \"caller is not order factory\");\n        uint256 orderID = OrderFactoryInterface(nocturnalFinance.orderFactoryAddress()).swapOrderID(_orderAddress);\n        require(OrderInterface(nocturnalFinance.orderAddress()).ownerOf(orderID) == msg.sender, \"only owner can modify an existing order\");\n        OrderFactoryInterface(nocturnalFinance.orderFactoryAddress()).setOrderSettlementGratuity(_orderAddress, _newSettlementGratuity);      \n        \n        emit orderModified(orderID, _orderAddress, _newSettlementGratuity);      \n    }\n}\n",
  "sourcePath": "/Users/knott/Desktop/nocturnal/contracts/OrderModifier.sol",
  "compiler": {
    "name": "solc",
    "version": "0.8.0+commit.c7dfd78e.Emscripten.clang"
  },
  "schemaVersion": "3.3.3",
  "updatedAt": "2021-05-20T06:19:55.961Z",
  "devdoc": {
    "kind": "dev",
    "methods": {},
    "version": 1
  },
  "userdoc": {
    "kind": "user",
    "methods": {},
    "version": 1
  }
}