{
  "contractName": "Rewards",
  "abi": [
    {
      "inputs": [
        {
          "internalType": "address",
          "name": "_nocturnalFinance",
          "type": "address"
        }
      ],
      "stateMutability": "nonpayable",
      "type": "constructor"
    },
    {
      "inputs": [],
      "name": "nocturnalFinance",
      "outputs": [
        {
          "internalType": "contract NocturnalFinanceInterface",
          "name": "",
          "type": "address"
        }
      ],
      "stateMutability": "view",
      "type": "function"
    },
    {
      "inputs": [],
      "name": "totalRewards",
      "outputs": [
        {
          "internalType": "uint256",
          "name": "",
          "type": "uint256"
        }
      ],
      "stateMutability": "view",
      "type": "function"
    },
    {
      "inputs": [
        {
          "internalType": "address",
          "name": "",
          "type": "address"
        }
      ],
      "name": "unclaimedRewards",
      "outputs": [
        {
          "internalType": "uint256",
          "name": "",
          "type": "uint256"
        }
      ],
      "stateMutability": "view",
      "type": "function"
    },
    {
      "inputs": [
        {
          "internalType": "uint256",
          "name": "_amount",
          "type": "uint256"
        }
      ],
      "name": "claimRewards",
      "outputs": [],
      "stateMutability": "nonpayable",
      "type": "function"
    },
    {
      "inputs": [
        {
          "internalType": "uint256",
          "name": "_amount",
          "type": "uint256"
        }
      ],
      "name": "stakeRewards",
      "outputs": [],
      "stateMutability": "nonpayable",
      "type": "function"
    }
  ],
  "bytecode": "0x608060405234801561001057600080fd5b50604051610d0e380380610d0e8339818101604052810190610032919061008e565b80600260006101000a81548173ffffffffffffffffffffffffffffffffffffffff021916908373ffffffffffffffffffffffffffffffffffffffff16021790555050610100565b600081519050610088816100e9565b92915050565b6000602082840312156100a057600080fd5b60006100ae84828501610079565b91505092915050565b60006100c2826100c9565b9050919050565b600073ffffffffffffffffffffffffffffffffffffffff82169050919050565b6100f2816100b7565b81146100fd57600080fd5b50565b610bff8061010f6000396000f3fe608060405234801561001057600080fd5b50600436106100575760003560e01c80630962ef791461005c5780630e15561a146100785780634477c97414610096578063949813b8146100b2578063ee64deab146100e2575b600080fd5b610076600480360381019061007191906108c5565b610100565b005b610080610473565b60405161008d9190610a89565b60405180910390f35b6100b060048036038101906100ab91906108c5565b610479565b005b6100cc60048036038101906100c7919061084a565b61078d565b6040516100d99190610a89565b60405180910390f35b6100ea6107a5565b6040516100f79190610a2e565b60405180910390f35b80600260009054906101000a900473ffffffffffffffffffffffffffffffffffffffff1673ffffffffffffffffffffffffffffffffffffffff16631d1d929b6040518163ffffffff1660e01b815260040160206040518083038186803b15801561016957600080fd5b505afa15801561017d573d6000803e3d6000fd5b505050506040513d601f19601f820116820180604052508101906101a19190610873565b73ffffffffffffffffffffffffffffffffffffffff166370a08231336040518263ffffffff1660e01b81526004016101d991906109ea565b60206040518083038186803b1580156101f157600080fd5b505afa158015610205573d6000803e3d6000fd5b505050506040513d601f19601f8201168201806040525081019061022991906108ee565b101561026a576040517f08c379a000000000000000000000000000000000000000000000000000000000815260040161026190610a69565b60405180910390fd5b600260009054906101000a900473ffffffffffffffffffffffffffffffffffffffff1673ffffffffffffffffffffffffffffffffffffffff16631d1d929b6040518163ffffffff1660e01b815260040160206040518083038186803b1580156102d257600080fd5b505afa1580156102e6573d6000803e3d6000fd5b505050506040513d601f19601f8201168201806040525081019061030a9190610873565b73ffffffffffffffffffffffffffffffffffffffff1663a9059cbb33836040518363ffffffff1660e01b8152600401610344929190610a05565b602060405180830381600087803b15801561035e57600080fd5b505af1158015610372573d6000803e3d6000fd5b505050506040513d601f19601f82011682018060405250810190610396919061089c565b6103d5576040517f08c379a00000000000000000000000000000000000000000000000000000000081526004016103cc90610a49565b60405180910390fd5b6000600160003373ffffffffffffffffffffffffffffffffffffffff1673ffffffffffffffffffffffffffffffffffffffff16815260200190815260200160002054905061042c82826107cb90919063ffffffff16565b600160003373ffffffffffffffffffffffffffffffffffffffff1673ffffffffffffffffffffffffffffffffffffffff168152602001908152602001600020819055505050565b60005481565b80600260009054906101000a900473ffffffffffffffffffffffffffffffffffffffff1673ffffffffffffffffffffffffffffffffffffffff16631d1d929b6040518163ffffffff1660e01b815260040160206040518083038186803b1580156104e257600080fd5b505afa1580156104f6573d6000803e3d6000fd5b505050506040513d601f19601f8201168201806040525081019061051a9190610873565b73ffffffffffffffffffffffffffffffffffffffff166370a08231336040518263ffffffff1660e01b815260040161055291906109ea565b60206040518083038186803b15801561056a57600080fd5b505afa15801561057e573d6000803e3d6000fd5b505050506040513d601f19601f820116820180604052508101906105a291906108ee565b10156105e3576040517f08c379a00000000000000000000000000000000000000000000000000000000081526004016105da90610a69565b60405180910390fd5b600260009054906101000a900473ffffffffffffffffffffffffffffffffffffffff1673ffffffffffffffffffffffffffffffffffffffff1663cb1048ff6040518163ffffffff1660e01b815260040160206040518083038186803b15801561064b57600080fd5b505afa15801561065f573d6000803e3d6000fd5b505050506040513d601f19601f820116820180604052508101906106839190610873565b73ffffffffffffffffffffffffffffffffffffffff1663baffb69f33836040518363ffffffff1660e01b81526004016106bd929190610a05565b600060405180830381600087803b1580156106d757600080fd5b505af11580156106eb573d6000803e3d6000fd5b505050506000600160003373ffffffffffffffffffffffffffffffffffffffff1673ffffffffffffffffffffffffffffffffffffffff16815260200190815260200160002054905061074682826107cb90919063ffffffff16565b600160003373ffffffffffffffffffffffffffffffffffffffff1673ffffffffffffffffffffffffffffffffffffffff168152602001908152602001600020819055505050565b60016020528060005260406000206000915090505481565b600260009054906101000a900473ffffffffffffffffffffffffffffffffffffffff1681565b600081836107d99190610ab5565b905092915050565b6000813590506107f081610b84565b92915050565b60008151905061080581610b84565b92915050565b60008151905061081a81610b9b565b92915050565b60008135905061082f81610bb2565b92915050565b60008151905061084481610bb2565b92915050565b60006020828403121561085c57600080fd5b600061086a848285016107e1565b91505092915050565b60006020828403121561088557600080fd5b6000610893848285016107f6565b91505092915050565b6000602082840312156108ae57600080fd5b60006108bc8482850161080b565b91505092915050565b6000602082840312156108d757600080fd5b60006108e584828501610820565b91505092915050565b60006020828403121561090057600080fd5b600061090e84828501610835565b91505092915050565b61092081610ae9565b82525050565b61092f81610b31565b82525050565b6000610942601783610aa4565b91507f72657761726473207472616e73666572206661696c65640000000000000000006000830152602082019050919050565b6000610982602683610aa4565b91507f696e73756666696369656e7420756e636c61696d65642072657761726473206260008301527f616c616e636500000000000000000000000000000000000000000000000000006020830152604082019050919050565b6109e481610b27565b82525050565b60006020820190506109ff6000830184610917565b92915050565b6000604082019050610a1a6000830185610917565b610a2760208301846109db565b9392505050565b6000602082019050610a436000830184610926565b92915050565b60006020820190508181036000830152610a6281610935565b9050919050565b60006020820190508181036000830152610a8281610975565b9050919050565b6000602082019050610a9e60008301846109db565b92915050565b600082825260208201905092915050565b6000610ac082610b27565b9150610acb83610b27565b925082821015610ade57610add610b55565b5b828203905092915050565b6000610af482610b07565b9050919050565b60008115159050919050565b600073ffffffffffffffffffffffffffffffffffffffff82169050919050565b6000819050919050565b6000610b3c82610b43565b9050919050565b6000610b4e82610b07565b9050919050565b7f4e487b7100000000000000000000000000000000000000000000000000000000600052601160045260246000fd5b610b8d81610ae9565b8114610b9857600080fd5b50565b610ba481610afb565b8114610baf57600080fd5b50565b610bbb81610b27565b8114610bc657600080fd5b5056fea2646970667358221220f91316db0c67e45433c7eac2eaf3c8febb1b45afda773439703b7d669ea2786464736f6c63430008000033",
  "immutableReferences": {},
  "source": "/*                              $$\\                                             $$\\                                                         \n                                $$ |                                            $$ |                                                  \n$$$$$$$\\   $$$$$$\\   $$$$$$$\\ $$$$$$\\   $$\\   $$\\  $$$$$$\\  $$$$$$$\\   $$$$$$\\  $$ |     \n$$  __$$\\ $$  __$$\\ $$  _____|\\_$$  _|  $$ |  $$ |$$  __$$\\ $$  __$$\\  \\____$$\\ $$ |    \n$$ |  $$ |$$ /  $$ |$$ /        $$ |    $$ |  $$ |$$ |  \\__|$$ |  $$ | $$$$$$$ |$$ |     \n$$ |  $$ |$$ |  $$ |$$ |        $$ |$$\\ $$ |  $$ |$$ |      $$ |  $$ |$$  __$$ |$$ |     \n$$ |  $$ |\\$$$$$$  |\\$$$$$$$\\   \\$$$$  |\\$$$$$$  |$$ |      $$ |  $$ |\\$$$$$$$ |$$ |      \n\\__|  \\__| \\______/  \\_______|   \\____/  \\______/ \\__|      \\__|  \\__| \\_______|\\__|     \n*/\n\npragma solidity ^0.8.0;\n\nimport \"@openzeppelin/contracts/utils/math/SafeMath.sol\";\nimport \"@openzeppelin/contracts/utils/Counters.sol\";\nimport {NocturnalFinanceInterface} from \"./Interfaces/NocturnalFinanceInterface.sol\";\nimport {NoctInterface} from \"./Interfaces/NoctInterface.sol\";\nimport {OrderFactoryInterface} from \"./Interfaces/OrderFactoryInterface.sol\";\nimport {NoctStakingInterface} from \"./Interfaces/NoctStakingInterface.sol\";\n\ncontract Rewards {\n    using SafeMath for uint256;\n    using Counters for Counters.Counter;\n    \n    uint256 public totalRewards;\n    \n    mapping(address => uint256) public unclaimedRewards;\n\n    NocturnalFinanceInterface public nocturnalFinance;\n    \n    constructor(address _nocturnalFinance) public {\n        nocturnalFinance = NocturnalFinanceInterface(_nocturnalFinance);\n    }\n    \n    function claimRewards(uint256 _amount) public {\n        require(NoctInterface(nocturnalFinance.noctAddress()).balanceOf(msg.sender) >= _amount, \"insufficient unclaimed rewards balance\");\n        require(NoctInterface(nocturnalFinance.noctAddress()).transfer(msg.sender, _amount), \"rewards transfer failed\");\n        uint256 rBalance = unclaimedRewards[msg.sender];\n        unclaimedRewards[msg.sender] = rBalance.sub(_amount);\n    }\n    \n    function stakeRewards(uint256 _amount) public {\n        require(NoctInterface(nocturnalFinance.noctAddress()).balanceOf(msg.sender) >= _amount, \"insufficient unclaimed rewards balance\");\n        NoctStakingInterface(nocturnalFinance.sNoctAddress()).autoStake(msg.sender, _amount);\n        uint256 rBalance = unclaimedRewards[msg.sender];\n        unclaimedRewards[msg.sender] = rBalance.sub(_amount);\n    }\n}\n",
  "sourcePath": "/Users/knott/Desktop/nocturnal/contracts/Rewards.sol",
  "compiler": {
    "name": "solc",
    "version": "0.8.0+commit.c7dfd78e.Emscripten.clang"
  },
  "schemaVersion": "3.3.3",
  "updatedAt": "2021-05-16T02:21:48.784Z",
  "devdoc": {
    "kind": "dev",
    "methods": {},
    "version": 1
  },
  "userdoc": {
    "kind": "user",
    "methods": {},
    "version": 1
  }
}