{
  "contractName": "Rewards",
  "abi": [
    {
      "inputs": [
        {
          "internalType": "address",
          "name": "_nocturnalFinance",
          "type": "address"
        },
        {
          "internalType": "uint256",
          "name": "_rewardsSupply",
          "type": "uint256"
        },
        {
          "internalType": "uint256",
          "name": "_initialSupply",
          "type": "uint256"
        }
      ],
      "stateMutability": "nonpayable",
      "type": "constructor"
    },
    {
      "inputs": [],
      "name": "nocturnalFinance",
      "outputs": [
        {
          "internalType": "contract NocturnalFinanceInterface",
          "name": "",
          "type": "address"
        }
      ],
      "stateMutability": "view",
      "type": "function",
      "constant": true
    },
    {
      "inputs": [],
      "name": "totalRewards",
      "outputs": [
        {
          "internalType": "uint256",
          "name": "",
          "type": "uint256"
        }
      ],
      "stateMutability": "view",
      "type": "function",
      "constant": true
    },
    {
      "inputs": [
        {
          "internalType": "address",
          "name": "",
          "type": "address"
        }
      ],
      "name": "unclaimedRewards",
      "outputs": [
        {
          "internalType": "uint256",
          "name": "",
          "type": "uint256"
        }
      ],
      "stateMutability": "view",
      "type": "function",
      "constant": true
    },
    {
      "inputs": [
        {
          "internalType": "uint256",
          "name": "_amount",
          "type": "uint256"
        }
      ],
      "name": "claimRewards",
      "outputs": [],
      "stateMutability": "nonpayable",
      "type": "function"
    },
    {
      "inputs": [
        {
          "internalType": "uint256",
          "name": "_valueETH",
          "type": "uint256"
        }
      ],
      "name": "calcRewards",
      "outputs": [
        {
          "internalType": "uint256",
          "name": "",
          "type": "uint256"
        }
      ],
      "stateMutability": "view",
      "type": "function",
      "constant": true
    },
    {
      "inputs": [
        {
          "internalType": "address",
          "name": "_claimant",
          "type": "address"
        },
        {
          "internalType": "uint256",
          "name": "_rewards",
          "type": "uint256"
        }
      ],
      "name": "addUnclaimedRewards",
      "outputs": [],
      "stateMutability": "nonpayable",
      "type": "function"
    },
    {
      "inputs": [
        {
          "internalType": "uint256",
          "name": "_rewards",
          "type": "uint256"
        }
      ],
      "name": "addTotalRewards",
      "outputs": [],
      "stateMutability": "nonpayable",
      "type": "function"
    }
  ],
  "bytecode": "0x608060405234801561001057600080fd5b50604051610af7380380610af783398101604081905261002f91610094565b8060038190555061004d818361008160201b6107001790919060201c565b6001555050600280546001600160a01b039092166001600160a01b03199283168117909155600480549092161790556100f9565b600061008d82846100d5565b9392505050565b6000806000606084860312156100a8578283fd5b83516001600160a01b03811681146100be578384fd5b602085015160409095015190969495509392505050565b600082198211156100f457634e487b7160e01b81526011600452602481fd5b500190565b6109ef806101086000396000f3fe608060405234801561001057600080fd5b506004361061007d5760003560e01c80635b9c23321161005b5780635b9c2332146100c8578063949813b8146100db578063b7d142e5146100ee578063ee64deab146101015761007d565b80630962ef79146100825780630e15561a1461009757806317abd259146100b5575b600080fd5b6100956100903660046107b3565b610116565b005b61009f6102ef565b6040516100ac9190610812565b60405180910390f35b6100956100c3366004610768565b6102f5565b6100956100d63660046107b3565b61045c565b61009f6100e9366004610730565b610579565b61009f6100fc3660046107b3565b61058b565b6101096106e4565b6040516100ac91906107f1565b3360009081526020819052604090205481811015610169576040517f08c379a000000000000000000000000000000000000000000000000000000000815260040161016090610852565b60405180910390fd5b600480546040517f8bf83b0400000000000000000000000000000000000000000000000000000000815273ffffffffffffffffffffffffffffffffffffffff90911691638bf83b04916101bf91600c9101610812565b60206040518083038186803b1580156101d757600080fd5b505afa1580156101eb573d6000803e3d6000fd5b505050506040513d601f19601f8201168201806040525081019061020f919061074c565b73ffffffffffffffffffffffffffffffffffffffff1663a9059cbb33846040518363ffffffff1660e01b81526004016102499291906107cb565b602060405180830381600087803b15801561026357600080fd5b505af1158015610277573d6000803e3d6000fd5b505050506040513d601f19601f8201168201806040525081019061029b9190610793565b6102d1576040517f08c379a00000000000000000000000000000000000000000000000000000000081526004016101609061081b565b6102db818361070c565b336000908152602081905260409020555050565b60035481565b600480546040517f8bf83b0400000000000000000000000000000000000000000000000000000000815273ffffffffffffffffffffffffffffffffffffffff90911691638bf83b049161034b91600b9101610812565b60206040518083038186803b15801561036357600080fd5b505afa158015610377573d6000803e3d6000fd5b505050506040513d601f19601f8201168201806040525081019061039b919061074c565b73ffffffffffffffffffffffffffffffffffffffff163373ffffffffffffffffffffffffffffffffffffffff16146103ff576040517f08c379a000000000000000000000000000000000000000000000000000000000815260040161016090610889565b73ffffffffffffffffffffffffffffffffffffffff821660009081526020819052604090205461042f9082610700565b73ffffffffffffffffffffffffffffffffffffffff90921660009081526020819052604090209190915550565b600480546040517f8bf83b0400000000000000000000000000000000000000000000000000000000815273ffffffffffffffffffffffffffffffffffffffff90911691638bf83b04916104b291600b9101610812565b60206040518083038186803b1580156104ca57600080fd5b505afa1580156104de573d6000803e3d6000fd5b505050506040513d601f19601f82011682018060405250810190610502919061074c565b73ffffffffffffffffffffffffffffffffffffffff163373ffffffffffffffffffffffffffffffffffffffff1614610566576040517f08c379a000000000000000000000000000000000000000000000000000000000815260040161016090610889565b6003546105739082610700565b60035550565b60006020819052908152604090205481565b600480546040517f8bf83b0400000000000000000000000000000000000000000000000000000000815260009273ffffffffffffffffffffffffffffffffffffffff90921691638bf83b04916105e491600b9101610812565b60206040518083038186803b1580156105fc57600080fd5b505afa158015610610573d6000803e3d6000fd5b505050506040513d601f19601f82011682018060405250810190610634919061074c565b73ffffffffffffffffffffffffffffffffffffffff163373ffffffffffffffffffffffffffffffffffffffff1614610698576040517f08c379a000000000000000000000000000000000000000000000000000000000815260040161016090610889565b60006106b160035460015461070c90919063ffffffff16565b90506106dd6106cd64e8d4a51000670de0b6b3a7640000610718565b6106d78584610718565b90610724565b9392505050565b60045473ffffffffffffffffffffffffffffffffffffffff1681565b60006106dd82846108c0565b60006106dd828461094e565b60006106dd8284610911565b60006106dd82846108d8565b600060208284031215610741578081fd5b81356106dd81610994565b60006020828403121561075d578081fd5b81516106dd81610994565b6000806040838503121561077a578081fd5b823561078581610994565b946020939093013593505050565b6000602082840312156107a4578081fd5b815180151581146106dd578182fd5b6000602082840312156107c4578081fd5b5035919050565b73ffffffffffffffffffffffffffffffffffffffff929092168252602082015260400190565b73ffffffffffffffffffffffffffffffffffffffff91909116815260200190565b90815260200190565b60208082526017908201527f72657761726473207472616e73666572206661696c6564000000000000000000604082015260600190565b6020808252601c908201527f696e73756666696369656e7420726577617264732062616c616e636500000000604082015260600190565b60208082526019908201527f6e6f742044697374726962757465526577617264732e736f6c00000000000000604082015260600190565b600082198211156108d3576108d3610965565b500190565b60008261090c577f4e487b710000000000000000000000000000000000000000000000000000000081526012600452602481fd5b500490565b6000817fffffffffffffffffffffffffffffffffffffffffffffffffffffffffffffffff048311821515161561094957610949610965565b500290565b60008282101561096057610960610965565b500390565b7f4e487b7100000000000000000000000000000000000000000000000000000000600052601160045260246000fd5b73ffffffffffffffffffffffffffffffffffffffff811681146109b657600080fd5b5056fea2646970667358221220eb927e712147fe8fd33a5af3f9b7211160e9df926af55cb6bd9e5ef76d43e77c64736f6c63430008000033",
  "immutableReferences": {},
  "source": "/*                              $$\\                                             $$\\                                                         \n                                $$ |                                            $$ |                                                  \n$$$$$$$\\   $$$$$$\\   $$$$$$$\\ $$$$$$\\   $$\\   $$\\  $$$$$$\\  $$$$$$$\\   $$$$$$\\  $$ |     \n$$  __$$\\ $$  __$$\\ $$  _____|\\_$$  _|  $$ |  $$ |$$  __$$\\ $$  __$$\\  \\____$$\\ $$ |    \n$$ |  $$ |$$ /  $$ |$$ /        $$ |    $$ |  $$ |$$ |  \\__|$$ |  $$ | $$$$$$$ |$$ |     \n$$ |  $$ |$$ |  $$ |$$ |        $$ |$$\\ $$ |  $$ |$$ |      $$ |  $$ |$$  __$$ |$$ |     \n$$ |  $$ |\\$$$$$$  |\\$$$$$$$\\   \\$$$$  |\\$$$$$$  |$$ |      $$ |  $$ |\\$$$$$$$ |$$ |      \n\\__|  \\__| \\______/  \\_______|   \\____/  \\______/ \\__|      \\__|  \\__| \\_______|\\__|     \n*/\n\npragma solidity ^0.8.0;\n\nimport \"@openzeppelin/contracts/utils/math/SafeMath.sol\";\nimport \"@openzeppelin/contracts/token/ERC20/IERC20.sol\";\nimport {NocturnalFinanceInterface} from \"./Interfaces/NocturnalFinanceInterface.sol\";\nimport {NoctInterface} from \"./Interfaces/NoctInterface.sol\";\nimport {NoctStakingInterface} from \"./Interfaces/NoctStakingInterface.sol\";\n\ncontract Rewards {\n    using SafeMath for uint256;\n    \n    mapping(address => uint256) public unclaimedRewards;\n    \n    uint256 totalSupply;\n    address nocturnalFinanceAddress;\n    uint256 public totalRewards;\n    uint256 internal constant rewardsRateDivisor = 1e12;\n    uint256 internal constant multiplicand = 1e18;\n\n    NocturnalFinanceInterface public nocturnalFinance;\n    \n    constructor(address _nocturnalFinance, uint256 _rewardsSupply, uint256 _initialSupply) {\n        totalRewards = _initialSupply;\n        totalSupply = _rewardsSupply.add(_initialSupply);\n        nocturnalFinanceAddress = _nocturnalFinance;\n        nocturnalFinance = NocturnalFinanceInterface(_nocturnalFinance);\n    }\n    \n    function claimRewards(uint256 _amount) public {\n        uint256 rBalance = unclaimedRewards[msg.sender];\n        require(rBalance >= _amount, \"insufficient rewards balance\");\n        require(NoctInterface(nocturnalFinance._contract(12)).transfer(msg.sender, _amount), \"rewards transfer failed\");\n        unclaimedRewards[msg.sender] = rBalance.sub(_amount);\n    }\n    \n    function calcRewards(uint256 _valueETH) external view returns (uint256) {\n        require(msg.sender == nocturnalFinance._contract(11), \"not DistributeRewards.sol\"); \n        uint256 supplyDiff = totalSupply.sub(totalRewards);\n        return _valueETH.mul(supplyDiff).div(rewardsRateDivisor.mul(multiplicand)); \n    }\n    \n    function addUnclaimedRewards(address _claimant, uint256 _rewards) public {\n        require(msg.sender == nocturnalFinance._contract(11), \"not DistributeRewards.sol\");\n        unclaimedRewards[_claimant] = (unclaimedRewards[_claimant]).add(_rewards);\n    }\n    \n    function addTotalRewards(uint256 _rewards) public {\n        require(msg.sender == nocturnalFinance._contract(11), \"not DistributeRewards.sol\");\n        totalRewards = totalRewards.add(_rewards);\n    }\n}\n",
  "sourcePath": "/Users/knott/Desktop/nocturnal/contracts/Rewards.sol",
  "compiler": {
    "name": "solc",
    "version": "0.8.0+commit.c7dfd78e.Emscripten.clang"
  },
  "schemaVersion": "3.3.3",
  "updatedAt": "2021-06-13T21:00:46.687Z",
  "networkType": "ethereum",
  "devdoc": {
    "kind": "dev",
    "methods": {},
    "version": 1
  },
  "userdoc": {
    "kind": "user",
    "methods": {},
    "version": 1
  }
}