{
  "contractName": "Rewards",
  "abi": [
    {
      "inputs": [
        {
          "internalType": "address",
          "name": "_nocturnalFinance",
          "type": "address"
        }
      ],
      "stateMutability": "nonpayable",
      "type": "constructor"
    },
    {
      "inputs": [],
      "name": "nocturnalFinance",
      "outputs": [
        {
          "internalType": "contract NocturnalFinanceInterface",
          "name": "",
          "type": "address"
        }
      ],
      "stateMutability": "view",
      "type": "function"
    },
    {
      "inputs": [],
      "name": "totalRewards",
      "outputs": [
        {
          "internalType": "uint256",
          "name": "",
          "type": "uint256"
        }
      ],
      "stateMutability": "view",
      "type": "function"
    },
    {
      "inputs": [
        {
          "internalType": "address",
          "name": "",
          "type": "address"
        }
      ],
      "name": "unclaimedRewards",
      "outputs": [
        {
          "internalType": "uint256",
          "name": "",
          "type": "uint256"
        }
      ],
      "stateMutability": "view",
      "type": "function"
    },
    {
      "inputs": [
        {
          "internalType": "uint256",
          "name": "_amount",
          "type": "uint256"
        }
      ],
      "name": "claimRewards",
      "outputs": [],
      "stateMutability": "nonpayable",
      "type": "function"
    },
    {
      "inputs": [
        {
          "internalType": "uint256",
          "name": "_amount",
          "type": "uint256"
        }
      ],
      "name": "stakeRewards",
      "outputs": [],
      "stateMutability": "nonpayable",
      "type": "function"
    },
    {
      "inputs": [
        {
          "internalType": "uint256",
          "name": "_valueETH",
          "type": "uint256"
        }
      ],
      "name": "calcRewards",
      "outputs": [
        {
          "internalType": "uint256",
          "name": "",
          "type": "uint256"
        }
      ],
      "stateMutability": "view",
      "type": "function"
    }
  ],
  "bytecode": "0x608060405234801561001057600080fd5b50604051610cb5380380610cb583398101604081905261002f91610054565b600280546001600160a01b0319166001600160a01b0392909216919091179055610082565b600060208284031215610065578081fd5b81516001600160a01b038116811461007b578182fd5b9392505050565b610c24806100916000396000f3fe608060405234801561001057600080fd5b50600436106100725760003560e01c8063949813b811610050578063949813b8146100bd578063b7d142e5146100d0578063ee64deab146100e357610072565b80630962ef79146100775780630e15561a1461008c5780634477c974146100aa575b600080fd5b61008a61008536600461099c565b6100f8565b005b6100946103f3565b6040516100a19190610b04565b60405180910390f35b61008a6100b836600461099c565b6103f9565b6100946100cb366004610944565b610683565b6100946100de36600461099c565b610695565b6100eb6108fd565b6040516100a191906109cc565b600254604080517f1d1d929b0000000000000000000000000000000000000000000000000000000081529051839273ffffffffffffffffffffffffffffffffffffffff1691631d1d929b916004808301926020929190829003018186803b15801561016257600080fd5b505afa158015610176573d6000803e3d6000fd5b505050506040513d601f19601f8201168201806040525081019061019a9190610960565b73ffffffffffffffffffffffffffffffffffffffff166370a08231336040518263ffffffff1660e01b81526004016101d291906109cc565b60206040518083038186803b1580156101ea57600080fd5b505afa1580156101fe573d6000803e3d6000fd5b505050506040513d601f19601f8201168201806040525081019061022291906109b4565b1015610263576040517f08c379a000000000000000000000000000000000000000000000000000000000815260040161025a90610aa7565b60405180910390fd5b600260009054906101000a900473ffffffffffffffffffffffffffffffffffffffff1673ffffffffffffffffffffffffffffffffffffffff16631d1d929b6040518163ffffffff1660e01b815260040160206040518083038186803b1580156102cb57600080fd5b505afa1580156102df573d6000803e3d6000fd5b505050506040513d601f19601f820116820180604052508101906103039190610960565b73ffffffffffffffffffffffffffffffffffffffff1663a9059cbb33836040518363ffffffff1660e01b815260040161033d9291906109ed565b602060405180830381600087803b15801561035757600080fd5b505af115801561036b573d6000803e3d6000fd5b505050506040513d601f19601f8201168201806040525081019061038f919061097c565b6103c5576040517f08c379a000000000000000000000000000000000000000000000000000000000815260040161025a90610a13565b336000908152602081905260409020546103df8183610919565b336000908152602081905260409020555050565b60015481565b600254604080517f1d1d929b0000000000000000000000000000000000000000000000000000000081529051839273ffffffffffffffffffffffffffffffffffffffff1691631d1d929b916004808301926020929190829003018186803b15801561046357600080fd5b505afa158015610477573d6000803e3d6000fd5b505050506040513d601f19601f8201168201806040525081019061049b9190610960565b73ffffffffffffffffffffffffffffffffffffffff166370a08231336040518263ffffffff1660e01b81526004016104d391906109cc565b60206040518083038186803b1580156104eb57600080fd5b505afa1580156104ff573d6000803e3d6000fd5b505050506040513d601f19601f8201168201806040525081019061052391906109b4565b101561055b576040517f08c379a000000000000000000000000000000000000000000000000000000000815260040161025a90610aa7565b600260009054906101000a900473ffffffffffffffffffffffffffffffffffffffff1673ffffffffffffffffffffffffffffffffffffffff1663cb1048ff6040518163ffffffff1660e01b815260040160206040518083038186803b1580156105c357600080fd5b505afa1580156105d7573d6000803e3d6000fd5b505050506040513d601f19601f820116820180604052508101906105fb9190610960565b73ffffffffffffffffffffffffffffffffffffffff1663baffb69f33836040518363ffffffff1660e01b81526004016106359291906109ed565b600060405180830381600087803b15801561064f57600080fd5b505af1158015610663573d6000803e3d6000fd5b50503360009081526020819052604090205491506103df90508183610919565b60006020819052908152604090205481565b600254604080517f8bc8e71c000000000000000000000000000000000000000000000000000000008152905160009273ffffffffffffffffffffffffffffffffffffffff1691638bc8e71c916004808301926020929190829003018186803b15801561070057600080fd5b505afa158015610714573d6000803e3d6000fd5b505050506040513d601f19601f820116820180604052508101906107389190610960565b73ffffffffffffffffffffffffffffffffffffffff163373ffffffffffffffffffffffffffffffffffffffff161461079c576040517f08c379a000000000000000000000000000000000000000000000000000000000815260040161025a90610a4a565b600254604080517f1d1d929b000000000000000000000000000000000000000000000000000000008152905160009273ffffffffffffffffffffffffffffffffffffffff1691631d1d929b916004808301926020929190829003018186803b15801561080757600080fd5b505afa15801561081b573d6000803e3d6000fd5b505050506040513d601f19601f8201168201806040525081019061083f9190610960565b73ffffffffffffffffffffffffffffffffffffffff166318160ddd6040518163ffffffff1660e01b815260040160206040518083038186803b15801561088457600080fd5b505afa158015610898573d6000803e3d6000fd5b505050506040513d601f19601f820116820180604052508101906108bc91906109b4565b905060006108d56001548361091990919063ffffffff16565b905060006108e88564e8d4a5100061092c565b90506108f48183610938565b95945050505050565b60025473ffffffffffffffffffffffffffffffffffffffff1681565b60006109258284610b83565b9392505050565b60006109258284610b0d565b60006109258284610b46565b600060208284031215610955578081fd5b813561092581610bc9565b600060208284031215610971578081fd5b815161092581610bc9565b60006020828403121561098d578081fd5b81518015158114610925578182fd5b6000602082840312156109ad578081fd5b5035919050565b6000602082840312156109c5578081fd5b5051919050565b73ffffffffffffffffffffffffffffffffffffffff91909116815260200190565b73ffffffffffffffffffffffffffffffffffffffff929092168252602082015260400190565b60208082526017908201527f72657761726473207472616e73666572206661696c6564000000000000000000604082015260600190565b60208082526024908201527f6f6e6c79206f7264657220736574746c65722063616c6c732063616c6352657760408201527f6172647300000000000000000000000000000000000000000000000000000000606082015260800190565b60208082526026908201527f696e73756666696369656e7420756e636c61696d65642072657761726473206260408201527f616c616e63650000000000000000000000000000000000000000000000000000606082015260800190565b90815260200190565b600082610b41577f4e487b710000000000000000000000000000000000000000000000000000000081526012600452602481fd5b500490565b6000817fffffffffffffffffffffffffffffffffffffffffffffffffffffffffffffffff0483118215151615610b7e57610b7e610b9a565b500290565b600082821015610b9557610b95610b9a565b500390565b7f4e487b7100000000000000000000000000000000000000000000000000000000600052601160045260246000fd5b73ffffffffffffffffffffffffffffffffffffffff81168114610beb57600080fd5b5056fea2646970667358221220d5974d27ee046f8479b8e04025a0b2dcb17766bf343bc7eecd82d123b1e5f88a64736f6c63430008000033",
  "immutableReferences": {},
  "source": "/*                              $$\\                                             $$\\                                                         \n                                $$ |                                            $$ |                                                  \n$$$$$$$\\   $$$$$$\\   $$$$$$$\\ $$$$$$\\   $$\\   $$\\  $$$$$$\\  $$$$$$$\\   $$$$$$\\  $$ |     \n$$  __$$\\ $$  __$$\\ $$  _____|\\_$$  _|  $$ |  $$ |$$  __$$\\ $$  __$$\\  \\____$$\\ $$ |    \n$$ |  $$ |$$ /  $$ |$$ /        $$ |    $$ |  $$ |$$ |  \\__|$$ |  $$ | $$$$$$$ |$$ |     \n$$ |  $$ |$$ |  $$ |$$ |        $$ |$$\\ $$ |  $$ |$$ |      $$ |  $$ |$$  __$$ |$$ |     \n$$ |  $$ |\\$$$$$$  |\\$$$$$$$\\   \\$$$$  |\\$$$$$$  |$$ |      $$ |  $$ |\\$$$$$$$ |$$ |      \n\\__|  \\__| \\______/  \\_______|   \\____/  \\______/ \\__|      \\__|  \\__| \\_______|\\__|     \n*/\n\npragma solidity ^0.8.0;\n\nimport \"@openzeppelin/contracts/utils/math/SafeMath.sol\";\nimport {NocturnalFinanceInterface} from \"./Interfaces/NocturnalFinanceInterface.sol\";\nimport {NoctInterface} from \"./Interfaces/NoctInterface.sol\";\nimport {NoctStakingInterface} from \"./Interfaces/NoctStakingInterface.sol\";\n\ncontract Rewards {\n    using SafeMath for uint256;\n    \n    mapping(address => uint256) public unclaimedRewards;\n    \n    uint256 public totalRewards;\n    uint256 internal constant rewardsRateDivisor = 1e12;\n\n    NocturnalFinanceInterface public nocturnalFinance;\n    \n    constructor(address _nocturnalFinance) {\n        nocturnalFinance = NocturnalFinanceInterface(_nocturnalFinance);\n    }\n    \n    function claimRewards(uint256 _amount) public {\n        require(NoctInterface(nocturnalFinance.noctAddress()).balanceOf(msg.sender) >= _amount, \"insufficient unclaimed rewards balance\");\n        require(NoctInterface(nocturnalFinance.noctAddress()).transfer(msg.sender, _amount), \"rewards transfer failed\");\n        uint256 rBalance = unclaimedRewards[msg.sender];\n        unclaimedRewards[msg.sender] = rBalance.sub(_amount);\n    }\n    \n    function stakeRewards(uint256 _amount) public {\n        require(NoctInterface(nocturnalFinance.noctAddress()).balanceOf(msg.sender) >= _amount, \"insufficient unclaimed rewards balance\");\n        NoctStakingInterface(nocturnalFinance.sNoctAddress()).autoStake(msg.sender, _amount);\n        uint256 rBalance = unclaimedRewards[msg.sender];\n        unclaimedRewards[msg.sender] = rBalance.sub(_amount);\n    }\n    \n    function calcRewards(uint256 _valueETH) external view returns (uint256) {\n        require(msg.sender == nocturnalFinance.orderSettlerAddress(), \"only order settler calls calcRewards\");\n        uint256 totalSupply = NoctInterface(nocturnalFinance.noctAddress()).totalSupply();\n        uint256 supplyDiff = totalSupply.sub(totalRewards);\n        uint256 rewardsRate = _valueETH.div(rewardsRateDivisor); // equal to value in ETH / 1000000\n        return (rewardsRate.mul(supplyDiff)); \n    }\n}\n",
  "sourcePath": "/Users/knott/Desktop/nocturnal/contracts/Rewards.sol",
  "compiler": {
    "name": "solc",
    "version": "0.8.0+commit.c7dfd78e.Emscripten.clang"
  },
  "schemaVersion": "3.3.3",
  "updatedAt": "2021-05-20T06:19:55.984Z",
  "devdoc": {
    "kind": "dev",
    "methods": {},
    "version": 1
  },
  "userdoc": {
    "kind": "user",
    "methods": {},
    "version": 1
  }
}