{
  "contractName": "Rewards",
  "abi": [
    {
      "inputs": [
        {
          "internalType": "address",
          "name": "_nocturnalFinance",
          "type": "address"
        },
        {
          "internalType": "uint256",
          "name": "_rewardsSupply",
          "type": "uint256"
        },
        {
          "internalType": "uint256",
          "name": "_initialSupply",
          "type": "uint256"
        }
      ],
      "stateMutability": "nonpayable",
      "type": "constructor"
    },
    {
      "inputs": [],
      "name": "nocturnalFinance",
      "outputs": [
        {
          "internalType": "contract NocturnalFinanceInterface",
          "name": "",
          "type": "address"
        }
      ],
      "stateMutability": "view",
      "type": "function",
      "constant": true
    },
    {
      "inputs": [],
      "name": "totalRewards",
      "outputs": [
        {
          "internalType": "uint256",
          "name": "",
          "type": "uint256"
        }
      ],
      "stateMutability": "view",
      "type": "function",
      "constant": true
    },
    {
      "inputs": [
        {
          "internalType": "address",
          "name": "",
          "type": "address"
        }
      ],
      "name": "unclaimedRewards",
      "outputs": [
        {
          "internalType": "uint256",
          "name": "",
          "type": "uint256"
        }
      ],
      "stateMutability": "view",
      "type": "function",
      "constant": true
    },
    {
      "inputs": [],
      "name": "approveStaking",
      "outputs": [],
      "stateMutability": "nonpayable",
      "type": "function"
    },
    {
      "inputs": [
        {
          "internalType": "uint256",
          "name": "_amount",
          "type": "uint256"
        }
      ],
      "name": "claimRewards",
      "outputs": [],
      "stateMutability": "nonpayable",
      "type": "function"
    },
    {
      "inputs": [
        {
          "internalType": "uint256",
          "name": "_amount",
          "type": "uint256"
        }
      ],
      "name": "stakeRewards",
      "outputs": [],
      "stateMutability": "nonpayable",
      "type": "function"
    },
    {
      "inputs": [
        {
          "internalType": "uint256",
          "name": "_valueETH",
          "type": "uint256"
        }
      ],
      "name": "calcRewards",
      "outputs": [
        {
          "internalType": "uint256",
          "name": "",
          "type": "uint256"
        }
      ],
      "stateMutability": "view",
      "type": "function",
      "constant": true
    },
    {
      "inputs": [
        {
          "internalType": "address",
          "name": "_claimant",
          "type": "address"
        },
        {
          "internalType": "uint256",
          "name": "_rewards",
          "type": "uint256"
        }
      ],
      "name": "addUnclaimedRewards",
      "outputs": [],
      "stateMutability": "nonpayable",
      "type": "function"
    },
    {
      "inputs": [
        {
          "internalType": "uint256",
          "name": "_rewards",
          "type": "uint256"
        }
      ],
      "name": "addTotalRewards",
      "outputs": [],
      "stateMutability": "nonpayable",
      "type": "function"
    }
  ],
  "bytecode": "0x608060405234801561001057600080fd5b50604051610ef6380380610ef683398101604081905261002f91610094565b8060038190555061004d818361008160201b610acb1790919060201c565b6001555050600280546001600160a01b039092166001600160a01b03199283168117909155600480549092161790556100f9565b600061008d82846100d5565b9392505050565b6000806000606084860312156100a8578283fd5b83516001600160a01b03811681146100be578384fd5b602085015160409095015190969495509392505050565b600082198211156100f457634e487b7160e01b81526011600452602481fd5b500190565b610dee806101086000396000f3fe608060405234801561001057600080fd5b50600436106100a35760003560e01c80634477c97411610076578063949813b81161005b578063949813b81461011c578063b7d142e51461012f578063ee64deab14610142576100a3565b80634477c974146100f65780635b9c233214610109576100a3565b8063029a93e9146100a85780630962ef79146100b25780630e15561a146100c557806317abd259146100e3575b600080fd5b6100b0610157565b005b6100b06100c0366004610b7e565b61037b565b6100cd61054b565b6040516100da9190610bdd565b60405180910390f35b6100b06100f1366004610b33565b610551565b6100b0610104366004610b7e565b6106b8565b6100b0610117366004610b7e565b610827565b6100cd61012a366004610afb565b610944565b6100cd61013d366004610b7e565b610956565b61014a610aaf565b6040516100da9190610bbc565b60025473ffffffffffffffffffffffffffffffffffffffff1633146101b1576040517f08c379a00000000000000000000000000000000000000000000000000000000081526004016101a890610c8b565b60405180910390fd5b600480546040517f8bf83b0400000000000000000000000000000000000000000000000000000000815273ffffffffffffffffffffffffffffffffffffffff90911691638bf83b049161020791600c9101610bdd565b60206040518083038186803b15801561021f57600080fd5b505afa158015610233573d6000803e3d6000fd5b505050506040513d601f19601f820116820180604052508101906102579190610b17565b600480546040517f8bf83b0400000000000000000000000000000000000000000000000000000000815273ffffffffffffffffffffffffffffffffffffffff9384169363095ea7b393921691638bf83b04916102b69160009101610bdd565b60206040518083038186803b1580156102ce57600080fd5b505afa1580156102e2573d6000803e3d6000fd5b505050506040513d601f19601f820116820180604052508101906103069190610b17565b6001546040518363ffffffff1660e01b8152600401610326929190610b96565b602060405180830381600087803b15801561034057600080fd5b505af1158015610354573d6000803e3d6000fd5b505050506040513d601f19601f820116820180604052508101906103789190610b5e565b50565b33600090815260208190526040902054818110156103c5576040517f08c379a00000000000000000000000000000000000000000000000000000000081526004016101a890610c1d565b600480546040517f8bf83b0400000000000000000000000000000000000000000000000000000000815273ffffffffffffffffffffffffffffffffffffffff90911691638bf83b049161041b91600c9101610bdd565b60206040518083038186803b15801561043357600080fd5b505afa158015610447573d6000803e3d6000fd5b505050506040513d601f19601f8201168201806040525081019061046b9190610b17565b73ffffffffffffffffffffffffffffffffffffffff1663a9059cbb33846040518363ffffffff1660e01b81526004016104a5929190610b96565b602060405180830381600087803b1580156104bf57600080fd5b505af11580156104d3573d6000803e3d6000fd5b505050506040513d601f19601f820116820180604052508101906104f79190610b5e565b61052d576040517f08c379a00000000000000000000000000000000000000000000000000000000081526004016101a890610be6565b6105378183610ad7565b336000908152602081905260409020555050565b60035481565b600480546040517f8bf83b0400000000000000000000000000000000000000000000000000000000815273ffffffffffffffffffffffffffffffffffffffff90911691638bf83b04916105a791600b9101610bdd565b60206040518083038186803b1580156105bf57600080fd5b505afa1580156105d3573d6000803e3d6000fd5b505050506040513d601f19601f820116820180604052508101906105f79190610b17565b73ffffffffffffffffffffffffffffffffffffffff163373ffffffffffffffffffffffffffffffffffffffff161461065b576040517f08c379a00000000000000000000000000000000000000000000000000000000081526004016101a890610c54565b73ffffffffffffffffffffffffffffffffffffffff821660009081526020819052604090205461068b9082610acb565b73ffffffffffffffffffffffffffffffffffffffff90921660009081526020819052604090209190915550565b3360009081526020819052604090205481811015610702576040517f08c379a00000000000000000000000000000000000000000000000000000000081526004016101a890610c1d565b600480546040517f8bf83b0400000000000000000000000000000000000000000000000000000000815273ffffffffffffffffffffffffffffffffffffffff90911691638bf83b04916107589160009101610bdd565b60206040518083038186803b15801561077057600080fd5b505afa158015610784573d6000803e3d6000fd5b505050506040513d601f19601f820116820180604052508101906107a89190610b17565b73ffffffffffffffffffffffffffffffffffffffff1663baffb69f33846040518363ffffffff1660e01b81526004016107e2929190610b96565b600060405180830381600087803b1580156107fc57600080fd5b505af1158015610810573d6000803e3d6000fd5b505050506105378282610ad790919063ffffffff16565b600480546040517f8bf83b0400000000000000000000000000000000000000000000000000000000815273ffffffffffffffffffffffffffffffffffffffff90911691638bf83b049161087d91600b9101610bdd565b60206040518083038186803b15801561089557600080fd5b505afa1580156108a9573d6000803e3d6000fd5b505050506040513d601f19601f820116820180604052508101906108cd9190610b17565b73ffffffffffffffffffffffffffffffffffffffff163373ffffffffffffffffffffffffffffffffffffffff1614610931576040517f08c379a00000000000000000000000000000000000000000000000000000000081526004016101a890610c54565b60035461093e9082610acb565b60035550565b60006020819052908152604090205481565b600480546040517f8bf83b0400000000000000000000000000000000000000000000000000000000815260009273ffffffffffffffffffffffffffffffffffffffff90921691638bf83b04916109af91600b9101610bdd565b60206040518083038186803b1580156109c757600080fd5b505afa1580156109db573d6000803e3d6000fd5b505050506040513d601f19601f820116820180604052508101906109ff9190610b17565b73ffffffffffffffffffffffffffffffffffffffff163373ffffffffffffffffffffffffffffffffffffffff1614610a63576040517f08c379a00000000000000000000000000000000000000000000000000000000081526004016101a890610c54565b6000610a7c600354600154610ad790919063ffffffff16565b9050610aa8610a9864e8d4a51000670de0b6b3a7640000610ae3565b610aa28584610ae3565b90610aef565b9392505050565b60045473ffffffffffffffffffffffffffffffffffffffff1681565b6000610aa88284610cc2565b6000610aa88284610d50565b6000610aa88284610d13565b6000610aa88284610cda565b600060208284031215610b0c578081fd5b8135610aa881610d96565b600060208284031215610b28578081fd5b8151610aa881610d96565b60008060408385031215610b45578081fd5b8235610b5081610d96565b946020939093013593505050565b600060208284031215610b6f578081fd5b81518015158114610aa8578182fd5b600060208284031215610b8f578081fd5b5035919050565b73ffffffffffffffffffffffffffffffffffffffff929092168252602082015260400190565b73ffffffffffffffffffffffffffffffffffffffff91909116815260200190565b90815260200190565b60208082526017908201527f72657761726473207472616e73666572206661696c6564000000000000000000604082015260600190565b6020808252601c908201527f696e73756666696369656e7420726577617264732062616c616e636500000000604082015260600190565b60208082526019908201527f6e6f742044697374726962757465526577617264732e736f6c00000000000000604082015260600190565b60208082526015908201527f6e6f74204e6f637475726e616c2046696e616e63650000000000000000000000604082015260600190565b60008219821115610cd557610cd5610d67565b500190565b600082610d0e577f4e487b710000000000000000000000000000000000000000000000000000000081526012600452602481fd5b500490565b6000817fffffffffffffffffffffffffffffffffffffffffffffffffffffffffffffffff0483118215151615610d4b57610d4b610d67565b500290565b600082821015610d6257610d62610d67565b500390565b7f4e487b7100000000000000000000000000000000000000000000000000000000600052601160045260246000fd5b73ffffffffffffffffffffffffffffffffffffffff8116811461037857600080fdfea26469706673582212203aa62b1b65465c97d17a1f606d2d5dabd6092d9b836cee97e6ff65b8b0add0e964736f6c63430008000033",
  "immutableReferences": {},
  "source": "/*                              $$\\                                             $$\\                                                         \n                                $$ |                                            $$ |                                                  \n$$$$$$$\\   $$$$$$\\   $$$$$$$\\ $$$$$$\\   $$\\   $$\\  $$$$$$\\  $$$$$$$\\   $$$$$$\\  $$ |     \n$$  __$$\\ $$  __$$\\ $$  _____|\\_$$  _|  $$ |  $$ |$$  __$$\\ $$  __$$\\  \\____$$\\ $$ |    \n$$ |  $$ |$$ /  $$ |$$ /        $$ |    $$ |  $$ |$$ |  \\__|$$ |  $$ | $$$$$$$ |$$ |     \n$$ |  $$ |$$ |  $$ |$$ |        $$ |$$\\ $$ |  $$ |$$ |      $$ |  $$ |$$  __$$ |$$ |     \n$$ |  $$ |\\$$$$$$  |\\$$$$$$$\\   \\$$$$  |\\$$$$$$  |$$ |      $$ |  $$ |\\$$$$$$$ |$$ |      \n\\__|  \\__| \\______/  \\_______|   \\____/  \\______/ \\__|      \\__|  \\__| \\_______|\\__|     \n*/\n\npragma solidity ^0.8.0;\n\nimport \"@openzeppelin/contracts/utils/math/SafeMath.sol\";\nimport \"@openzeppelin/contracts/token/ERC20/IERC20.sol\";\nimport {NocturnalFinanceInterface} from \"./Interfaces/NocturnalFinanceInterface.sol\";\nimport {NoctInterface} from \"./Interfaces/NoctInterface.sol\";\nimport {NoctStakingInterface} from \"./Interfaces/NoctStakingInterface.sol\";\n\ncontract Rewards {\n    using SafeMath for uint256;\n    \n    mapping(address => uint256) public unclaimedRewards;\n    \n    uint256 totalSupply;\n    address nocturnalFinanceAddress;\n    uint256 public totalRewards;\n    uint256 internal constant rewardsRateDivisor = 1e12;\n    uint256 internal constant multiplicand = 1e18;\n\n    NocturnalFinanceInterface public nocturnalFinance;\n    \n    constructor(address _nocturnalFinance, uint256 _rewardsSupply, uint256 _initialSupply) {\n        totalRewards = _initialSupply;\n        totalSupply = _rewardsSupply.add(_initialSupply);\n        nocturnalFinanceAddress = _nocturnalFinance;\n        nocturnalFinance = NocturnalFinanceInterface(_nocturnalFinance);\n    }\n    \n    function approveStaking() external {\n        require(msg.sender == nocturnalFinanceAddress, \"not Nocturnal Finance\");\n        IERC20(nocturnalFinance._contract(12)).approve(nocturnalFinance._contract(0), totalSupply);\n    }\n    \n    function claimRewards(uint256 _amount) public {\n        uint256 rBalance = unclaimedRewards[msg.sender];\n        require(rBalance >= _amount, \"insufficient rewards balance\");\n        require(NoctInterface(nocturnalFinance._contract(12)).transfer(msg.sender, _amount), \"rewards transfer failed\");\n        unclaimedRewards[msg.sender] = rBalance.sub(_amount);\n    }\n    \n    function stakeRewards(uint256 _amount) public {\n        uint256 rBalance = unclaimedRewards[msg.sender];\n        require(rBalance >= _amount, \"insufficient rewards balance\");\n        NoctStakingInterface(nocturnalFinance._contract(0)).autoStake(msg.sender, _amount);\n        unclaimedRewards[msg.sender] = rBalance.sub(_amount);\n    }\n    \n    function calcRewards(uint256 _valueETH) external view returns (uint256) {\n        require(msg.sender == nocturnalFinance._contract(11), \"not DistributeRewards.sol\"); \n        uint256 supplyDiff = totalSupply.sub(totalRewards);\n        return _valueETH.mul(supplyDiff).div(rewardsRateDivisor.mul(multiplicand)); \n    }\n    \n    function addUnclaimedRewards(address _claimant, uint256 _rewards) public {\n        require(msg.sender == nocturnalFinance._contract(11), \"not DistributeRewards.sol\");\n        unclaimedRewards[_claimant] = (unclaimedRewards[_claimant]).add(_rewards);\n    }\n    \n    function addTotalRewards(uint256 _rewards) public {\n        require(msg.sender == nocturnalFinance._contract(11), \"not DistributeRewards.sol\");\n        totalRewards = totalRewards.add(_rewards);\n    }\n}\n",
  "sourcePath": "/Users/knott/Desktop/nocturnal/contracts/Rewards.sol",
  "compiler": {
    "name": "solc",
    "version": "0.8.0+commit.c7dfd78e.Emscripten.clang"
  },
  "schemaVersion": "3.3.3",
  "updatedAt": "2021-06-13T20:49:23.734Z",
  "networkType": "ethereum",
  "devdoc": {
    "kind": "dev",
    "methods": {},
    "version": 1
  },
  "userdoc": {
    "kind": "user",
    "methods": {},
    "version": 1
  }
}