{
  "contractName": "SettleOrder",
  "abi": [
    {
      "inputs": [
        {
          "internalType": "address",
          "name": "_nocturnalFinance",
          "type": "address"
        },
        {
          "internalType": "address",
          "name": "_WETH",
          "type": "address"
        }
      ],
      "stateMutability": "nonpayable",
      "type": "constructor"
    },
    {
      "anonymous": false,
      "inputs": [
        {
          "indexed": false,
          "internalType": "uint256",
          "name": "_orderID",
          "type": "uint256"
        }
      ],
      "name": "orderSettled",
      "type": "event"
    },
    {
      "anonymous": false,
      "inputs": [
        {
          "indexed": false,
          "internalType": "uint256",
          "name": "_volume",
          "type": "uint256"
        }
      ],
      "name": "platformVolumeUpdate",
      "type": "event"
    },
    {
      "inputs": [],
      "name": "nocturnalFinance",
      "outputs": [
        {
          "internalType": "contract NocturnalFinanceInterface",
          "name": "",
          "type": "address"
        }
      ],
      "stateMutability": "view",
      "type": "function",
      "constant": true
    },
    {
      "inputs": [],
      "name": "platformVolume",
      "outputs": [
        {
          "internalType": "uint256",
          "name": "",
          "type": "uint256"
        }
      ],
      "stateMutability": "view",
      "type": "function",
      "constant": true
    },
    {
      "inputs": [
        {
          "internalType": "uint256",
          "name": "_orderID",
          "type": "uint256"
        },
        {
          "components": [
            {
              "internalType": "address",
              "name": "orderAddress",
              "type": "address"
            },
            {
              "internalType": "address",
              "name": "poolAddress",
              "type": "address"
            },
            {
              "internalType": "address",
              "name": "fromTokenAddress",
              "type": "address"
            },
            {
              "internalType": "address",
              "name": "toTokenAddress",
              "type": "address"
            },
            {
              "internalType": "uint256",
              "name": "tokenBalance",
              "type": "uint256"
            },
            {
              "internalType": "uint256",
              "name": "limitPrice",
              "type": "uint256"
            },
            {
              "internalType": "bool",
              "name": "limitType",
              "type": "bool"
            },
            {
              "internalType": "uint256",
              "name": "amountOutMin",
              "type": "uint256"
            },
            {
              "internalType": "uint256",
              "name": "settlementGratuity",
              "type": "uint256"
            },
            {
              "internalType": "bool",
              "name": "depositedFlag",
              "type": "bool"
            },
            {
              "internalType": "bool",
              "name": "settledFlag",
              "type": "bool"
            }
          ],
          "internalType": "struct SettleOrderInterface.SettleParams",
          "name": "params",
          "type": "tuple"
        },
        {
          "internalType": "address",
          "name": "settlerAddress",
          "type": "address"
        }
      ],
      "name": "settleOrder",
      "outputs": [],
      "stateMutability": "nonpayable",
      "type": "function"
    }
  ],
  "bytecode": "0x608060405234801561001057600080fd5b5060405161111538038061111583398101604081905261002f9161007c565b600280546001600160a01b039384166001600160a01b031991821617909155600180549290931691161790556100ae565b80516001600160a01b038116811461007757600080fd5b919050565b6000806040838503121561008e578182fd5b61009783610060565b91506100a560208401610060565b90509250929050565b611058806100bd6000396000f3fe608060405234801561001057600080fd5b50600436106100415760003560e01c806346f3d81014610046578063a2dcec501461005b578063ee64deab14610079575b600080fd5b610059610054366004610d3f565b61008e565b005b610063610c9a565b6040516100709190610deb565b60405180910390f35b610081610ca0565b6040516100709190610dca565b6002546040517f8bf83b0400000000000000000000000000000000000000000000000000000000815273ffffffffffffffffffffffffffffffffffffffff90911690638bf83b04906100e590600190600401610deb565b60206040518083038186803b1580156100fd57600080fd5b505afa158015610111573d6000803e3d6000fd5b505050506040513d601f19601f820116820180604052508101906101359190610ceb565b73ffffffffffffffffffffffffffffffffffffffff163373ffffffffffffffffffffffffffffffffffffffff16146101a2576040517f08c379a000000000000000000000000000000000000000000000000000000000815260040161019990610e62565b60405180910390fd5b6101b461014083016101208401610d07565b15156001146101ef576040517f08c379a000000000000000000000000000000000000000000000000000000000815260040161019990610e2b565b61020161016083016101408401610d07565b15610238576040517f08c379a000000000000000000000000000000000000000000000000000000000815260040161019990610ebf565b600154600090819073ffffffffffffffffffffffffffffffffffffffff166102666040860160208701610ccf565b73ffffffffffffffffffffffffffffffffffffffff16630dfe16816040518163ffffffff1660e01b815260040160206040518083038186803b1580156102ab57600080fd5b505afa1580156102bf573d6000803e3d6000fd5b505050506040513d601f19601f820116820180604052508101906102e39190610ceb565b73ffffffffffffffffffffffffffffffffffffffff161415610444576002546040517f8bf83b0400000000000000000000000000000000000000000000000000000000815273ffffffffffffffffffffffffffffffffffffffff90911690638bf83b049061035690600790600401610deb565b60206040518083038186803b15801561036e57600080fd5b505afa158015610382573d6000803e3d6000fd5b505050506040513d601f19601f820116820180604052508101906103a69190610ceb565b73ffffffffffffffffffffffffffffffffffffffff1663b10866dc6103d16040870160208801610ccf565b6040518263ffffffff1660e01b81526004016103ed9190610dca565b60206040518083038186803b15801561040557600080fd5b505afa158015610419573d6000803e3d6000fd5b505050506040513d601f19601f8201168201806040525081019061043d9190610d27565b9150610585565b6002546040517f8bf83b0400000000000000000000000000000000000000000000000000000000815273ffffffffffffffffffffffffffffffffffffffff90911690638bf83b049061049b90600790600401610deb565b60206040518083038186803b1580156104b357600080fd5b505afa1580156104c7573d6000803e3d6000fd5b505050506040513d601f19601f820116820180604052508101906104eb9190610ceb565b73ffffffffffffffffffffffffffffffffffffffff166384cc315b6105166040870160208801610ccf565b6040518263ffffffff1660e01b81526004016105329190610dca565b60206040518083038186803b15801561054a57600080fd5b505afa15801561055e573d6000803e3d6000fd5b505050506040513d601f19601f820116820180604052508101906105829190610d27565b91505b61059560e0850160c08601610d07565b1515600114156105e2578360a001358210156105dd576040517f08c379a000000000000000000000000000000000000000000000000000000000815260040161019990610df4565b610620565b8360a00135821115610620576040517f08c379a000000000000000000000000000000000000000000000000000000000815260040161019990610df4565b6040805161010081019091526000908061063d6020880188610ccf565b73ffffffffffffffffffffffffffffffffffffffff16815260200186602001602081019061066b9190610ccf565b73ffffffffffffffffffffffffffffffffffffffff1681526020016106966060880160408901610ccf565b73ffffffffffffffffffffffffffffffffffffffff1681526020016106c16080880160608901610ccf565b73ffffffffffffffffffffffffffffffffffffffff168152608080880135602083015260e0880135604083015261010088013560608301520161070c61014088016101208901610d07565b1515905260015490915073ffffffffffffffffffffffffffffffffffffffff1661073c6060870160408801610ccf565b73ffffffffffffffffffffffffffffffffffffffff161415610894576002546040517f8bf83b0400000000000000000000000000000000000000000000000000000000815273ffffffffffffffffffffffffffffffffffffffff90911690638bf83b04906107af90600690600401610deb565b60206040518083038186803b1580156107c757600080fd5b505afa1580156107db573d6000803e3d6000fd5b505050506040513d601f19601f820116820180604052508101906107ff9190610ceb565b73ffffffffffffffffffffffffffffffffffffffff1663fa43bee68783876040518463ffffffff1660e01b815260040161083b93929190610f22565b602060405180830381600087803b15801561085557600080fd5b505af1158015610869573d6000803e3d6000fd5b505050506040513d601f19601f8201168201806040525081019061088d9190610d27565b91506109cc565b6002546040517f8bf83b0400000000000000000000000000000000000000000000000000000000815273ffffffffffffffffffffffffffffffffffffffff90911690638bf83b04906108eb90600690600401610deb565b60206040518083038186803b15801561090357600080fd5b505afa158015610917573d6000803e3d6000fd5b505050506040513d601f19601f8201168201806040525081019061093b9190610ceb565b73ffffffffffffffffffffffffffffffffffffffff16636942f37c8783876040518463ffffffff1660e01b815260040161097793929190610f22565b602060405180830381600087803b15801561099157600080fd5b505af11580156109a5573d6000803e3d6000fd5b505050506040513d601f19601f820116820180604052508101906109c99190610d27565b91505b6002546040517f8bf83b0400000000000000000000000000000000000000000000000000000000815260009173ffffffffffffffffffffffffffffffffffffffff1690638bf83b0490610a2490600890600401610deb565b60206040518083038186803b158015610a3c57600080fd5b505afa158015610a50573d6000803e3d6000fd5b505050506040513d601f19601f82011682018060405250810190610a749190610ceb565b73ffffffffffffffffffffffffffffffffffffffff16636352211e886040518263ffffffff1660e01b8152600401610aac9190610deb565b60206040518083038186803b158015610ac457600080fd5b505afa158015610ad8573d6000803e3d6000fd5b505050506040513d601f19601f82011682018060405250810190610afc9190610ceb565b6002546040517f8bf83b0400000000000000000000000000000000000000000000000000000000815291925073ffffffffffffffffffffffffffffffffffffffff1690638bf83b0490610b5490600b90600401610deb565b60206040518083038186803b158015610b6c57600080fd5b505afa158015610b80573d6000803e3d6000fd5b505050506040513d601f19601f82011682018060405250810190610ba49190610ceb565b73ffffffffffffffffffffffffffffffffffffffff1663d4f50c968483886040518463ffffffff1660e01b8152600401610be093929190610ef6565b600060405180830381600087803b158015610bfa57600080fd5b505af1158015610c0e573d6000803e3d6000fd5b5050600054610c209250905084610cbc565b507fc0e47bfc363b4c122a8af01c4e162fb84687fc76d25a8c13c37075db1991d0a687604051610c509190610deb565b60405180910390a17f6f356b318c44fad508346fa20753a2d70d2c74e03cbef142a911648f54451600600054604051610c899190610deb565b60405180910390a150505050505050565b60005481565b60025473ffffffffffffffffffffffffffffffffffffffff1681565b6000610cc88284610fc0565b9392505050565b600060208284031215610ce0578081fd5b8135610cc881610ffd565b600060208284031215610cfc578081fd5b8151610cc881610ffd565b600060208284031215610d18578081fd5b81358015158114610cc8578182fd5b600060208284031215610d38578081fd5b5051919050565b60008060008385036101a0811215610d55578283fd5b843593506101607fffffffffffffffffffffffffffffffffffffffffffffffffffffffffffffffe082011215610d89578283fd5b50602084019150610180840135610d9f81610ffd565b809150509250925092565b73ffffffffffffffffffffffffffffffffffffffff169052565b15159052565b73ffffffffffffffffffffffffffffffffffffffff91909116815260200190565b90815260200190565b6020808252600d908201527f6c696d6974206e6f74206d657400000000000000000000000000000000000000604082015260600190565b60208082526013908201527f6f72646572206e6f74206465706f736974656400000000000000000000000000604082015260600190565b60208082526023908201527f63616c6c6572206973206e6f74206f72646572206d616e61676572206164647260408201527f6573730000000000000000000000000000000000000000000000000000000000606082015260800190565b6020808252600d908201527f6f7264657220736574746c656400000000000000000000000000000000000000604082015260600190565b92835273ffffffffffffffffffffffffffffffffffffffff918216602084015216604082015260600190565b60006101408201905084825273ffffffffffffffffffffffffffffffffffffffff808551166020840152806020860151166040840152806040860151166060840152506060840151610f776080840182610daa565b50608084015160a083015260a084015160c083015260c084015160e083015260e0840151610fa9610100840182610dc4565b50610fb8610120830184610daa565b949350505050565b60008219821115610ff8577f4e487b710000000000000000000000000000000000000000000000000000000081526011600452602481fd5b500190565b73ffffffffffffffffffffffffffffffffffffffff8116811461101f57600080fd5b5056fea26469706673582212201588bfe52f250980ddcd287e108204145e92a19d23009bd310ae7a316a3c2f0464736f6c63430008000033",
  "immutableReferences": {},
  "source": "/*                              $$\\                                             $$\\                                                         \n                                $$ |                                            $$ |                                                  \n$$$$$$$\\   $$$$$$\\   $$$$$$$\\ $$$$$$\\   $$\\   $$\\  $$$$$$\\  $$$$$$$\\   $$$$$$\\  $$ |     \n$$  __$$\\ $$  __$$\\ $$  _____|\\_$$  _|  $$ |  $$ |$$  __$$\\ $$  __$$\\  \\____$$\\ $$ |    \n$$ |  $$ |$$ /  $$ |$$ /        $$ |    $$ |  $$ |$$ |  \\__|$$ |  $$ | $$$$$$$ |$$ |     \n$$ |  $$ |$$ |  $$ |$$ |        $$ |$$\\ $$ |  $$ |$$ |      $$ |  $$ |$$  __$$ |$$ |     \n$$ |  $$ |\\$$$$$$  |\\$$$$$$$\\   \\$$$$  |\\$$$$$$  |$$ |      $$ |  $$ |\\$$$$$$$ |$$ |      \n\\__|  \\__| \\______/  \\_______|   \\____/  \\______/ \\__|      \\__|  \\__| \\_______|\\__|     \n*/\n\npragma solidity ^0.8.0;\n\nimport \"@openzeppelin/contracts/utils/math/SafeMath.sol\";\nimport \"@uniswap/v3-core/contracts/interfaces/IUniswapV3Pool.sol\";\nimport \"./Interfaces/SettleOrderInterface.sol\";\nimport {NocturnalFinanceInterface} from \"./Interfaces/NocturnalFinanceInterface.sol\";\nimport {NoctInterface} from \"./Interfaces/NoctInterface.sol\";\nimport {OracleInterface} from \"./Interfaces/OracleInterface.sol\";\nimport {OrderInterface} from \"./Interfaces/OrderInterface.sol\";\nimport {CreateOrderInterface} from \"./Interfaces/CreateOrderInterface.sol\";\nimport {SettleOrderTransferInterface} from \"./Interfaces/SettleOrderTransferInterface.sol\";\nimport {DistributeRewardsInterface} from \"./Interfaces/DistributeRewardsInterface.sol\";\n\ncontract SettleOrder is SettleOrderInterface {\n    using SafeMath for uint256;\n    \n    uint256 public platformVolume;\n    address WETH; \n\n    event orderSettled(uint256 _orderID);\n    event platformVolumeUpdate(uint256 _volume);\n    \n    NocturnalFinanceInterface public nocturnalFinance;\n    \n    constructor(address _nocturnalFinance, address _WETH) {\n        nocturnalFinance = NocturnalFinanceInterface(_nocturnalFinance);\n        WETH = _WETH;\n    }\n    \n    function settleOrder(uint256 _orderID, SettleParams calldata params, address settlerAddress) external override {\n        require(msg.sender == nocturnalFinance._contract(1), \"caller is not order manager address\");\n        require(params.depositedFlag == true, \"order not deposited\");\n        require(params.settledFlag == false, \"order settled\");\n        uint256 currentPrice;\n        uint256 noctVol;\n        \n        // the limit price value returned by the front end is denominated by ETH\n        // so choose current pool price with WETH in denominator\n        if (IUniswapV3Pool(params.poolAddress).token0() == WETH) {\n            currentPrice = OracleInterface(nocturnalFinance._contract(7)).getCurrentPriceReciprocal(params.poolAddress);\n        } else {\n            currentPrice = OracleInterface(nocturnalFinance._contract(7)).getCurrentPrice(params.poolAddress);\n        }\n        \n        if (params.limitType == true) {\n            require(currentPrice >= params.limitPrice, \"limit not met\");\n        } else {\n            require(currentPrice <= params.limitPrice, \"limit not met\");\n        }\n        \n        SettleOrderTransferInterface.SettleTransferParams memory settleTransferParams = SettleOrderTransferInterface.SettleTransferParams({\n            orderAddress: params.orderAddress,\n            poolAddress: params.poolAddress,\n            fromTokenAddress: params.fromTokenAddress,\n            toTokenAddress: params.toTokenAddress,\n            tokenBalance: params.tokenBalance,\n            amountOutMin: params.amountOutMin,\n            settlementGratuity: params.settlementGratuity,\n            depositedFlag: params.depositedFlag\n        });\n        \n        // perform swap + send gratuity + send fee\n        if (params.fromTokenAddress == WETH) {\n            noctVol = SettleOrderTransferInterface(nocturnalFinance._contract(6)).fromWETHSettle(_orderID, settleTransferParams, settlerAddress);        \n        } else {\n            noctVol = SettleOrderTransferInterface(nocturnalFinance._contract(6)).toWETHSettle(_orderID, settleTransferParams, settlerAddress);\n        }\n                   \n        // distribute the NOCT rewards to the settler and the creator \n        address orderOwnerAddress = OrderInterface(nocturnalFinance._contract(8)).ownerOf(_orderID);\n        DistributeRewardsInterface(nocturnalFinance._contract(11)).distributeNOCT(noctVol, orderOwnerAddress, settlerAddress);\n        \n        // increment platform volume tracker counter\n        platformVolume.add(noctVol);\n        \n        // emit events\n        emit orderSettled(_orderID);\n        emit platformVolumeUpdate(platformVolume);\n    }\n}\n",
  "sourcePath": "/Users/knott/Desktop/nocturnal/contracts/SettleOrder.sol",
  "compiler": {
    "name": "solc",
    "version": "0.8.0+commit.c7dfd78e.Emscripten.clang"
  },
  "schemaVersion": "3.3.3",
  "updatedAt": "2021-06-13T21:00:46.663Z",
  "networkType": "ethereum",
  "devdoc": {
    "kind": "dev",
    "methods": {},
    "version": 1
  },
  "userdoc": {
    "kind": "user",
    "methods": {},
    "version": 1
  }
}