{
  "contractName": "SettleOrderTransfer",
  "abi": [
    {
      "inputs": [
        {
          "internalType": "address",
          "name": "_nocturnalFinance",
          "type": "address"
        }
      ],
      "stateMutability": "nonpayable",
      "type": "constructor"
    },
    {
      "inputs": [],
      "name": "nocturnalFinance",
      "outputs": [
        {
          "internalType": "contract NocturnalFinanceInterface",
          "name": "",
          "type": "address"
        }
      ],
      "stateMutability": "view",
      "type": "function",
      "constant": true
    },
    {
      "inputs": [
        {
          "internalType": "uint256",
          "name": "_orderID",
          "type": "uint256"
        },
        {
          "components": [
            {
              "internalType": "address",
              "name": "orderAddress",
              "type": "address"
            },
            {
              "internalType": "address",
              "name": "poolAddress",
              "type": "address"
            },
            {
              "internalType": "address",
              "name": "fromTokenAddress",
              "type": "address"
            },
            {
              "internalType": "address",
              "name": "toTokenAddress",
              "type": "address"
            },
            {
              "internalType": "uint256",
              "name": "tokenBalance",
              "type": "uint256"
            },
            {
              "internalType": "uint256",
              "name": "amountOutMin",
              "type": "uint256"
            },
            {
              "internalType": "uint256",
              "name": "settlementGratuity",
              "type": "uint256"
            },
            {
              "internalType": "bool",
              "name": "depositedFlag",
              "type": "bool"
            }
          ],
          "internalType": "struct SettleOrderTransferInterface.SettleTransferParams",
          "name": "params",
          "type": "tuple"
        },
        {
          "internalType": "address",
          "name": "_settler",
          "type": "address"
        }
      ],
      "name": "fromWETHSettle",
      "outputs": [
        {
          "internalType": "uint256",
          "name": "",
          "type": "uint256"
        }
      ],
      "stateMutability": "nonpayable",
      "type": "function"
    },
    {
      "inputs": [
        {
          "internalType": "uint256",
          "name": "_orderID",
          "type": "uint256"
        },
        {
          "components": [
            {
              "internalType": "address",
              "name": "orderAddress",
              "type": "address"
            },
            {
              "internalType": "address",
              "name": "poolAddress",
              "type": "address"
            },
            {
              "internalType": "address",
              "name": "fromTokenAddress",
              "type": "address"
            },
            {
              "internalType": "address",
              "name": "toTokenAddress",
              "type": "address"
            },
            {
              "internalType": "uint256",
              "name": "tokenBalance",
              "type": "uint256"
            },
            {
              "internalType": "uint256",
              "name": "amountOutMin",
              "type": "uint256"
            },
            {
              "internalType": "uint256",
              "name": "settlementGratuity",
              "type": "uint256"
            },
            {
              "internalType": "bool",
              "name": "depositedFlag",
              "type": "bool"
            }
          ],
          "internalType": "struct SettleOrderTransferInterface.SettleTransferParams",
          "name": "params",
          "type": "tuple"
        },
        {
          "internalType": "address",
          "name": "_settler",
          "type": "address"
        }
      ],
      "name": "toWETHSettle",
      "outputs": [
        {
          "internalType": "uint256",
          "name": "",
          "type": "uint256"
        }
      ],
      "stateMutability": "nonpayable",
      "type": "function"
    }
  ],
  "bytecode": "0x608060405234801561001057600080fd5b50604051611d3a380380611d3a83398101604081905261002f91610054565b600080546001600160a01b0319166001600160a01b0392909216919091179055610082565b600060208284031215610065578081fd5b81516001600160a01b038116811461007b578182fd5b9392505050565b611ca9806100916000396000f3fe608060405234801561001057600080fd5b50600436106100415760003560e01c80636942f37c14610046578063ee64deab1461006f578063fa43bee614610084575b600080fd5b610059610054366004611a5c565b610097565b6040516100669190611b65565b60405180910390f35b610077610d28565b6040516100669190611ac7565b610059610092366004611a5c565b610d44565b600080546040517f8bf83b0400000000000000000000000000000000000000000000000000000000815273ffffffffffffffffffffffffffffffffffffffff90911690638bf83b04906100ef90600390600401611b65565b60206040518083038186803b15801561010757600080fd5b505afa15801561011b573d6000803e3d6000fd5b505050506040513d601f19601f8201168201806040525081019061013f9190611a05565b73ffffffffffffffffffffffffffffffffffffffff163373ffffffffffffffffffffffffffffffffffffffff16146101ac576040517f08c379a00000000000000000000000000000000000000000000000000000000081526004016101a390611b6e565b60405180910390fd5b60006101be60608501604086016119e9565b73ffffffffffffffffffffffffffffffffffffffff166101e460408601602087016119e9565b73ffffffffffffffffffffffffffffffffffffffff16630dfe16816040518163ffffffff1660e01b815260040160206040518083038186803b15801561022957600080fd5b505afa15801561023d573d6000803e3d6000fd5b505050506040513d601f19601f820116820180604052508101906102619190611a05565b73ffffffffffffffffffffffffffffffffffffffff1614156104dd5761028a60208501856119e9565b73ffffffffffffffffffffffffffffffffffffffff1663e5e8b8a16102b560408701602088016119e9565b73ffffffffffffffffffffffffffffffffffffffff16630dfe16816040518163ffffffff1660e01b815260040160206040518083038186803b1580156102fa57600080fd5b505afa15801561030e573d6000803e3d6000fd5b505050506040513d601f19601f820116820180604052508101906103329190611a05565b61034260408801602089016119e9565b73ffffffffffffffffffffffffffffffffffffffff1663d21220a76040518163ffffffff1660e01b815260040160206040518083038186803b15801561038757600080fd5b505afa15801561039b573d6000803e3d6000fd5b505050506040513d601f19601f820116820180604052508101906103bf9190611a05565b6103cf6040890160208a016119e9565b73ffffffffffffffffffffffffffffffffffffffff1663ddca3f436040518163ffffffff1660e01b815260040160206040518083038186803b15801561041457600080fd5b505afa158015610428573d6000803e3d6000fd5b505050506040513d601f19601f8201168201806040525081019061044c9190611a21565b61045960208a018a6119e9565b8960a001358a608001356040518763ffffffff1660e01b815260040161048496959493929190611ae8565b602060405180830381600087803b15801561049e57600080fd5b505af11580156104b2573d6000803e3d6000fd5b505050506040513d601f19601f820116820180604052508101906104d69190611a44565b9050610739565b6104ea60208501856119e9565b73ffffffffffffffffffffffffffffffffffffffff1663e5e8b8a161051560408701602088016119e9565b73ffffffffffffffffffffffffffffffffffffffff1663d21220a76040518163ffffffff1660e01b815260040160206040518083038186803b15801561055a57600080fd5b505afa15801561056e573d6000803e3d6000fd5b505050506040513d601f19601f820116820180604052508101906105929190611a05565b6105a260408801602089016119e9565b73ffffffffffffffffffffffffffffffffffffffff16630dfe16816040518163ffffffff1660e01b815260040160206040518083038186803b1580156105e757600080fd5b505afa1580156105fb573d6000803e3d6000fd5b505050506040513d601f19601f8201168201806040525081019061061f9190611a05565b61062f6040890160208a016119e9565b73ffffffffffffffffffffffffffffffffffffffff1663ddca3f436040518163ffffffff1660e01b815260040160206040518083038186803b15801561067457600080fd5b505afa158015610688573d6000803e3d6000fd5b505050506040513d601f19601f820116820180604052508101906106ac9190611a21565b6106b960208a018a6119e9565b8960a001358a608001356040518763ffffffff1660e01b81526004016106e496959493929190611ae8565b602060405180830381600087803b1580156106fe57600080fd5b505af1158015610712573d6000803e3d6000fd5b505050506040513d601f19601f820116820180604052508101906107369190611a44565b90505b61074960808501606086016119e9565b73ffffffffffffffffffffffffffffffffffffffff166370a0823161077160208701876119e9565b6040518263ffffffff1660e01b815260040161078d9190611ac7565b60206040518083038186803b1580156107a557600080fd5b505afa1580156107b9573d6000803e3d6000fd5b505050506040513d601f19601f820116820180604052508101906107dd9190611a44565b9050600061089561271061088f60008054906101000a900473ffffffffffffffffffffffffffffffffffffffff1673ffffffffffffffffffffffffffffffffffffffff166336e0cac66040518163ffffffff1660e01b815260040160206040518083038186803b15801561085057600080fd5b505afa158015610864573d6000803e3d6000fd5b505050506040513d601f19601f820116820180604052508101906108889190611a44565b85906119ca565b906119dd565b90506108a460208601866119e9565b73ffffffffffffffffffffffffffffffffffffffff166376fd198a6108cf60808801606089016119e9565b868860c001356040518463ffffffff1660e01b81526004016108f393929190611b34565b600060405180830381600087803b15801561090d57600080fd5b505af1158015610921573d6000803e3d6000fd5b506109339250505060208601866119e9565b73ffffffffffffffffffffffffffffffffffffffff166376fd198a61095e60808801606089016119e9565b600080546040517f8bf83b0400000000000000000000000000000000000000000000000000000000815273ffffffffffffffffffffffffffffffffffffffff90911691638bf83b04916109b49190600401611b65565b60206040518083038186803b1580156109cc57600080fd5b505afa1580156109e0573d6000803e3d6000fd5b505050506040513d601f19601f82011682018060405250810190610a049190611a05565b846040518463ffffffff1660e01b8152600401610a2393929190611b34565b600060405180830381600087803b158015610a3d57600080fd5b505af1158015610a51573d6000803e3d6000fd5b5050600080546040517f8bf83b0400000000000000000000000000000000000000000000000000000000815273ffffffffffffffffffffffffffffffffffffffff9091169350638bf83b049250610aab9190600401611b65565b60206040518083038186803b158015610ac357600080fd5b505afa158015610ad7573d6000803e3d6000fd5b505050506040513d601f19601f82011682018060405250810190610afb9190611a05565b73ffffffffffffffffffffffffffffffffffffffff1663958e672f826040518263ffffffff1660e01b8152600401610b339190611b65565b600060405180830381600087803b158015610b4d57600080fd5b505af1158015610b61573d6000803e3d6000fd5b50610b769250505060808601606087016119e9565b73ffffffffffffffffffffffffffffffffffffffff166370a08231610b9e60208801886119e9565b6040518263ffffffff1660e01b8152600401610bba9190611ac7565b60206040518083038186803b158015610bd257600080fd5b505afa158015610be6573d6000803e3d6000fd5b505050506040513d601f19601f82011682018060405250810190610c0a9190611a44565b6000546040517f8bf83b0400000000000000000000000000000000000000000000000000000000815291935073ffffffffffffffffffffffffffffffffffffffff1690638bf83b0490610c6290600190600401611b65565b60206040518083038186803b158015610c7a57600080fd5b505afa158015610c8e573d6000803e3d6000fd5b505050506040513d601f19601f82011682018060405250810190610cb29190611a05565b73ffffffffffffffffffffffffffffffffffffffff166347b0d78487846040518363ffffffff1660e01b8152600401610cec929190611ba5565b600060405180830381600087803b158015610d0657600080fd5b505af1158015610d1a573d6000803e3d6000fd5b509398975050505050505050565b60005473ffffffffffffffffffffffffffffffffffffffff1681565b600080546040517f8bf83b0400000000000000000000000000000000000000000000000000000000815273ffffffffffffffffffffffffffffffffffffffff90911690638bf83b0490610d9c90600390600401611b65565b60206040518083038186803b158015610db457600080fd5b505afa158015610dc8573d6000803e3d6000fd5b505050506040513d601f19601f82011682018060405250810190610dec9190611a05565b73ffffffffffffffffffffffffffffffffffffffff163373ffffffffffffffffffffffffffffffffffffffff1614610e50576040517f08c379a00000000000000000000000000000000000000000000000000000000081526004016101a390611b6e565b600080610f0561271061088f60008054906101000a900473ffffffffffffffffffffffffffffffffffffffff1673ffffffffffffffffffffffffffffffffffffffff166336e0cac66040518163ffffffff1660e01b815260040160206040518083038186803b158015610ec257600080fd5b505afa158015610ed6573d6000803e3d6000fd5b505050506040513d601f19601f82011682018060405250810190610efa9190611a44565b6080890135906119ca565b9050610f1460208601866119e9565b73ffffffffffffffffffffffffffffffffffffffff166376fd198a610f3f60608801604089016119e9565b868860c001356040518463ffffffff1660e01b8152600401610f6393929190611b34565b600060405180830381600087803b158015610f7d57600080fd5b505af1158015610f91573d6000803e3d6000fd5b50610fa39250505060208601866119e9565b73ffffffffffffffffffffffffffffffffffffffff166376fd198a610fce60608801604089016119e9565b600080546040517f8bf83b0400000000000000000000000000000000000000000000000000000000815273ffffffffffffffffffffffffffffffffffffffff90911691638bf83b04916110249190600401611b65565b60206040518083038186803b15801561103c57600080fd5b505afa158015611050573d6000803e3d6000fd5b505050506040513d601f19601f820116820180604052508101906110749190611a05565b846040518463ffffffff1660e01b815260040161109393929190611b34565b600060405180830381600087803b1580156110ad57600080fd5b505af11580156110c1573d6000803e3d6000fd5b5050600080546040517f8bf83b0400000000000000000000000000000000000000000000000000000000815273ffffffffffffffffffffffffffffffffffffffff9091169350638bf83b04925061111b9190600401611b65565b60206040518083038186803b15801561113357600080fd5b505afa158015611147573d6000803e3d6000fd5b505050506040513d601f19601f8201168201806040525081019061116b9190611a05565b73ffffffffffffffffffffffffffffffffffffffff1663958e672f826040518263ffffffff1660e01b81526004016111a39190611b65565b600060405180830381600087803b1580156111bd57600080fd5b505af11580156111d1573d6000803e3d6000fd5b50600092506111e991505060608701604088016119e9565b73ffffffffffffffffffffffffffffffffffffffff166370a0823161121160208901896119e9565b6040518263ffffffff1660e01b815260040161122d9190611ac7565b60206040518083038186803b15801561124557600080fd5b505afa158015611259573d6000803e3d6000fd5b505050506040513d601f19601f8201168201806040525081019061127d9190611a44565b905061128f60608701604088016119e9565b73ffffffffffffffffffffffffffffffffffffffff166112b560408801602089016119e9565b73ffffffffffffffffffffffffffffffffffffffff16630dfe16816040518163ffffffff1660e01b815260040160206040518083038186803b1580156112fa57600080fd5b505afa15801561130e573d6000803e3d6000fd5b505050506040513d601f19601f820116820180604052508101906113329190611a05565b73ffffffffffffffffffffffffffffffffffffffff1614156115aa5761135b60208701876119e9565b73ffffffffffffffffffffffffffffffffffffffff1663e5e8b8a16113866040890160208a016119e9565b73ffffffffffffffffffffffffffffffffffffffff16630dfe16816040518163ffffffff1660e01b815260040160206040518083038186803b1580156113cb57600080fd5b505afa1580156113df573d6000803e3d6000fd5b505050506040513d601f19601f820116820180604052508101906114039190611a05565b61141360408a0160208b016119e9565b73ffffffffffffffffffffffffffffffffffffffff1663d21220a76040518163ffffffff1660e01b815260040160206040518083038186803b15801561145857600080fd5b505afa15801561146c573d6000803e3d6000fd5b505050506040513d601f19601f820116820180604052508101906114909190611a05565b6114a060408b0160208c016119e9565b73ffffffffffffffffffffffffffffffffffffffff1663ddca3f436040518163ffffffff1660e01b815260040160206040518083038186803b1580156114e557600080fd5b505afa1580156114f9573d6000803e3d6000fd5b505050506040513d601f19601f8201168201806040525081019061151d9190611a21565b61152a60208c018c6119e9565b8b60a00135876040518763ffffffff1660e01b815260040161155196959493929190611ae8565b602060405180830381600087803b15801561156b57600080fd5b505af115801561157f573d6000803e3d6000fd5b505050506040513d601f19601f820116820180604052508101906115a39190611a44565b9250611802565b6115b760208701876119e9565b73ffffffffffffffffffffffffffffffffffffffff1663e5e8b8a16115e26040890160208a016119e9565b73ffffffffffffffffffffffffffffffffffffffff1663d21220a76040518163ffffffff1660e01b815260040160206040518083038186803b15801561162757600080fd5b505afa15801561163b573d6000803e3d6000fd5b505050506040513d601f19601f8201168201806040525081019061165f9190611a05565b61166f60408a0160208b016119e9565b73ffffffffffffffffffffffffffffffffffffffff16630dfe16816040518163ffffffff1660e01b815260040160206040518083038186803b1580156116b457600080fd5b505afa1580156116c8573d6000803e3d6000fd5b505050506040513d601f19601f820116820180604052508101906116ec9190611a05565b6116fc60408b0160208c016119e9565b73ffffffffffffffffffffffffffffffffffffffff1663ddca3f436040518163ffffffff1660e01b815260040160206040518083038186803b15801561174157600080fd5b505afa158015611755573d6000803e3d6000fd5b505050506040513d601f19601f820116820180604052508101906117799190611a21565b61178660208c018c6119e9565b8b60a00135876040518763ffffffff1660e01b81526004016117ad96959493929190611ae8565b602060405180830381600087803b1580156117c757600080fd5b505af11580156117db573d6000803e3d6000fd5b505050506040513d601f19601f820116820180604052508101906117ff9190611a44565b92505b61181260808701606088016119e9565b73ffffffffffffffffffffffffffffffffffffffff166370a0823161183a60208901896119e9565b6040518263ffffffff1660e01b81526004016118569190611ac7565b60206040518083038186803b15801561186e57600080fd5b505afa158015611882573d6000803e3d6000fd5b505050506040513d601f19601f820116820180604052508101906118a69190611a44565b6000546040517f8bf83b0400000000000000000000000000000000000000000000000000000000815291945073ffffffffffffffffffffffffffffffffffffffff1690638bf83b04906118fe90600190600401611b65565b60206040518083038186803b15801561191657600080fd5b505afa15801561192a573d6000803e3d6000fd5b505050506040513d601f19601f8201168201806040525081019061194e9190611a05565b73ffffffffffffffffffffffffffffffffffffffff166347b0d78488856040518363ffffffff1660e01b8152600401611988929190611ba5565b600060405180830381600087803b1580156119a257600080fd5b505af11580156119b6573d6000803e3d6000fd5b505050608090960135979650505050505050565b60006119d68284611bec565b9392505050565b60006119d68284611bb3565b6000602082840312156119fa578081fd5b81356119d681611c4e565b600060208284031215611a16578081fd5b81516119d681611c4e565b600060208284031215611a32578081fd5b815162ffffff811681146119d6578182fd5b600060208284031215611a55578081fd5b5051919050565b6000806000838503610140811215611a72578283fd5b843593506101007fffffffffffffffffffffffffffffffffffffffffffffffffffffffffffffffe082011215611aa6578283fd5b50602084019150610120840135611abc81611c4e565b809150509250925092565b73ffffffffffffffffffffffffffffffffffffffff91909116815260200190565b73ffffffffffffffffffffffffffffffffffffffff9687168152948616602086015262ffffff93909316604085015293166060830152608082019290925260a081019190915260c00190565b73ffffffffffffffffffffffffffffffffffffffff9384168152919092166020820152604081019190915260600190565b90815260200190565b60208082526018908201527f6e6f7420536574746c654f7264657220636f6e74726163740000000000000000604082015260600190565b918252602082015260400190565b600082611be7577f4e487b710000000000000000000000000000000000000000000000000000000081526012600452602481fd5b500490565b6000817fffffffffffffffffffffffffffffffffffffffffffffffffffffffffffffffff0483118215151615611c49577f4e487b710000000000000000000000000000000000000000000000000000000081526011600452602481fd5b500290565b73ffffffffffffffffffffffffffffffffffffffff81168114611c7057600080fd5b5056fea264697066735822122062fd48460f5045b628f73fecb8e7ce5d9dfa77deabc35dc96cf5c5f62fe6c79f64736f6c63430008000033",
  "immutableReferences": {},
  "source": "/*                              $$\\                                             $$\\                                                         \n                                $$ |                                            $$ |                                                  \n$$$$$$$\\   $$$$$$\\   $$$$$$$\\ $$$$$$\\   $$\\   $$\\  $$$$$$\\  $$$$$$$\\   $$$$$$\\  $$ |     \n$$  __$$\\ $$  __$$\\ $$  _____|\\_$$  _|  $$ |  $$ |$$  __$$\\ $$  __$$\\  \\____$$\\ $$ |    \n$$ |  $$ |$$ /  $$ |$$ /        $$ |    $$ |  $$ |$$ |  \\__|$$ |  $$ | $$$$$$$ |$$ |     \n$$ |  $$ |$$ |  $$ |$$ |        $$ |$$\\ $$ |  $$ |$$ |      $$ |  $$ |$$  __$$ |$$ |     \n$$ |  $$ |\\$$$$$$  |\\$$$$$$$\\   \\$$$$  |\\$$$$$$  |$$ |      $$ |  $$ |\\$$$$$$$ |$$ |      \n\\__|  \\__| \\______/  \\_______|   \\____/  \\______/ \\__|      \\__|  \\__| \\_______|\\__|     \n*/\n\npragma solidity ^0.8.0;\n\nimport \"@openzeppelin/contracts/token/ERC20/IERC20.sol\";\nimport \"@openzeppelin/contracts/utils/math/SafeMath.sol\";\nimport \"@uniswap/v3-core/contracts/interfaces/IUniswapV3Pool.sol\";\nimport \"./Interfaces/SettleOrderTransferInterface.sol\";\nimport {NocturnalFinanceInterface} from \"./Interfaces/NocturnalFinanceInterface.sol\";\nimport {OrderInterface} from \"./Interfaces/OrderInterface.sol\";\nimport {SettleOrderInterface} from \"./Interfaces/SettleOrderInterface.sol\";\nimport {CreateOrderInterface} from \"./Interfaces/CreateOrderInterface.sol\";\nimport {NoctStakingInterface} from \"./Interfaces/NoctStakingInterface.sol\";\n\ncontract SettleOrderTransfer is SettleOrderTransferInterface {\n    using SafeMath for uint256;\n    \n    //uint256 internal constant bPDivisor = 10000;  // 100th of a bip\n    \n    NocturnalFinanceInterface public nocturnalFinance;\n    \n    constructor(address _nocturnalFinance) {\n        nocturnalFinance = NocturnalFinanceInterface(_nocturnalFinance);\n    }\n    \n    function fromWETHSettle(uint256 _orderID, SettleTransferParams calldata params, address _settler) external override returns (uint256) {\n        require(msg.sender == nocturnalFinance._contract(3), \"not SettleOrder contract\");\n        uint256 amountOut;\n        // calculate fee prior to swap from WETH\n        uint256 dFee = (params.tokenBalance).mul(nocturnalFinance.platformRate()).div(10000);\n        OrderInterface(params.orderAddress).orderTransfer(params.fromTokenAddress, _settler, params.settlementGratuity); \n        //OrderInterface(params.orderAddress).orderPayment(_settler, params.settlementGratuity); \n        OrderInterface(params.orderAddress).orderTransfer(params.fromTokenAddress, nocturnalFinance._contract(0), dFee);\n        NoctStakingInterface(nocturnalFinance._contract(0)).updateTRG(dFee);\n        \n        uint256 tokenBalance = IERC20(params.fromTokenAddress).balanceOf(params.orderAddress); \n        if (IUniswapV3Pool(params.poolAddress).token0() == params.fromTokenAddress) {\n            amountOut = OrderInterface(params.orderAddress).getExactInputSingle(\n                IUniswapV3Pool(params.poolAddress).token0(),\n                IUniswapV3Pool(params.poolAddress).token1(), \n                IUniswapV3Pool(params.poolAddress).fee(), \n                params.orderAddress, \n                params.amountOutMin,\n                tokenBalance);\n        } else {\n            amountOut = OrderInterface(params.orderAddress).getExactInputSingle(\n                IUniswapV3Pool(params.poolAddress).token1(),\n                IUniswapV3Pool(params.poolAddress).token0(), \n                IUniswapV3Pool(params.poolAddress).fee(), \n                params.orderAddress, \n                params.amountOutMin,\n                tokenBalance);  \n        }\n        // set Order toTokenBalance and settledFlag attributes\n        amountOut = IERC20(params.toTokenAddress).balanceOf(params.orderAddress);\n        CreateOrderInterface(nocturnalFinance._contract(1)).setAttributes(_orderID, amountOut); \n        return (params.tokenBalance); // return amount of WETH involved in order swap (volume tracking)\n    }\n\n    function toWETHSettle(uint256 _orderID, SettleTransferParams calldata params, address _settler) external override returns (uint256) {\n        require(msg.sender == nocturnalFinance._contract(3), \"not SettleOrder contract\");\n        uint256 amountOut;\n        if (IUniswapV3Pool(params.poolAddress).token0() == params.fromTokenAddress) {\n           amountOut = OrderInterface(params.orderAddress).getExactInputSingle(                 \n                IUniswapV3Pool(params.poolAddress).token0(),\n                IUniswapV3Pool(params.poolAddress).token1(), \n                IUniswapV3Pool(params.poolAddress).fee(), \n                params.orderAddress, \n                params.amountOutMin,\n                params.tokenBalance);\n        } else { \n           amountOut = OrderInterface(params.orderAddress).getExactInputSingle(     \n                IUniswapV3Pool(params.poolAddress).token1(),\n                IUniswapV3Pool(params.poolAddress).token0(), \n                IUniswapV3Pool(params.poolAddress).fee(), \n                params.orderAddress, \n                params.amountOutMin,\n                params.tokenBalance);\n        }\n        // calculate fee after swap to WETH \n        amountOut = IERC20(params.toTokenAddress).balanceOf(params.orderAddress);\n        uint256 dFee = (amountOut).mul(nocturnalFinance.platformRate()).div(10000);\n        OrderInterface(params.orderAddress).orderTransfer(params.toTokenAddress, _settler, params.settlementGratuity); \n        //OrderInterface(params.orderAddress).orderPayment(_settler, params.settlementGratuity); \n        OrderInterface(params.orderAddress).orderTransfer(params.toTokenAddress, nocturnalFinance._contract(0), dFee);\n        NoctStakingInterface(nocturnalFinance._contract(0)).updateTRG(dFee);\n\n        \n        // set Order toTokenBalance and settledFlag attributes\n        amountOut = IERC20(params.toTokenAddress).balanceOf(params.orderAddress);\n        CreateOrderInterface(nocturnalFinance._contract(1)).setAttributes(_orderID, amountOut);  \n        return (amountOut); // return amount of WETH involved in order swap (volume tracking)\n    }\n}\n",
  "sourcePath": "/Users/knott/Desktop/nocturnal/contracts/SettleOrderTransfer.sol",
  "compiler": {
    "name": "solc",
    "version": "0.8.0+commit.c7dfd78e.Emscripten.clang"
  },
  "schemaVersion": "3.3.3",
  "updatedAt": "2021-06-13T20:49:23.715Z",
  "networkType": "ethereum",
  "devdoc": {
    "kind": "dev",
    "methods": {},
    "version": 1
  },
  "userdoc": {
    "kind": "user",
    "methods": {},
    "version": 1
  }
}