{
  "contractName": "TokenSwapper",
  "abi": [
    {
      "inputs": [],
      "stateMutability": "nonpayable",
      "type": "constructor"
    },
    {
      "inputs": [],
      "name": "swapRouter",
      "outputs": [
        {
          "internalType": "contract ISwapRouter",
          "name": "",
          "type": "address"
        }
      ],
      "stateMutability": "view",
      "type": "function",
      "constant": true
    },
    {
      "inputs": [
        {
          "internalType": "address",
          "name": "_tokenIn",
          "type": "address"
        },
        {
          "internalType": "address",
          "name": "_tokenOut",
          "type": "address"
        },
        {
          "internalType": "uint256",
          "name": "_amount",
          "type": "uint256"
        }
      ],
      "name": "getExactInputSingle",
      "outputs": [
        {
          "internalType": "uint256",
          "name": "amountOut",
          "type": "uint256"
        }
      ],
      "stateMutability": "nonpayable",
      "type": "function"
    }
  ],
  "bytecode": "0x608060405234801561001057600080fd5b50600080546001600160a01b03191673e592427a0aece92de3edee1f18e0157c05861564179055610516806100466000396000f3fe608060405234801561001057600080fd5b50600436106100365760003560e01c806331f094ab1461003b578063c31c9c0714610064575b600080fd5b61004e610049366004610333565b610079565b60405161005b919061049a565b60405180910390f35b61006c6102db565b60405161005b91906103fd565b6040517f095ea7b300000000000000000000000000000000000000000000000000000000815260009073ffffffffffffffffffffffffffffffffffffffff85169063095ea7b3906100e49073e592427a0aece92de3edee1f18e0157c058615649086906004016103d7565b602060405180830381600087803b1580156100fe57600080fd5b505af1158015610112573d6000803e3d6000fd5b505050506040513d601f19601f82011682018060405250810190610136919061036e565b506040517f23b872dd00000000000000000000000000000000000000000000000000000000815273ffffffffffffffffffffffffffffffffffffffff8516906323b872dd9061018d903390309087906004016103a6565b602060405180830381600087803b1580156101a757600080fd5b505af11580156101bb573d6000803e3d6000fd5b505050506040513d601f19601f820116820180604052508101906101df919061036e565b50600054604080516101008101825273ffffffffffffffffffffffffffffffffffffffff878116825286811660208301526127109282019290925233606082015291169063414bf389906080810161023842603c6102f7565b815260200185815260200160008152602001600073ffffffffffffffffffffffffffffffffffffffff168152506040518263ffffffff1660e01b8152600401610281919061041e565b602060405180830381600087803b15801561029b57600080fd5b505af11580156102af573d6000803e3d6000fd5b505050506040513d601f19601f820116820180604052508101906102d3919061038e565b949350505050565b60005473ffffffffffffffffffffffffffffffffffffffff1681565b600061030382846104a3565b9392505050565b803573ffffffffffffffffffffffffffffffffffffffff8116811461032e57600080fd5b919050565b600080600060608486031215610347578283fd5b6103508461030a565b925061035e6020850161030a565b9150604084013590509250925092565b60006020828403121561037f578081fd5b81518015158114610303578182fd5b60006020828403121561039f578081fd5b5051919050565b73ffffffffffffffffffffffffffffffffffffffff9384168152919092166020820152604081019190915260600190565b73ffffffffffffffffffffffffffffffffffffffff929092168252602082015260400190565b73ffffffffffffffffffffffffffffffffffffffff91909116815260200190565b60006101008201905073ffffffffffffffffffffffffffffffffffffffff80845116835280602085015116602084015262ffffff60408501511660408401528060608501511660608401526080840151608084015260a084015160a084015260c084015160c08401528060e08501511660e08401525092915050565b90815260200190565b600082198211156104db577f4e487b710000000000000000000000000000000000000000000000000000000081526011600452602481fd5b50019056fea2646970667358221220340645c6970cfae942236f0d4a33c3925531ee1b5dd4d5af342bacff6bd9886464736f6c63430008000033",
  "immutableReferences": {},
  "source": "pragma solidity ^0.8.0;\n\nimport \"@uniswap/v3-periphery/contracts/interfaces/ISwapRouter.sol\";\nimport \"@openzeppelin/contracts/utils/math/SafeMath.sol\";\nimport \"@openzeppelin/contracts/token/ERC20/IERC20.sol\";\n\ncontract TokenSwapper {\n    using SafeMath for uint256;\n    \n    address internal constant UniswapV3SwapRouter = 0xE592427A0AEce92De3Edee1F18E0157C05861564; // rinkeby swapRouter\n    \n    ISwapRouter public swapRouter;\n    \n    constructor() {\n        swapRouter = ISwapRouter(UniswapV3SwapRouter);\n    }\n    \n    function getExactInputSingle(address _tokenIn, address _tokenOut, uint256 _amount) external returns (uint256 amountOut) {\n        IERC20(_tokenIn).approve(UniswapV3SwapRouter, _amount);\n        IERC20(_tokenIn).transferFrom(msg.sender, address(this), _amount);\n\t\tamountOut = swapRouter.exactInputSingle(\n\t\tISwapRouter.ExactInputSingleParams({\n\t\t    tokenIn: _tokenIn,\n\t\t    tokenOut: _tokenOut,\n\t\t    fee: 10000,\n\t\t    recipient: msg.sender,\n\t\t    deadline: (block.timestamp).add(60),\n\t\t    amountIn: _amount,\n\t\t    amountOutMinimum: 0,\n\t\t    sqrtPriceLimitX96: 0\n\t\t    })\n\t\t);\n    }\n}    \n",
  "sourcePath": "/Users/knott/Desktop/nocturnal/contracts/Mocks/TokenSwapper.sol",
  "compiler": {
    "name": "solc",
    "version": "0.8.0+commit.c7dfd78e.Emscripten.clang"
  },
  "schemaVersion": "3.3.3",
  "updatedAt": "2021-06-13T21:00:46.707Z",
  "networkType": "ethereum",
  "devdoc": {
    "kind": "dev",
    "methods": {},
    "version": 1
  },
  "userdoc": {
    "kind": "user",
    "methods": {},
    "version": 1
  }
}