{
  "contractName": "TokenMinter",
  "abi": [
    {
      "inputs": [
        {
          "internalType": "address",
          "name": "_link",
          "type": "address"
        },
        {
          "internalType": "address",
          "name": "_weth",
          "type": "address"
        }
      ],
      "stateMutability": "nonpayable",
      "type": "constructor"
    },
    {
      "inputs": [
        {
          "internalType": "address",
          "name": "_link",
          "type": "address"
        },
        {
          "internalType": "address",
          "name": "_weth",
          "type": "address"
        }
      ],
      "name": "mintTokens",
      "outputs": [],
      "stateMutability": "nonpayable",
      "type": "function"
    }
  ],
  "bytecode": "0x608060405234801561001057600080fd5b506040516102cd3803806102cd83398101604081905261002f9161007c565b600080546001600160a01b039384166001600160a01b031991821617909155600180549290931691161790556100ae565b80516001600160a01b038116811461007757600080fd5b919050565b6000806040838503121561008e578182fd5b61009783610060565b91506100a560208401610060565b90509250929050565b610210806100bd6000396000f3fe608060405234801561001057600080fd5b506004361061002b5760003560e01c8063579234d614610030575b600080fd5b61004361003e366004610182565b610045565b005b6040517f40c10f1900000000000000000000000000000000000000000000000000000000815273ffffffffffffffffffffffffffffffffffffffff8316906340c10f199061009b9033906103e8906004016101b4565b600060405180830381600087803b1580156100b557600080fd5b505af11580156100c9573d6000803e3d6000fd5b50506040517f40c10f1900000000000000000000000000000000000000000000000000000000815273ffffffffffffffffffffffffffffffffffffffff841692506340c10f1991506101239033906103e8906004016101b4565b600060405180830381600087803b15801561013d57600080fd5b505af1158015610151573d6000803e3d6000fd5b505050505050565b803573ffffffffffffffffffffffffffffffffffffffff8116811461017d57600080fd5b919050565b60008060408385031215610194578182fd5b61019d83610159565b91506101ab60208401610159565b90509250929050565b73ffffffffffffffffffffffffffffffffffffffff92909216825260208201526040019056fea2646970667358221220d119673e5c42ca9d4490a2726b29e9dda6227164ae8215298793a30246f2354e64736f6c63430008000033",
  "immutableReferences": {},
  "source": "pragma solidity ^0.8.0;\n\nimport {TokenInterface} from \"./TokenInterface.sol\";\n\ncontract TokenMinter {\n    \n    address internal LINK;\n    address internal WETH;\n    \n    constructor(address _link, address _weth) {\n        LINK = _link;\n        WETH = _weth;\n    }\n    \n    function mintTokens(address _link, address _weth) external {\n        TokenInterface(_link).mint(msg.sender, 1000);\n        TokenInterface(_weth).mint(msg.sender, 1000);\n    }\n}  \n",
  "sourcePath": "/Users/knott/Desktop/nocturnal/contracts/Mocks/TokenMinter.sol",
  "compiler": {
    "name": "solc",
    "version": "0.8.0+commit.c7dfd78e.Emscripten.clang"
  },
  "schemaVersion": "3.3.3",
  "updatedAt": "2021-06-13T20:49:23.755Z",
  "networkType": "ethereum",
  "devdoc": {
    "kind": "dev",
    "methods": {},
    "version": 1
  },
  "userdoc": {
    "kind": "user",
    "methods": {},
    "version": 1
  }
}