{
  "contractName": "Treasury",
  "abi": [
    {
      "inputs": [
        {
          "internalType": "address",
          "name": "_nocturnalFinance",
          "type": "address"
        }
      ],
      "stateMutability": "nonpayable",
      "type": "constructor"
    },
    {
      "anonymous": false,
      "inputs": [
        {
          "indexed": true,
          "internalType": "address",
          "name": "previousOwner",
          "type": "address"
        },
        {
          "indexed": true,
          "internalType": "address",
          "name": "newOwner",
          "type": "address"
        }
      ],
      "name": "OwnershipTransferred",
      "type": "event"
    },
    {
      "inputs": [],
      "name": "nocturnalFinance",
      "outputs": [
        {
          "internalType": "contract NocturnalFinanceInterface",
          "name": "",
          "type": "address"
        }
      ],
      "stateMutability": "view",
      "type": "function"
    },
    {
      "inputs": [],
      "name": "owner",
      "outputs": [
        {
          "internalType": "address",
          "name": "",
          "type": "address"
        }
      ],
      "stateMutability": "view",
      "type": "function"
    },
    {
      "inputs": [],
      "name": "renounceOwnership",
      "outputs": [],
      "stateMutability": "nonpayable",
      "type": "function"
    },
    {
      "inputs": [
        {
          "internalType": "address",
          "name": "newOwner",
          "type": "address"
        }
      ],
      "name": "transferOwnership",
      "outputs": [],
      "stateMutability": "nonpayable",
      "type": "function"
    },
    {
      "inputs": [
        {
          "internalType": "address",
          "name": "_recipient",
          "type": "address"
        }
      ],
      "name": "transferTreasury",
      "outputs": [],
      "stateMutability": "nonpayable",
      "type": "function"
    },
    {
      "inputs": [
        {
          "internalType": "address",
          "name": "_claimant",
          "type": "address"
        }
      ],
      "name": "addTreasuryClaimant",
      "outputs": [],
      "stateMutability": "nonpayable",
      "type": "function"
    },
    {
      "inputs": [
        {
          "internalType": "address",
          "name": "_claimant",
          "type": "address"
        },
        {
          "internalType": "uint256",
          "name": "_factorBasisPoints",
          "type": "uint256"
        }
      ],
      "name": "setClaimantFactor",
      "outputs": [],
      "stateMutability": "nonpayable",
      "type": "function"
    },
    {
      "inputs": [],
      "name": "claimTreasuryRewards",
      "outputs": [],
      "stateMutability": "nonpayable",
      "type": "function"
    }
  ],
  "bytecode": "0x608060405234801561001057600080fd5b50604051610d38380380610d3883398101604081905261002f916100ac565b60006100396100a8565b600080546001600160a01b0319166001600160a01b0383169081178255604051929350917f8be0079c531659141344cd1fd0a4f28419497f9722a3daafe3b4186f6b6457e0908290a350600480546001600160a01b0319166001600160a01b03929092169190911790556100da565b3390565b6000602082840312156100bd578081fd5b81516001600160a01b03811681146100d3578182fd5b9392505050565b610c4f806100e96000396000f3fe608060405234801561001057600080fd5b50600436106100885760003560e01c8063bd0299f71161005b578063bd0299f7146100d0578063d8a6021c146100e3578063ee64deab146100f6578063f2fde38b146100fe57610088565b806305c4744b1461008d5780634f4bee4914610097578063715018a6146100aa5780638da5cb5b146100b2575b600080fd5b610095610111565b005b6100956100a53660046109d7565b61033e565b6100956103d1565b6100ba6104b3565b6040516100c79190610a79565b60405180910390f35b6100956100de366004610a16565b6104cf565b6100956100f13660046109d7565b61056b565b6100ba61086a565b61009561010c3660046109d7565b610886565b3360009081526001602081905260409091205460ff16151514610169576040517f08c379a000000000000000000000000000000000000000000000000000000000815260040161016090610b1d565b60405180910390fd5b336000908152600260205260409020546101af576040517f08c379a000000000000000000000000000000000000000000000000000000000815260040161016090610b89565b60048054604080517f1d1d929b000000000000000000000000000000000000000000000000000000008152905173ffffffffffffffffffffffffffffffffffffffff90921692631d1d929b928282019260209290829003018186803b15801561021757600080fd5b505afa15801561022b573d6000803e3d6000fd5b505050506040513d601f19601f8201168201806040525081019061024f91906109fa565b33600081815260026020526040908190205490517fa9059cbb00000000000000000000000000000000000000000000000000000000815273ffffffffffffffffffffffffffffffffffffffff939093169263a9059cbb926102b4929091600401610a9a565b602060405180830381600087803b1580156102ce57600080fd5b505af11580156102e2573d6000803e3d6000fd5b505050506040513d601f19601f820116820180604052508101906103069190610a41565b61033c576040517f08c379a000000000000000000000000000000000000000000000000000000000815260040161016090610bc0565b565b6103466109d3565b73ffffffffffffffffffffffffffffffffffffffff166103646104b3565b73ffffffffffffffffffffffffffffffffffffffff16146103b1576040517f08c379a000000000000000000000000000000000000000000000000000000000815260040161016090610b54565b73ffffffffffffffffffffffffffffffffffffffff166000526001602052565b6103d96109d3565b73ffffffffffffffffffffffffffffffffffffffff166103f76104b3565b73ffffffffffffffffffffffffffffffffffffffff1614610444576040517f08c379a000000000000000000000000000000000000000000000000000000000815260040161016090610b54565b6000805460405173ffffffffffffffffffffffffffffffffffffffff909116907f8be0079c531659141344cd1fd0a4f28419497f9722a3daafe3b4186f6b6457e0908390a3600080547fffffffffffffffffffffffff0000000000000000000000000000000000000000169055565b60005473ffffffffffffffffffffffffffffffffffffffff1690565b6104d76109d3565b73ffffffffffffffffffffffffffffffffffffffff166104f56104b3565b73ffffffffffffffffffffffffffffffffffffffff1614610542576040517f08c379a000000000000000000000000000000000000000000000000000000000815260040161016090610b54565b73ffffffffffffffffffffffffffffffffffffffff909116600090815260036020526040902055565b6105736109d3565b73ffffffffffffffffffffffffffffffffffffffff166105916104b3565b73ffffffffffffffffffffffffffffffffffffffff16146105de576040517f08c379a000000000000000000000000000000000000000000000000000000000815260040161016090610b54565b60048054604080517f1d1d929b000000000000000000000000000000000000000000000000000000008152905173ffffffffffffffffffffffffffffffffffffffff90921692631d1d929b928282019260209290829003018186803b15801561064657600080fd5b505afa15801561065a573d6000803e3d6000fd5b505050506040513d601f19601f8201168201806040525081019061067e91906109fa565b73ffffffffffffffffffffffffffffffffffffffff1663a9059cbb82600460009054906101000a900473ffffffffffffffffffffffffffffffffffffffff1673ffffffffffffffffffffffffffffffffffffffff16631d1d929b6040518163ffffffff1660e01b815260040160206040518083038186803b15801561070257600080fd5b505afa158015610716573d6000803e3d6000fd5b505050506040513d601f19601f8201168201806040525081019061073a91906109fa565b73ffffffffffffffffffffffffffffffffffffffff166370a08231306040518263ffffffff1660e01b81526004016107729190610a79565b60206040518083038186803b15801561078a57600080fd5b505afa15801561079e573d6000803e3d6000fd5b505050506040513d601f19601f820116820180604052508101906107c29190610a61565b6040518363ffffffff1660e01b81526004016107df929190610a9a565b602060405180830381600087803b1580156107f957600080fd5b505af115801561080d573d6000803e3d6000fd5b505050506040513d601f19601f820116820180604052508101906108319190610a41565b610867576040517f08c379a000000000000000000000000000000000000000000000000000000000815260040161016090610bc0565b50565b60045473ffffffffffffffffffffffffffffffffffffffff1681565b61088e6109d3565b73ffffffffffffffffffffffffffffffffffffffff166108ac6104b3565b73ffffffffffffffffffffffffffffffffffffffff16146108f9576040517f08c379a000000000000000000000000000000000000000000000000000000000815260040161016090610b54565b73ffffffffffffffffffffffffffffffffffffffff8116610946576040517f08c379a000000000000000000000000000000000000000000000000000000000815260040161016090610ac0565b6000805460405173ffffffffffffffffffffffffffffffffffffffff808516939216917f8be0079c531659141344cd1fd0a4f28419497f9722a3daafe3b4186f6b6457e091a3600080547fffffffffffffffffffffffff00000000000000000000000000000000000000001673ffffffffffffffffffffffffffffffffffffffff92909216919091179055565b3390565b6000602082840312156109e8578081fd5b81356109f381610bf7565b9392505050565b600060208284031215610a0b578081fd5b81516109f381610bf7565b60008060408385031215610a28578081fd5b8235610a3381610bf7565b946020939093013593505050565b600060208284031215610a52578081fd5b815180151581146109f3578182fd5b600060208284031215610a72578081fd5b5051919050565b73ffffffffffffffffffffffffffffffffffffffff91909116815260200190565b73ffffffffffffffffffffffffffffffffffffffff929092168252602082015260400190565b60208082526026908201527f4f776e61626c653a206e6577206f776e657220697320746865207a65726f206160408201527f6464726573730000000000000000000000000000000000000000000000000000606082015260800190565b6020808252601f908201527f6e6f74206120747265617375727920636c61696d616e74206164647265737300604082015260600190565b6020808252818101527f4f776e61626c653a2063616c6c6572206973206e6f7420746865206f776e6572604082015260600190565b6020808252601b908201527f6e6f20747265617375727920726577617264732062616c616e63650000000000604082015260600190565b6020808252600f908201527f7472616e73666572206661696c65640000000000000000000000000000000000604082015260600190565b73ffffffffffffffffffffffffffffffffffffffff8116811461086757600080fdfea2646970667358221220e8badb3416e18fd015669b7c5882b2f226444c4025faec4d4602f4411a56d35964736f6c63430008000033",
  "immutableReferences": {},
  "source": "/*                              $$\\                                             $$\\                                                         \n                                $$ |                                            $$ |                                                  \n$$$$$$$\\   $$$$$$\\   $$$$$$$\\ $$$$$$\\   $$\\   $$\\  $$$$$$\\  $$$$$$$\\   $$$$$$\\  $$ |     \n$$  __$$\\ $$  __$$\\ $$  _____|\\_$$  _|  $$ |  $$ |$$  __$$\\ $$  __$$\\  \\____$$\\ $$ |    \n$$ |  $$ |$$ /  $$ |$$ /        $$ |    $$ |  $$ |$$ |  \\__|$$ |  $$ | $$$$$$$ |$$ |     \n$$ |  $$ |$$ |  $$ |$$ |        $$ |$$\\ $$ |  $$ |$$ |      $$ |  $$ |$$  __$$ |$$ |     \n$$ |  $$ |\\$$$$$$  |\\$$$$$$$\\   \\$$$$  |\\$$$$$$  |$$ |      $$ |  $$ |\\$$$$$$$ |$$ |      \n\\__|  \\__| \\______/  \\_______|   \\____/  \\______/ \\__|      \\__|  \\__| \\_______|\\__|     \n*/\n\npragma solidity ^0.8.0;\n\nimport \"@openzeppelin/contracts/utils/math/SafeMath.sol\";\nimport \"@openzeppelin/contracts/access/Ownable.sol\";\n\nimport {NocturnalFinanceInterface} from \"./Interfaces/NocturnalFinanceInterface.sol\";\nimport {NoctInterface} from \"./Interfaces/NoctInterface.sol\";\n\ncontract Treasury is Ownable {\n    using SafeMath for uint256;\n\n    mapping(address => bool) treasuryClaimant; // addresses with treasury allocation\n    mapping(address => uint256) treasuryBalance; // current balance considering treasury allocation (need mechanism similar to NoctStaking.sol)\n    mapping(address => uint256) treasuryFactor; // percentage of treasury allocated to claimant\n    \n    NocturnalFinanceInterface public nocturnalFinance;\n    \n    constructor(address _nocturnalFinance) {\n        nocturnalFinance = NocturnalFinanceInterface(_nocturnalFinance);\n    }\n    \n    function transferTreasury(address _recipient) external onlyOwner {\n        require(NoctInterface(nocturnalFinance.noctAddress()).transfer(_recipient, NoctInterface(nocturnalFinance.noctAddress()).balanceOf(address(this))), \"transfer failed\");\n    }\n    \n    function addTreasuryClaimant(address _claimant) external onlyOwner {\n        treasuryClaimant[_claimant] == true;\n    }\n    \n    function setClaimantFactor(address _claimant, uint _factorBasisPoints) external onlyOwner {\n        treasuryFactor[_claimant] = _factorBasisPoints;\n    }\n    \n    function claimTreasuryRewards() external {\n        require(treasuryClaimant[msg.sender] == true, \"not a treasury claimant address\");\n        require(treasuryBalance[msg.sender] > 0, \"no treasury rewards balance\");\n        require(NoctInterface(nocturnalFinance.noctAddress()).transfer(msg.sender, treasuryBalance[msg.sender]), \"transfer failed\");\n    }    \n}\n",
  "sourcePath": "/Users/knott/Desktop/nocturnal/contracts/Treasury.sol",
  "compiler": {
    "name": "solc",
    "version": "0.8.0+commit.c7dfd78e.Emscripten.clang"
  },
  "schemaVersion": "3.3.3",
  "updatedAt": "2021-05-20T06:19:55.988Z",
  "devdoc": {
    "kind": "dev",
    "methods": {
      "owner()": {
        "details": "Returns the address of the current owner."
      },
      "renounceOwnership()": {
        "details": "Leaves the contract without owner. It will not be possible to call `onlyOwner` functions anymore. Can only be called by the current owner. NOTE: Renouncing ownership will leave the contract without an owner, thereby removing any functionality that is only available to the owner."
      },
      "transferOwnership(address)": {
        "details": "Transfers ownership of the contract to a new account (`newOwner`). Can only be called by the current owner."
      }
    },
    "version": 1
  },
  "userdoc": {
    "kind": "user",
    "methods": {},
    "version": 1
  }
}