{
  "contractName": "Treasury",
  "abi": [
    {
      "inputs": [
        {
          "internalType": "address",
          "name": "_nocturnalFinance",
          "type": "address"
        }
      ],
      "stateMutability": "nonpayable",
      "type": "constructor"
    },
    {
      "anonymous": false,
      "inputs": [
        {
          "indexed": true,
          "internalType": "address",
          "name": "previousOwner",
          "type": "address"
        },
        {
          "indexed": true,
          "internalType": "address",
          "name": "newOwner",
          "type": "address"
        }
      ],
      "name": "OwnershipTransferred",
      "type": "event"
    },
    {
      "inputs": [],
      "name": "nocturnalFinance",
      "outputs": [
        {
          "internalType": "contract NocturnalFinanceInterface",
          "name": "",
          "type": "address"
        }
      ],
      "stateMutability": "view",
      "type": "function",
      "constant": true
    },
    {
      "inputs": [],
      "name": "owner",
      "outputs": [
        {
          "internalType": "address",
          "name": "",
          "type": "address"
        }
      ],
      "stateMutability": "view",
      "type": "function",
      "constant": true
    },
    {
      "inputs": [],
      "name": "renounceOwnership",
      "outputs": [],
      "stateMutability": "nonpayable",
      "type": "function"
    },
    {
      "inputs": [
        {
          "internalType": "address",
          "name": "newOwner",
          "type": "address"
        }
      ],
      "name": "transferOwnership",
      "outputs": [],
      "stateMutability": "nonpayable",
      "type": "function"
    },
    {
      "inputs": [
        {
          "internalType": "address",
          "name": "",
          "type": "address"
        }
      ],
      "name": "treasuryBalance",
      "outputs": [
        {
          "internalType": "uint256",
          "name": "",
          "type": "uint256"
        }
      ],
      "stateMutability": "view",
      "type": "function",
      "constant": true
    },
    {
      "inputs": [
        {
          "internalType": "address",
          "name": "_claimant",
          "type": "address"
        },
        {
          "internalType": "uint256",
          "name": "_balance",
          "type": "uint256"
        }
      ],
      "name": "setClaimantBalance",
      "outputs": [],
      "stateMutability": "nonpayable",
      "type": "function"
    },
    {
      "inputs": [],
      "name": "claimTreasuryBalance",
      "outputs": [],
      "stateMutability": "nonpayable",
      "type": "function"
    }
  ],
  "bytecode": "0x608060405234801561001057600080fd5b5060405161093638038061093683398101604081905261002f916100b6565b60006100396100b2565b600080546001600160a01b0319166001600160a01b0383169081178255604051929350917f8be0079c531659141344cd1fd0a4f28419497f9722a3daafe3b4186f6b6457e0908290a350600180546001600160a01b039092166001600160a01b03199283168117909155600380549092161790556100e4565b3390565b6000602082840312156100c7578081fd5b81516001600160a01b03811681146100dd578182fd5b9392505050565b610843806100f36000396000f3fe608060405234801561001057600080fd5b506004361061007d5760003560e01c8063715018a61161005b578063715018a6146100c85780638da5cb5b146100d0578063ee64deab146100e5578063f2fde38b146100ed5761007d565b80631d6b34f714610082578063441950341461008c57806354445ae61461009f575b600080fd5b61008a610100565b005b61008a61009a36600461064d565b6102f5565b6100b26100ad36600461060e565b610391565b6040516100bf91906106df565b60405180910390f35b61008a6103a3565b6100d8610485565b6040516100bf9190610698565b6100d86104a1565b61008a6100fb36600461060e565b6104bd565b3360009081526002602052604090205461014f576040517f08c379a00000000000000000000000000000000000000000000000000000000081526004016101469061077a565b60405180910390fd5b6003546040517f8bf83b0400000000000000000000000000000000000000000000000000000000815273ffffffffffffffffffffffffffffffffffffffff90911690638bf83b04906101a690600c906004016106df565b60206040518083038186803b1580156101be57600080fd5b505afa1580156101d2573d6000803e3d6000fd5b505050506040513d601f19601f820116820180604052508101906101f69190610631565b33600081815260026020526040908190205490517fa9059cbb00000000000000000000000000000000000000000000000000000000815273ffffffffffffffffffffffffffffffffffffffff939093169263a9059cbb9261025b9290916004016106b9565b602060405180830381600087803b15801561027557600080fd5b505af1158015610289573d6000803e3d6000fd5b505050506040513d601f19601f820116820180604052508101906102ad9190610678565b6102e3576040517f08c379a0000000000000000000000000000000000000000000000000000000008152600401610146906107b1565b33600090815260026020526040812055565b6102fd61060a565b73ffffffffffffffffffffffffffffffffffffffff1661031b610485565b73ffffffffffffffffffffffffffffffffffffffff1614610368576040517f08c379a000000000000000000000000000000000000000000000000000000000815260040161014690610745565b73ffffffffffffffffffffffffffffffffffffffff909116600090815260026020526040902055565b60026020526000908152604090205481565b6103ab61060a565b73ffffffffffffffffffffffffffffffffffffffff166103c9610485565b73ffffffffffffffffffffffffffffffffffffffff1614610416576040517f08c379a000000000000000000000000000000000000000000000000000000000815260040161014690610745565b6000805460405173ffffffffffffffffffffffffffffffffffffffff909116907f8be0079c531659141344cd1fd0a4f28419497f9722a3daafe3b4186f6b6457e0908390a3600080547fffffffffffffffffffffffff0000000000000000000000000000000000000000169055565b60005473ffffffffffffffffffffffffffffffffffffffff1690565b60035473ffffffffffffffffffffffffffffffffffffffff1681565b6104c561060a565b73ffffffffffffffffffffffffffffffffffffffff166104e3610485565b73ffffffffffffffffffffffffffffffffffffffff1614610530576040517f08c379a000000000000000000000000000000000000000000000000000000000815260040161014690610745565b73ffffffffffffffffffffffffffffffffffffffff811661057d576040517f08c379a0000000000000000000000000000000000000000000000000000000008152600401610146906106e8565b6000805460405173ffffffffffffffffffffffffffffffffffffffff808516939216917f8be0079c531659141344cd1fd0a4f28419497f9722a3daafe3b4186f6b6457e091a3600080547fffffffffffffffffffffffff00000000000000000000000000000000000000001673ffffffffffffffffffffffffffffffffffffffff92909216919091179055565b3390565b60006020828403121561061f578081fd5b813561062a816107e8565b9392505050565b600060208284031215610642578081fd5b815161062a816107e8565b6000806040838503121561065f578081fd5b823561066a816107e8565b946020939093013593505050565b600060208284031215610689578081fd5b8151801515811461062a578182fd5b73ffffffffffffffffffffffffffffffffffffffff91909116815260200190565b73ffffffffffffffffffffffffffffffffffffffff929092168252602082015260400190565b90815260200190565b60208082526026908201527f4f776e61626c653a206e6577206f776e657220697320746865207a65726f206160408201527f6464726573730000000000000000000000000000000000000000000000000000606082015260800190565b6020808252818101527f4f776e61626c653a2063616c6c6572206973206e6f7420746865206f776e6572604082015260600190565b6020808252601d908201527f696e73756666696369656e742074726561737572792062616c616e6365000000604082015260600190565b6020808252600f908201527f7472616e73666572206661696c65640000000000000000000000000000000000604082015260600190565b73ffffffffffffffffffffffffffffffffffffffff8116811461080a57600080fd5b5056fea2646970667358221220b53d457d53b842522e583e52067ee81b4d7412bd0a73b3538e56713dfed2fc9464736f6c63430008000033",
  "immutableReferences": {},
  "source": "/*                              $$\\                                             $$\\                                                         \n                                $$ |                                            $$ |                                                  \n$$$$$$$\\   $$$$$$\\   $$$$$$$\\ $$$$$$\\   $$\\   $$\\  $$$$$$\\  $$$$$$$\\   $$$$$$\\  $$ |     \n$$  __$$\\ $$  __$$\\ $$  _____|\\_$$  _|  $$ |  $$ |$$  __$$\\ $$  __$$\\  \\____$$\\ $$ |    \n$$ |  $$ |$$ /  $$ |$$ /        $$ |    $$ |  $$ |$$ |  \\__|$$ |  $$ | $$$$$$$ |$$ |     \n$$ |  $$ |$$ |  $$ |$$ |        $$ |$$\\ $$ |  $$ |$$ |      $$ |  $$ |$$  __$$ |$$ |     \n$$ |  $$ |\\$$$$$$  |\\$$$$$$$\\   \\$$$$  |\\$$$$$$  |$$ |      $$ |  $$ |\\$$$$$$$ |$$ |      \n\\__|  \\__| \\______/  \\_______|   \\____/  \\______/ \\__|      \\__|  \\__| \\_______|\\__|     \n*/\n\npragma solidity ^0.8.0;\n\nimport \"@openzeppelin/contracts/utils/math/SafeMath.sol\";\nimport \"@openzeppelin/contracts/access/Ownable.sol\";\nimport \"@openzeppelin/contracts/token/ERC20/IERC20.sol\";\nimport {NocturnalFinanceInterface} from \"./Interfaces/NocturnalFinanceInterface.sol\";\nimport {NoctInterface} from \"./Interfaces/NoctInterface.sol\";\nimport {NoctStakingInterface} from \"./Interfaces/NoctStakingInterface.sol\";\n\ncontract Treasury is Ownable {\n    using SafeMath for uint256;\n\n    address nocturnalFinanceAddress;\n    \n    mapping(address => uint256) public treasuryBalance;\n    \n    NocturnalFinanceInterface public nocturnalFinance;\n    \n    constructor(address _nocturnalFinance) {\n        nocturnalFinanceAddress = _nocturnalFinance;\n        nocturnalFinance = NocturnalFinanceInterface(_nocturnalFinance);\n    }\n    \n    function setClaimantBalance(address _claimant, uint _balance) external onlyOwner {\n        treasuryBalance[_claimant] = _balance;\n    }\n    \n    function claimTreasuryBalance() external {\n        require(treasuryBalance[msg.sender] > 0, \"insufficient treasury balance\");\n        require(NoctInterface(nocturnalFinance._contract(12)).transfer(msg.sender, treasuryBalance[msg.sender]), \"transfer failed\");\n        treasuryBalance[msg.sender] = 0;\n    }      \n}\n",
  "sourcePath": "/Users/knott/Desktop/nocturnal/contracts/Treasury.sol",
  "compiler": {
    "name": "solc",
    "version": "0.8.0+commit.c7dfd78e.Emscripten.clang"
  },
  "schemaVersion": "3.3.3",
  "updatedAt": "2021-06-13T21:00:46.695Z",
  "networkType": "ethereum",
  "devdoc": {
    "kind": "dev",
    "methods": {
      "owner()": {
        "details": "Returns the address of the current owner."
      },
      "renounceOwnership()": {
        "details": "Leaves the contract without owner. It will not be possible to call `onlyOwner` functions anymore. Can only be called by the current owner. NOTE: Renouncing ownership will leave the contract without an owner, thereby removing any functionality that is only available to the owner."
      },
      "transferOwnership(address)": {
        "details": "Transfers ownership of the contract to a new account (`newOwner`). Can only be called by the current owner."
      }
    },
    "version": 1
  },
  "userdoc": {
    "kind": "user",
    "methods": {},
    "version": 1
  }
}