{
  "contractName": "Treasury",
  "abi": [
    {
      "inputs": [
        {
          "internalType": "address",
          "name": "_nocturnalFinance",
          "type": "address"
        },
        {
          "internalType": "uint256",
          "name": "_rewardsSupply",
          "type": "uint256"
        },
        {
          "internalType": "uint256",
          "name": "_initialSupply",
          "type": "uint256"
        }
      ],
      "stateMutability": "nonpayable",
      "type": "constructor"
    },
    {
      "anonymous": false,
      "inputs": [
        {
          "indexed": true,
          "internalType": "address",
          "name": "previousOwner",
          "type": "address"
        },
        {
          "indexed": true,
          "internalType": "address",
          "name": "newOwner",
          "type": "address"
        }
      ],
      "name": "OwnershipTransferred",
      "type": "event"
    },
    {
      "inputs": [],
      "name": "nocturnalFinance",
      "outputs": [
        {
          "internalType": "contract NocturnalFinanceInterface",
          "name": "",
          "type": "address"
        }
      ],
      "stateMutability": "view",
      "type": "function",
      "constant": true
    },
    {
      "inputs": [],
      "name": "owner",
      "outputs": [
        {
          "internalType": "address",
          "name": "",
          "type": "address"
        }
      ],
      "stateMutability": "view",
      "type": "function",
      "constant": true
    },
    {
      "inputs": [],
      "name": "renounceOwnership",
      "outputs": [],
      "stateMutability": "nonpayable",
      "type": "function"
    },
    {
      "inputs": [
        {
          "internalType": "address",
          "name": "newOwner",
          "type": "address"
        }
      ],
      "name": "transferOwnership",
      "outputs": [],
      "stateMutability": "nonpayable",
      "type": "function"
    },
    {
      "inputs": [],
      "name": "approveStaking",
      "outputs": [],
      "stateMutability": "nonpayable",
      "type": "function"
    },
    {
      "inputs": [
        {
          "internalType": "address",
          "name": "_claimant",
          "type": "address"
        },
        {
          "internalType": "uint256",
          "name": "_balance",
          "type": "uint256"
        }
      ],
      "name": "setClaimantBalance",
      "outputs": [],
      "stateMutability": "nonpayable",
      "type": "function"
    },
    {
      "inputs": [],
      "name": "claimTreasuryBalance",
      "outputs": [],
      "stateMutability": "nonpayable",
      "type": "function"
    },
    {
      "inputs": [],
      "name": "stakeTreasuryBalance",
      "outputs": [],
      "stateMutability": "nonpayable",
      "type": "function"
    }
  ],
  "bytecode": "0x608060405234801561001057600080fd5b50604051610db1380380610db183398101604081905261002f916100e5565b60006100396100ce565b600080546001600160a01b0319166001600160a01b0383169081178255604051929350917f8be0079c531659141344cd1fd0a4f28419497f9722a3daafe3b4186f6b6457e0908290a35061009a81836100d260201b6109a21790919060201c565b6001555050600280546001600160a01b039092166001600160a01b031992831681179091556004805490921617905561014a565b3390565b60006100de8284610126565b9392505050565b6000806000606084860312156100f9578283fd5b83516001600160a01b038116811461010f578384fd5b602085015160409095015190969495509392505050565b6000821982111561014557634e487b7160e01b81526011600452602481fd5b500190565b610c58806101596000396000f3fe608060405234801561001057600080fd5b50600436106100885760003560e01c80638da5cb5b1161005b5780638da5cb5b146100ba578063b29c2ba8146100d8578063ee64deab146100e0578063f2fde38b146100e857610088565b8063029a93e91461008d5780631d6b34f714610097578063441950341461009f578063715018a6146100b2575b600080fd5b6100956100fb565b005b61009561031f565b6100956100ad3660046109f1565b61050a565b6100956105a6565b6100c2610688565b6040516100cf9190610a3c565b60405180910390f35b6100956106a4565b6100c2610839565b6100956100f63660046109b9565b610855565b60025473ffffffffffffffffffffffffffffffffffffffff163314610155576040517f08c379a000000000000000000000000000000000000000000000000000000000815260040161014c90610b55565b60405180910390fd5b600480546040517f8bf83b0400000000000000000000000000000000000000000000000000000000815273ffffffffffffffffffffffffffffffffffffffff90911691638bf83b04916101ab91600c9101610a83565b60206040518083038186803b1580156101c357600080fd5b505afa1580156101d7573d6000803e3d6000fd5b505050506040513d601f19601f820116820180604052508101906101fb91906109d5565b600480546040517f8bf83b0400000000000000000000000000000000000000000000000000000000815273ffffffffffffffffffffffffffffffffffffffff9384169363095ea7b393921691638bf83b049161025a9160009101610a83565b60206040518083038186803b15801561027257600080fd5b505afa158015610286573d6000803e3d6000fd5b505050506040513d601f19601f820116820180604052508101906102aa91906109d5565b6001546040518363ffffffff1660e01b81526004016102ca929190610a5d565b602060405180830381600087803b1580156102e457600080fd5b505af11580156102f8573d6000803e3d6000fd5b505050506040513d601f19601f8201168201806040525081019061031c9190610a1c565b50565b33600090815260036020526040902054610365576040517f08c379a000000000000000000000000000000000000000000000000000000000815260040161014c90610b1e565b600480546040517f8bf83b0400000000000000000000000000000000000000000000000000000000815273ffffffffffffffffffffffffffffffffffffffff90911691638bf83b04916103bb91600c9101610a83565b60206040518083038186803b1580156103d357600080fd5b505afa1580156103e7573d6000803e3d6000fd5b505050506040513d601f19601f8201168201806040525081019061040b91906109d5565b33600081815260036020526040908190205490517fa9059cbb00000000000000000000000000000000000000000000000000000000815273ffffffffffffffffffffffffffffffffffffffff939093169263a9059cbb92610470929091600401610a5d565b602060405180830381600087803b15801561048a57600080fd5b505af115801561049e573d6000803e3d6000fd5b505050506040513d601f19601f820116820180604052508101906104c29190610a1c565b6104f8576040517f08c379a000000000000000000000000000000000000000000000000000000000815260040161014c90610b8c565b33600090815260036020526040812055565b6105126109b5565b73ffffffffffffffffffffffffffffffffffffffff16610530610688565b73ffffffffffffffffffffffffffffffffffffffff161461057d576040517f08c379a000000000000000000000000000000000000000000000000000000000815260040161014c90610ae9565b73ffffffffffffffffffffffffffffffffffffffff909116600090815260036020526040902055565b6105ae6109b5565b73ffffffffffffffffffffffffffffffffffffffff166105cc610688565b73ffffffffffffffffffffffffffffffffffffffff1614610619576040517f08c379a000000000000000000000000000000000000000000000000000000000815260040161014c90610ae9565b6000805460405173ffffffffffffffffffffffffffffffffffffffff909116907f8be0079c531659141344cd1fd0a4f28419497f9722a3daafe3b4186f6b6457e0908390a3600080547fffffffffffffffffffffffff0000000000000000000000000000000000000000169055565b60005473ffffffffffffffffffffffffffffffffffffffff1690565b336000908152600360205260409020546106ea576040517f08c379a000000000000000000000000000000000000000000000000000000000815260040161014c90610b1e565b600480546040517f8bf83b0400000000000000000000000000000000000000000000000000000000815273ffffffffffffffffffffffffffffffffffffffff90911691638bf83b04916107409160009101610a83565b60206040518083038186803b15801561075857600080fd5b505afa15801561076c573d6000803e3d6000fd5b505050506040513d601f19601f8201168201806040525081019061079091906109d5565b33600081815260036020526040908190205490517fbaffb69f00000000000000000000000000000000000000000000000000000000815273ffffffffffffffffffffffffffffffffffffffff939093169263baffb69f926107f5929091600401610a5d565b600060405180830381600087803b15801561080f57600080fd5b505af1158015610823573d6000803e3d6000fd5b5050336000908152600360205260408120555050565b60045473ffffffffffffffffffffffffffffffffffffffff1681565b61085d6109b5565b73ffffffffffffffffffffffffffffffffffffffff1661087b610688565b73ffffffffffffffffffffffffffffffffffffffff16146108c8576040517f08c379a000000000000000000000000000000000000000000000000000000000815260040161014c90610ae9565b73ffffffffffffffffffffffffffffffffffffffff8116610915576040517f08c379a000000000000000000000000000000000000000000000000000000000815260040161014c90610a8c565b6000805460405173ffffffffffffffffffffffffffffffffffffffff808516939216917f8be0079c531659141344cd1fd0a4f28419497f9722a3daafe3b4186f6b6457e091a3600080547fffffffffffffffffffffffff00000000000000000000000000000000000000001673ffffffffffffffffffffffffffffffffffffffff92909216919091179055565b60006109ae8284610bc3565b9392505050565b3390565b6000602082840312156109ca578081fd5b81356109ae81610c00565b6000602082840312156109e6578081fd5b81516109ae81610c00565b60008060408385031215610a03578081fd5b8235610a0e81610c00565b946020939093013593505050565b600060208284031215610a2d578081fd5b815180151581146109ae578182fd5b73ffffffffffffffffffffffffffffffffffffffff91909116815260200190565b73ffffffffffffffffffffffffffffffffffffffff929092168252602082015260400190565b90815260200190565b60208082526026908201527f4f776e61626c653a206e6577206f776e657220697320746865207a65726f206160408201527f6464726573730000000000000000000000000000000000000000000000000000606082015260800190565b6020808252818101527f4f776e61626c653a2063616c6c6572206973206e6f7420746865206f776e6572604082015260600190565b6020808252601d908201527f696e73756666696369656e742074726561737572792062616c616e6365000000604082015260600190565b60208082526015908201527f6e6f74204e6f637475726e616c2046696e616e63650000000000000000000000604082015260600190565b6020808252600f908201527f7472616e73666572206661696c65640000000000000000000000000000000000604082015260600190565b60008219821115610bfb577f4e487b710000000000000000000000000000000000000000000000000000000081526011600452602481fd5b500190565b73ffffffffffffffffffffffffffffffffffffffff8116811461031c57600080fdfea2646970667358221220495fa1fdfde14d9299b1ccc524e2ab191696fb5fb4551279155fd484f6463c6e64736f6c63430008000033",
  "immutableReferences": {},
  "source": "/*                              $$\\                                             $$\\                                                         \n                                $$ |                                            $$ |                                                  \n$$$$$$$\\   $$$$$$\\   $$$$$$$\\ $$$$$$\\   $$\\   $$\\  $$$$$$\\  $$$$$$$\\   $$$$$$\\  $$ |     \n$$  __$$\\ $$  __$$\\ $$  _____|\\_$$  _|  $$ |  $$ |$$  __$$\\ $$  __$$\\  \\____$$\\ $$ |    \n$$ |  $$ |$$ /  $$ |$$ /        $$ |    $$ |  $$ |$$ |  \\__|$$ |  $$ | $$$$$$$ |$$ |     \n$$ |  $$ |$$ |  $$ |$$ |        $$ |$$\\ $$ |  $$ |$$ |      $$ |  $$ |$$  __$$ |$$ |     \n$$ |  $$ |\\$$$$$$  |\\$$$$$$$\\   \\$$$$  |\\$$$$$$  |$$ |      $$ |  $$ |\\$$$$$$$ |$$ |      \n\\__|  \\__| \\______/  \\_______|   \\____/  \\______/ \\__|      \\__|  \\__| \\_______|\\__|     \n*/\n\npragma solidity ^0.8.0;\n\nimport \"@openzeppelin/contracts/utils/math/SafeMath.sol\";\nimport \"@openzeppelin/contracts/access/Ownable.sol\";\nimport \"@openzeppelin/contracts/token/ERC20/IERC20.sol\";\nimport {NocturnalFinanceInterface} from \"./Interfaces/NocturnalFinanceInterface.sol\";\nimport {NoctInterface} from \"./Interfaces/NoctInterface.sol\";\nimport {NoctStakingInterface} from \"./Interfaces/NoctStakingInterface.sol\";\n\ncontract Treasury is Ownable {\n    using SafeMath for uint256;\n\n    uint256 totalSupply;\n    address nocturnalFinanceAddress;\n    \n    mapping(address => uint256) treasuryBalance;\n    \n    NocturnalFinanceInterface public nocturnalFinance;\n    \n    constructor(address _nocturnalFinance, uint256 _rewardsSupply, uint256 _initialSupply) {\n        totalSupply = _rewardsSupply.add(_initialSupply);\n        nocturnalFinanceAddress = _nocturnalFinance;\n        nocturnalFinance = NocturnalFinanceInterface(_nocturnalFinance);\n    }\n    \n    function approveStaking() external {\n        require(msg.sender == nocturnalFinanceAddress, \"not Nocturnal Finance\");\n        IERC20(nocturnalFinance._contract(12)).approve(nocturnalFinance._contract(0), totalSupply);\n    }\n    \n    function setClaimantBalance(address _claimant, uint _balance) external onlyOwner {\n        treasuryBalance[_claimant] = _balance;\n    }\n    \n    function claimTreasuryBalance() external {\n        require(treasuryBalance[msg.sender] > 0, \"insufficient treasury balance\");\n        require(NoctInterface(nocturnalFinance._contract(12)).transfer(msg.sender, treasuryBalance[msg.sender]), \"transfer failed\");\n        treasuryBalance[msg.sender] = 0;\n    }    \n    \n    function stakeTreasuryBalance() external {\n        require(treasuryBalance[msg.sender] > 0, \"insufficient treasury balance\");\n        NoctStakingInterface(nocturnalFinance._contract(0)).autoStake(msg.sender, treasuryBalance[msg.sender]);\n        treasuryBalance[msg.sender] = 0;\n    }   \n}\n",
  "sourcePath": "/Users/knott/Desktop/nocturnal/contracts/Treasury.sol",
  "compiler": {
    "name": "solc",
    "version": "0.8.0+commit.c7dfd78e.Emscripten.clang"
  },
  "schemaVersion": "3.3.3",
  "updatedAt": "2021-06-13T20:49:23.740Z",
  "networkType": "ethereum",
  "devdoc": {
    "kind": "dev",
    "methods": {
      "owner()": {
        "details": "Returns the address of the current owner."
      },
      "renounceOwnership()": {
        "details": "Leaves the contract without owner. It will not be possible to call `onlyOwner` functions anymore. Can only be called by the current owner. NOTE: Renouncing ownership will leave the contract without an owner, thereby removing any functionality that is only available to the owner."
      },
      "transferOwnership(address)": {
        "details": "Transfers ownership of the contract to a new account (`newOwner`). Can only be called by the current owner."
      }
    },
    "version": 1
  },
  "userdoc": {
    "kind": "user",
    "methods": {},
    "version": 1
  }
}